{
  "contractName": "CaseOpener",
  "abi": [
    {
      "inputs": [
        {
          "internalType": "address",
          "name": "_racksItems",
          "type": "address"
        },
        {
          "internalType": "address",
          "name": "vrfCoordinatorV2",
          "type": "address"
        },
        {
          "internalType": "bytes32",
          "name": "gasLane",
          "type": "bytes32"
        },
        {
          "internalType": "uint64",
          "name": "subscriptionId",
          "type": "uint64"
        },
        {
          "internalType": "uint32",
          "name": "callbackGasLimit",
          "type": "uint32"
        }
      ],
      "stateMutability": "nonpayable",
      "type": "constructor"
    },
    {
      "inputs": [
        {
          "internalType": "address",
          "name": "have",
          "type": "address"
        },
        {
          "internalType": "address",
          "name": "want",
          "type": "address"
        }
      ],
      "name": "OnlyCoordinatorCanFulfill",
      "type": "error"
    },
    {
      "inputs": [],
      "name": "NUM_WORDS",
      "outputs": [
        {
          "internalType": "uint32",
          "name": "",
          "type": "uint32"
        }
      ],
      "stateMutability": "view",
      "type": "function"
    },
    {
      "inputs": [],
      "name": "REQUEST_CONFIRMATIONS",
      "outputs": [
        {
          "internalType": "uint16",
          "name": "",
          "type": "uint16"
        }
      ],
      "stateMutability": "view",
      "type": "function"
    },
    {
      "inputs": [],
      "name": "i_callbackGasLimit",
      "outputs": [
        {
          "internalType": "uint32",
          "name": "",
          "type": "uint32"
        }
      ],
      "stateMutability": "view",
      "type": "function"
    },
    {
      "inputs": [],
      "name": "i_gasLane",
      "outputs": [
        {
          "internalType": "bytes32",
          "name": "",
          "type": "bytes32"
        }
      ],
      "stateMutability": "view",
      "type": "function"
    },
    {
      "inputs": [],
      "name": "i_subscriptionId",
      "outputs": [
        {
          "internalType": "uint64",
          "name": "",
          "type": "uint64"
        }
      ],
      "stateMutability": "view",
      "type": "function"
    },
    {
      "inputs": [],
      "name": "i_vrfCoordinator",
      "outputs": [
        {
          "internalType": "contract VRFCoordinatorV2Interface",
          "name": "",
          "type": "address"
        }
      ],
      "stateMutability": "view",
      "type": "function"
    },
    {
      "inputs": [
        {
          "internalType": "uint256",
          "name": "requestId",
          "type": "uint256"
        },
        {
          "internalType": "uint256[]",
          "name": "randomWords",
          "type": "uint256[]"
        }
      ],
      "name": "rawFulfillRandomWords",
      "outputs": [],
      "stateMutability": "nonpayable",
      "type": "function"
    },
    {
      "inputs": [
        {
          "internalType": "address",
          "name": "user",
          "type": "address"
        }
      ],
      "name": "_generate",
      "outputs": [],
      "stateMutability": "nonpayable",
      "type": "function"
    }
  ],
  "bytecode": "0x6101206040523480156200001257600080fd5b5060405162000ee238038062000ee2833981810160405281019062000038919062000251565b838073ffffffffffffffffffffffffffffffffffffffff1660808173ffffffffffffffffffffffffffffffffffffffff168152505050846000806101000a81548173ffffffffffffffffffffffffffffffffffffffff021916908373ffffffffffffffffffffffffffffffffffffffff1602179055508373ffffffffffffffffffffffffffffffffffffffff1660a08173ffffffffffffffffffffffffffffffffffffffff16815250508260c081815250508167ffffffffffffffff1660e08167ffffffffffffffff16815250508063ffffffff166101008163ffffffff16815250505050505050620002d9565b600080fd5b600073ffffffffffffffffffffffffffffffffffffffff82169050919050565b600062000158826200012b565b9050919050565b6200016a816200014b565b81146200017657600080fd5b50565b6000815190506200018a816200015f565b92915050565b6000819050919050565b620001a58162000190565b8114620001b157600080fd5b50565b600081519050620001c5816200019a565b92915050565b600067ffffffffffffffff82169050919050565b620001ea81620001cb565b8114620001f657600080fd5b50565b6000815190506200020a81620001df565b92915050565b600063ffffffff82169050919050565b6200022b8162000210565b81146200023757600080fd5b50565b6000815190506200024b8162000220565b92915050565b600080600080600060a0868803121562000270576200026f62000126565b5b6000620002808882890162000179565b9550506020620002938882890162000179565b9450506040620002a688828901620001b4565b9350506060620002b988828901620001f9565b9250506080620002cc888289016200023a565b9150509295509295909350565b60805160a05160c05160e05161010051610ba16200034160003960008181610379015261049f01526000818161023b015261035601526000818161033501526104570152600081816102f9015261047b01526000818161017b01526101cf0152610ba16000f3fe608060405234801561001057600080fd5b50600436106100885760003560e01c8063831cbb6b1161005b578063831cbb6b146101035780638e879c8a1461011f578063aebc45501461013d578063d757d0271461015b57610088565b80631fe543e31461008d578063470cdf97146100a957806367f082b0146100c757806372cf6e34146100e5575b600080fd5b6100a760048036038101906100a2919061074f565b610179565b005b6100b1610239565b6040516100be91906107ce565b60405180910390f35b6100cf61025d565b6040516100dc9190610806565b60405180910390f35b6100ed610262565b6040516100fa9190610840565b60405180910390f35b61011d600480360381019061011891906108b9565b610267565b005b610127610455565b60405161013491906108ff565b60405180910390f35b610145610479565b6040516101529190610979565b60405180910390f35b61016361049d565b6040516101709190610840565b60405180910390f35b7f000000000000000000000000000000000000000000000000000000000000000073ffffffffffffffffffffffffffffffffffffffff163373ffffffffffffffffffffffffffffffffffffffff161461022b57337f00000000000000000000000000000000000000000000000000000000000000006040517f1cf993f40000000000000000000000000000000000000000000000000000000081526004016102229291906109a3565b60405180910390fd5b61023582826104c1565b5050565b7f000000000000000000000000000000000000000000000000000000000000000081565b600381565b600181565b60008054906101000a900473ffffffffffffffffffffffffffffffffffffffff1673ffffffffffffffffffffffffffffffffffffffff163373ffffffffffffffffffffffffffffffffffffffff16146102f5576040517f08c379a00000000000000000000000000000000000000000000000000000000081526004016102ec90610a4f565b60405180910390fd5b60007f000000000000000000000000000000000000000000000000000000000000000073ffffffffffffffffffffffffffffffffffffffff16635d3b1d307f00000000000000000000000000000000000000000000000000000000000000007f000000000000000000000000000000000000000000000000000000000000000060037f000000000000000000000000000000000000000000000000000000000000000060016040518663ffffffff1660e01b81526004016103ba959493929190610a6f565b6020604051808303816000875af11580156103d9573d6000803e3d6000fd5b505050506040513d601f19601f820116820180604052508101906103fd9190610ad7565b9050816001600083815260200190815260200160002060006101000a81548173ffffffffffffffffffffffffffffffffffffffff021916908373ffffffffffffffffffffffffffffffffffffffff1602179055505050565b7f000000000000000000000000000000000000000000000000000000000000000081565b7f000000000000000000000000000000000000000000000000000000000000000081565b7f000000000000000000000000000000000000000000000000000000000000000081565b60006001600084815260200190815260200160002060009054906101000a900473ffffffffffffffffffffffffffffffffffffffff16905060008260008151811061050f5761050e610b04565b5b6020026020010151905060008054906101000a900473ffffffffffffffffffffffffffffffffffffffff1673ffffffffffffffffffffffffffffffffffffffff1663401ea50e83836040518363ffffffff1660e01b8152600401610574929190610b42565b600060405180830381600087803b15801561058e57600080fd5b505af11580156105a2573d6000803e3d6000fd5b5050505050505050565b6000604051905090565b600080fd5b600080fd5b6000819050919050565b6105d3816105c0565b81146105de57600080fd5b50565b6000813590506105f0816105ca565b92915050565b600080fd5b6000601f19601f8301169050919050565b7f4e487b7100000000000000000000000000000000000000000000000000000000600052604160045260246000fd5b610644826105fb565b810181811067ffffffffffffffff821117156106635761066261060c565b5b80604052505050565b60006106766105ac565b9050610682828261063b565b919050565b600067ffffffffffffffff8211156106a2576106a161060c565b5b602082029050602081019050919050565b600080fd5b60006106cb6106c684610687565b61066c565b905080838252602082019050602084028301858111156106ee576106ed6106b3565b5b835b81811015610717578061070388826105e1565b8452602084019350506020810190506106f0565b5050509392505050565b600082601f830112610736576107356105f6565b5b81356107468482602086016106b8565b91505092915050565b60008060408385031215610766576107656105b6565b5b6000610774858286016105e1565b925050602083013567ffffffffffffffff811115610795576107946105bb565b5b6107a185828601610721565b9150509250929050565b600067ffffffffffffffff82169050919050565b6107c8816107ab565b82525050565b60006020820190506107e360008301846107bf565b92915050565b600061ffff82169050919050565b610800816107e9565b82525050565b600060208201905061081b60008301846107f7565b92915050565b600063ffffffff82169050919050565b61083a81610821565b82525050565b60006020820190506108556000830184610831565b92915050565b600073ffffffffffffffffffffffffffffffffffffffff82169050919050565b60006108868261085b565b9050919050565b6108968161087b565b81146108a157600080fd5b50565b6000813590506108b38161088d565b92915050565b6000602082840312156108cf576108ce6105b6565b5b60006108dd848285016108a4565b91505092915050565b6000819050919050565b6108f9816108e6565b82525050565b600060208201905061091460008301846108f0565b92915050565b6000819050919050565b600061093f61093a6109358461085b565b61091a565b61085b565b9050919050565b600061095182610924565b9050919050565b600061096382610946565b9050919050565b61097381610958565b82525050565b600060208201905061098e600083018461096a565b92915050565b61099d8161087b565b82525050565b60006040820190506109b86000830185610994565b6109c56020830184610994565b9392505050565b600082825260208201905092915050565b7f546869732066756e6374696f6e206973207370656369616c6c7920726573657260008201527f76656420666f7220746865206d61696e20636f6e74726163742e000000000000602082015250565b6000610a39603a836109cc565b9150610a44826109dd565b604082019050919050565b60006020820190508181036000830152610a6881610a2c565b9050919050565b600060a082019050610a8460008301886108f0565b610a9160208301876107bf565b610a9e60408301866107f7565b610aab6060830185610831565b610ab86080830184610831565b9695505050505050565b600081519050610ad1816105ca565b92915050565b600060208284031215610aed57610aec6105b6565b5b6000610afb84828501610ac2565b91505092915050565b7f4e487b7100000000000000000000000000000000000000000000000000000000600052603260045260246000fd5b610b3c816105c0565b82525050565b6000604082019050610b576000830185610994565b610b646020830184610b33565b939250505056fea2646970667358221220f1a7466293d879b2d83700dd235491629b2b9b9476fc0c77885be7ac2e32406c64736f6c634300080a0033",
  "immutableReferences": {
    "10": [
      {
        "length": 32,
        "start": 379
      },
      {
        "length": 32,
        "start": 463
      }
    ],
    "2822": [
      {
        "length": 32,
        "start": 761
      },
      {
        "length": 32,
        "start": 1147
      }
    ],
    "2824": [
      {
        "length": 32,
        "start": 821
      },
      {
        "length": 32,
        "start": 1111
      }
    ],
    "2826": [
      {
        "length": 32,
        "start": 571
      },
      {
        "length": 32,
        "start": 854
      }
    ],
    "2828": [
      {
        "length": 32,
        "start": 889
      },
      {
        "length": 32,
        "start": 1183
      }
    ]
  },
  "source": "// SPDX-License-Identifier: MIT\r\npragma solidity ^0.8.0;\r\nimport \"./IRacksItems.sol\";\r\nimport \"./ICaseOpener.sol\";\r\nimport \"@chainlink/contracts/src/v0.8/VRFConsumerBaseV2.sol\";   \r\nimport \"@chainlink/contracts/src/v0.8/interfaces/VRFCoordinatorV2Interface.sol\"; \r\n// 0xbd13f08b8352A3635218ab9418E340c60d6Eb418\r\n// 0x121a143066e0f2f08b620784af77cccb35c6242460b4a8ee251b4b416abaebd4\r\ncontract CaseOpener is ICaseOpener , VRFConsumerBaseV2{\r\n\r\n   \r\n    IRacksItems RacksItems;\r\n    VRFCoordinatorV2Interface public immutable i_vrfCoordinator; \r\n    bytes32 public immutable i_gasLane;\r\n    uint64 public immutable i_subscriptionId;\r\n    uint32 public immutable i_callbackGasLimit;\r\n    uint16 public constant REQUEST_CONFIRMATIONS = 3; \r\n    uint32 public constant NUM_WORDS = 1; \r\n\r\n\r\n    mapping (uint => address) private s_requestIdOfUser; // maps each requestId to the user that made it\r\n\r\n    modifier notForUsers(){\r\n        require(msg.sender==address(RacksItems),\"This function is specially reserved for the main contract.\");\r\n        _;\r\n    }\r\n    \r\n    constructor(address _racksItems,address vrfCoordinatorV2, bytes32 gasLane, uint64 subscriptionId, uint32 callbackGasLimit)VRFConsumerBaseV2(vrfCoordinatorV2){\r\n        RacksItems = IRacksItems(_racksItems);\r\n        /**\r\n        * Initialization of Chainlink VRF variables\r\n        */\r\n        i_vrfCoordinator = VRFCoordinatorV2Interface(vrfCoordinatorV2); \r\n        i_gasLane = gasLane; \r\n        i_subscriptionId = subscriptionId;\r\n        i_callbackGasLimit = callbackGasLimit;    \r\n\r\n    }   \r\n  \r\n    /**\r\n    * @notice Function used to 'open a case' and get an item\r\n    * @dev Saves thr requestId made to ChainlinkVRF in order to identify the user later\r\n    */\r\n\r\n    function _generate(address user) external override notForUsers{ \r\n\r\n        uint requestId = i_vrfCoordinator.requestRandomWords(i_gasLane, i_subscriptionId, REQUEST_CONFIRMATIONS, i_callbackGasLimit, NUM_WORDS);\r\n        s_requestIdOfUser[requestId] = user;\r\n\r\n        \r\n       \r\n       \r\n    }\r\n\r\n    \r\n     /**\r\n    * @notice Used to get an actually Random Number -> to pick an item when openning a case\r\n    * @dev Uses Chainlink VRF -> When the oracle returns the random number back calls the main contract passing the random number and the user that made the call\r\n    * The main contract will then pick the item the user won based on the random number and will send it to him.\r\n    * set as internal because is going to be called only when a case is opened\r\n    */\r\n\r\n    function fulfillRandomWords(uint256 requestId, uint256[] memory randomWords) internal override {\r\n        address recipient = s_requestIdOfUser[requestId];\r\n        uint randomNumber = randomWords[0];\r\n        RacksItems.fulfillCaseRequest(recipient, randomNumber); \r\n    }\r\n\r\n}",
  "sourcePath": "C:\\Users\\oteri\\Desktop\\racs-items\\racks-items-frontend\\contracts\\CaseOpener.sol",
  "compiler": {
    "name": "solc",
    "version": "0.8.10+commit.fc410830.Emscripten.clang"
  },
  "schemaVersion": "3.4.3",
  "updatedAt": "2022-07-21T22:02:36.717Z",
  "devdoc": {
    "kind": "dev",
    "methods": {
      "_generate(address)": {
        "details": "Saves thr requestId made to ChainlinkVRF in order to identify the user later"
      }
    },
    "version": 1
  },
  "userdoc": {
    "kind": "user",
    "methods": {
      "_generate(address)": {
        "notice": "Function used to 'open a case' and get an item"
      }
    },
    "version": 1
  }
}