{
  "_format": "hh-sol-artifact-1",
  "contractName": "caseOpener",
  "sourceName": "contracts/CaseOpener.sol",
  "abi": [
    {
      "inputs": [
        {
          "internalType": "address",
          "name": "_racksItems",
          "type": "address"
        },
        {
          "internalType": "address",
          "name": "vrfCoordinatorV2",
          "type": "address"
        },
        {
          "internalType": "bytes32",
          "name": "gasLane",
          "type": "bytes32"
        },
        {
          "internalType": "uint64",
          "name": "subscriptionId",
          "type": "uint64"
        },
        {
          "internalType": "uint32",
          "name": "callbackGasLimit",
          "type": "uint32"
        }
      ],
      "stateMutability": "nonpayable",
      "type": "constructor"
    },
    {
      "inputs": [
        {
          "internalType": "address",
          "name": "have",
          "type": "address"
        },
        {
          "internalType": "address",
          "name": "want",
          "type": "address"
        }
      ],
      "name": "OnlyCoordinatorCanFulfill",
      "type": "error"
    },
    {
      "inputs": [],
      "name": "NUM_WORDS",
      "outputs": [
        {
          "internalType": "uint32",
          "name": "",
          "type": "uint32"
        }
      ],
      "stateMutability": "view",
      "type": "function"
    },
    {
      "inputs": [],
      "name": "REQUEST_CONFIRMATIONS",
      "outputs": [
        {
          "internalType": "uint16",
          "name": "",
          "type": "uint16"
        }
      ],
      "stateMutability": "view",
      "type": "function"
    },
    {
      "inputs": [
        {
          "internalType": "address",
          "name": "user",
          "type": "address"
        }
      ],
      "name": "_generate",
      "outputs": [],
      "stateMutability": "nonpayable",
      "type": "function"
    },
    {
      "inputs": [],
      "name": "i_callbackGasLimit",
      "outputs": [
        {
          "internalType": "uint32",
          "name": "",
          "type": "uint32"
        }
      ],
      "stateMutability": "view",
      "type": "function"
    },
    {
      "inputs": [],
      "name": "i_gasLane",
      "outputs": [
        {
          "internalType": "bytes32",
          "name": "",
          "type": "bytes32"
        }
      ],
      "stateMutability": "view",
      "type": "function"
    },
    {
      "inputs": [],
      "name": "i_subscriptionId",
      "outputs": [
        {
          "internalType": "uint64",
          "name": "",
          "type": "uint64"
        }
      ],
      "stateMutability": "view",
      "type": "function"
    },
    {
      "inputs": [],
      "name": "i_vrfCoordinator",
      "outputs": [
        {
          "internalType": "contract VRFCoordinatorV2Interface",
          "name": "",
          "type": "address"
        }
      ],
      "stateMutability": "view",
      "type": "function"
    },
    {
      "inputs": [
        {
          "internalType": "uint256",
          "name": "requestId",
          "type": "uint256"
        },
        {
          "internalType": "uint256[]",
          "name": "randomWords",
          "type": "uint256[]"
        }
      ],
      "name": "rawFulfillRandomWords",
      "outputs": [],
      "stateMutability": "nonpayable",
      "type": "function"
    },
    {
      "inputs": [],
      "name": "s_randomWord",
      "outputs": [
        {
          "internalType": "uint256",
          "name": "",
          "type": "uint256"
        }
      ],
      "stateMutability": "view",
      "type": "function"
    }
  ],
  "bytecode": "0x61012060405234801561001157600080fd5b506040516107f83803806107f8833981016040819052610030916100b4565b60609390931b6001600160601b0319166080819052600080546001600160a01b0319166001600160a01b03969096169590951790945560a09390935260c09081529190911b6001600160c01b03191660e09081521b6001600160e01b0319166101005261012f565b80516001600160a01b03811681146100af57600080fd5b919050565b600080600080600060a086880312156100cc57600080fd5b6100d586610098565b94506100e360208701610098565b6040870151606088015191955093506001600160401b038116811461010757600080fd5b608087015190925063ffffffff8116811461012157600080fd5b809150509295509295909350565b60805160601c60a05160601c60c05160e05160c01c6101005160e01c6106576101a1600039600081816101a6015261034f01526000818160a2015261031c01526000818161013201526102ed01526000818161016701526103800152600081816101dc015261021e01526106576000f3fe608060405234801561001057600080fd5b50600436106100835760003560e01c80631fe543e314610088578063470cdf971461009d57806367f082b0146100e257806372cf6e34146100fd578063831cbb6b1461011a5780638e879c8a1461012d578063aebc455014610162578063d757d027146101a1578063fd210fd9146101c8575b600080fd5b61009b610096366004610524565b6101d1565b005b6100c47f000000000000000000000000000000000000000000000000000000000000000081565b60405167ffffffffffffffff90911681526020015b60405180910390f35b6100ea600381565b60405161ffff90911681526020016100d9565b610105600281565b60405163ffffffff90911681526020016100d9565b61009b6101283660046104db565b61025e565b6101547f000000000000000000000000000000000000000000000000000000000000000081565b6040519081526020016100d9565b6101897f000000000000000000000000000000000000000000000000000000000000000081565b6040516001600160a01b0390911681526020016100d9565b6101057f000000000000000000000000000000000000000000000000000000000000000081565b61015460015481565b336001600160a01b037f000000000000000000000000000000000000000000000000000000000000000016146102505760405163073e64fd60e21b81523360048201526001600160a01b037f00000000000000000000000000000000000000000000000000000000000000001660248201526044015b60405180910390fd5b61025a8282610434565b5050565b6000546001600160a01b031633146102de5760405162461bcd60e51b815260206004820152603a60248201527f546869732066756e6374696f6e206973207370656369616c6c7920726573657260448201527f76656420666f7220746865206d61696e20636f6e74726163742e0000000000006064820152608401610247565b6040516305d3b1d360e41b81527f0000000000000000000000000000000000000000000000000000000000000000600482015267ffffffffffffffff7f00000000000000000000000000000000000000000000000000000000000000001660248201526003604482015263ffffffff7f0000000000000000000000000000000000000000000000000000000000000000166064820152600260848201526000907f00000000000000000000000000000000000000000000000000000000000000006001600160a01b031690635d3b1d309060a401602060405180830381600087803b1580156103cc57600080fd5b505af11580156103e0573d6000803e3d6000fd5b505050506040513d601f19601f82011682018060405250810190610404919061050b565b600090815260026020526040902080546001600160a01b0319166001600160a01b03939093169290921790915550565b60008281526002602052604081205482516001600160a01b03909116919083908290610462576104626105f5565b602090810291909101015160005460405163200f528760e11b81526001600160a01b0385811660048301526024820184905292935091169063401ea50e90604401600060405180830381600087803b1580156104bd57600080fd5b505af11580156104d1573d6000803e3d6000fd5b5050505050505050565b6000602082840312156104ed57600080fd5b81356001600160a01b038116811461050457600080fd5b9392505050565b60006020828403121561051d57600080fd5b5051919050565b6000806040838503121561053757600080fd5b8235915060208084013567ffffffffffffffff8082111561055757600080fd5b818601915086601f83011261056b57600080fd5b81358181111561057d5761057d61060b565b8060051b604051601f19603f830116810181811085821117156105a2576105a261060b565b604052828152858101935084860182860187018b10156105c157600080fd5b600095505b838610156105e45780358552600195909501949386019386016105c6565b508096505050505050509250929050565b634e487b7160e01b600052603260045260246000fd5b634e487b7160e01b600052604160045260246000fdfea26469706673582212200f3c5c574e4b100a380a3d77e1afb9cecfbb2476f9e056e12424f646b10c9c5b64736f6c63430008070033",
  "linkReferences": {},
  "deployedLinkReferences": {}
}