{
  "contractName": "CaseOpener",
  "abi": [
    {
      "inputs": [
        {
          "internalType": "address",
          "name": "_racksItems",
          "type": "address"
        },
        {
          "internalType": "address",
          "name": "vrfCoordinatorV2",
          "type": "address"
        },
        {
          "internalType": "bytes32",
          "name": "gasLane",
          "type": "bytes32"
        },
        {
          "internalType": "uint64",
          "name": "subscriptionId",
          "type": "uint64"
        },
        {
          "internalType": "uint32",
          "name": "callbackGasLimit",
          "type": "uint32"
        }
      ],
      "stateMutability": "nonpayable",
      "type": "constructor"
    },
    {
      "inputs": [
        {
          "internalType": "address",
          "name": "have",
          "type": "address"
        },
        {
          "internalType": "address",
          "name": "want",
          "type": "address"
        }
      ],
      "name": "OnlyCoordinatorCanFulfill",
      "type": "error"
    },
    {
      "inputs": [],
      "name": "NUM_WORDS",
      "outputs": [
        {
          "internalType": "uint32",
          "name": "",
          "type": "uint32"
        }
      ],
      "stateMutability": "view",
      "type": "function"
    },
    {
      "inputs": [],
      "name": "REQUEST_CONFIRMATIONS",
      "outputs": [
        {
          "internalType": "uint16",
          "name": "",
          "type": "uint16"
        }
      ],
      "stateMutability": "view",
      "type": "function"
    },
    {
      "inputs": [],
      "name": "i_callbackGasLimit",
      "outputs": [
        {
          "internalType": "uint32",
          "name": "",
          "type": "uint32"
        }
      ],
      "stateMutability": "view",
      "type": "function"
    },
    {
      "inputs": [],
      "name": "i_gasLane",
      "outputs": [
        {
          "internalType": "bytes32",
          "name": "",
          "type": "bytes32"
        }
      ],
      "stateMutability": "view",
      "type": "function"
    },
    {
      "inputs": [],
      "name": "i_subscriptionId",
      "outputs": [
        {
          "internalType": "uint64",
          "name": "",
          "type": "uint64"
        }
      ],
      "stateMutability": "view",
      "type": "function"
    },
    {
      "inputs": [],
      "name": "i_vrfCoordinator",
      "outputs": [
        {
          "internalType": "contract VRFCoordinatorV2Interface",
          "name": "",
          "type": "address"
        }
      ],
      "stateMutability": "view",
      "type": "function"
    },
    {
      "inputs": [
        {
          "internalType": "uint256",
          "name": "requestId",
          "type": "uint256"
        },
        {
          "internalType": "uint256[]",
          "name": "randomWords",
          "type": "uint256[]"
        }
      ],
      "name": "rawFulfillRandomWords",
      "outputs": [],
      "stateMutability": "nonpayable",
      "type": "function"
    },
    {
      "inputs": [
        {
          "internalType": "uint256",
          "name": "",
          "type": "uint256"
        }
      ],
      "name": "s_caseRequests",
      "outputs": [
        {
          "internalType": "bytes",
          "name": "",
          "type": "bytes"
        }
      ],
      "stateMutability": "view",
      "type": "function"
    },
    {
      "inputs": [
        {
          "internalType": "address",
          "name": "user",
          "type": "address"
        }
      ],
      "name": "_generate",
      "outputs": [],
      "stateMutability": "nonpayable",
      "type": "function"
    }
  ],
  "bytecode": "0x6101206040523480156200001257600080fd5b506040516200129b3803806200129b833981810160405281019062000038919062000252565b838073ffffffffffffffffffffffffffffffffffffffff1660808173ffffffffffffffffffffffffffffffffffffffff16815250505084600160006101000a81548173ffffffffffffffffffffffffffffffffffffffff021916908373ffffffffffffffffffffffffffffffffffffffff1602179055508373ffffffffffffffffffffffffffffffffffffffff1660a08173ffffffffffffffffffffffffffffffffffffffff16815250508260c081815250508167ffffffffffffffff1660e08167ffffffffffffffff16815250508063ffffffff166101008163ffffffff16815250505050505050620002da565b600080fd5b600073ffffffffffffffffffffffffffffffffffffffff82169050919050565b600062000159826200012c565b9050919050565b6200016b816200014c565b81146200017757600080fd5b50565b6000815190506200018b8162000160565b92915050565b6000819050919050565b620001a68162000191565b8114620001b257600080fd5b50565b600081519050620001c6816200019b565b92915050565b600067ffffffffffffffff82169050919050565b620001eb81620001cc565b8114620001f757600080fd5b50565b6000815190506200020b81620001e0565b92915050565b600063ffffffff82169050919050565b6200022c8162000211565b81146200023857600080fd5b50565b6000815190506200024c8162000221565b92915050565b600080600080600060a0868803121562000271576200027062000127565b5b600062000281888289016200017a565b955050602062000294888289016200017a565b9450506040620002a788828901620001b5565b9350506060620002ba88828901620001fa565b9250506080620002cd888289016200023b565b9150509295509295909350565b60805160a05160c05160e05161010051610f5962000342600039600081816104620152610588015260008181610322015261043f01526000818161041e01526105400152600081816103e2015261056401526000818161026201526102b60152610f596000f3fe608060405234801561001057600080fd5b50600436106100935760003560e01c806372cf6e341161006657806372cf6e3414610120578063831cbb6b1461013e5780638e879c8a1461015a578063aebc455014610178578063d757d0271461019657610093565b806303dc2de2146100985780631fe543e3146100c8578063470cdf97146100e457806367f082b014610102575b600080fd5b6100b260048036038101906100ad91906107e1565b6101b4565b6040516100bf91906108a7565b60405180910390f35b6100e260048036038101906100dd9190610a11565b610260565b005b6100ec610320565b6040516100f99190610a90565b60405180910390f35b61010a610344565b6040516101179190610ac8565b60405180910390f35b610128610349565b6040516101359190610b02565b60405180910390f35b61015860048036038101906101539190610b7b565b61034e565b005b61016261053e565b60405161016f9190610bc1565b60405180910390f35b610180610562565b60405161018d9190610c3b565b60405180910390f35b61019e610586565b6040516101ab9190610b02565b60405180910390f35b600081815481106101c457600080fd5b9060005260206000200160009150905080546101df90610c85565b80601f016020809104026020016040519081016040528092919081815260200182805461020b90610c85565b80156102585780601f1061022d57610100808354040283529160200191610258565b820191906000526020600020905b81548152906001019060200180831161023b57829003601f168201915b505050505081565b7f000000000000000000000000000000000000000000000000000000000000000073ffffffffffffffffffffffffffffffffffffffff163373ffffffffffffffffffffffffffffffffffffffff161461031257337f00000000000000000000000000000000000000000000000000000000000000006040517f1cf993f4000000000000000000000000000000000000000000000000000000008152600401610309929190610cc6565b60405180910390fd5b61031c82826105aa565b5050565b7f000000000000000000000000000000000000000000000000000000000000000081565b600381565b600181565b600160009054906101000a900473ffffffffffffffffffffffffffffffffffffffff1673ffffffffffffffffffffffffffffffffffffffff163373ffffffffffffffffffffffffffffffffffffffff16146103de576040517f08c379a00000000000000000000000000000000000000000000000000000000081526004016103d590610d72565b60405180910390fd5b60007f000000000000000000000000000000000000000000000000000000000000000073ffffffffffffffffffffffffffffffffffffffff16635d3b1d307f00000000000000000000000000000000000000000000000000000000000000007f000000000000000000000000000000000000000000000000000000000000000060037f000000000000000000000000000000000000000000000000000000000000000060016040518663ffffffff1660e01b81526004016104a3959493929190610d92565b6020604051808303816000875af11580156104c2573d6000803e3d6000fd5b505050506040513d601f19601f820116820180604052508101906104e69190610dfa565b9050816002600083815260200190815260200160002060006101000a81548173ffffffffffffffffffffffffffffffffffffffff021916908373ffffffffffffffffffffffffffffffffffffffff1602179055505050565b7f000000000000000000000000000000000000000000000000000000000000000081565b7f000000000000000000000000000000000000000000000000000000000000000081565b7f000000000000000000000000000000000000000000000000000000000000000081565b60006002600084815260200190815260200160002060009054906101000a900473ffffffffffffffffffffffffffffffffffffffff1690506000826000815181106105f8576105f7610e27565b5b6020026020010151905060008282604051602001610617929190610ebf565b60405160208183030381529060405290806001815401808255809150506001900390600052602060002001600090919091909150908051906020019061065e9291906106f4565b50600160009054906101000a900473ffffffffffffffffffffffffffffffffffffffff1673ffffffffffffffffffffffffffffffffffffffff1663401ea50e83836040518363ffffffff1660e01b81526004016106bc929190610efa565b600060405180830381600087803b1580156106d657600080fd5b505af11580156106ea573d6000803e3d6000fd5b5050505050505050565b82805461070090610c85565b90600052602060002090601f0160209004810192826107225760008555610769565b82601f1061073b57805160ff1916838001178555610769565b82800160010185558215610769579182015b8281111561076857825182559160200191906001019061074d565b5b509050610776919061077a565b5090565b5b8082111561079357600081600090555060010161077b565b5090565b6000604051905090565b600080fd5b600080fd5b6000819050919050565b6107be816107ab565b81146107c957600080fd5b50565b6000813590506107db816107b5565b92915050565b6000602082840312156107f7576107f66107a1565b5b6000610805848285016107cc565b91505092915050565b600081519050919050565b600082825260208201905092915050565b60005b8381101561084857808201518184015260208101905061082d565b83811115610857576000848401525b50505050565b6000601f19601f8301169050919050565b60006108798261080e565b6108838185610819565b935061089381856020860161082a565b61089c8161085d565b840191505092915050565b600060208201905081810360008301526108c1818461086e565b905092915050565b600080fd5b7f4e487b7100000000000000000000000000000000000000000000000000000000600052604160045260246000fd5b6109068261085d565b810181811067ffffffffffffffff82111715610925576109246108ce565b5b80604052505050565b6000610938610797565b905061094482826108fd565b919050565b600067ffffffffffffffff821115610964576109636108ce565b5b602082029050602081019050919050565b600080fd5b600061098d61098884610949565b61092e565b905080838252602082019050602084028301858111156109b0576109af610975565b5b835b818110156109d957806109c588826107cc565b8452602084019350506020810190506109b2565b5050509392505050565b600082601f8301126109f8576109f76108c9565b5b8135610a0884826020860161097a565b91505092915050565b60008060408385031215610a2857610a276107a1565b5b6000610a36858286016107cc565b925050602083013567ffffffffffffffff811115610a5757610a566107a6565b5b610a63858286016109e3565b9150509250929050565b600067ffffffffffffffff82169050919050565b610a8a81610a6d565b82525050565b6000602082019050610aa56000830184610a81565b92915050565b600061ffff82169050919050565b610ac281610aab565b82525050565b6000602082019050610add6000830184610ab9565b92915050565b600063ffffffff82169050919050565b610afc81610ae3565b82525050565b6000602082019050610b176000830184610af3565b92915050565b600073ffffffffffffffffffffffffffffffffffffffff82169050919050565b6000610b4882610b1d565b9050919050565b610b5881610b3d565b8114610b6357600080fd5b50565b600081359050610b7581610b4f565b92915050565b600060208284031215610b9157610b906107a1565b5b6000610b9f84828501610b66565b91505092915050565b6000819050919050565b610bbb81610ba8565b82525050565b6000602082019050610bd66000830184610bb2565b92915050565b6000819050919050565b6000610c01610bfc610bf784610b1d565b610bdc565b610b1d565b9050919050565b6000610c1382610be6565b9050919050565b6000610c2582610c08565b9050919050565b610c3581610c1a565b82525050565b6000602082019050610c506000830184610c2c565b92915050565b7f4e487b7100000000000000000000000000000000000000000000000000000000600052602260045260246000fd5b60006002820490506001821680610c9d57607f821691505b60208210811415610cb157610cb0610c56565b5b50919050565b610cc081610b3d565b82525050565b6000604082019050610cdb6000830185610cb7565b610ce86020830184610cb7565b9392505050565b600082825260208201905092915050565b7f546869732066756e6374696f6e206973207370656369616c6c7920726573657260008201527f76656420666f7220746865206d61696e20636f6e74726163742e000000000000602082015250565b6000610d5c603a83610cef565b9150610d6782610d00565b604082019050919050565b60006020820190508181036000830152610d8b81610d4f565b9050919050565b600060a082019050610da76000830188610bb2565b610db46020830187610a81565b610dc16040830186610ab9565b610dce6060830185610af3565b610ddb6080830184610af3565b9695505050505050565b600081519050610df4816107b5565b92915050565b600060208284031215610e1057610e0f6107a1565b5b6000610e1e84828501610de5565b91505092915050565b7f4e487b7100000000000000000000000000000000000000000000000000000000600052603260045260246000fd5b60008160601b9050919050565b6000610e6e82610e56565b9050919050565b6000610e8082610e63565b9050919050565b610e98610e9382610b3d565b610e75565b82525050565b6000819050919050565b610eb9610eb4826107ab565b610e9e565b82525050565b6000610ecb8285610e87565b601482019150610edb8284610ea8565b6020820191508190509392505050565b610ef4816107ab565b82525050565b6000604082019050610f0f6000830185610cb7565b610f1c6020830184610eeb565b939250505056fea26469706673582212200d291d4441384e0e13f90b0ada0c43ce90bf87bceacf37f4fa9a1d192327a56164736f6c634300080a0033",
  "immutableReferences": {
    "10": [
      {
        "length": 32,
        "start": 610
      },
      {
        "length": 32,
        "start": 694
      }
    ],
    "2825": [
      {
        "length": 32,
        "start": 994
      },
      {
        "length": 32,
        "start": 1380
      }
    ],
    "2827": [
      {
        "length": 32,
        "start": 1054
      },
      {
        "length": 32,
        "start": 1344
      }
    ],
    "2829": [
      {
        "length": 32,
        "start": 802
      },
      {
        "length": 32,
        "start": 1087
      }
    ],
    "2831": [
      {
        "length": 32,
        "start": 1122
      },
      {
        "length": 32,
        "start": 1416
      }
    ]
  },
  "source": "// SPDX-License-Identifier: MIT\r\npragma solidity ^0.8.0;\r\nimport \"./IRacksItems.sol\";\r\nimport \"./ICaseOpener.sol\";\r\nimport \"@chainlink/contracts/src/v0.8/VRFConsumerBaseV2.sol\";   \r\nimport \"@chainlink/contracts/src/v0.8/interfaces/VRFCoordinatorV2Interface.sol\"; \r\n// 0xbd13f08b8352A3635218ab9418E340c60d6Eb418\r\n// 0x121a143066e0f2f08b620784af77cccb35c6242460b4a8ee251b4b416abaebd4\r\ncontract CaseOpener is ICaseOpener , VRFConsumerBaseV2{\r\n\r\n    bytes [] public s_caseRequests;\r\n    IRacksItems RacksItems;\r\n    VRFCoordinatorV2Interface public immutable i_vrfCoordinator; \r\n    bytes32 public immutable i_gasLane;\r\n    uint64 public immutable i_subscriptionId;\r\n    uint32 public immutable i_callbackGasLimit;\r\n    uint16 public constant REQUEST_CONFIRMATIONS = 3; \r\n    uint32 public constant NUM_WORDS = 1; \r\n\r\n\r\n    mapping (uint => address) private s_requestIdOfUser; // maps each requestId to the user that made it\r\n\r\n    modifier notForUsers(){\r\n        require(msg.sender==address(RacksItems),\"This function is specially reserved for the main contract.\");\r\n        _;\r\n    }\r\n    \r\n    constructor(address _racksItems,address vrfCoordinatorV2, bytes32 gasLane, uint64 subscriptionId, uint32 callbackGasLimit)VRFConsumerBaseV2(vrfCoordinatorV2){\r\n        RacksItems = IRacksItems(_racksItems);\r\n        /**\r\n        * Initialization of Chainlink VRF variables\r\n        */\r\n        i_vrfCoordinator = VRFCoordinatorV2Interface(vrfCoordinatorV2); \r\n        i_gasLane = gasLane; \r\n        i_subscriptionId = subscriptionId;\r\n        i_callbackGasLimit = callbackGasLimit;    \r\n\r\n    }   \r\n  \r\n    /**\r\n    * @notice Function used to 'open a case' and get an item\r\n    * @dev Saves thr requestId made to ChainlinkVRF in order to identify the user later\r\n    */\r\n\r\n    function _generate(address user) external override notForUsers{ \r\n\r\n        uint requestId = i_vrfCoordinator.requestRandomWords(i_gasLane, i_subscriptionId, REQUEST_CONFIRMATIONS, i_callbackGasLimit, NUM_WORDS);\r\n        s_requestIdOfUser[requestId] = user;\r\n\r\n        \r\n       \r\n       \r\n    }\r\n\r\n    \r\n     /**\r\n    * @notice Used to get an actually Random Number -> to pick an item when openning a case\r\n    * @dev Uses Chainlink VRF -> When the oracle returns the random number back calls the main contract passing the random number and the user that made the call\r\n    * The main contract will then pick the item the user won based on the random number and will send it to him.\r\n    * set as internal because is going to be called only when a case is opened\r\n    */\r\n\r\n    function fulfillRandomWords(uint256 requestId, uint256[] memory randomWords) internal override {\r\n        address recipient = s_requestIdOfUser[requestId];\r\n        uint randomNumber = randomWords[0];\r\n        s_caseRequests.push (\r\n             abi.encodePacked(recipient, randomNumber)\r\n        );\r\n        RacksItems.fulfillCaseRequest(recipient, randomNumber); \r\n    }\r\n\r\n}",
  "sourcePath": "C:\\Users\\oteri\\Desktop\\racs-items\\racks-items-frontend\\contracts\\CaseOpener.sol",
  "compiler": {
    "name": "solc",
    "version": "0.8.10+commit.fc410830.Emscripten.clang"
  },
  "schemaVersion": "3.4.3",
  "updatedAt": "2022-07-21T22:15:35.011Z",
  "devdoc": {
    "kind": "dev",
    "methods": {
      "_generate(address)": {
        "details": "Saves thr requestId made to ChainlinkVRF in order to identify the user later"
      }
    },
    "version": 1
  },
  "userdoc": {
    "kind": "user",
    "methods": {
      "_generate(address)": {
        "notice": "Function used to 'open a case' and get an item"
      }
    },
    "version": 1
  }
}