{
  "contractName": "caseItem",
  "abi": [
    {
      "inputs": [
        {
          "internalType": "address",
          "name": "_racksItems",
          "type": "address"
        },
        {
          "internalType": "address",
          "name": "vrfCoordinatorV2",
          "type": "address"
        },
        {
          "internalType": "bytes32",
          "name": "gasLane",
          "type": "bytes32"
        },
        {
          "internalType": "uint64",
          "name": "subscriptionId",
          "type": "uint64"
        },
        {
          "internalType": "uint32",
          "name": "callbackGasLimit",
          "type": "uint32"
        }
      ],
      "stateMutability": "nonpayable",
      "type": "constructor"
    },
    {
      "inputs": [
        {
          "internalType": "address",
          "name": "have",
          "type": "address"
        },
        {
          "internalType": "address",
          "name": "want",
          "type": "address"
        }
      ],
      "name": "OnlyCoordinatorCanFulfill",
      "type": "error"
    },
    {
      "inputs": [],
      "name": "NUM_WORDS",
      "outputs": [
        {
          "internalType": "uint32",
          "name": "",
          "type": "uint32"
        }
      ],
      "stateMutability": "view",
      "type": "function"
    },
    {
      "inputs": [],
      "name": "REQUEST_CONFIRMATIONS",
      "outputs": [
        {
          "internalType": "uint16",
          "name": "",
          "type": "uint16"
        }
      ],
      "stateMutability": "view",
      "type": "function"
    },
    {
      "inputs": [],
      "name": "i_callbackGasLimit",
      "outputs": [
        {
          "internalType": "uint32",
          "name": "",
          "type": "uint32"
        }
      ],
      "stateMutability": "view",
      "type": "function"
    },
    {
      "inputs": [],
      "name": "i_gasLane",
      "outputs": [
        {
          "internalType": "bytes32",
          "name": "",
          "type": "bytes32"
        }
      ],
      "stateMutability": "view",
      "type": "function"
    },
    {
      "inputs": [],
      "name": "i_subscriptionId",
      "outputs": [
        {
          "internalType": "uint64",
          "name": "",
          "type": "uint64"
        }
      ],
      "stateMutability": "view",
      "type": "function"
    },
    {
      "inputs": [],
      "name": "i_vrfCoordinator",
      "outputs": [
        {
          "internalType": "contract VRFCoordinatorV2Interface",
          "name": "",
          "type": "address"
        }
      ],
      "stateMutability": "view",
      "type": "function"
    },
    {
      "inputs": [
        {
          "internalType": "uint256",
          "name": "requestId",
          "type": "uint256"
        },
        {
          "internalType": "uint256[]",
          "name": "randomWords",
          "type": "uint256[]"
        }
      ],
      "name": "rawFulfillRandomWords",
      "outputs": [],
      "stateMutability": "nonpayable",
      "type": "function"
    },
    {
      "inputs": [],
      "name": "s_randomWord",
      "outputs": [
        {
          "internalType": "uint256",
          "name": "",
          "type": "uint256"
        }
      ],
      "stateMutability": "view",
      "type": "function"
    },
    {
      "inputs": [],
      "name": "openCase",
      "outputs": [
        {
          "internalType": "uint256",
          "name": "",
          "type": "uint256"
        }
      ],
      "stateMutability": "nonpayable",
      "type": "function"
    }
  ],
  "bytecode": "0x6101206040523480156200001257600080fd5b506040516200118b3803806200118b833981810160405281019062000038919062000251565b838073ffffffffffffffffffffffffffffffffffffffff1660808173ffffffffffffffffffffffffffffffffffffffff168152505050846000806101000a81548173ffffffffffffffffffffffffffffffffffffffff021916908373ffffffffffffffffffffffffffffffffffffffff1602179055508373ffffffffffffffffffffffffffffffffffffffff1660a08173ffffffffffffffffffffffffffffffffffffffff16815250508260c081815250508167ffffffffffffffff1660e08167ffffffffffffffff16815250508063ffffffff166101008163ffffffff16815250505050505050620002d9565b600080fd5b600073ffffffffffffffffffffffffffffffffffffffff82169050919050565b600062000158826200012b565b9050919050565b6200016a816200014b565b81146200017657600080fd5b50565b6000815190506200018a816200015f565b92915050565b6000819050919050565b620001a58162000190565b8114620001b157600080fd5b50565b600081519050620001c5816200019a565b92915050565b600067ffffffffffffffff82169050919050565b620001ea81620001cb565b8114620001f657600080fd5b50565b6000815190506200020a81620001df565b92915050565b600063ffffffff82169050919050565b6200022b8162000210565b81146200023757600080fd5b50565b6000815190506200024b8162000220565b92915050565b600080600080600060a0868803121562000270576200026f62000126565b5b6000620002808882890162000179565b9550506020620002938882890162000179565b9450506040620002a688828901620001b4565b9350506060620002b988828901620001f9565b9250506080620002cc888289016200023a565b9150509295509295909350565b60805160a05160c05160e05161010051610e4a62000341600039600081816105f101526106c401526000818161026601526106a10152600081816105a901526106800152600081816105cd01526106440152600081816101a601526101fa0152610e4a6000f3fe608060405234801561001057600080fd5b50600436106100935760003560e01c806372cf6e341161006657806372cf6e341461010e5780638e879c8a1461012c578063aebc45501461014a578063d757d02714610168578063fd210fd91461018657610093565b80631fe543e314610098578063470cdf97146100b45780634a226657146100d257806367f082b0146100f0575b600080fd5b6100b260048036038101906100ad91906108f4565b6101a4565b005b6100bc610264565b6040516100c99190610973565b60405180910390f35b6100da610288565b6040516100e7919061099d565b60405180910390f35b6100f861059d565b60405161010591906109d5565b60405180910390f35b6101166105a2565b6040516101239190610a0f565b60405180910390f35b6101346105a7565b6040516101419190610a43565b60405180910390f35b6101526105cb565b60405161015f9190610add565b60405180910390f35b6101706105ef565b60405161017d9190610a0f565b60405180910390f35b61018e610613565b60405161019b919061099d565b60405180910390f35b7f000000000000000000000000000000000000000000000000000000000000000073ffffffffffffffffffffffffffffffffffffffff163373ffffffffffffffffffffffffffffffffffffffff161461025657337f00000000000000000000000000000000000000000000000000000000000000006040517f1cf993f400000000000000000000000000000000000000000000000000000000815260040161024d929190610b19565b60405180910390fd5b6102608282610619565b5050565b7f000000000000000000000000000000000000000000000000000000000000000081565b60008060009054906101000a900473ffffffffffffffffffffffffffffffffffffffff1673ffffffffffffffffffffffffffffffffffffffff163373ffffffffffffffffffffffffffffffffffffffff16146102e357600080fd5b60008060008054906101000a900473ffffffffffffffffffffffffffffffffffffffff1673ffffffffffffffffffffffffffffffffffffffff1663d3c115f26040518163ffffffff1660e01b8152600401600060405180830381865afa158015610351573d6000803e3d6000fd5b505050506040513d6000823e3d601f19601f8201168201806040525081019061037a9190610bee565b905060005b815181101561045c5760008054906101000a900473ffffffffffffffffffffffffffffffffffffffff1673ffffffffffffffffffffffffffffffffffffffff166320ba08148383815181106103d7576103d6610c37565b5b60200260200101516040518263ffffffff1660e01b81526004016103fb919061099d565b602060405180830381865afa158015610418573d6000803e3d6000fd5b505050506040513d601f19601f8201168201806040525081019061043c9190610c66565b836104479190610cc2565b9250808061045490610d18565b91505061037f565b5060008261046861063f565b6104729190610d90565b905060008080600090505b84518110156105915760008060009054906101000a900473ffffffffffffffffffffffffffffffffffffffff1673ffffffffffffffffffffffffffffffffffffffff166320ba08148784815181106104d8576104d7610c37565b5b60200260200101516040518263ffffffff1660e01b81526004016104fc919061099d565b602060405180830381865afa158015610519573d6000803e3d6000fd5b505050506040513d601f19601f8201168201806040525081019061053d9190610c66565b846105489190610cc2565b90508085111561055a5780935061057d565b85828151811061056d5761056c610c37565b5b6020026020010151925050610591565b50808061058990610d18565b91505061047d565b50809550505050505090565b600381565b600281565b7f000000000000000000000000000000000000000000000000000000000000000081565b7f000000000000000000000000000000000000000000000000000000000000000081565b7f000000000000000000000000000000000000000000000000000000000000000081565b60015481565b8060008151811061062d5761062c610c37565b5b60200260200101516001819055505050565b6000807f000000000000000000000000000000000000000000000000000000000000000073ffffffffffffffffffffffffffffffffffffffff16635d3b1d307f00000000000000000000000000000000000000000000000000000000000000007f000000000000000000000000000000000000000000000000000000000000000060037f000000000000000000000000000000000000000000000000000000000000000060026040518663ffffffff1660e01b8152600401610705959493929190610dc1565b6020604051808303816000875af1158015610724573d6000803e3d6000fd5b505050506040513d601f19601f820116820180604052508101906107489190610c66565b90508091505090565b6000604051905090565b600080fd5b600080fd5b6000819050919050565b61077881610765565b811461078357600080fd5b50565b6000813590506107958161076f565b92915050565b600080fd5b6000601f19601f8301169050919050565b7f4e487b7100000000000000000000000000000000000000000000000000000000600052604160045260246000fd5b6107e9826107a0565b810181811067ffffffffffffffff82111715610808576108076107b1565b5b80604052505050565b600061081b610751565b905061082782826107e0565b919050565b600067ffffffffffffffff821115610847576108466107b1565b5b602082029050602081019050919050565b600080fd5b600061087061086b8461082c565b610811565b9050808382526020820190506020840283018581111561089357610892610858565b5b835b818110156108bc57806108a88882610786565b845260208401935050602081019050610895565b5050509392505050565b600082601f8301126108db576108da61079b565b5b81356108eb84826020860161085d565b91505092915050565b6000806040838503121561090b5761090a61075b565b5b600061091985828601610786565b925050602083013567ffffffffffffffff81111561093a57610939610760565b5b610946858286016108c6565b9150509250929050565b600067ffffffffffffffff82169050919050565b61096d81610950565b82525050565b60006020820190506109886000830184610964565b92915050565b61099781610765565b82525050565b60006020820190506109b2600083018461098e565b92915050565b600061ffff82169050919050565b6109cf816109b8565b82525050565b60006020820190506109ea60008301846109c6565b92915050565b600063ffffffff82169050919050565b610a09816109f0565b82525050565b6000602082019050610a246000830184610a00565b92915050565b6000819050919050565b610a3d81610a2a565b82525050565b6000602082019050610a586000830184610a34565b92915050565b600073ffffffffffffffffffffffffffffffffffffffff82169050919050565b6000819050919050565b6000610aa3610a9e610a9984610a5e565b610a7e565b610a5e565b9050919050565b6000610ab582610a88565b9050919050565b6000610ac782610aaa565b9050919050565b610ad781610abc565b82525050565b6000602082019050610af26000830184610ace565b92915050565b6000610b0382610a5e565b9050919050565b610b1381610af8565b82525050565b6000604082019050610b2e6000830185610b0a565b610b3b6020830184610b0a565b9392505050565b600081519050610b518161076f565b92915050565b6000610b6a610b658461082c565b610811565b90508083825260208201905060208402830185811115610b8d57610b8c610858565b5b835b81811015610bb65780610ba28882610b42565b845260208401935050602081019050610b8f565b5050509392505050565b600082601f830112610bd557610bd461079b565b5b8151610be5848260208601610b57565b91505092915050565b600060208284031215610c0457610c0361075b565b5b600082015167ffffffffffffffff811115610c2257610c21610760565b5b610c2e84828501610bc0565b91505092915050565b7f4e487b7100000000000000000000000000000000000000000000000000000000600052603260045260246000fd5b600060208284031215610c7c57610c7b61075b565b5b6000610c8a84828501610b42565b91505092915050565b7f4e487b7100000000000000000000000000000000000000000000000000000000600052601160045260246000fd5b6000610ccd82610765565b9150610cd883610765565b9250827fffffffffffffffffffffffffffffffffffffffffffffffffffffffffffffffff03821115610d0d57610d0c610c93565b5b828201905092915050565b6000610d2382610765565b91507fffffffffffffffffffffffffffffffffffffffffffffffffffffffffffffffff821415610d5657610d55610c93565b5b600182019050919050565b7f4e487b7100000000000000000000000000000000000000000000000000000000600052601260045260246000fd5b6000610d9b82610765565b9150610da683610765565b925082610db657610db5610d61565b5b828206905092915050565b600060a082019050610dd66000830188610a34565b610de36020830187610964565b610df060408301866109c6565b610dfd6060830185610a00565b610e0a6080830184610a00565b969550505050505056fea26469706673582212206076ca26e49adc939794a58f9f4be8d5f05800170739ec71f824ab5088dec25b64736f6c634300080a0033",
  "immutableReferences": {
    "10": [
      {
        "length": 32,
        "start": 422
      },
      {
        "length": 32,
        "start": 506
      }
    ],
    "6025": [
      {
        "length": 32,
        "start": 1485
      },
      {
        "length": 32,
        "start": 1604
      }
    ],
    "6027": [
      {
        "length": 32,
        "start": 1449
      },
      {
        "length": 32,
        "start": 1664
      }
    ],
    "6029": [
      {
        "length": 32,
        "start": 614
      },
      {
        "length": 32,
        "start": 1697
      }
    ],
    "6031": [
      {
        "length": 32,
        "start": 1521
      },
      {
        "length": 32,
        "start": 1732
      }
    ]
  },
  "source": "pragma solidity ^0.8.0;\r\nimport \"./IRacksItems.sol\";\r\nimport \"./IcaseItem.sol\";\r\nimport \"@chainlink/contracts/src/v0.8/VRFConsumerBaseV2.sol\";   \r\nimport \"@chainlink/contracts/src/v0.8/interfaces/VRFCoordinatorV2Interface.sol\"; \r\n// 0x7a1BaC17Ccc5b313516C5E16fb24f7659aA5ebed\r\n// 0x4b09e658ed251bcafeebbc69400383d49f344ace09b9576fe248bb02c003fe9f\r\ncontract caseItem is IcaseItem , VRFConsumerBaseV2{\r\n\r\n    IRacksItems RacksItems;\r\n    VRFCoordinatorV2Interface public immutable i_vrfCoordinator; \r\n    bytes32 public immutable i_gasLane;\r\n    uint64 public immutable i_subscriptionId;\r\n    uint32 public immutable i_callbackGasLimit;\r\n    uint16 public constant REQUEST_CONFIRMATIONS = 3; \r\n    uint32 public constant NUM_WORDS = 2; \r\n    uint256 public s_randomWord;\r\n\r\n\r\n    constructor(address _racksItems,address vrfCoordinatorV2, bytes32 gasLane, uint64 subscriptionId, uint32 callbackGasLimit)VRFConsumerBaseV2(vrfCoordinatorV2){\r\n        RacksItems = IRacksItems(_racksItems);\r\n        i_vrfCoordinator = VRFCoordinatorV2Interface(vrfCoordinatorV2); \r\n        i_gasLane = gasLane; \r\n        i_subscriptionId = subscriptionId;\r\n        i_callbackGasLimit = callbackGasLimit; \r\n        \r\n\r\n    }   \r\n  \r\n\r\n\r\n    function openCase() external override returns(uint)  {  \r\n        require(msg.sender == address(RacksItems));\r\n        uint caseSupply;\r\n        uint256 [] memory itemList = RacksItems.caseLiquidity();\r\n        for(uint i =0 ;i<itemList.length; i++){\r\n          caseSupply+=RacksItems.supplyOfItem(itemList[i]);\r\n        }\r\n        uint256 randomNumber = _randomNumber()  % caseSupply;\r\n        uint256 totalCount = 0;\r\n        uint256 item;\r\n\r\n        for(uint256 i = 0 ; i < itemList.length; i++) {\r\n          uint256 _newTotalCount = totalCount + RacksItems.supplyOfItem(itemList[i]) ;\r\n          if(randomNumber > _newTotalCount) {\r\n            totalCount = _newTotalCount;\r\n          }else {\r\n            item = itemList[i];\r\n            break;\r\n          }\r\n        }\r\n        return item;\r\n       \r\n    }\r\n\r\n    \r\n     /**\r\n    * @notice Used to get an actually Random Number -> to pick an item when openning a case\r\n    * @dev Uses Chainlink VRF -> call requestRandomWords method by using o_vrfCoordinator object\r\n    * set as internal because is going to be called only when a case is opened\r\n    */\r\n\r\n    function fulfillRandomWords(uint256 /* requestId */, uint256[] memory randomWords) internal override {\r\n        s_randomWord = randomWords[0]; // just in case random number is very long we apply modular function \r\n    }\r\n\r\n    /**\r\n    * @notice Function to actually pick a winner \r\n    * @dev \r\n    * - randomWords -> array of randomWords\r\n    */\r\n\r\n    function _randomNumber() internal returns(uint256) {\r\n        uint256 s_requestedNumber = i_vrfCoordinator.requestRandomWords(i_gasLane, i_subscriptionId, REQUEST_CONFIRMATIONS, i_callbackGasLimit, NUM_WORDS);\r\n        return s_requestedNumber;\r\n    }\r\n}",
  "sourcePath": "C:\\Users\\oteri\\Desktop\\racs-items\\racks-items-frontend\\contracts\\caseItem.sol",
  "compiler": {
    "name": "solc",
    "version": "0.8.10+commit.fc410830.Emscripten.clang"
  },
  "schemaVersion": "3.4.3",
  "updatedAt": "2022-07-06T13:42:24.538Z",
  "devdoc": {
    "kind": "dev",
    "methods": {},
    "version": 1
  },
  "userdoc": {
    "kind": "user",
    "methods": {},
    "version": 1
  }
}