{
  "contractName": "CaseOpener",
  "abi": [
    {
      "inputs": [
        {
          "internalType": "address",
          "name": "_racksItems",
          "type": "address"
        },
        {
          "internalType": "address",
          "name": "vrfCoordinatorV2",
          "type": "address"
        },
        {
          "internalType": "bytes32",
          "name": "gasLane",
          "type": "bytes32"
        },
        {
          "internalType": "uint64",
          "name": "subscriptionId",
          "type": "uint64"
        },
        {
          "internalType": "uint32",
          "name": "callbackGasLimit",
          "type": "uint32"
        }
      ],
      "stateMutability": "nonpayable",
      "type": "constructor"
    },
    {
      "inputs": [
        {
          "internalType": "address",
          "name": "have",
          "type": "address"
        },
        {
          "internalType": "address",
          "name": "want",
          "type": "address"
        }
      ],
      "name": "OnlyCoordinatorCanFulfill",
      "type": "error"
    },
    {
      "inputs": [],
      "name": "NUM_WORDS",
      "outputs": [
        {
          "internalType": "uint32",
          "name": "",
          "type": "uint32"
        }
      ],
      "stateMutability": "view",
      "type": "function"
    },
    {
      "inputs": [],
      "name": "REQUEST_CONFIRMATIONS",
      "outputs": [
        {
          "internalType": "uint16",
          "name": "",
          "type": "uint16"
        }
      ],
      "stateMutability": "view",
      "type": "function"
    },
    {
      "inputs": [],
      "name": "i_callbackGasLimit",
      "outputs": [
        {
          "internalType": "uint32",
          "name": "",
          "type": "uint32"
        }
      ],
      "stateMutability": "view",
      "type": "function"
    },
    {
      "inputs": [],
      "name": "i_gasLane",
      "outputs": [
        {
          "internalType": "bytes32",
          "name": "",
          "type": "bytes32"
        }
      ],
      "stateMutability": "view",
      "type": "function"
    },
    {
      "inputs": [],
      "name": "i_subscriptionId",
      "outputs": [
        {
          "internalType": "uint64",
          "name": "",
          "type": "uint64"
        }
      ],
      "stateMutability": "view",
      "type": "function"
    },
    {
      "inputs": [],
      "name": "i_vrfCoordinator",
      "outputs": [
        {
          "internalType": "contract VRFCoordinatorV2Interface",
          "name": "",
          "type": "address"
        }
      ],
      "stateMutability": "view",
      "type": "function"
    },
    {
      "inputs": [
        {
          "internalType": "uint256",
          "name": "requestId",
          "type": "uint256"
        },
        {
          "internalType": "uint256[]",
          "name": "randomWords",
          "type": "uint256[]"
        }
      ],
      "name": "rawFulfillRandomWords",
      "outputs": [],
      "stateMutability": "nonpayable",
      "type": "function"
    },
    {
      "inputs": [
        {
          "internalType": "uint256",
          "name": "",
          "type": "uint256"
        }
      ],
      "name": "s_randomWords",
      "outputs": [
        {
          "internalType": "uint256",
          "name": "",
          "type": "uint256"
        }
      ],
      "stateMutability": "view",
      "type": "function"
    },
    {
      "inputs": [
        {
          "internalType": "address",
          "name": "_racksItems",
          "type": "address"
        }
      ],
      "name": "setAddress",
      "outputs": [],
      "stateMutability": "nonpayable",
      "type": "function"
    },
    {
      "inputs": [
        {
          "internalType": "address",
          "name": "user",
          "type": "address"
        }
      ],
      "name": "_generate",
      "outputs": [],
      "stateMutability": "nonpayable",
      "type": "function"
    }
  ],
  "bytecode": "0x6101206040523480156200001257600080fd5b50604051620014ca380380620014ca833981810160405281019062000038919062000252565b838073ffffffffffffffffffffffffffffffffffffffff1660808173ffffffffffffffffffffffffffffffffffffffff16815250505084600260006101000a81548173ffffffffffffffffffffffffffffffffffffffff021916908373ffffffffffffffffffffffffffffffffffffffff1602179055508373ffffffffffffffffffffffffffffffffffffffff1660a08173ffffffffffffffffffffffffffffffffffffffff16815250508260c081815250508167ffffffffffffffff1660e08167ffffffffffffffff16815250508063ffffffff166101008163ffffffff16815250505050505050620002da565b600080fd5b600073ffffffffffffffffffffffffffffffffffffffff82169050919050565b600062000159826200012c565b9050919050565b6200016b816200014c565b81146200017757600080fd5b50565b6000815190506200018b8162000160565b92915050565b6000819050919050565b620001a68162000191565b8114620001b257600080fd5b50565b600081519050620001c6816200019b565b92915050565b600067ffffffffffffffff82169050919050565b620001eb81620001cc565b8114620001f757600080fd5b50565b6000815190506200020b81620001e0565b92915050565b600063ffffffff82169050919050565b6200022c8162000211565b81146200023857600080fd5b50565b6000815190506200024c8162000221565b92915050565b600080600080600060a0868803121562000271576200027062000127565b5b600062000281888289016200017a565b955050602062000294888289016200017a565b9450506040620002a788828901620001b5565b9350506060620002ba88828901620001fa565b9250506080620002cd888289016200023b565b9150509295509295909350565b60805160a05160c05160e05161010051611188620003426000396000818161040501526108b001526000818161029d015261088d0152600081816103bd015261086c0152600081816103e101526108300152600081816101dd015261023101526111886000f3fe608060405234801561001057600080fd5b506004361061009e5760003560e01c80638e879c8a116100665780638e879c8a14610135578063aebc455014610153578063d757d02714610171578063e30081a01461018f578063f6eaffc8146101ab5761009e565b80631fe543e3146100a3578063470cdf97146100bf57806367f082b0146100dd57806372cf6e34146100fb578063831cbb6b14610119575b600080fd5b6100bd60048036038101906100b89190610ae0565b6101db565b005b6100c761029b565b6040516100d49190610b5f565b60405180910390f35b6100e56102bf565b6040516100f29190610b97565b60405180910390f35b6101036102c4565b6040516101109190610bd1565b60405180910390f35b610133600480360381019061012e9190610c4a565b6102c9565b005b61013d6103bb565b60405161014a9190610c90565b60405180910390f35b61015b6103df565b6040516101689190610d0a565b60405180910390f35b610179610403565b6040516101869190610bd1565b60405180910390f35b6101a960048036038101906101a49190610c4a565b610427565b005b6101c560048036038101906101c09190610d25565b61046b565b6040516101d29190610d61565b60405180910390f35b7f000000000000000000000000000000000000000000000000000000000000000073ffffffffffffffffffffffffffffffffffffffff163373ffffffffffffffffffffffffffffffffffffffff161461028d57337f00000000000000000000000000000000000000000000000000000000000000006040517f1cf993f4000000000000000000000000000000000000000000000000000000008152600401610284929190610d8b565b60405180910390fd5b610297828261048f565b5050565b7f000000000000000000000000000000000000000000000000000000000000000081565b600381565b600181565b600260009054906101000a900473ffffffffffffffffffffffffffffffffffffffff1673ffffffffffffffffffffffffffffffffffffffff163373ffffffffffffffffffffffffffffffffffffffff1614610359576040517f08c379a000000000000000000000000000000000000000000000000000000000815260040161035090610e37565b60405180910390fd5b600061036361082b565b9050816003600083815260200190815260200160002060006101000a81548173ffffffffffffffffffffffffffffffffffffffff021916908373ffffffffffffffffffffffffffffffffffffffff1602179055505050565b7f000000000000000000000000000000000000000000000000000000000000000081565b7f000000000000000000000000000000000000000000000000000000000000000081565b7f000000000000000000000000000000000000000000000000000000000000000081565b80600260006101000a81548173ffffffffffffffffffffffffffffffffffffffff021916908373ffffffffffffffffffffffffffffffffffffffff16021790555050565b6000818154811061047b57600080fd5b906000526020600020016000915090505481565b60006003600084815260200190815260200160002060009054906101000a900473ffffffffffffffffffffffffffffffffffffffff169050600080600260009054906101000a900473ffffffffffffffffffffffffffffffffffffffff1673ffffffffffffffffffffffffffffffffffffffff1663d3c115f26040518163ffffffff1660e01b8152600401600060405180830381865afa158015610537573d6000803e3d6000fd5b505050506040513d6000823e3d601f19601f820116820180604052508101906105609190610f03565b905060005b815181101561064457600260009054906101000a900473ffffffffffffffffffffffffffffffffffffffff1673ffffffffffffffffffffffffffffffffffffffff166320ba08148383815181106105bf576105be610f4c565b5b60200260200101516040518263ffffffff1660e01b81526004016105e39190610d61565b602060405180830381865afa158015610600573d6000803e3d6000fd5b505050506040513d601f19601f820116820180604052508101906106249190610f7b565b8361062f9190610fd7565b9250808061063c9061102d565b915050610565565b506000826000808154811061065c5761065b610f4c565b5b906000526020600020015461067191906110a5565b905060008080600090505b8451811015610791576000600260009054906101000a900473ffffffffffffffffffffffffffffffffffffffff1673ffffffffffffffffffffffffffffffffffffffff166320ba08148784815181106106d8576106d7610f4c565b5b60200260200101516040518263ffffffff1660e01b81526004016106fc9190610d61565b602060405180830381865afa158015610719573d6000803e3d6000fd5b505050506040513d601f19601f8201168201806040525081019061073d9190610f7b565b846107489190610fd7565b90508085111561075a5780935061077d565b85828151811061076d5761076c610f4c565b5b6020026020010151925050610791565b5080806107899061102d565b91505061067c565b50600260009054906101000a900473ffffffffffffffffffffffffffffffffffffffff1673ffffffffffffffffffffffffffffffffffffffff1663683475bf87836040518363ffffffff1660e01b81526004016107ef9291906110d6565b600060405180830381600087803b15801561080957600080fd5b505af115801561081d573d6000803e3d6000fd5b505050505050505050505050565b6000807f000000000000000000000000000000000000000000000000000000000000000073ffffffffffffffffffffffffffffffffffffffff16635d3b1d307f00000000000000000000000000000000000000000000000000000000000000007f000000000000000000000000000000000000000000000000000000000000000060037f000000000000000000000000000000000000000000000000000000000000000060016040518663ffffffff1660e01b81526004016108f19594939291906110ff565b6020604051808303816000875af1158015610910573d6000803e3d6000fd5b505050506040513d601f19601f820116820180604052508101906109349190610f7b565b90508091505090565b6000604051905090565b600080fd5b600080fd5b6000819050919050565b61096481610951565b811461096f57600080fd5b50565b6000813590506109818161095b565b92915050565b600080fd5b6000601f19601f8301169050919050565b7f4e487b7100000000000000000000000000000000000000000000000000000000600052604160045260246000fd5b6109d58261098c565b810181811067ffffffffffffffff821117156109f4576109f361099d565b5b80604052505050565b6000610a0761093d565b9050610a1382826109cc565b919050565b600067ffffffffffffffff821115610a3357610a3261099d565b5b602082029050602081019050919050565b600080fd5b6000610a5c610a5784610a18565b6109fd565b90508083825260208201905060208402830185811115610a7f57610a7e610a44565b5b835b81811015610aa85780610a948882610972565b845260208401935050602081019050610a81565b5050509392505050565b600082601f830112610ac757610ac6610987565b5b8135610ad7848260208601610a49565b91505092915050565b60008060408385031215610af757610af6610947565b5b6000610b0585828601610972565b925050602083013567ffffffffffffffff811115610b2657610b2561094c565b5b610b3285828601610ab2565b9150509250929050565b600067ffffffffffffffff82169050919050565b610b5981610b3c565b82525050565b6000602082019050610b746000830184610b50565b92915050565b600061ffff82169050919050565b610b9181610b7a565b82525050565b6000602082019050610bac6000830184610b88565b92915050565b600063ffffffff82169050919050565b610bcb81610bb2565b82525050565b6000602082019050610be66000830184610bc2565b92915050565b600073ffffffffffffffffffffffffffffffffffffffff82169050919050565b6000610c1782610bec565b9050919050565b610c2781610c0c565b8114610c3257600080fd5b50565b600081359050610c4481610c1e565b92915050565b600060208284031215610c6057610c5f610947565b5b6000610c6e84828501610c35565b91505092915050565b6000819050919050565b610c8a81610c77565b82525050565b6000602082019050610ca56000830184610c81565b92915050565b6000819050919050565b6000610cd0610ccb610cc684610bec565b610cab565b610bec565b9050919050565b6000610ce282610cb5565b9050919050565b6000610cf482610cd7565b9050919050565b610d0481610ce9565b82525050565b6000602082019050610d1f6000830184610cfb565b92915050565b600060208284031215610d3b57610d3a610947565b5b6000610d4984828501610972565b91505092915050565b610d5b81610951565b82525050565b6000602082019050610d766000830184610d52565b92915050565b610d8581610c0c565b82525050565b6000604082019050610da06000830185610d7c565b610dad6020830184610d7c565b9392505050565b600082825260208201905092915050565b7f546869732066756e6374696f6e206973207370656369616c6c7920726573657260008201527f76656420666f7220746865206d61696e20636f6e74726163742e000000000000602082015250565b6000610e21603a83610db4565b9150610e2c82610dc5565b604082019050919050565b60006020820190508181036000830152610e5081610e14565b9050919050565b600081519050610e668161095b565b92915050565b6000610e7f610e7a84610a18565b6109fd565b90508083825260208201905060208402830185811115610ea257610ea1610a44565b5b835b81811015610ecb5780610eb78882610e57565b845260208401935050602081019050610ea4565b5050509392505050565b600082601f830112610eea57610ee9610987565b5b8151610efa848260208601610e6c565b91505092915050565b600060208284031215610f1957610f18610947565b5b600082015167ffffffffffffffff811115610f3757610f3661094c565b5b610f4384828501610ed5565b91505092915050565b7f4e487b7100000000000000000000000000000000000000000000000000000000600052603260045260246000fd5b600060208284031215610f9157610f90610947565b5b6000610f9f84828501610e57565b91505092915050565b7f4e487b7100000000000000000000000000000000000000000000000000000000600052601160045260246000fd5b6000610fe282610951565b9150610fed83610951565b9250827fffffffffffffffffffffffffffffffffffffffffffffffffffffffffffffffff0382111561102257611021610fa8565b5b828201905092915050565b600061103882610951565b91507fffffffffffffffffffffffffffffffffffffffffffffffffffffffffffffffff82141561106b5761106a610fa8565b5b600182019050919050565b7f4e487b7100000000000000000000000000000000000000000000000000000000600052601260045260246000fd5b60006110b082610951565b91506110bb83610951565b9250826110cb576110ca611076565b5b828206905092915050565b60006040820190506110eb6000830185610d7c565b6110f86020830184610d52565b9392505050565b600060a0820190506111146000830188610c81565b6111216020830187610b50565b61112e6040830186610b88565b61113b6060830185610bc2565b6111486080830184610bc2565b969550505050505056fea2646970667358221220ef5d97e009b9c5b263f358850b555b558e5b4e4c55ed6e823302362e6f8a572b64736f6c634300080a0033",
  "immutableReferences": {
    "10": [
      {
        "length": 32,
        "start": 477
      },
      {
        "length": 32,
        "start": 561
      }
    ],
    "2827": [
      {
        "length": 32,
        "start": 993
      },
      {
        "length": 32,
        "start": 2096
      }
    ],
    "2829": [
      {
        "length": 32,
        "start": 957
      },
      {
        "length": 32,
        "start": 2156
      }
    ],
    "2831": [
      {
        "length": 32,
        "start": 669
      },
      {
        "length": 32,
        "start": 2189
      }
    ],
    "2833": [
      {
        "length": 32,
        "start": 1029
      },
      {
        "length": 32,
        "start": 2224
      }
    ]
  },
  "source": "// SPDX-License-Identifier: MIT\r\npragma solidity ^0.8.0;\r\nimport \"./IRacksItems.sol\";\r\nimport \"./ICaseOpener.sol\";\r\nimport \"@chainlink/contracts/src/v0.8/VRFConsumerBaseV2.sol\";   \r\nimport \"@chainlink/contracts/src/v0.8/interfaces/VRFCoordinatorV2Interface.sol\"; \r\n// 0xbd13f08b8352A3635218ab9418E340c60d6Eb418\r\n// 0x121a143066e0f2f08b620784af77cccb35c6242460b4a8ee251b4b416abaebd4\r\ncontract CaseOpener is ICaseOpener , VRFConsumerBaseV2{\r\n\r\n\r\n    uint256 [] public s_randomWords;\r\n    uint256 s_requestId;\r\n    IRacksItems RacksItems;\r\n    VRFCoordinatorV2Interface public immutable i_vrfCoordinator; \r\n    bytes32 public immutable i_gasLane;\r\n    uint64 public immutable i_subscriptionId;\r\n    uint32 public immutable i_callbackGasLimit;\r\n    uint16 public constant REQUEST_CONFIRMATIONS = 3; \r\n    uint32 public constant NUM_WORDS = 1; \r\n\r\n\r\n    mapping (uint => address) private s_requestIdOfUser;\r\n\r\n    modifier notForUsers(){\r\n        require(msg.sender==address(RacksItems),\"This function is specially reserved for the main contract.\");\r\n        _;\r\n    }\r\n    function setAddress(address _racksItems) public{\r\n      RacksItems = IRacksItems(_racksItems);\r\n    }\r\n    constructor(address _racksItems,address vrfCoordinatorV2, bytes32 gasLane, uint64 subscriptionId, uint32 callbackGasLimit)VRFConsumerBaseV2(vrfCoordinatorV2){\r\n        RacksItems = IRacksItems(_racksItems);\r\n        /**\r\n        * Initialization of Chainlink VRF variables\r\n        */\r\n        i_vrfCoordinator = VRFCoordinatorV2Interface(vrfCoordinatorV2); \r\n        i_gasLane = gasLane; \r\n        i_subscriptionId = subscriptionId;\r\n        i_callbackGasLimit = callbackGasLimit;    \r\n\r\n    }   \r\n  \r\n    /**\r\n    * @notice Function used to 'open a case' and get an item\r\n    */\r\n\r\n    function _generate(address user) external override notForUsers{ \r\n\r\n        uint requestId = _randomNumber();\r\n        s_requestIdOfUser[requestId] = user;\r\n\r\n        // uint caseSupply;\r\n        // uint256 [] memory itemList = RacksItems.caseLiquidity();\r\n        // for(uint i =0 ;i<itemList.length; i++){\r\n        //   caseSupply+=RacksItems.supplyOfItem(itemList[i]);\r\n        // }\r\n        // _randomNumber();\r\n        // uint256 randomNumber = s_randomWord  % caseSupply;\r\n        // uint256 totalCount = 0;\r\n        // uint256 item;\r\n\r\n        // for(uint256 i = 0 ; i < itemList.length; i++) {\r\n        //   uint256 _newTotalCount = totalCount + RacksItems.supplyOfItem(itemList[i]) ;\r\n        //   if(randomNumber > _newTotalCount) {\r\n        //     totalCount = _newTotalCount;\r\n        //   }else {\r\n        //     item = itemList[i];\r\n        //     break;\r\n        //   }\r\n        // }\r\n       \r\n       \r\n    }\r\n\r\n    \r\n     /**\r\n    * @notice Used to get an actually Random Number -> to pick an item when openning a case\r\n    * @dev Uses Chainlink VRF -> call requestRandomWords method by using o_vrfCoordinator object\r\n    * set as internal because is going to be called only when a case is opened\r\n    */\r\n\r\n    function fulfillRandomWords(uint256 requestId, uint256[] memory randomWords) internal override {\r\n        address recipient = s_requestIdOfUser[requestId];\r\n        uint caseSupply;\r\n        uint256 [] memory itemList = RacksItems.caseLiquidity();\r\n        for(uint i =0 ;i<itemList.length; i++){\r\n          caseSupply+=RacksItems.supplyOfItem(itemList[i]);\r\n        }\r\n\r\n        uint256 randomNumber = s_randomWords[0]  % caseSupply;\r\n        uint256 totalCount = 0;\r\n        uint256 item;\r\n\r\n        for(uint256 i = 0 ; i < itemList.length; i++) {\r\n          uint256 _newTotalCount = totalCount + RacksItems.supplyOfItem(itemList[i]) ;\r\n          if(randomNumber > _newTotalCount) {\r\n            totalCount = _newTotalCount;\r\n          }else {\r\n            item = itemList[i];\r\n            break;\r\n          }\r\n        }\r\n        RacksItems.fullfillCaseRequest(recipient, item); \r\n    }\r\n\r\n    /**\r\n    * @notice Function to actually pick a winner \r\n    * @dev \r\n    * - randomWords -> array of randomWords\r\n    */\r\n\r\n    function _randomNumber() internal returns(uint256) {\r\n        uint256 s_requestedNumber = i_vrfCoordinator.requestRandomWords(i_gasLane, i_subscriptionId, REQUEST_CONFIRMATIONS, i_callbackGasLimit, NUM_WORDS);\r\n        return s_requestedNumber;\r\n    }\r\n}",
  "sourcePath": "C:\\Users\\oteri\\Desktop\\racs-items\\racks-items-frontend\\contracts\\CaseOpener.sol",
  "compiler": {
    "name": "solc",
    "version": "0.8.10+commit.fc410830.Emscripten.clang"
  },
  "schemaVersion": "3.4.3",
  "updatedAt": "2022-07-20T12:34:47.109Z",
  "devdoc": {
    "kind": "dev",
    "methods": {},
    "version": 1
  },
  "userdoc": {
    "kind": "user",
    "methods": {
      "_generate(address)": {
        "notice": "Function used to 'open a case' and get an item"
      }
    },
    "version": 1
  }
}