{
  "contractName": "RacksItemsv2",
  "abi": [
    {
      "inputs": [
        {
          "internalType": "address",
          "name": "vrfCoordinatorV2",
          "type": "address"
        },
        {
          "internalType": "bytes32",
          "name": "gasLane",
          "type": "bytes32"
        },
        {
          "internalType": "uint64",
          "name": "subscriptionId",
          "type": "uint64"
        },
        {
          "internalType": "uint32",
          "name": "callbackGasLimit",
          "type": "uint32"
        },
        {
          "internalType": "address",
          "name": "_racksTokenAddress",
          "type": "address"
        }
      ],
      "stateMutability": "nonpayable",
      "type": "constructor"
    },
    {
      "inputs": [
        {
          "internalType": "address",
          "name": "have",
          "type": "address"
        },
        {
          "internalType": "address",
          "name": "want",
          "type": "address"
        }
      ],
      "name": "OnlyCoordinatorCanFulfill",
      "type": "error"
    },
    {
      "anonymous": false,
      "inputs": [
        {
          "indexed": true,
          "internalType": "address",
          "name": "account",
          "type": "address"
        },
        {
          "indexed": true,
          "internalType": "address",
          "name": "operator",
          "type": "address"
        },
        {
          "indexed": false,
          "internalType": "bool",
          "name": "approved",
          "type": "bool"
        }
      ],
      "name": "ApprovalForAll",
      "type": "event"
    },
    {
      "anonymous": false,
      "inputs": [
        {
          "indexed": false,
          "internalType": "address",
          "name": "user",
          "type": "address"
        },
        {
          "indexed": false,
          "internalType": "uint256",
          "name": "casePrice",
          "type": "uint256"
        },
        {
          "indexed": false,
          "internalType": "uint256",
          "name": "item",
          "type": "uint256"
        }
      ],
      "name": "CaseOpened",
      "type": "event"
    },
    {
      "anonymous": false,
      "inputs": [
        {
          "indexed": true,
          "internalType": "bytes32",
          "name": "role",
          "type": "bytes32"
        },
        {
          "indexed": true,
          "internalType": "bytes32",
          "name": "previousAdminRole",
          "type": "bytes32"
        },
        {
          "indexed": true,
          "internalType": "bytes32",
          "name": "newAdminRole",
          "type": "bytes32"
        }
      ],
      "name": "RoleAdminChanged",
      "type": "event"
    },
    {
      "anonymous": false,
      "inputs": [
        {
          "indexed": true,
          "internalType": "bytes32",
          "name": "role",
          "type": "bytes32"
        },
        {
          "indexed": true,
          "internalType": "address",
          "name": "account",
          "type": "address"
        },
        {
          "indexed": true,
          "internalType": "address",
          "name": "sender",
          "type": "address"
        }
      ],
      "name": "RoleGranted",
      "type": "event"
    },
    {
      "anonymous": false,
      "inputs": [
        {
          "indexed": true,
          "internalType": "bytes32",
          "name": "role",
          "type": "bytes32"
        },
        {
          "indexed": true,
          "internalType": "address",
          "name": "account",
          "type": "address"
        },
        {
          "indexed": true,
          "internalType": "address",
          "name": "sender",
          "type": "address"
        }
      ],
      "name": "RoleRevoked",
      "type": "event"
    },
    {
      "anonymous": false,
      "inputs": [
        {
          "indexed": true,
          "internalType": "address",
          "name": "operator",
          "type": "address"
        },
        {
          "indexed": true,
          "internalType": "address",
          "name": "from",
          "type": "address"
        },
        {
          "indexed": true,
          "internalType": "address",
          "name": "to",
          "type": "address"
        },
        {
          "indexed": false,
          "internalType": "uint256[]",
          "name": "ids",
          "type": "uint256[]"
        },
        {
          "indexed": false,
          "internalType": "uint256[]",
          "name": "values",
          "type": "uint256[]"
        }
      ],
      "name": "TransferBatch",
      "type": "event"
    },
    {
      "anonymous": false,
      "inputs": [
        {
          "indexed": true,
          "internalType": "address",
          "name": "operator",
          "type": "address"
        },
        {
          "indexed": true,
          "internalType": "address",
          "name": "from",
          "type": "address"
        },
        {
          "indexed": true,
          "internalType": "address",
          "name": "to",
          "type": "address"
        },
        {
          "indexed": false,
          "internalType": "uint256",
          "name": "id",
          "type": "uint256"
        },
        {
          "indexed": false,
          "internalType": "uint256",
          "name": "value",
          "type": "uint256"
        }
      ],
      "name": "TransferSingle",
      "type": "event"
    },
    {
      "anonymous": false,
      "inputs": [
        {
          "indexed": false,
          "internalType": "string",
          "name": "value",
          "type": "string"
        },
        {
          "indexed": true,
          "internalType": "uint256",
          "name": "id",
          "type": "uint256"
        }
      ],
      "name": "URI",
      "type": "event"
    },
    {
      "anonymous": false,
      "inputs": [
        {
          "indexed": false,
          "internalType": "uint256",
          "name": "newPrice",
          "type": "uint256"
        }
      ],
      "name": "casePriceChanged",
      "type": "event"
    },
    {
      "anonymous": false,
      "inputs": [
        {
          "indexed": false,
          "internalType": "address",
          "name": "buyer",
          "type": "address"
        },
        {
          "indexed": false,
          "internalType": "address",
          "name": "seller",
          "type": "address"
        },
        {
          "indexed": false,
          "internalType": "uint256",
          "name": "marketItemId",
          "type": "uint256"
        },
        {
          "indexed": false,
          "internalType": "uint256",
          "name": "price",
          "type": "uint256"
        }
      ],
      "name": "itemBought",
      "type": "event"
    },
    {
      "anonymous": false,
      "inputs": [
        {
          "indexed": false,
          "internalType": "address",
          "name": "user",
          "type": "address"
        },
        {
          "indexed": false,
          "internalType": "uint256",
          "name": "tokenId",
          "type": "uint256"
        }
      ],
      "name": "itemExchanged",
      "type": "event"
    },
    {
      "anonymous": false,
      "inputs": [
        {
          "indexed": false,
          "internalType": "address",
          "name": "owner",
          "type": "address"
        },
        {
          "indexed": false,
          "internalType": "uint256",
          "name": "marketItemId",
          "type": "uint256"
        },
        {
          "indexed": false,
          "internalType": "uint256",
          "name": "oldPrice",
          "type": "uint256"
        },
        {
          "indexed": false,
          "internalType": "uint256",
          "name": "newPrice",
          "type": "uint256"
        }
      ],
      "name": "itemPriceChanged",
      "type": "event"
    },
    {
      "anonymous": false,
      "inputs": [
        {
          "indexed": false,
          "internalType": "address",
          "name": "seller",
          "type": "address"
        },
        {
          "indexed": false,
          "internalType": "uint256",
          "name": "numTries",
          "type": "uint256"
        },
        {
          "indexed": false,
          "internalType": "uint256",
          "name": "_hours",
          "type": "uint256"
        },
        {
          "indexed": false,
          "internalType": "uint256",
          "name": "price",
          "type": "uint256"
        }
      ],
      "name": "newTicketOnSale",
      "type": "event"
    },
    {
      "anonymous": false,
      "inputs": [
        {
          "indexed": false,
          "internalType": "address",
          "name": "user",
          "type": "address"
        },
        {
          "indexed": false,
          "internalType": "uint256",
          "name": "tokenId",
          "type": "uint256"
        },
        {
          "indexed": false,
          "internalType": "uint256",
          "name": "price",
          "type": "uint256"
        }
      ],
      "name": "sellingItem",
      "type": "event"
    },
    {
      "anonymous": false,
      "inputs": [
        {
          "indexed": false,
          "internalType": "uint256",
          "name": "ticketId",
          "type": "uint256"
        },
        {
          "indexed": false,
          "internalType": "address",
          "name": "oldOwner",
          "type": "address"
        },
        {
          "indexed": false,
          "internalType": "address",
          "name": "newOwner",
          "type": "address"
        },
        {
          "indexed": false,
          "internalType": "uint256",
          "name": "price",
          "type": "uint256"
        }
      ],
      "name": "ticketBought",
      "type": "event"
    },
    {
      "anonymous": false,
      "inputs": [
        {
          "indexed": false,
          "internalType": "address",
          "name": "borrower",
          "type": "address"
        },
        {
          "indexed": false,
          "internalType": "address",
          "name": "realOwner",
          "type": "address"
        }
      ],
      "name": "ticketClaimedBack",
      "type": "event"
    },
    {
      "anonymous": false,
      "inputs": [
        {
          "indexed": false,
          "internalType": "address",
          "name": "owner",
          "type": "address"
        },
        {
          "indexed": false,
          "internalType": "uint256",
          "name": "newTries",
          "type": "uint256"
        },
        {
          "indexed": false,
          "internalType": "uint256",
          "name": "newPrice",
          "type": "uint256"
        }
      ],
      "name": "ticketPriceChanged",
      "type": "event"
    },
    {
      "anonymous": false,
      "inputs": [
        {
          "indexed": false,
          "internalType": "address",
          "name": "owner",
          "type": "address"
        }
      ],
      "name": "unListTicketOnSale",
      "type": "event"
    },
    {
      "anonymous": false,
      "inputs": [
        {
          "indexed": false,
          "internalType": "address",
          "name": "owner",
          "type": "address"
        },
        {
          "indexed": false,
          "internalType": "uint256",
          "name": "marketItemId",
          "type": "uint256"
        }
      ],
      "name": "unListedItem",
      "type": "event"
    },
    {
      "inputs": [],
      "name": "ADMIN_ROLE",
      "outputs": [
        {
          "internalType": "bytes32",
          "name": "",
          "type": "bytes32"
        }
      ],
      "stateMutability": "view",
      "type": "function"
    },
    {
      "inputs": [],
      "name": "DEFAULT_ADMIN_ROLE",
      "outputs": [
        {
          "internalType": "bytes32",
          "name": "",
          "type": "bytes32"
        }
      ],
      "stateMutability": "view",
      "type": "function"
    },
    {
      "inputs": [],
      "name": "NUM_WORDS",
      "outputs": [
        {
          "internalType": "uint32",
          "name": "",
          "type": "uint32"
        }
      ],
      "stateMutability": "view",
      "type": "function"
    },
    {
      "inputs": [],
      "name": "REQUEST_CONFIRMATIONS",
      "outputs": [
        {
          "internalType": "uint16",
          "name": "",
          "type": "uint16"
        }
      ],
      "stateMutability": "view",
      "type": "function"
    },
    {
      "inputs": [
        {
          "internalType": "address",
          "name": "account",
          "type": "address"
        },
        {
          "internalType": "uint256",
          "name": "id",
          "type": "uint256"
        }
      ],
      "name": "balanceOf",
      "outputs": [
        {
          "internalType": "uint256",
          "name": "",
          "type": "uint256"
        }
      ],
      "stateMutability": "view",
      "type": "function"
    },
    {
      "inputs": [
        {
          "internalType": "address[]",
          "name": "accounts",
          "type": "address[]"
        },
        {
          "internalType": "uint256[]",
          "name": "ids",
          "type": "uint256[]"
        }
      ],
      "name": "balanceOfBatch",
      "outputs": [
        {
          "internalType": "uint256[]",
          "name": "",
          "type": "uint256[]"
        }
      ],
      "stateMutability": "view",
      "type": "function"
    },
    {
      "inputs": [],
      "name": "casePrice",
      "outputs": [
        {
          "internalType": "uint256",
          "name": "",
          "type": "uint256"
        }
      ],
      "stateMutability": "view",
      "type": "function"
    },
    {
      "inputs": [],
      "name": "contractActive",
      "outputs": [
        {
          "internalType": "bool",
          "name": "",
          "type": "bool"
        }
      ],
      "stateMutability": "view",
      "type": "function"
    },
    {
      "inputs": [
        {
          "internalType": "bytes32",
          "name": "role",
          "type": "bytes32"
        }
      ],
      "name": "getRoleAdmin",
      "outputs": [
        {
          "internalType": "bytes32",
          "name": "",
          "type": "bytes32"
        }
      ],
      "stateMutability": "view",
      "type": "function"
    },
    {
      "inputs": [
        {
          "internalType": "bytes32",
          "name": "role",
          "type": "bytes32"
        },
        {
          "internalType": "address",
          "name": "account",
          "type": "address"
        }
      ],
      "name": "grantRole",
      "outputs": [],
      "stateMutability": "nonpayable",
      "type": "function"
    },
    {
      "inputs": [
        {
          "internalType": "bytes32",
          "name": "role",
          "type": "bytes32"
        },
        {
          "internalType": "address",
          "name": "account",
          "type": "address"
        }
      ],
      "name": "hasRole",
      "outputs": [
        {
          "internalType": "bool",
          "name": "",
          "type": "bool"
        }
      ],
      "stateMutability": "view",
      "type": "function"
    },
    {
      "inputs": [],
      "name": "i_MrCryptoAddress",
      "outputs": [
        {
          "internalType": "address",
          "name": "",
          "type": "address"
        }
      ],
      "stateMutability": "view",
      "type": "function"
    },
    {
      "inputs": [],
      "name": "i_callbackGasLimit",
      "outputs": [
        {
          "internalType": "uint32",
          "name": "",
          "type": "uint32"
        }
      ],
      "stateMutability": "view",
      "type": "function"
    },
    {
      "inputs": [],
      "name": "i_gasLane",
      "outputs": [
        {
          "internalType": "bytes32",
          "name": "",
          "type": "bytes32"
        }
      ],
      "stateMutability": "view",
      "type": "function"
    },
    {
      "inputs": [],
      "name": "i_subscriptionId",
      "outputs": [
        {
          "internalType": "uint64",
          "name": "",
          "type": "uint64"
        }
      ],
      "stateMutability": "view",
      "type": "function"
    },
    {
      "inputs": [],
      "name": "i_vrfCoordinator",
      "outputs": [
        {
          "internalType": "contract VRFCoordinatorV2Interface",
          "name": "",
          "type": "address"
        }
      ],
      "stateMutability": "view",
      "type": "function"
    },
    {
      "inputs": [
        {
          "internalType": "address",
          "name": "account",
          "type": "address"
        },
        {
          "internalType": "address",
          "name": "operator",
          "type": "address"
        }
      ],
      "name": "isApprovedForAll",
      "outputs": [
        {
          "internalType": "bool",
          "name": "",
          "type": "bool"
        }
      ],
      "stateMutability": "view",
      "type": "function"
    },
    {
      "inputs": [
        {
          "internalType": "address",
          "name": "",
          "type": "address"
        },
        {
          "internalType": "address",
          "name": "",
          "type": "address"
        },
        {
          "internalType": "uint256[]",
          "name": "",
          "type": "uint256[]"
        },
        {
          "internalType": "uint256[]",
          "name": "",
          "type": "uint256[]"
        },
        {
          "internalType": "bytes",
          "name": "",
          "type": "bytes"
        }
      ],
      "name": "onERC1155BatchReceived",
      "outputs": [
        {
          "internalType": "bytes4",
          "name": "",
          "type": "bytes4"
        }
      ],
      "stateMutability": "nonpayable",
      "type": "function"
    },
    {
      "inputs": [
        {
          "internalType": "address",
          "name": "",
          "type": "address"
        },
        {
          "internalType": "address",
          "name": "",
          "type": "address"
        },
        {
          "internalType": "uint256",
          "name": "",
          "type": "uint256"
        },
        {
          "internalType": "uint256",
          "name": "",
          "type": "uint256"
        },
        {
          "internalType": "bytes",
          "name": "",
          "type": "bytes"
        }
      ],
      "name": "onERC1155Received",
      "outputs": [
        {
          "internalType": "bytes4",
          "name": "",
          "type": "bytes4"
        }
      ],
      "stateMutability": "nonpayable",
      "type": "function"
    },
    {
      "inputs": [
        {
          "internalType": "uint256",
          "name": "requestId",
          "type": "uint256"
        },
        {
          "internalType": "uint256[]",
          "name": "randomWords",
          "type": "uint256[]"
        }
      ],
      "name": "rawFulfillRandomWords",
      "outputs": [],
      "stateMutability": "nonpayable",
      "type": "function"
    },
    {
      "inputs": [
        {
          "internalType": "bytes32",
          "name": "role",
          "type": "bytes32"
        },
        {
          "internalType": "address",
          "name": "account",
          "type": "address"
        }
      ],
      "name": "renounceRole",
      "outputs": [],
      "stateMutability": "nonpayable",
      "type": "function"
    },
    {
      "inputs": [
        {
          "internalType": "bytes32",
          "name": "role",
          "type": "bytes32"
        },
        {
          "internalType": "address",
          "name": "account",
          "type": "address"
        }
      ],
      "name": "revokeRole",
      "outputs": [],
      "stateMutability": "nonpayable",
      "type": "function"
    },
    {
      "inputs": [],
      "name": "s_contractState",
      "outputs": [
        {
          "internalType": "enum RacksItemsv2.ContractState",
          "name": "",
          "type": "uint8"
        }
      ],
      "stateMutability": "view",
      "type": "function"
    },
    {
      "inputs": [],
      "name": "s_randomWord",
      "outputs": [
        {
          "internalType": "uint256",
          "name": "",
          "type": "uint256"
        }
      ],
      "stateMutability": "view",
      "type": "function"
    },
    {
      "inputs": [
        {
          "internalType": "address",
          "name": "from",
          "type": "address"
        },
        {
          "internalType": "address",
          "name": "to",
          "type": "address"
        },
        {
          "internalType": "uint256[]",
          "name": "ids",
          "type": "uint256[]"
        },
        {
          "internalType": "uint256[]",
          "name": "amounts",
          "type": "uint256[]"
        },
        {
          "internalType": "bytes",
          "name": "data",
          "type": "bytes"
        }
      ],
      "name": "safeBatchTransferFrom",
      "outputs": [],
      "stateMutability": "nonpayable",
      "type": "function"
    },
    {
      "inputs": [
        {
          "internalType": "address",
          "name": "from",
          "type": "address"
        },
        {
          "internalType": "address",
          "name": "to",
          "type": "address"
        },
        {
          "internalType": "uint256",
          "name": "id",
          "type": "uint256"
        },
        {
          "internalType": "uint256",
          "name": "amount",
          "type": "uint256"
        },
        {
          "internalType": "bytes",
          "name": "data",
          "type": "bytes"
        }
      ],
      "name": "safeTransferFrom",
      "outputs": [],
      "stateMutability": "nonpayable",
      "type": "function"
    },
    {
      "inputs": [
        {
          "internalType": "address",
          "name": "operator",
          "type": "address"
        },
        {
          "internalType": "bool",
          "name": "approved",
          "type": "bool"
        }
      ],
      "name": "setApprovalForAll",
      "outputs": [],
      "stateMutability": "nonpayable",
      "type": "function"
    },
    {
      "stateMutability": "payable",
      "type": "receive"
    },
    {
      "inputs": [
        {
          "internalType": "bytes4",
          "name": "interfaceId",
          "type": "bytes4"
        }
      ],
      "name": "supportsInterface",
      "outputs": [
        {
          "internalType": "bool",
          "name": "",
          "type": "bool"
        }
      ],
      "stateMutability": "view",
      "type": "function"
    },
    {
      "inputs": [
        {
          "internalType": "uint256",
          "name": "price",
          "type": "uint256"
        }
      ],
      "name": "setCasePrice",
      "outputs": [],
      "stateMutability": "nonpayable",
      "type": "function"
    },
    {
      "inputs": [],
      "name": "getCasePrice",
      "outputs": [
        {
          "internalType": "uint256",
          "name": "",
          "type": "uint256"
        }
      ],
      "stateMutability": "view",
      "type": "function"
    },
    {
      "inputs": [],
      "name": "_randomNumber",
      "outputs": [
        {
          "internalType": "uint256",
          "name": "",
          "type": "uint256"
        }
      ],
      "stateMutability": "nonpayable",
      "type": "function"
    },
    {
      "inputs": [],
      "name": "openCase",
      "outputs": [],
      "stateMutability": "nonpayable",
      "type": "function"
    },
    {
      "inputs": [
        {
          "internalType": "uint256",
          "name": "tokenId",
          "type": "uint256"
        }
      ],
      "name": "supplyOfItem",
      "outputs": [
        {
          "internalType": "uint256",
          "name": "",
          "type": "uint256"
        }
      ],
      "stateMutability": "view",
      "type": "function"
    },
    {
      "inputs": [
        {
          "internalType": "uint256",
          "name": "tokenId",
          "type": "uint256"
        }
      ],
      "name": "_rarityOfItem",
      "outputs": [
        {
          "internalType": "uint256",
          "name": "",
          "type": "uint256"
        }
      ],
      "stateMutability": "view",
      "type": "function"
    },
    {
      "inputs": [
        {
          "internalType": "address",
          "name": "owner",
          "type": "address"
        }
      ],
      "name": "viewItems",
      "outputs": [
        {
          "internalType": "uint256[]",
          "name": "",
          "type": "uint256[]"
        }
      ],
      "stateMutability": "view",
      "type": "function"
    },
    {
      "inputs": [
        {
          "internalType": "uint256",
          "name": "itemSupply",
          "type": "uint256"
        }
      ],
      "name": "listItem",
      "outputs": [],
      "stateMutability": "nonpayable",
      "type": "function"
    },
    {
      "inputs": [
        {
          "internalType": "uint256",
          "name": "marketItemId",
          "type": "uint256"
        },
        {
          "internalType": "uint256",
          "name": "price",
          "type": "uint256"
        }
      ],
      "name": "sellItem",
      "outputs": [],
      "stateMutability": "nonpayable",
      "type": "function"
    },
    {
      "inputs": [
        {
          "internalType": "uint256",
          "name": "marketItemId",
          "type": "uint256"
        }
      ],
      "name": "unListItem",
      "outputs": [],
      "stateMutability": "nonpayable",
      "type": "function"
    },
    {
      "inputs": [
        {
          "internalType": "uint256",
          "name": "marketItemId",
          "type": "uint256"
        },
        {
          "internalType": "uint256",
          "name": "newPrice",
          "type": "uint256"
        }
      ],
      "name": "changeItemPrice",
      "outputs": [],
      "stateMutability": "nonpayable",
      "type": "function"
    },
    {
      "inputs": [
        {
          "internalType": "uint256",
          "name": "marketItemId",
          "type": "uint256"
        }
      ],
      "name": "exchangeItem",
      "outputs": [],
      "stateMutability": "nonpayable",
      "type": "function"
    },
    {
      "inputs": [
        {
          "internalType": "uint256",
          "name": "marketItemId",
          "type": "uint256"
        }
      ],
      "name": "buyItem",
      "outputs": [],
      "stateMutability": "nonpayable",
      "type": "function"
    },
    {
      "inputs": [
        {
          "internalType": "uint256",
          "name": "marketItemId",
          "type": "uint256"
        }
      ],
      "name": "getMarketItem",
      "outputs": [
        {
          "components": [
            {
              "internalType": "uint256",
              "name": "tokenId",
              "type": "uint256"
            },
            {
              "internalType": "uint256",
              "name": "marketItemId",
              "type": "uint256"
            },
            {
              "internalType": "uint256",
              "name": "price",
              "type": "uint256"
            },
            {
              "internalType": "address",
              "name": "seller",
              "type": "address"
            },
            {
              "internalType": "bool",
              "name": "sold",
              "type": "bool"
            }
          ],
          "internalType": "struct RacksItemsv2.itemOnSale",
          "name": "",
          "type": "tuple"
        }
      ],
      "stateMutability": "view",
      "type": "function"
    },
    {
      "inputs": [],
      "name": "getItemsOnSale",
      "outputs": [
        {
          "components": [
            {
              "internalType": "uint256",
              "name": "tokenId",
              "type": "uint256"
            },
            {
              "internalType": "uint256",
              "name": "marketItemId",
              "type": "uint256"
            },
            {
              "internalType": "uint256",
              "name": "price",
              "type": "uint256"
            },
            {
              "internalType": "address",
              "name": "seller",
              "type": "address"
            },
            {
              "internalType": "bool",
              "name": "sold",
              "type": "bool"
            }
          ],
          "internalType": "struct RacksItemsv2.itemOnSale[]",
          "name": "",
          "type": "tuple[]"
        }
      ],
      "stateMutability": "view",
      "type": "function"
    },
    {
      "inputs": [
        {
          "internalType": "uint256",
          "name": "numTries",
          "type": "uint256"
        },
        {
          "internalType": "uint256",
          "name": "_hours",
          "type": "uint256"
        },
        {
          "internalType": "uint256",
          "name": "price",
          "type": "uint256"
        }
      ],
      "name": "listTicket",
      "outputs": [],
      "stateMutability": "nonpayable",
      "type": "function"
    },
    {
      "inputs": [
        {
          "internalType": "uint256",
          "name": "ticketId",
          "type": "uint256"
        }
      ],
      "name": "unListTicket",
      "outputs": [],
      "stateMutability": "nonpayable",
      "type": "function"
    },
    {
      "inputs": [
        {
          "internalType": "uint256",
          "name": "ticketId",
          "type": "uint256"
        },
        {
          "internalType": "uint256",
          "name": "newTries",
          "type": "uint256"
        },
        {
          "internalType": "uint256",
          "name": "newPrice",
          "type": "uint256"
        }
      ],
      "name": "changeTicketConditions",
      "outputs": [],
      "stateMutability": "nonpayable",
      "type": "function"
    },
    {
      "inputs": [
        {
          "internalType": "uint256",
          "name": "ticketId",
          "type": "uint256"
        }
      ],
      "name": "buyTicket",
      "outputs": [],
      "stateMutability": "nonpayable",
      "type": "function"
    },
    {
      "inputs": [
        {
          "internalType": "uint256",
          "name": "ticketId",
          "type": "uint256"
        }
      ],
      "name": "claimTicketBack",
      "outputs": [],
      "stateMutability": "nonpayable",
      "type": "function"
    },
    {
      "inputs": [
        {
          "internalType": "address",
          "name": "user",
          "type": "address"
        }
      ],
      "name": "decreaseTicketTries",
      "outputs": [],
      "stateMutability": "nonpayable",
      "type": "function"
    },
    {
      "inputs": [
        {
          "internalType": "uint256",
          "name": "ticketId",
          "type": "uint256"
        }
      ],
      "name": "getMarketTicket",
      "outputs": [
        {
          "components": [
            {
              "internalType": "uint256",
              "name": "ticketId",
              "type": "uint256"
            },
            {
              "internalType": "uint256",
              "name": "numTries",
              "type": "uint256"
            },
            {
              "internalType": "uint256",
              "name": "duration",
              "type": "uint256"
            },
            {
              "internalType": "uint256",
              "name": "price",
              "type": "uint256"
            },
            {
              "internalType": "address",
              "name": "owner",
              "type": "address"
            },
            {
              "internalType": "uint256",
              "name": "timeWhenSold",
              "type": "uint256"
            },
            {
              "internalType": "bool",
              "name": "isAvaliable",
              "type": "bool"
            }
          ],
          "internalType": "struct RacksItemsv2.caseTicket",
          "name": "",
          "type": "tuple"
        }
      ],
      "stateMutability": "view",
      "type": "function"
    },
    {
      "inputs": [],
      "name": "getITicketsOnSale",
      "outputs": [
        {
          "components": [
            {
              "internalType": "uint256",
              "name": "ticketId",
              "type": "uint256"
            },
            {
              "internalType": "uint256",
              "name": "numTries",
              "type": "uint256"
            },
            {
              "internalType": "uint256",
              "name": "duration",
              "type": "uint256"
            },
            {
              "internalType": "uint256",
              "name": "price",
              "type": "uint256"
            },
            {
              "internalType": "address",
              "name": "owner",
              "type": "address"
            },
            {
              "internalType": "uint256",
              "name": "timeWhenSold",
              "type": "uint256"
            },
            {
              "internalType": "bool",
              "name": "isAvaliable",
              "type": "bool"
            }
          ],
          "internalType": "struct RacksItemsv2.caseTicket[]",
          "name": "",
          "type": "tuple[]"
        }
      ],
      "stateMutability": "view",
      "type": "function"
    },
    {
      "inputs": [
        {
          "internalType": "address",
          "name": "user",
          "type": "address"
        }
      ],
      "name": "isVip",
      "outputs": [
        {
          "internalType": "bool",
          "name": "",
          "type": "bool"
        }
      ],
      "stateMutability": "view",
      "type": "function"
    },
    {
      "inputs": [
        {
          "internalType": "address",
          "name": "user",
          "type": "address"
        }
      ],
      "name": "setSingleRacksMember",
      "outputs": [],
      "stateMutability": "nonpayable",
      "type": "function"
    },
    {
      "inputs": [
        {
          "internalType": "address[]",
          "name": "users",
          "type": "address[]"
        }
      ],
      "name": "setListRacksMembers",
      "outputs": [],
      "stateMutability": "nonpayable",
      "type": "function"
    },
    {
      "inputs": [
        {
          "internalType": "address",
          "name": "user",
          "type": "address"
        }
      ],
      "name": "removeSingleRacksMember",
      "outputs": [],
      "stateMutability": "nonpayable",
      "type": "function"
    },
    {
      "inputs": [
        {
          "internalType": "address[]",
          "name": "users",
          "type": "address[]"
        }
      ],
      "name": "removeListRacksMembers",
      "outputs": [],
      "stateMutability": "nonpayable",
      "type": "function"
    },
    {
      "inputs": [
        {
          "internalType": "address",
          "name": "_newAdmin",
          "type": "address"
        }
      ],
      "name": "setAdmin",
      "outputs": [],
      "stateMutability": "nonpayable",
      "type": "function"
    },
    {
      "inputs": [],
      "name": "flipContractState",
      "outputs": [],
      "stateMutability": "nonpayable",
      "type": "function"
    },
    {
      "inputs": [
        {
          "internalType": "uint256",
          "name": "tokenId",
          "type": "uint256"
        }
      ],
      "name": "uri",
      "outputs": [
        {
          "internalType": "string",
          "name": "",
          "type": "string"
        }
      ],
      "stateMutability": "view",
      "type": "function"
    },
    {
      "inputs": [
        {
          "internalType": "uint256",
          "name": "tokenId",
          "type": "uint256"
        },
        {
          "internalType": "string",
          "name": "_uri",
          "type": "string"
        }
      ],
      "name": "setTokenUri",
      "outputs": [],
      "stateMutability": "nonpayable",
      "type": "function"
    },
    {
      "inputs": [
        {
          "internalType": "address",
          "name": "wallet",
          "type": "address"
        },
        {
          "internalType": "uint256",
          "name": "amount",
          "type": "uint256"
        }
      ],
      "name": "withdrawFunds",
      "outputs": [],
      "stateMutability": "nonpayable",
      "type": "function"
    },
    {
      "inputs": [
        {
          "internalType": "address",
          "name": "wallet",
          "type": "address"
        }
      ],
      "name": "withdrawAllFunds",
      "outputs": [],
      "stateMutability": "nonpayable",
      "type": "function"
    }
  ],
  "bytecode": "0x6101206040526001600c60006101000a81548160ff0219169083151502179055503480156200002d57600080fd5b50604051620090f3380380620090f3833981810160405281019062000053919062000437565b846040518060200160405280600081525062000075816200024060201b60201c565b508073ffffffffffffffffffffffffffffffffffffffff1660808173ffffffffffffffffffffffffffffffffffffffff1681525050508473ffffffffffffffffffffffffffffffffffffffff1660a08173ffffffffffffffffffffffffffffffffffffffff16815250508360c081815250508267ffffffffffffffff1660e08167ffffffffffffffff16815250508163ffffffff166101008163ffffffff168152505073ef453154766505feb9dbf0a58e6990fd6eb66969600460006101000a81548173ffffffffffffffffffffffffffffffffffffffff021916908373ffffffffffffffffffffffffffffffffffffffff16021790555080600560006101000a81548173ffffffffffffffffffffffffffffffffffffffff021916908373ffffffffffffffffffffffffffffffffffffffff16021790555033600660006101000a81548173ffffffffffffffffffffffffffffffffffffffff021916908373ffffffffffffffffffffffffffffffffffffffff16021790555060006008819055506000600a819055506001600b819055506000600c60016101000a81548160ff0219169083600181111562000230576200022f620004bf565b5b0217905550505050505062000553565b8060029080519060200190620002589291906200025c565b5050565b8280546200026a906200051d565b90600052602060002090601f0160209004810192826200028e5760008555620002da565b82601f10620002a957805160ff1916838001178555620002da565b82800160010185558215620002da579182015b82811115620002d9578251825591602001919060010190620002bc565b5b509050620002e99190620002ed565b5090565b5b8082111562000308576000816000905550600101620002ee565b5090565b600080fd5b600073ffffffffffffffffffffffffffffffffffffffff82169050919050565b60006200033e8262000311565b9050919050565b620003508162000331565b81146200035c57600080fd5b50565b600081519050620003708162000345565b92915050565b6000819050919050565b6200038b8162000376565b81146200039757600080fd5b50565b600081519050620003ab8162000380565b92915050565b600067ffffffffffffffff82169050919050565b620003d081620003b1565b8114620003dc57600080fd5b50565b600081519050620003f081620003c5565b92915050565b600063ffffffff82169050919050565b6200041181620003f6565b81146200041d57600080fd5b50565b600081519050620004318162000406565b92915050565b600080600080600060a086880312156200045657620004556200030c565b5b600062000466888289016200035f565b955050602062000479888289016200039a565b94505060406200048c88828901620003df565b93505060606200049f8882890162000420565b9250506080620004b2888289016200035f565b9150509295509295909350565b7f4e487b7100000000000000000000000000000000000000000000000000000000600052602160045260246000fd5b7f4e487b7100000000000000000000000000000000000000000000000000000000600052602260045260246000fd5b600060028204905060018216806200053657607f821691505b602082108114156200054d576200054c620004ee565b5b50919050565b60805160a05160c05160e05161010051618b38620005bb60003960008181611fbf0152613e7801526000818161194e0152611f9c015260008181611f7b0152612f1e015260008181611f3f015261326701526000818161111101526111650152618b386000f3fe6080604052600436106103b05760003560e01c80638ba8b15a116101e7578063c10753291161010d578063e289fcb6116100a0578063f23a6e611161006f578063f23a6e6114610e06578063f242432a14610e43578063f48c9d3414610e6c578063fd210fd914610ea9576103b7565b8063e289fcb614610d4c578063e7fb74c714610d77578063e985e9c514610da0578063ebf82e5c14610ddd576103b7565b8063d547741f116100dc578063d547741f14610ca4578063d757d02714610ccd578063dd006d3114610cf8578063de08f65314610d35576103b7565b8063c107532914610bd6578063c7be7a4914610bff578063c7e05f8d14610c3c578063ca90958f14610c79576103b7565b8063a7b1942411610185578063b63b861211610154578063b63b861214610b1a578063b85e67af14610b45578063bbcbc2e714610b6e578063bc197c8114610b99576103b7565b8063a7b1942414610a72578063a7bc77c614610a9b578063aebc455014610ac4578063b2ead3c714610aef576103b7565b806391d14854116101c157806391d14854146109b6578063976298f3146109f3578063a217fddf14610a1e578063a22cb46514610a49576103b7565b80638ba8b15a146109395780638dc5f45b146109625780638e879c8a1461098b576103b7565b8063470cdf97116102d757806367dd74ca1161026a57806375b238fc1161023957806375b238fc1461087f5780637e420db5146108aa57806384203f4b146108d357806389165aa914610910576103b7565b806367dd74ca146107d757806367f082b014610800578063704b6c021461082b57806372cf6e3414610854576103b7565b806354e889f6116102a657806354e889f61461073157806357f7789e1461075a578063616524501461078357806361c073d6146107ae576103b7565b8063470cdf97146106895780634a226657146106b45780634e1273f4146106cb5780635408c31914610708576103b7565b8063248a9ca31161034f5780632f2ff15d1161031e5780632f2ff15d146105e557806330dc27641461060e57806332dee40b1461063757806336568abe14610660576103b7565b8063248a9ca31461052d5780632ce381901461056a5780632d923561146105935780632eb2c2d6146105bc576103b7565b8063109b82781161038b578063109b8278146104735780631cb0b2731461049e5780631fe543e3146104c757806320ba0814146104f0576103b7565b8062fdd58e146103bc57806301ffc9a7146103f95780630e89341c14610436576103b7565b366103b757005b600080fd5b3480156103c857600080fd5b506103e360048036038101906103de9190616093565b610ed4565b6040516103f091906160e2565b60405180910390f35b34801561040557600080fd5b50610420600480360381019061041b9190616155565b610f9d565b60405161042d919061619d565b60405180910390f35b34801561044257600080fd5b5061045d600480360381019061045891906161b8565b610faf565b60405161046a919061627e565b60405180910390f35b34801561047f57600080fd5b50610488611054565b60405161049591906162af565b60405180910390f35b3480156104aa57600080fd5b506104c560048036038101906104c091906161b8565b61106c565b005b3480156104d357600080fd5b506104ee60048036038101906104e99190616412565b61110f565b005b3480156104fc57600080fd5b50610517600480360381019061051291906161b8565b6111cf565b60405161052491906160e2565b60405180910390f35b34801561053957600080fd5b50610554600480360381019061054f91906164a4565b6111ec565b60405161056191906164e0565b60405180910390f35b34801561057657600080fd5b50610591600480360381019061058c91906161b8565b61120c565b005b34801561059f57600080fd5b506105ba60048036038101906105b591906164fb565b611261565b005b3480156105c857600080fd5b506105e360048036038101906105de91906165f0565b611415565b005b3480156105f157600080fd5b5061060c600480360381019061060791906166bf565b6114b6565b005b34801561061a57600080fd5b50610635600480360381019061063091906166ff565b6114d7565b005b34801561064357600080fd5b5061065e600480360381019061065991906166ff565b6116b7565b005b34801561066c57600080fd5b50610687600480360381019061068291906166bf565b6118c9565b005b34801561069557600080fd5b5061069e61194c565b6040516106ab919061674f565b60405180910390f35b3480156106c057600080fd5b506106c9611970565b005b3480156106d757600080fd5b506106f260048036038101906106ed919061682d565b611bcb565b6040516106ff9190616963565b60405180910390f35b34801561071457600080fd5b5061072f600480360381019061072a9190616985565b611ce4565b005b34801561073d57600080fd5b50610758600480360381019061075391906166ff565b611dc1565b005b34801561076657600080fd5b50610781600480360381019061077c9190616a6f565b611e64565b005b34801561078f57600080fd5b50610798611f3a565b6040516107a591906160e2565b60405180910390f35b3480156107ba57600080fd5b506107d560048036038101906107d091906161b8565b61204c565b005b3480156107e357600080fd5b506107fe60048036038101906107f991906161b8565b612349565b005b34801561080c57600080fd5b50610815612903565b6040516108229190616ae8565b60405180910390f35b34801561083757600080fd5b50610852600480360381019061084d91906166ff565b612908565b005b34801561086057600080fd5b506108696129a8565b6040516108769190616b22565b60405180910390f35b34801561088b57600080fd5b506108946129ad565b6040516108a191906164e0565b60405180910390f35b3480156108b657600080fd5b506108d160048036038101906108cc91906161b8565b6129b4565b005b3480156108df57600080fd5b506108fa60048036038101906108f591906166ff565b612c0b565b604051610907919061619d565b60405180910390f35b34801561091c57600080fd5b5061093760048036038101906109329190616985565b612d13565b005b34801561094557600080fd5b50610960600480360381019061095b91906166ff565b612df0565b005b34801561096e57600080fd5b50610989600480360381019061098491906161b8565b612e93565b005b34801561099757600080fd5b506109a0612f1c565b6040516109ad91906164e0565b60405180910390f35b3480156109c257600080fd5b506109dd60048036038101906109d891906166bf565b612f40565b6040516109ea919061619d565b60405180910390f35b3480156109ff57600080fd5b50610a08612fab565b604051610a1591906160e2565b60405180910390f35b348015610a2a57600080fd5b50610a33612fb5565b604051610a4091906164e0565b60405180910390f35b348015610a5557600080fd5b50610a706004803603810190610a6b9190616b69565b612fbc565b005b348015610a7e57600080fd5b50610a996004803603810190610a9491906164fb565b612fd2565b005b348015610aa757600080fd5b50610ac26004803603810190610abd91906161b8565b61311b565b005b348015610ad057600080fd5b50610ad9613265565b604051610ae69190616c08565b60405180910390f35b348015610afb57600080fd5b50610b04613289565b604051610b119190616d7e565b60405180910390f35b348015610b2657600080fd5b50610b2f613548565b604051610b3c9190616e17565b60405180910390f35b348015610b5157600080fd5b50610b6c6004803603810190610b679190616e32565b61355b565b005b348015610b7a57600080fd5b50610b83613883565b604051610b909190616f9c565b60405180910390f35b348015610ba557600080fd5b50610bc06004803603810190610bbb91906165f0565b613b1a565b604051610bcd9190616fcd565b60405180910390f35b348015610be257600080fd5b50610bfd6004803603810190610bf89190616093565b613b2f565b005b348015610c0b57600080fd5b50610c266004803603810190610c2191906161b8565b613d42565b604051610c339190617050565b60405180910390f35b348015610c4857600080fd5b50610c636004803603810190610c5e91906161b8565b613e0d565b604051610c7091906160e2565b60405180910390f35b348015610c8557600080fd5b50610c8e613e4f565b604051610c9b91906160e2565b60405180910390f35b348015610cb057600080fd5b50610ccb6004803603810190610cc691906166bf565b613e55565b005b348015610cd957600080fd5b50610ce2613e76565b604051610cef9190616b22565b60405180910390f35b348015610d0457600080fd5b50610d1f6004803603810190610d1a91906161b8565b613e9a565b604051610d2c91906170f9565b60405180910390f35b348015610d4157600080fd5b50610d4a613f79565b005b348015610d5857600080fd5b50610d6161405b565b604051610d6e919061619d565b60405180910390f35b348015610d8357600080fd5b50610d9e6004803603810190610d9991906161b8565b61406e565b005b348015610dac57600080fd5b50610dc76004803603810190610dc29190617114565b6142d3565b604051610dd4919061619d565b60405180910390f35b348015610de957600080fd5b50610e046004803603810190610dff9190616e32565b614367565b005b348015610e1257600080fd5b50610e2d6004803603810190610e289190617154565b614582565b604051610e3a9190616fcd565b60405180910390f35b348015610e4f57600080fd5b50610e6a6004803603810190610e659190617154565b614597565b005b348015610e7857600080fd5b50610e936004803603810190610e8e91906166ff565b614638565b604051610ea09190616963565b60405180910390f35b348015610eb557600080fd5b50610ebe6146db565b604051610ecb91906160e2565b60405180910390f35b60008073ffffffffffffffffffffffffffffffffffffffff168373ffffffffffffffffffffffffffffffffffffffff161415610f45576040517f08c379a0000000000000000000000000000000000000000000000000000000008152600401610f3c9061725d565b60405180910390fd5b60008083815260200190815260200160002060008473ffffffffffffffffffffffffffffffffffffffff1673ffffffffffffffffffffffffffffffffffffffff16815260200190815260200160002054905092915050565b6000610fa8826146e1565b9050919050565b6060601260008381526020019081526020016000208054610fcf906172ac565b80601f0160208091040260200160405190810160405280929190818152602001828054610ffb906172ac565b80156110485780601f1061101d57610100808354040283529160200191611048565b820191906000526020600020905b81548152906001019060200180831161102b57829003601f168201915b50505050509050919050565b73ef453154766505feb9dbf0a58e6990fd6eb6696981565b60006110783383610ed4565b1161108257600080fd5b61108e3382600161475b565b60016011600083815260200190815260200160002060008282546110b2919061730d565b925050819055506001600760008282546110cc919061730d565b925050819055507f9e90d55d2f1f115ffe1b87372c45f27f6b3a2b5ba392942167be7845618900943382604051611104929190617341565b60405180910390a150565b7f000000000000000000000000000000000000000000000000000000000000000073ffffffffffffffffffffffffffffffffffffffff163373ffffffffffffffffffffffffffffffffffffffff16146111c157337f00000000000000000000000000000000000000000000000000000000000000006040517f1cf993f40000000000000000000000000000000000000000000000000000000081526004016111b892919061736a565b60405180910390fd5b6111cb82826149a2565b5050565b600060116000838152602001908152602001600020549050919050565b600060036000838152602001908152602001600020600101549050919050565b611215336149c8565b611254576040517f08c379a000000000000000000000000000000000000000000000000000000000815260040161124b90617405565b60405180910390fd5b61125e3082614a41565b50565b600061126d3384610ed4565b116112ad576040517f08c379a00000000000000000000000000000000000000000000000000000000081526004016112a490617471565b60405180910390fd5b6112ca333084600160405180602001604052806000815250614aa1565b600d6040518060a0016040528084815260200160095481526020018381526020013373ffffffffffffffffffffffffffffffffffffffff16815260200160001515815250908060018154018082558091505060019003906000526020600020906004020160009091909190915060008201518160000155602082015181600101556040820151816002015560608201518160030160006101000a81548173ffffffffffffffffffffffffffffffffffffffff021916908373ffffffffffffffffffffffffffffffffffffffff16021790555060808201518160030160146101000a81548160ff0219169083151502179055505050600960008154809291906113d190617491565b91905055507f23cba88d6c6f26b62b2cfc32a2cc04fbbde8590188b97cd3590e45af9ac6dd6d338383604051611409939291906174da565b60405180910390a15050565b61141d614d3d565b73ffffffffffffffffffffffffffffffffffffffff168573ffffffffffffffffffffffffffffffffffffffff16148061146357506114628561145d614d3d565b6142d3565b5b6114a2576040517f08c379a000000000000000000000000000000000000000000000000000000000815260040161149990617583565b60405180910390fd5b6114af8585858585614d45565b5050505050565b6114bf826111ec565b6114c881615067565b6114d2838361507b565b505050565b60005b600e805490508110156116b3578173ffffffffffffffffffffffffffffffffffffffff16600e8281548110611512576115116175a3565b5b906000526020600020906007020160040160009054906101000a900473ffffffffffffffffffffffffffffffffffffffff1673ffffffffffffffffffffffffffffffffffffffff1614156116a0576001600e8281548110611576576115756175a3565b5b906000526020600020906007020160010154146115cd57600e81815481106115a1576115a06175a3565b5b906000526020600020906007020160010160008154809291906115c3906175d2565b919050555061169f565b600e81815481106115e1576115e06175a3565b5b90600052602060002090600702016001016000815480929190611603906175d2565b91905055506000600e828154811061161e5761161d6175a3565b5b906000526020600020906007020160060160006101000a81548160ff0219169083151502179055506000601460008473ffffffffffffffffffffffffffffffffffffffff1673ffffffffffffffffffffffffffffffffffffffff16815260200190815260200160002060006101000a81548160ff0219169083151502179055505b5b80806116ab90617491565b9150506114da565b5050565b600660009054906101000a900473ffffffffffffffffffffffffffffffffffffffff1673ffffffffffffffffffffffffffffffffffffffff163373ffffffffffffffffffffffffffffffffffffffff1614611747576040517f08c379a000000000000000000000000000000000000000000000000000000000815260040161173e90617648565b60405180910390fd5b6000600560009054906101000a900473ffffffffffffffffffffffffffffffffffffffff1673ffffffffffffffffffffffffffffffffffffffff166370a08231306040518263ffffffff1660e01b81526004016117a491906162af565b602060405180830381865afa1580156117c1573d6000803e3d6000fd5b505050506040513d601f19601f820116820180604052508101906117e5919061767d565b11611825576040517f08c379a000000000000000000000000000000000000000000000000000000000815260040161181c906176f6565b60405180910390fd5b600560009054906101000a900473ffffffffffffffffffffffffffffffffffffffff1673ffffffffffffffffffffffffffffffffffffffff1663a9059cbb82476040518363ffffffff1660e01b8152600401611882929190617341565b6020604051808303816000875af11580156118a1573d6000803e3d6000fd5b505050506040513d601f19601f820116820180604052508101906118c5919061772b565b5050565b6118d1614d3d565b73ffffffffffffffffffffffffffffffffffffffff168173ffffffffffffffffffffffffffffffffffffffff161461193e576040517f08c379a0000000000000000000000000000000000000000000000000000000008152600401611935906177ca565b60405180910390fd5b611948828261515c565b5050565b7f000000000000000000000000000000000000000000000000000000000000000081565b6000600181111561198457611983616da0565b5b600c60019054906101000a900460ff1660018111156119a6576119a5616da0565b5b146119e6576040517f08c379a00000000000000000000000000000000000000000000000000000000081526004016119dd9061785c565b60405180910390fd5b600560009054906101000a900473ffffffffffffffffffffffffffffffffffffffff1673ffffffffffffffffffffffffffffffffffffffff166323b872dd3330600b546040518463ffffffff1660e01b8152600401611a479392919061787c565b6020604051808303816000875af1158015611a66573d6000803e3d6000fd5b505050506040513d601f19601f82011682018060405250810190611a8a919061772b565b506000600754611a98611f3a565b611aa291906178e2565b905060008080600090505b600854811015611b7f576000601160008381526020019081526020016000205484611ad89190617913565b905080851115611aea57809350611b6b565b8192506000611af93085610ed4565b1415611b48576000600184611b0e919061730d565b90505b60008110611b46576000611b253083610ed4565b1115611b3357809350611b46565b8080611b3e906175d2565b915050611b11565b505b611b65303385600160405180602001604052806000815250614aa1565b50611b7f565b508080611b7790617491565b915050611aad565b50611b89336114d7565b7fea32e37a2618dbb680c93d891742e9e13b30d184822562a0ee3c09290fd42b4333600b5483604051611bbe939291906174da565b60405180910390a1505050565b60608151835114611c11576040517f08c379a0000000000000000000000000000000000000000000000000000000008152600401611c08906179db565b60405180910390fd5b6000835167ffffffffffffffff811115611c2e57611c2d6162cf565b5b604051908082528060200260200182016040528015611c5c5781602001602082028036833780820191505090505b50905060005b8451811015611cd957611ca9858281518110611c8157611c806175a3565b5b6020026020010151858381518110611c9c57611c9b6175a3565b5b6020026020010151610ed4565b828281518110611cbc57611cbb6175a3565b5b60200260200101818152505080611cd290617491565b9050611c62565b508091505092915050565b611ced336149c8565b611d2c576040517f08c379a0000000000000000000000000000000000000000000000000000000008152600401611d2390617405565b60405180910390fd5b60005b8151811015611dbd57600060106000848481518110611d5157611d506175a3565b5b602002602001015173ffffffffffffffffffffffffffffffffffffffff1673ffffffffffffffffffffffffffffffffffffffff16815260200190815260200160002060006101000a81548160ff0219169083151502179055508080611db590617491565b915050611d2f565b5050565b611dca336149c8565b611e09576040517f08c379a0000000000000000000000000000000000000000000000000000000008152600401611e0090617405565b60405180910390fd5b6001601060008373ffffffffffffffffffffffffffffffffffffffff1673ffffffffffffffffffffffffffffffffffffffff16815260200190815260200160002060006101000a81548160ff02191690831515021790555050565b611e6d336149c8565b611eac576040517f08c379a0000000000000000000000000000000000000000000000000000000008152600401611ea390617405565b60405180910390fd5b6000601260008481526020019081526020016000208054611ecc906172ac565b905014611f0e576040517f08c379a0000000000000000000000000000000000000000000000000000000008152600401611f0590617a47565b60405180910390fd5b80601260008481526020019081526020016000209080519060200190611f35929190615eac565b505050565b6000807f000000000000000000000000000000000000000000000000000000000000000073ffffffffffffffffffffffffffffffffffffffff16635d3b1d307f00000000000000000000000000000000000000000000000000000000000000007f000000000000000000000000000000000000000000000000000000000000000060037f000000000000000000000000000000000000000000000000000000000000000060026040518663ffffffff1660e01b8152600401612000959493929190617a67565b6020604051808303816000875af115801561201f573d6000803e3d6000fd5b505050506040513d601f19601f82011682018060405250810190612043919061767d565b90508091505090565b601560003373ffffffffffffffffffffffffffffffffffffffff1673ffffffffffffffffffffffffffffffffffffffff16815260200190815260200160002060009054906101000a900460ff166120d8576040517f08c379a00000000000000000000000000000000000000000000000000000000081526004016120cf90617b06565b60405180910390fd5b603c600e82815481106120ee576120ed6175a3565b5b90600052602060002090600702016002015461210a9190617b26565b42600e838154811061211f5761211e6175a3565b5b90600052602060002090600702016005015461213b919061730d565b1161217b576040517f08c379a000000000000000000000000000000000000000000000000000000000815260040161217290617bc9565b60405180910390fd5b600060146000600e8481548110612195576121946175a3565b5b906000526020600020906007020160040160009054906101000a900473ffffffffffffffffffffffffffffffffffffffff1673ffffffffffffffffffffffffffffffffffffffff1673ffffffffffffffffffffffffffffffffffffffff16815260200190815260200160002060006101000a81548160ff0219169083151502179055506001601460003373ffffffffffffffffffffffffffffffffffffffff1673ffffffffffffffffffffffffffffffffffffffff16815260200190815260200160002060006101000a81548160ff0219169083151502179055506000601560003373ffffffffffffffffffffffffffffffffffffffff1673ffffffffffffffffffffffffffffffffffffffff16815260200190815260200160002060006101000a81548160ff0219169083151502179055507f5093646a80c0a81f51115fbf5ec8379ecf902ae2ba552c74599cbe844dcb53e3600e82815481106122fd576122fc6175a3565b5b906000526020600020906007020160040160009054906101000a900473ffffffffffffffffffffffffffffffffffffffff163360405161233e92919061736a565b60405180910390a150565b61235233612c0b565b1561235c57600080fd5b3373ffffffffffffffffffffffffffffffffffffffff16600e8281548110612387576123866175a3565b5b906000526020600020906007020160040160009054906101000a900473ffffffffffffffffffffffffffffffffffffffff1673ffffffffffffffffffffffffffffffffffffffff161415612410576040517f08c379a000000000000000000000000000000000000000000000000000000000815260040161240790617c5b565b60405180910390fd5b60011515600e8281548110612428576124276175a3565b5b906000526020600020906007020160060160009054906101000a900460ff16151514612489576040517f08c379a000000000000000000000000000000000000000000000000000000000815260040161248090617ced565b60405180910390fd5b6000600e828154811061249f5761249e6175a3565b5b906000526020600020906007020160040160009054906101000a900473ffffffffffffffffffffffffffffffffffffffff169050600560009054906101000a900473ffffffffffffffffffffffffffffffffffffffff1673ffffffffffffffffffffffffffffffffffffffff166323b872dd33600e8581548110612526576125256175a3565b5b906000526020600020906007020160040160009054906101000a900473ffffffffffffffffffffffffffffffffffffffff16600e868154811061256c5761256b6175a3565b5b9060005260206000209060070201600301546040518463ffffffff1660e01b815260040161259c9392919061787c565b6020604051808303816000875af11580156125bb573d6000803e3d6000fd5b505050506040513d601f19601f820116820180604052508101906125df919061772b565b5042600e83815481106125f5576125f46175a3565b5b906000526020600020906007020160050181905550600060146000600e8581548110612624576126236175a3565b5b906000526020600020906007020160040160009054906101000a900473ffffffffffffffffffffffffffffffffffffffff1673ffffffffffffffffffffffffffffffffffffffff1673ffffffffffffffffffffffffffffffffffffffff16815260200190815260200160002060006101000a81548160ff021916908315150217905550600060136000600e85815481106126c1576126c06175a3565b5b906000526020600020906007020160040160009054906101000a900473ffffffffffffffffffffffffffffffffffffffff1673ffffffffffffffffffffffffffffffffffffffff1673ffffffffffffffffffffffffffffffffffffffff16815260200190815260200160002060006101000a81548160ff021916908315150217905550600160156000600e858154811061275e5761275d6175a3565b5b906000526020600020906007020160040160009054906101000a900473ffffffffffffffffffffffffffffffffffffffff1673ffffffffffffffffffffffffffffffffffffffff1673ffffffffffffffffffffffffffffffffffffffff16815260200190815260200160002060006101000a81548160ff02191690831515021790555033600e83815481106127f6576127f56175a3565b5b906000526020600020906007020160040160006101000a81548173ffffffffffffffffffffffffffffffffffffffff021916908373ffffffffffffffffffffffffffffffffffffffff1602179055506001601460003373ffffffffffffffffffffffffffffffffffffffff1673ffffffffffffffffffffffffffffffffffffffff16815260200190815260200160002060006101000a81548160ff0219169083151502179055507f060f7dd92424d6f1af65d2fe9acba5b63d299cc26cd8eb26403ca371bc9fbfbb828233600e86815481106128d5576128d46175a3565b5b9060005260206000209060070201600301546040516128f79493929190617d0d565b60405180910390a15050565b600381565b600660009054906101000a900473ffffffffffffffffffffffffffffffffffffffff1673ffffffffffffffffffffffffffffffffffffffff163373ffffffffffffffffffffffffffffffffffffffff1614612998576040517f08c379a000000000000000000000000000000000000000000000000000000000815260040161298f90617648565b60405180910390fd5b6129a56000801b8261523e565b50565b600281565b6000801b81565b6129bd33612c0b565b6129fc576040517f08c379a00000000000000000000000000000000000000000000000000000000081526004016129f390617dc4565b60405180910390fd5b601360003373ffffffffffffffffffffffffffffffffffffffff1673ffffffffffffffffffffffffffffffffffffffff16815260200190815260200160002060009054906101000a900460ff16612a88576040517f08c379a0000000000000000000000000000000000000000000000000000000008152600401612a7f90617e56565b60405180910390fd5b3373ffffffffffffffffffffffffffffffffffffffff16600e8281548110612ab357612ab26175a3565b5b906000526020600020906007020160040160009054906101000a900473ffffffffffffffffffffffffffffffffffffffff1673ffffffffffffffffffffffffffffffffffffffff1614612b3b576040517f08c379a0000000000000000000000000000000000000000000000000000000008152600401612b3290617ec2565b60405180910390fd5b6000600e8281548110612b5157612b506175a3565b5b906000526020600020906007020160060160006101000a81548160ff0219169083151502179055506000601360003373ffffffffffffffffffffffffffffffffffffffff1673ffffffffffffffffffffffffffffffffffffffff16815260200190815260200160002060006101000a81548160ff0219169083151502179055507f5dbab6b1e9ddd154d6eb51aa5622fb5278ea62a0b5f81d046a945d899490f63133604051612c0091906162af565b60405180910390a150565b600080600460009054906101000a900473ffffffffffffffffffffffffffffffffffffffff1673ffffffffffffffffffffffffffffffffffffffff166370a08231846040518263ffffffff1660e01b8152600401612c6991906162af565b602060405180830381865afa158015612c86573d6000803e3d6000fd5b505050506040513d601f19601f82011682018060405250810190612caa919061767d565b11612cb457600080fd5b601060008373ffffffffffffffffffffffffffffffffffffffff1673ffffffffffffffffffffffffffffffffffffffff16815260200190815260200160002060009054906101000a900460ff16612d0a57600080fd5b60019050919050565b612d1c336149c8565b612d5b576040517f08c379a0000000000000000000000000000000000000000000000000000000008152600401612d5290617405565b60405180910390fd5b60005b8151811015612dec57600160106000848481518110612d8057612d7f6175a3565b5b602002602001015173ffffffffffffffffffffffffffffffffffffffff1673ffffffffffffffffffffffffffffffffffffffff16815260200190815260200160002060006101000a81548160ff0219169083151502179055508080612de490617491565b915050612d5e565b5050565b612df9336149c8565b612e38576040517f08c379a0000000000000000000000000000000000000000000000000000000008152600401612e2f90617405565b60405180910390fd5b6000601060008373ffffffffffffffffffffffffffffffffffffffff1673ffffffffffffffffffffffffffffffffffffffff16815260200190815260200160002060006101000a81548160ff02191690831515021790555050565b612e9c336149c8565b612edb576040517f08c379a0000000000000000000000000000000000000000000000000000000008152600401612ed290617405565b60405180910390fd5b80600b819055507f06cd74aabc11982a85b554df4d7833623303656fe69bed4db1b0cb3245feebe381604051612f1191906160e2565b60405180910390a150565b7f000000000000000000000000000000000000000000000000000000000000000081565b60006003600084815260200190815260200160002060000160008373ffffffffffffffffffffffffffffffffffffffff1673ffffffffffffffffffffffffffffffffffffffff16815260200190815260200160002060009054906101000a900460ff16905092915050565b6000600b54905090565b6000801b81565b612fce612fc7614d3d565b838361524c565b5050565b3373ffffffffffffffffffffffffffffffffffffffff16600d8381548110612ffd57612ffc6175a3565b5b906000526020600020906004020160030160009054906101000a900473ffffffffffffffffffffffffffffffffffffffff1673ffffffffffffffffffffffffffffffffffffffff1614613085576040517f08c379a000000000000000000000000000000000000000000000000000000000815260040161307c90617f54565b60405180910390fd5b6000600d838154811061309b5761309a6175a3565b5b906000526020600020906004020160020154905081600d84815481106130c4576130c36175a3565b5b9060005260206000209060040201600201819055507fb141d00f22a670547caacc412e6489d8edaba6a840df558118363ce1a40d6ed23384838560405161310e9493929190617f74565b60405180910390a1505050565b3373ffffffffffffffffffffffffffffffffffffffff16600d8281548110613146576131456175a3565b5b906000526020600020906004020160030160009054906101000a900473ffffffffffffffffffffffffffffffffffffffff1673ffffffffffffffffffffffffffffffffffffffff16146131ce576040517f08c379a00000000000000000000000000000000000000000000000000000000081526004016131c590617f54565b60405180910390fd5b6131eb303383600160405180602001604052806000815250614aa1565b6001600d8281548110613201576132006175a3565b5b906000526020600020906004020160030160146101000a81548160ff0219169083151502179055507fc9cedcca3d85d6009a562a9e70071f6288adabda9ba7f059589165e75c9cf404338260405161325a929190617341565b60405180910390a150565b7f000000000000000000000000000000000000000000000000000000000000000081565b6060600080600090505b600e805490508110156133a9576000600e82815481106132b6576132b56175a3565b5b90600052602060002090600702016040518060e0016040529081600082015481526020016001820154815260200160028201548152602001600382015481526020016004820160009054906101000a900473ffffffffffffffffffffffffffffffffffffffff1673ffffffffffffffffffffffffffffffffffffffff1673ffffffffffffffffffffffffffffffffffffffff168152602001600582015481526020016006820160009054906101000a900460ff1615151515815250509050600115158160c0015115151415613395576001836133929190617913565b92505b5080806133a190617491565b915050613293565b5060008167ffffffffffffffff8111156133c6576133c56162cf565b5b6040519080825280602002602001820160405280156133ff57816020015b6133ec615f32565b8152602001906001900390816133e45790505b509050600080600090505b600e8054905081101561353e576000600e828154811061342d5761342c6175a3565b5b90600052602060002090600702016040518060e0016040529081600082015481526020016001820154815260200160028201548152602001600382015481526020016004820160009054906101000a900473ffffffffffffffffffffffffffffffffffffffff1673ffffffffffffffffffffffffffffffffffffffff1673ffffffffffffffffffffffffffffffffffffffff168152602001600582015481526020016006820160009054906101000a900460ff1615151515815250509050600115158160c001511515141561352a57808484815181106135105761350f6175a3565b5b6020026020010181905250828061352690617491565b9350505b50808061353690617491565b91505061340a565b5081935050505090565b600c60019054906101000a900460ff1681565b61356433612c0b565b6135a3576040517f08c379a000000000000000000000000000000000000000000000000000000000815260040161359a90617dc4565b60405180910390fd5b601360003373ffffffffffffffffffffffffffffffffffffffff1673ffffffffffffffffffffffffffffffffffffffff16815260200190815260200160002060009054906101000a900460ff1615613630576040517f08c379a00000000000000000000000000000000000000000000000000000000081526004016136279061802b565b60405180910390fd5b601460003373ffffffffffffffffffffffffffffffffffffffff1673ffffffffffffffffffffffffffffffffffffffff16815260200190815260200160002060009054906101000a900460ff166136bc576040517f08c379a00000000000000000000000000000000000000000000000000000000081526004016136b390618097565b60405180910390fd5b600e6040518060e00160405280600a5481526020018581526020018481526020018381526020013373ffffffffffffffffffffffffffffffffffffffff168152602001600081526020016001151581525090806001815401808255809150506001900390600052602060002090600702016000909190919091506000820151816000015560208201518160010155604082015181600201556060820151816003015560808201518160040160006101000a81548173ffffffffffffffffffffffffffffffffffffffff021916908373ffffffffffffffffffffffffffffffffffffffff16021790555060a0820151816005015560c08201518160060160006101000a81548160ff0219169083151502179055505050600a60008154809291906137e490617491565b91905055506001601360003373ffffffffffffffffffffffffffffffffffffffff1673ffffffffffffffffffffffffffffffffffffffff16815260200190815260200160002060006101000a81548160ff0219169083151502179055507f07814713aba2e13eb5f2470225f7395d33fad1452b70f8427dae73e4d3a59344338484846040516138769493929190617f74565b60405180910390a1505050565b6060600080600090505b600d8054905081101561398f576000600d82815481106138b0576138af6175a3565b5b90600052602060002090600402016040518060a00160405290816000820154815260200160018201548152602001600282015481526020016003820160009054906101000a900473ffffffffffffffffffffffffffffffffffffffff1673ffffffffffffffffffffffffffffffffffffffff1673ffffffffffffffffffffffffffffffffffffffff1681526020016003820160149054906101000a900460ff16151515158152505090506000151581608001511515141561397b576001836139789190617913565b92505b50808061398790617491565b91505061388d565b5060008167ffffffffffffffff8111156139ac576139ab6162cf565b5b6040519080825280602002602001820160405280156139e557816020015b6139d2615f87565b8152602001906001900390816139ca5790505b509050600080600090505b600d80549050811015613b10576000600d8281548110613a1357613a126175a3565b5b90600052602060002090600402016040518060a00160405290816000820154815260200160018201548152602001600282015481526020016003820160009054906101000a900473ffffffffffffffffffffffffffffffffffffffff1673ffffffffffffffffffffffffffffffffffffffff1673ffffffffffffffffffffffffffffffffffffffff1681526020016003820160149054906101000a900460ff161515151581525050905060001515816080015115151415613afc5780848481518110613ae257613ae16175a3565b5b60200260200101819052508280613af890617491565b9350505b508080613b0890617491565b9150506139f0565b5081935050505090565b600063bc197c8160e01b905095945050505050565b600660009054906101000a900473ffffffffffffffffffffffffffffffffffffffff1673ffffffffffffffffffffffffffffffffffffffff163373ffffffffffffffffffffffffffffffffffffffff1614613bbf576040517f08c379a0000000000000000000000000000000000000000000000000000000008152600401613bb690617648565b60405180910390fd5b6000600560009054906101000a900473ffffffffffffffffffffffffffffffffffffffff1673ffffffffffffffffffffffffffffffffffffffff166370a08231306040518263ffffffff1660e01b8152600401613c1c91906162af565b602060405180830381865afa158015613c39573d6000803e3d6000fd5b505050506040513d601f19601f82011682018060405250810190613c5d919061767d565b11613c9d576040517f08c379a0000000000000000000000000000000000000000000000000000000008152600401613c94906176f6565b60405180910390fd5b600560009054906101000a900473ffffffffffffffffffffffffffffffffffffffff1673ffffffffffffffffffffffffffffffffffffffff1663a9059cbb83836040518363ffffffff1660e01b8152600401613cfa929190617341565b6020604051808303816000875af1158015613d19573d6000803e3d6000fd5b505050506040513d601f19601f82011682018060405250810190613d3d919061772b565b505050565b613d4a615f87565b600d8281548110613d5e57613d5d6175a3565b5b90600052602060002090600402016040518060a00160405290816000820154815260200160018201548152602001600282015481526020016003820160009054906101000a900473ffffffffffffffffffffffffffffffffffffffff1673ffffffffffffffffffffffffffffffffffffffff1673ffffffffffffffffffffffffffffffffffffffff1681526020016003820160149054906101000a900460ff1615151515815250509050919050565b6000613e18826153b9565b613e2157600080fd5b60006011600084815260200190815260200160002054600754613e449190617b26565b905080915050919050565b600b5481565b613e5e826111ec565b613e6781615067565b613e71838361515c565b505050565b7f000000000000000000000000000000000000000000000000000000000000000081565b613ea2615f32565b600e8281548110613eb657613eb56175a3565b5b90600052602060002090600702016040518060e0016040529081600082015481526020016001820154815260200160028201548152602001600382015481526020016004820160009054906101000a900473ffffffffffffffffffffffffffffffffffffffff1673ffffffffffffffffffffffffffffffffffffffff1673ffffffffffffffffffffffffffffffffffffffff168152602001600582015481526020016006820160009054906101000a900460ff1615151515815250509050919050565b613f82336149c8565b613fc1576040517f08c379a0000000000000000000000000000000000000000000000000000000008152600401613fb890617405565b60405180910390fd5b60006001811115613fd557613fd4616da0565b5b600c60019054906101000a900460ff166001811115613ff757613ff6616da0565b5b141561402d576001600c60016101000a81548160ff0219169083600181111561402357614022616da0565b5b0217905550614059565b6000600c60016101000a81548160ff0219169083600181111561405357614052616da0565b5b02179055505b565b600c60009054906101000a900460ff1681565b6000600d8281548110614084576140836175a3565b5b90600052602060002090600402016040518060a00160405290816000820154815260200160018201548152602001600282015481526020016003820160009054906101000a900473ffffffffffffffffffffffffffffffffffffffff1673ffffffffffffffffffffffffffffffffffffffff1673ffffffffffffffffffffffffffffffffffffffff1681526020016003820160149054906101000a900460ff1615151515815250509050806060015173ffffffffffffffffffffffffffffffffffffffff163373ffffffffffffffffffffffffffffffffffffffff16141561416b57600080fd5b60001515816080015115151461418057600080fd5b600560009054906101000a900473ffffffffffffffffffffffffffffffffffffffff1673ffffffffffffffffffffffffffffffffffffffff166323b872dd33836060015184604001516040518463ffffffff1660e01b81526004016141e79392919061787c565b6020604051808303816000875af1158015614206573d6000803e3d6000fd5b505050506040513d601f19601f8201168201806040525081019061422a919061772b565b5061424c30338360000151600160405180602001604052806000815250614aa1565b6001600d8381548110614262576142616175a3565b5b906000526020600020906004020160030160146101000a81548160ff0219169083151502179055507f642067ff529c9b5b1162502fc8e8a3a91dda56e126a84f2fe38d341236231a823382606001518484604001516040516142c794939291906180b7565b60405180910390a15050565b6000600160008473ffffffffffffffffffffffffffffffffffffffff1673ffffffffffffffffffffffffffffffffffffffff16815260200190815260200160002060008373ffffffffffffffffffffffffffffffffffffffff1673ffffffffffffffffffffffffffffffffffffffff16815260200190815260200160002060009054906101000a900460ff16905092915050565b61437033612c0b565b6143af576040517f08c379a00000000000000000000000000000000000000000000000000000000081526004016143a690617dc4565b60405180910390fd5b601360003373ffffffffffffffffffffffffffffffffffffffff1673ffffffffffffffffffffffffffffffffffffffff16815260200190815260200160002060009054906101000a900460ff1661443b576040517f08c379a000000000000000000000000000000000000000000000000000000000815260040161443290617e56565b60405180910390fd5b3373ffffffffffffffffffffffffffffffffffffffff16600e8481548110614466576144656175a3565b5b906000526020600020906007020160040160009054906101000a900473ffffffffffffffffffffffffffffffffffffffff1673ffffffffffffffffffffffffffffffffffffffff16146144ee576040517f08c379a00000000000000000000000000000000000000000000000000000000081526004016144e590617ec2565b60405180910390fd5b80600e8481548110614503576145026175a3565b5b90600052602060002090600702016003018190555081600e848154811061452d5761452c6175a3565b5b9060005260206000209060070201600101819055507f4dfa55e7e1af9cb25343bfcd39c4bcb1f066d75ebe9b67988cf1496f06dedfef338383604051614575939291906174da565b60405180910390a1505050565b600063f23a6e6160e01b905095945050505050565b61459f614d3d565b73ffffffffffffffffffffffffffffffffffffffff168573ffffffffffffffffffffffffffffffffffffffff1614806145e557506145e4856145df614d3d565b6142d3565b5b614624576040517f08c379a000000000000000000000000000000000000000000000000000000000815260040161461b9061816e565b60405180910390fd5b6146318585858585614aa1565b5050505050565b6060600060085467ffffffffffffffff811115614658576146576162cf565b5b6040519080825280602002602001820160405280156146865781602001602082028036833780820191505090505b50905060005b81518110156146d15761469f8482610ed4565b8282815181106146b2576146b16175a3565b5b60200260200101818152505080806146c990617491565b91505061468c565b5080915050919050565b600f5481565b60007f7965db0b000000000000000000000000000000000000000000000000000000007bffffffffffffffffffffffffffffffffffffffffffffffffffffffff1916827bffffffffffffffffffffffffffffffffffffffffffffffffffffffff191614806147545750614753826153e3565b5b9050919050565b600073ffffffffffffffffffffffffffffffffffffffff168373ffffffffffffffffffffffffffffffffffffffff1614156147cb576040517f08c379a00000000000000000000000000000000000000000000000000000000081526004016147c290618200565b60405180910390fd5b60006147d5614d3d565b905060006147e28461545d565b905060006147ef8461545d565b905061480f838760008585604051806020016040528060008152506154d7565b600080600087815260200190815260200160002060008873ffffffffffffffffffffffffffffffffffffffff1673ffffffffffffffffffffffffffffffffffffffff168152602001908152602001600020549050848110156148a6576040517f08c379a000000000000000000000000000000000000000000000000000000000815260040161489d90618292565b60405180910390fd5b84810360008088815260200190815260200160002060008973ffffffffffffffffffffffffffffffffffffffff1673ffffffffffffffffffffffffffffffffffffffff16815260200190815260200160002081905550600073ffffffffffffffffffffffffffffffffffffffff168773ffffffffffffffffffffffffffffffffffffffff168573ffffffffffffffffffffffffffffffffffffffff167fc3d58168c5ae7397731d063d5bbf3d657854427343f4c083240f7aacaa2d0f6289896040516149739291906182b2565b60405180910390a4614999848860008686604051806020016040528060008152506154df565b50505050505050565b806000815181106149b6576149b56175a3565b5b6020026020010151600f819055505050565b60008173ffffffffffffffffffffffffffffffffffffffff16600660009054906101000a900473ffffffffffffffffffffffffffffffffffffffff1673ffffffffffffffffffffffffffffffffffffffff161480614a2f5750614a2e6000801b83612f40565b5b614a3857600080fd5b60019050919050565b614a5e8260085483604051806020016040528060008152506154e7565b614a6a60085482615698565b8060076000828254614a7c9190617913565b92505081905550600160086000828254614a969190617913565b925050819055505050565b600073ffffffffffffffffffffffffffffffffffffffff168473ffffffffffffffffffffffffffffffffffffffff161415614b11576040517f08c379a0000000000000000000000000000000000000000000000000000000008152600401614b089061834d565b60405180910390fd5b6000614b1b614d3d565b90506000614b288561545d565b90506000614b358561545d565b9050614b458389898585896154d7565b600080600088815260200190815260200160002060008a73ffffffffffffffffffffffffffffffffffffffff1673ffffffffffffffffffffffffffffffffffffffff16815260200190815260200160002054905085811015614bdc576040517f08c379a0000000000000000000000000000000000000000000000000000000008152600401614bd3906183df565b60405180910390fd5b85810360008089815260200190815260200160002060008b73ffffffffffffffffffffffffffffffffffffffff1673ffffffffffffffffffffffffffffffffffffffff168152602001908152602001600020819055508560008089815260200190815260200160002060008a73ffffffffffffffffffffffffffffffffffffffff1673ffffffffffffffffffffffffffffffffffffffff1681526020019081526020016000206000828254614c919190617913565b925050819055508773ffffffffffffffffffffffffffffffffffffffff168973ffffffffffffffffffffffffffffffffffffffff168573ffffffffffffffffffffffffffffffffffffffff167fc3d58168c5ae7397731d063d5bbf3d657854427343f4c083240f7aacaa2d0f628a8a604051614d0e9291906182b2565b60405180910390a4614d24848a8a86868a6154df565b614d32848a8a8a8a8a6156b4565b505050505050505050565b600033905090565b8151835114614d89576040517f08c379a0000000000000000000000000000000000000000000000000000000008152600401614d8090618471565b60405180910390fd5b600073ffffffffffffffffffffffffffffffffffffffff168473ffffffffffffffffffffffffffffffffffffffff161415614df9576040517f08c379a0000000000000000000000000000000000000000000000000000000008152600401614df09061834d565b60405180910390fd5b6000614e03614d3d565b9050614e138187878787876154d7565b60005b8451811015614fc4576000858281518110614e3457614e336175a3565b5b602002602001015190506000858381518110614e5357614e526175a3565b5b60200260200101519050600080600084815260200190815260200160002060008b73ffffffffffffffffffffffffffffffffffffffff1673ffffffffffffffffffffffffffffffffffffffff16815260200190815260200160002054905081811015614ef4576040517f08c379a0000000000000000000000000000000000000000000000000000000008152600401614eeb906183df565b60405180910390fd5b81810360008085815260200190815260200160002060008c73ffffffffffffffffffffffffffffffffffffffff1673ffffffffffffffffffffffffffffffffffffffff168152602001908152602001600020819055508160008085815260200190815260200160002060008b73ffffffffffffffffffffffffffffffffffffffff1673ffffffffffffffffffffffffffffffffffffffff1681526020019081526020016000206000828254614fa99190617913565b9250508190555050505080614fbd90617491565b9050614e16565b508473ffffffffffffffffffffffffffffffffffffffff168673ffffffffffffffffffffffffffffffffffffffff168273ffffffffffffffffffffffffffffffffffffffff167f4a39dc06d4c0dbc64b70af90fd698a233a518aa5d07e595d983b8c0526c8f7fb878760405161503b929190618491565b60405180910390a46150518187878787876154df565b61505f81878787878761588c565b505050505050565b61507881615073614d3d565b615a64565b50565b6150858282612f40565b6151585760016003600084815260200190815260200160002060000160008373ffffffffffffffffffffffffffffffffffffffff1673ffffffffffffffffffffffffffffffffffffffff16815260200190815260200160002060006101000a81548160ff0219169083151502179055506150fd614d3d565b73ffffffffffffffffffffffffffffffffffffffff168173ffffffffffffffffffffffffffffffffffffffff16837f2f8788117e7eff1d82e926ec794901d17c78024a50270940304540a733656f0d60405160405180910390a45b5050565b6151668282612f40565b1561523a5760006003600084815260200190815260200160002060000160008373ffffffffffffffffffffffffffffffffffffffff1673ffffffffffffffffffffffffffffffffffffffff16815260200190815260200160002060006101000a81548160ff0219169083151502179055506151df614d3d565b73ffffffffffffffffffffffffffffffffffffffff168173ffffffffffffffffffffffffffffffffffffffff16837ff6391f5c32d9c69d2a47ea670b442974b53935d1edc7fd64eb21e047a839171b60405160405180910390a45b5050565b615248828261507b565b5050565b8173ffffffffffffffffffffffffffffffffffffffff168373ffffffffffffffffffffffffffffffffffffffff1614156152bb576040517f08c379a00000000000000000000000000000000000000000000000000000000081526004016152b29061853a565b60405180910390fd5b80600160008573ffffffffffffffffffffffffffffffffffffffff1673ffffffffffffffffffffffffffffffffffffffff16815260200190815260200160002060008473ffffffffffffffffffffffffffffffffffffffff1673ffffffffffffffffffffffffffffffffffffffff16815260200190815260200160002060006101000a81548160ff0219169083151502179055508173ffffffffffffffffffffffffffffffffffffffff168373ffffffffffffffffffffffffffffffffffffffff167f17307eab39ab6107e8899845ad3d59bd9653f200f220920489ca2b5937696c31836040516153ac919061619d565b60405180910390a3505050565b6000806011600084815260200190815260200160002054116153da57600080fd5b60019050919050565b60007f4e2312e0000000000000000000000000000000000000000000000000000000007bffffffffffffffffffffffffffffffffffffffffffffffffffffffff1916827bffffffffffffffffffffffffffffffffffffffffffffffffffffffff19161480615456575061545582615b01565b5b9050919050565b60606000600167ffffffffffffffff81111561547c5761547b6162cf565b5b6040519080825280602002602001820160405280156154aa5781602001602082028036833780820191505090505b50905082816000815181106154c2576154c16175a3565b5b60200260200101818152505080915050919050565b505050505050565b505050505050565b600073ffffffffffffffffffffffffffffffffffffffff168473ffffffffffffffffffffffffffffffffffffffff161415615557576040517f08c379a000000000000000000000000000000000000000000000000000000000815260040161554e906185cc565b60405180910390fd5b6000615561614d3d565b9050600061556e8561545d565b9050600061557b8561545d565b905061558c836000898585896154d7565b8460008088815260200190815260200160002060008973ffffffffffffffffffffffffffffffffffffffff1673ffffffffffffffffffffffffffffffffffffffff16815260200190815260200160002060008282546155eb9190617913565b925050819055508673ffffffffffffffffffffffffffffffffffffffff16600073ffffffffffffffffffffffffffffffffffffffff168473ffffffffffffffffffffffffffffffffffffffff167fc3d58168c5ae7397731d063d5bbf3d657854427343f4c083240f7aacaa2d0f6289896040516156699291906182b2565b60405180910390a4615680836000898585896154df565b61568f836000898989896156b4565b50505050505050565b8060116000848152602001908152602001600020819055505050565b6156d38473ffffffffffffffffffffffffffffffffffffffff16615be3565b15615884578373ffffffffffffffffffffffffffffffffffffffff1663f23a6e6187878686866040518663ffffffff1660e01b8152600401615719959493929190618641565b6020604051808303816000875af192505050801561575557506040513d601f19601f8201168201806040525081019061575291906186b0565b60015b6157fb576157616186ea565b806308c379a014156157be575061577661870c565b8061578157506157c0565b806040517f08c379a00000000000000000000000000000000000000000000000000000000081526004016157b5919061627e565b60405180910390fd5b505b6040517f08c379a00000000000000000000000000000000000000000000000000000000081526004016157f290618814565b60405180910390fd5b63f23a6e6160e01b7bffffffffffffffffffffffffffffffffffffffffffffffffffffffff1916817bffffffffffffffffffffffffffffffffffffffffffffffffffffffff191614615882576040517f08c379a0000000000000000000000000000000000000000000000000000000008152600401615879906188a6565b60405180910390fd5b505b505050505050565b6158ab8473ffffffffffffffffffffffffffffffffffffffff16615be3565b15615a5c578373ffffffffffffffffffffffffffffffffffffffff1663bc197c8187878686866040518663ffffffff1660e01b81526004016158f19594939291906188c6565b6020604051808303816000875af192505050801561592d57506040513d601f19601f8201168201806040525081019061592a91906186b0565b60015b6159d3576159396186ea565b806308c379a01415615996575061594e61870c565b806159595750615998565b806040517f08c379a000000000000000000000000000000000000000000000000000000000815260040161598d919061627e565b60405180910390fd5b505b6040517f08c379a00000000000000000000000000000000000000000000000000000000081526004016159ca90618814565b60405180910390fd5b63bc197c8160e01b7bffffffffffffffffffffffffffffffffffffffffffffffffffffffff1916817bffffffffffffffffffffffffffffffffffffffffffffffffffffffff191614615a5a576040517f08c379a0000000000000000000000000000000000000000000000000000000008152600401615a51906188a6565b60405180910390fd5b505b505050505050565b615a6e8282612f40565b615afd57615a938173ffffffffffffffffffffffffffffffffffffffff166014615c06565b615aa18360001c6020615c06565b604051602001615ab2929190618a02565b6040516020818303038152906040526040517f08c379a0000000000000000000000000000000000000000000000000000000008152600401615af4919061627e565b60405180910390fd5b5050565b60007fd9b67a26000000000000000000000000000000000000000000000000000000007bffffffffffffffffffffffffffffffffffffffffffffffffffffffff1916827bffffffffffffffffffffffffffffffffffffffffffffffffffffffff19161480615bcc57507f0e89341c000000000000000000000000000000000000000000000000000000007bffffffffffffffffffffffffffffffffffffffffffffffffffffffff1916827bffffffffffffffffffffffffffffffffffffffffffffffffffffffff1916145b80615bdc5750615bdb82615e42565b5b9050919050565b6000808273ffffffffffffffffffffffffffffffffffffffff163b119050919050565b606060006002836002615c199190618a3c565b615c239190617913565b67ffffffffffffffff811115615c3c57615c3b6162cf565b5b6040519080825280601f01601f191660200182016040528015615c6e5781602001600182028036833780820191505090505b5090507f300000000000000000000000000000000000000000000000000000000000000081600081518110615ca657615ca56175a3565b5b60200101907effffffffffffffffffffffffffffffffffffffffffffffffffffffffffffff1916908160001a9053507f780000000000000000000000000000000000000000000000000000000000000081600181518110615d0a57615d096175a3565b5b60200101907effffffffffffffffffffffffffffffffffffffffffffffffffffffffffffff1916908160001a90535060006001846002615d4a9190618a3c565b615d549190617913565b90505b6001811115615df4577f3031323334353637383961626364656600000000000000000000000000000000600f861660108110615d9657615d956175a3565b5b1a60f81b828281518110615dad57615dac6175a3565b5b60200101907effffffffffffffffffffffffffffffffffffffffffffffffffffffffffffff1916908160001a905350600485901c945080615ded906175d2565b9050615d57565b5060008414615e38576040517f08c379a0000000000000000000000000000000000000000000000000000000008152600401615e2f90618ae2565b60405180910390fd5b8091505092915050565b60007f01ffc9a7000000000000000000000000000000000000000000000000000000007bffffffffffffffffffffffffffffffffffffffffffffffffffffffff1916827bffffffffffffffffffffffffffffffffffffffffffffffffffffffff1916149050919050565b828054615eb8906172ac565b90600052602060002090601f016020900481019282615eda5760008555615f21565b82601f10615ef357805160ff1916838001178555615f21565b82800160010185558215615f21579182015b82811115615f20578251825591602001919060010190615f05565b5b509050615f2e9190615fce565b5090565b6040518060e0016040528060008152602001600081526020016000815260200160008152602001600073ffffffffffffffffffffffffffffffffffffffff168152602001600081526020016000151581525090565b6040518060a00160405280600081526020016000815260200160008152602001600073ffffffffffffffffffffffffffffffffffffffff1681526020016000151581525090565b5b80821115615fe7576000816000905550600101615fcf565b5090565b6000604051905090565b600080fd5b600080fd5b600073ffffffffffffffffffffffffffffffffffffffff82169050919050565b600061602a82615fff565b9050919050565b61603a8161601f565b811461604557600080fd5b50565b60008135905061605781616031565b92915050565b6000819050919050565b6160708161605d565b811461607b57600080fd5b50565b60008135905061608d81616067565b92915050565b600080604083850312156160aa576160a9615ff5565b5b60006160b885828601616048565b92505060206160c98582860161607e565b9150509250929050565b6160dc8161605d565b82525050565b60006020820190506160f760008301846160d3565b92915050565b60007fffffffff0000000000000000000000000000000000000000000000000000000082169050919050565b616132816160fd565b811461613d57600080fd5b50565b60008135905061614f81616129565b92915050565b60006020828403121561616b5761616a615ff5565b5b600061617984828501616140565b91505092915050565b60008115159050919050565b61619781616182565b82525050565b60006020820190506161b2600083018461618e565b92915050565b6000602082840312156161ce576161cd615ff5565b5b60006161dc8482850161607e565b91505092915050565b600081519050919050565b600082825260208201905092915050565b60005b8381101561621f578082015181840152602081019050616204565b8381111561622e576000848401525b50505050565b6000601f19601f8301169050919050565b6000616250826161e5565b61625a81856161f0565b935061626a818560208601616201565b61627381616234565b840191505092915050565b600060208201905081810360008301526162988184616245565b905092915050565b6162a98161601f565b82525050565b60006020820190506162c460008301846162a0565b92915050565b600080fd5b7f4e487b7100000000000000000000000000000000000000000000000000000000600052604160045260246000fd5b61630782616234565b810181811067ffffffffffffffff82111715616326576163256162cf565b5b80604052505050565b6000616339615feb565b905061634582826162fe565b919050565b600067ffffffffffffffff821115616365576163646162cf565b5b602082029050602081019050919050565b600080fd5b600061638e6163898461634a565b61632f565b905080838252602082019050602084028301858111156163b1576163b0616376565b5b835b818110156163da57806163c6888261607e565b8452602084019350506020810190506163b3565b5050509392505050565b600082601f8301126163f9576163f86162ca565b5b813561640984826020860161637b565b91505092915050565b6000806040838503121561642957616428615ff5565b5b60006164378582860161607e565b925050602083013567ffffffffffffffff81111561645857616457615ffa565b5b616464858286016163e4565b9150509250929050565b6000819050919050565b6164818161646e565b811461648c57600080fd5b50565b60008135905061649e81616478565b92915050565b6000602082840312156164ba576164b9615ff5565b5b60006164c88482850161648f565b91505092915050565b6164da8161646e565b82525050565b60006020820190506164f560008301846164d1565b92915050565b6000806040838503121561651257616511615ff5565b5b60006165208582860161607e565b92505060206165318582860161607e565b9150509250929050565b600080fd5b600067ffffffffffffffff82111561655b5761655a6162cf565b5b61656482616234565b9050602081019050919050565b82818337600083830152505050565b600061659361658e84616540565b61632f565b9050828152602081018484840111156165af576165ae61653b565b5b6165ba848285616571565b509392505050565b600082601f8301126165d7576165d66162ca565b5b81356165e7848260208601616580565b91505092915050565b600080600080600060a0868803121561660c5761660b615ff5565b5b600061661a88828901616048565b955050602061662b88828901616048565b945050604086013567ffffffffffffffff81111561664c5761664b615ffa565b5b616658888289016163e4565b935050606086013567ffffffffffffffff81111561667957616678615ffa565b5b616685888289016163e4565b925050608086013567ffffffffffffffff8111156166a6576166a5615ffa565b5b6166b2888289016165c2565b9150509295509295909350565b600080604083850312156166d6576166d5615ff5565b5b60006166e48582860161648f565b92505060206166f585828601616048565b9150509250929050565b60006020828403121561671557616714615ff5565b5b600061672384828501616048565b91505092915050565b600067ffffffffffffffff82169050919050565b6167498161672c565b82525050565b60006020820190506167646000830184616740565b92915050565b600067ffffffffffffffff821115616785576167846162cf565b5b602082029050602081019050919050565b60006167a96167a48461676a565b61632f565b905080838252602082019050602084028301858111156167cc576167cb616376565b5b835b818110156167f557806167e18882616048565b8452602084019350506020810190506167ce565b5050509392505050565b600082601f830112616814576168136162ca565b5b8135616824848260208601616796565b91505092915050565b6000806040838503121561684457616843615ff5565b5b600083013567ffffffffffffffff81111561686257616861615ffa565b5b61686e858286016167ff565b925050602083013567ffffffffffffffff81111561688f5761688e615ffa565b5b61689b858286016163e4565b9150509250929050565b600081519050919050565b600082825260208201905092915050565b6000819050602082019050919050565b6168da8161605d565b82525050565b60006168ec83836168d1565b60208301905092915050565b6000602082019050919050565b6000616910826168a5565b61691a81856168b0565b9350616925836168c1565b8060005b8381101561695657815161693d88826168e0565b9750616948836168f8565b925050600181019050616929565b5085935050505092915050565b6000602082019050818103600083015261697d8184616905565b905092915050565b60006020828403121561699b5761699a615ff5565b5b600082013567ffffffffffffffff8111156169b9576169b8615ffa565b5b6169c5848285016167ff565b91505092915050565b600067ffffffffffffffff8211156169e9576169e86162cf565b5b6169f282616234565b9050602081019050919050565b6000616a12616a0d846169ce565b61632f565b905082815260208101848484011115616a2e57616a2d61653b565b5b616a39848285616571565b509392505050565b600082601f830112616a5657616a556162ca565b5b8135616a668482602086016169ff565b91505092915050565b60008060408385031215616a8657616a85615ff5565b5b6000616a948582860161607e565b925050602083013567ffffffffffffffff811115616ab557616ab4615ffa565b5b616ac185828601616a41565b9150509250929050565b600061ffff82169050919050565b616ae281616acb565b82525050565b6000602082019050616afd6000830184616ad9565b92915050565b600063ffffffff82169050919050565b616b1c81616b03565b82525050565b6000602082019050616b376000830184616b13565b92915050565b616b4681616182565b8114616b5157600080fd5b50565b600081359050616b6381616b3d565b92915050565b60008060408385031215616b8057616b7f615ff5565b5b6000616b8e85828601616048565b9250506020616b9f85828601616b54565b9150509250929050565b6000819050919050565b6000616bce616bc9616bc484615fff565b616ba9565b615fff565b9050919050565b6000616be082616bb3565b9050919050565b6000616bf282616bd5565b9050919050565b616c0281616be7565b82525050565b6000602082019050616c1d6000830184616bf9565b92915050565b600081519050919050565b600082825260208201905092915050565b6000819050602082019050919050565b616c588161601f565b82525050565b616c6781616182565b82525050565b60e082016000820151616c8360008501826168d1565b506020820151616c9660208501826168d1565b506040820151616ca960408501826168d1565b506060820151616cbc60608501826168d1565b506080820151616ccf6080850182616c4f565b5060a0820151616ce260a08501826168d1565b5060c0820151616cf560c0850182616c5e565b50505050565b6000616d078383616c6d565b60e08301905092915050565b6000602082019050919050565b6000616d2b82616c23565b616d358185616c2e565b9350616d4083616c3f565b8060005b83811015616d71578151616d588882616cfb565b9750616d6383616d13565b925050600181019050616d44565b5085935050505092915050565b60006020820190508181036000830152616d988184616d20565b905092915050565b7f4e487b7100000000000000000000000000000000000000000000000000000000600052602160045260246000fd5b60028110616de057616ddf616da0565b5b50565b6000819050616df182616dcf565b919050565b6000616e0182616de3565b9050919050565b616e1181616df6565b82525050565b6000602082019050616e2c6000830184616e08565b92915050565b600080600060608486031215616e4b57616e4a615ff5565b5b6000616e598682870161607e565b9350506020616e6a8682870161607e565b9250506040616e7b8682870161607e565b9150509250925092565b600081519050919050565b600082825260208201905092915050565b6000819050602082019050919050565b60a082016000820151616ec760008501826168d1565b506020820151616eda60208501826168d1565b506040820151616eed60408501826168d1565b506060820151616f006060850182616c4f565b506080820151616f136080850182616c5e565b50505050565b6000616f258383616eb1565b60a08301905092915050565b6000602082019050919050565b6000616f4982616e85565b616f538185616e90565b9350616f5e83616ea1565b8060005b83811015616f8f578151616f768882616f19565b9750616f8183616f31565b925050600181019050616f62565b5085935050505092915050565b60006020820190508181036000830152616fb68184616f3e565b905092915050565b616fc7816160fd565b82525050565b6000602082019050616fe26000830184616fbe565b92915050565b60a082016000820151616ffe60008501826168d1565b50602082015161701160208501826168d1565b50604082015161702460408501826168d1565b5060608201516170376060850182616c4f565b50608082015161704a6080850182616c5e565b50505050565b600060a0820190506170656000830184616fe8565b92915050565b60e08201600082015161708160008501826168d1565b50602082015161709460208501826168d1565b5060408201516170a760408501826168d1565b5060608201516170ba60608501826168d1565b5060808201516170cd6080850182616c4f565b5060a08201516170e060a08501826168d1565b5060c08201516170f360c0850182616c5e565b50505050565b600060e08201905061710e600083018461706b565b92915050565b6000806040838503121561712b5761712a615ff5565b5b600061713985828601616048565b925050602061714a85828601616048565b9150509250929050565b600080600080600060a086880312156171705761716f615ff5565b5b600061717e88828901616048565b955050602061718f88828901616048565b94505060406171a08882890161607e565b93505060606171b18882890161607e565b925050608086013567ffffffffffffffff8111156171d2576171d1615ffa565b5b6171de888289016165c2565b9150509295509295909350565b7f455243313135353a2062616c616e636520717565727920666f7220746865207a60008201527f65726f2061646472657373000000000000000000000000000000000000000000602082015250565b6000617247602b836161f0565b9150617252826171eb565b604082019050919050565b600060208201905081810360008301526172768161723a565b9050919050565b7f4e487b7100000000000000000000000000000000000000000000000000000000600052602260045260246000fd5b600060028204905060018216806172c457607f821691505b602082108114156172d8576172d761727d565b5b50919050565b7f4e487b7100000000000000000000000000000000000000000000000000000000600052601160045260246000fd5b60006173188261605d565b91506173238361605d565b925082821015617336576173356172de565b5b828203905092915050565b600060408201905061735660008301856162a0565b61736360208301846160d3565b9392505050565b600060408201905061737f60008301856162a0565b61738c60208301846162a0565b9392505050565b7f55736572206973206e6f7420746865204f776e6572206f7220616e2041646d6960008201527f6e00000000000000000000000000000000000000000000000000000000000000602082015250565b60006173ef6021836161f0565b91506173fa82617393565b604082019050919050565b6000602082019050818103600083015261741e816173e2565b9050919050565b7f4974656d206e6f7420666f756e642e0000000000000000000000000000000000600082015250565b600061745b600f836161f0565b915061746682617425565b602082019050919050565b6000602082019050818103600083015261748a8161744e565b9050919050565b600061749c8261605d565b91507fffffffffffffffffffffffffffffffffffffffffffffffffffffffffffffffff8214156174cf576174ce6172de565b5b600182019050919050565b60006060820190506174ef60008301866162a0565b6174fc60208301856160d3565b61750960408301846160d3565b949350505050565b7f455243313135353a207472616e736665722063616c6c6572206973206e6f742060008201527f6f776e6572206e6f7220617070726f7665640000000000000000000000000000602082015250565b600061756d6032836161f0565b915061757882617511565b604082019050919050565b6000602082019050818103600083015261759c81617560565b9050919050565b7f4e487b7100000000000000000000000000000000000000000000000000000000600052603260045260246000fd5b60006175dd8261605d565b915060008214156175f1576175f06172de565b5b600182039050919050565b7f55736572206973206e6f7420746865206f776e65720000000000000000000000600082015250565b60006176326015836161f0565b915061763d826175fc565b602082019050919050565b6000602082019050818103600083015261766181617625565b9050919050565b60008151905061767781616067565b92915050565b60006020828403121561769357617692615ff5565b5b60006176a184828501617668565b91505092915050565b7f4e6f2066756e647320746f207769746864726177000000000000000000000000600082015250565b60006176e06014836161f0565b91506176eb826176aa565b602082019050919050565b6000602082019050818103600083015261770f816176d3565b9050919050565b60008151905061772581616b3d565b92915050565b60006020828403121561774157617740615ff5565b5b600061774f84828501617716565b91505092915050565b7f416363657373436f6e74726f6c3a2063616e206f6e6c792072656e6f756e636560008201527f20726f6c657320666f722073656c660000000000000000000000000000000000602082015250565b60006177b4602f836161f0565b91506177bf82617758565b604082019050919050565b600060208201905081810360008301526177e3816177a7565b9050919050565b7f436f6e7472616374206973206e6f74206163746976652061742074686973206d60008201527f6f6d656e74000000000000000000000000000000000000000000000000000000602082015250565b60006178466025836161f0565b9150617851826177ea565b604082019050919050565b6000602082019050818103600083015261787581617839565b9050919050565b600060608201905061789160008301866162a0565b61789e60208301856162a0565b6178ab60408301846160d3565b949350505050565b7f4e487b7100000000000000000000000000000000000000000000000000000000600052601260045260246000fd5b60006178ed8261605d565b91506178f88361605d565b925082617908576179076178b3565b5b828206905092915050565b600061791e8261605d565b91506179298361605d565b9250827fffffffffffffffffffffffffffffffffffffffffffffffffffffffffffffffff0382111561795e5761795d6172de565b5b828201905092915050565b7f455243313135353a206163636f756e747320616e6420696473206c656e67746860008201527f206d69736d617463680000000000000000000000000000000000000000000000602082015250565b60006179c56029836161f0565b91506179d082617969565b604082019050919050565b600060208201905081810360008301526179f4816179b8565b9050919050565b7f43616e206e6f7420736574207572692074776963650000000000000000000000600082015250565b6000617a316015836161f0565b9150617a3c826179fb565b602082019050919050565b60006020820190508181036000830152617a6081617a24565b9050919050565b600060a082019050617a7c60008301886164d1565b617a896020830187616740565b617a966040830186616ad9565b617aa36060830185616b13565b617ab06080830184616b13565b9695505050505050565b7f5573657220646964206e6f742073656c6c20616e79205469636b657400000000600082015250565b6000617af0601c836161f0565b9150617afb82617aba565b602082019050919050565b60006020820190508181036000830152617b1f81617ae3565b9050919050565b6000617b318261605d565b9150617b3c8361605d565b925082617b4c57617b4b6178b3565b5b828204905092915050565b7f4475726174696f6e206f6620746865205469636b6574206973207374696c6c2060008201527f6176616c6961626c650000000000000000000000000000000000000000000000602082015250565b6000617bb36029836161f0565b9150617bbe82617b57565b604082019050919050565b60006020820190508181036000830152617be281617ba6565b9050919050565b7f596f752063616e206e6f74206275792061207469636b657420746f20796f757260008201527f2073656c66000000000000000000000000000000000000000000000000000000602082015250565b6000617c456025836161f0565b9150617c5082617be9565b604082019050919050565b60006020820190508181036000830152617c7481617c38565b9050919050565b7f5469636b6574206973206e6f742063757272656e746c79206176616c6961626c60008201527f6500000000000000000000000000000000000000000000000000000000000000602082015250565b6000617cd76021836161f0565b9150617ce282617c7b565b604082019050919050565b60006020820190508181036000830152617d0681617cca565b9050919050565b6000608082019050617d2260008301876160d3565b617d2f60208301866162a0565b617d3c60408301856162a0565b617d4960608301846160d3565b95945050505050565b7f55736572206973206e6f74205261636b734d656d62657273206f7220646f657360008201527f206e6f74206f776e732061204d7243727970746f000000000000000000000000602082015250565b6000617dae6034836161f0565b9150617db982617d52565b604082019050919050565b60006020820190508181036000830152617ddd81617da1565b9050919050565b7f55736572206973206e6f742063757272656e746c792073656c6c696e6720612060008201527f5469636b65740000000000000000000000000000000000000000000000000000602082015250565b6000617e406026836161f0565b9150617e4b82617de4565b604082019050919050565b60006020820190508181036000830152617e6f81617e33565b9050919050565b7f55736572206973206e6f74206f776e6572206f662074686973207469636b6574600082015250565b6000617eac6020836161f0565b9150617eb782617e76565b602082019050919050565b60006020820190508181036000830152617edb81617e9f565b9050919050565b7f596f7520617265206e6f7420746865206f776e6572206f66207468697320697460008201527f656d2e0000000000000000000000000000000000000000000000000000000000602082015250565b6000617f3e6023836161f0565b9150617f4982617ee2565b604082019050919050565b60006020820190508181036000830152617f6d81617f31565b9050919050565b6000608082019050617f8960008301876162a0565b617f9660208301866160d3565b617fa360408301856160d3565b617fb060608301846160d3565b95945050505050565b7f5573657220697320616c72656164792063757272656e746c792073656c6c696e60008201527f672061205469636b657400000000000000000000000000000000000000000000602082015250565b6000618015602a836161f0565b915061802082617fb9565b604082019050919050565b6000602082019050818103600083015261804481618008565b9050919050565b7f5573657220686173207469636b6574206176616c6961626c6500000000000000600082015250565b60006180816019836161f0565b915061808c8261804b565b602082019050919050565b600060208201905081810360008301526180b081618074565b9050919050565b60006080820190506180cc60008301876162a0565b6180d960208301866162a0565b6180e660408301856160d3565b6180f360608301846160d3565b95945050505050565b7f455243313135353a2063616c6c6572206973206e6f74206f776e6572206e6f7260008201527f20617070726f7665640000000000000000000000000000000000000000000000602082015250565b60006181586029836161f0565b9150618163826180fc565b604082019050919050565b600060208201905081810360008301526181878161814b565b9050919050565b7f455243313135353a206275726e2066726f6d20746865207a65726f206164647260008201527f6573730000000000000000000000000000000000000000000000000000000000602082015250565b60006181ea6023836161f0565b91506181f58261818e565b604082019050919050565b60006020820190508181036000830152618219816181dd565b9050919050565b7f455243313135353a206275726e20616d6f756e7420657863656564732062616c60008201527f616e636500000000000000000000000000000000000000000000000000000000602082015250565b600061827c6024836161f0565b915061828782618220565b604082019050919050565b600060208201905081810360008301526182ab8161826f565b9050919050565b60006040820190506182c760008301856160d3565b6182d460208301846160d3565b9392505050565b7f455243313135353a207472616e7366657220746f20746865207a65726f20616460008201527f6472657373000000000000000000000000000000000000000000000000000000602082015250565b60006183376025836161f0565b9150618342826182db565b604082019050919050565b600060208201905081810360008301526183668161832a565b9050919050565b7f455243313135353a20696e73756666696369656e742062616c616e636520666f60008201527f72207472616e7366657200000000000000000000000000000000000000000000602082015250565b60006183c9602a836161f0565b91506183d48261836d565b604082019050919050565b600060208201905081810360008301526183f8816183bc565b9050919050565b7f455243313135353a2069647320616e6420616d6f756e7473206c656e6774682060008201527f6d69736d61746368000000000000000000000000000000000000000000000000602082015250565b600061845b6028836161f0565b9150618466826183ff565b604082019050919050565b6000602082019050818103600083015261848a8161844e565b9050919050565b600060408201905081810360008301526184ab8185616905565b905081810360208301526184bf8184616905565b90509392505050565b7f455243313135353a2073657474696e6720617070726f76616c2073746174757360008201527f20666f722073656c660000000000000000000000000000000000000000000000602082015250565b60006185246029836161f0565b915061852f826184c8565b604082019050919050565b6000602082019050818103600083015261855381618517565b9050919050565b7f455243313135353a206d696e7420746f20746865207a65726f2061646472657360008201527f7300000000000000000000000000000000000000000000000000000000000000602082015250565b60006185b66021836161f0565b91506185c18261855a565b604082019050919050565b600060208201905081810360008301526185e5816185a9565b9050919050565b600081519050919050565b600082825260208201905092915050565b6000618613826185ec565b61861d81856185f7565b935061862d818560208601616201565b61863681616234565b840191505092915050565b600060a08201905061865660008301886162a0565b61866360208301876162a0565b61867060408301866160d3565b61867d60608301856160d3565b818103608083015261868f8184618608565b90509695505050505050565b6000815190506186aa81616129565b92915050565b6000602082840312156186c6576186c5615ff5565b5b60006186d48482850161869b565b91505092915050565b60008160e01c9050919050565b600060033d11156187095760046000803e6187066000516186dd565b90505b90565b600060443d101561871c5761879f565b618724615feb565b60043d036004823e80513d602482011167ffffffffffffffff8211171561874c57505061879f565b808201805167ffffffffffffffff81111561876a575050505061879f565b80602083010160043d03850181111561878757505050505061879f565b618796826020018501866162fe565b82955050505050505b90565b7f455243313135353a207472616e7366657220746f206e6f6e204552433131353560008201527f526563656976657220696d706c656d656e746572000000000000000000000000602082015250565b60006187fe6034836161f0565b9150618809826187a2565b604082019050919050565b6000602082019050818103600083015261882d816187f1565b9050919050565b7f455243313135353a204552433131353552656365697665722072656a6563746560008201527f6420746f6b656e73000000000000000000000000000000000000000000000000602082015250565b60006188906028836161f0565b915061889b82618834565b604082019050919050565b600060208201905081810360008301526188bf81618883565b9050919050565b600060a0820190506188db60008301886162a0565b6188e860208301876162a0565b81810360408301526188fa8186616905565b9050818103606083015261890e8185616905565b905081810360808301526189228184618608565b90509695505050505050565b600081905092915050565b7f416363657373436f6e74726f6c3a206163636f756e7420000000000000000000600082015250565b600061896f60178361892e565b915061897a82618939565b601782019050919050565b6000618990826161e5565b61899a818561892e565b93506189aa818560208601616201565b80840191505092915050565b7f206973206d697373696e6720726f6c6520000000000000000000000000000000600082015250565b60006189ec60118361892e565b91506189f7826189b6565b601182019050919050565b6000618a0d82618962565b9150618a198285618985565b9150618a24826189df565b9150618a308284618985565b91508190509392505050565b6000618a478261605d565b9150618a528361605d565b9250817fffffffffffffffffffffffffffffffffffffffffffffffffffffffffffffffff0483118215151615618a8b57618a8a6172de565b5b828202905092915050565b7f537472696e67733a20686578206c656e67746820696e73756666696369656e74600082015250565b6000618acc6020836161f0565b9150618ad782618a96565b602082019050919050565b60006020820190508181036000830152618afb81618abf565b905091905056fea2646970667358221220b6456b252fb707215398acb5de5fc9272d6947b33413ab9f5fd5fe39369ee8c864736f6c634300080a0033",
  "immutableReferences": {
    "10": [
      {
        "length": 32,
        "start": 4369
      },
      {
        "length": 32,
        "start": 4453
      }
    ],
    "3639": [
      {
        "length": 32,
        "start": 7999
      },
      {
        "length": 32,
        "start": 12903
      }
    ],
    "3641": [
      {
        "length": 32,
        "start": 8059
      },
      {
        "length": 32,
        "start": 12062
      }
    ],
    "3643": [
      {
        "length": 32,
        "start": 6478
      },
      {
        "length": 32,
        "start": 8092
      }
    ],
    "3645": [
      {
        "length": 32,
        "start": 8127
      },
      {
        "length": 32,
        "start": 15992
      }
    ]
  },
  "source": "// SPDX-License-Identifier: MIT\r\n\r\npragma solidity ^0.8.7;\r\n\r\nimport \"@openzeppelin/contracts/access/AccessControl.sol\"; // define roles\r\nimport \"@openzeppelin/contracts/token/ERC1155/ERC1155.sol\"; // erc1155 tokens\r\nimport \"@openzeppelin/contracts/token/ERC1155/utils/ERC1155Holder.sol\"; // contract should be ERC1155 holder to receive ERC1155 tokens\r\nimport \"@openzeppelin/contracts/token/ERC721/IERC721.sol\"; // to instanciate MrCrypto object\r\nimport \"@openzeppelin/contracts/token/ERC20/IERC20.sol\"; // to work with RacksToken\r\nimport \"@chainlink/contracts/src/v0.8/interfaces/VRFCoordinatorV2Interface.sol\"; // to work with COORDINATOR and VRF\r\nimport \"@chainlink/contracts/src/v0.8/VRFConsumerBaseV2.sol\"; // to use functionalities for Chainlink VRF\r\n\r\ncontract RacksItemsv2 is ERC1155, ERC1155Holder, AccessControl, VRFConsumerBaseV2 { // VRFv2SubscriptionManager\r\n   \r\n  /**\r\n  * @notice Enum for Contract state -> to let user enter call some functions or not\r\n  */\r\n  enum ContractState {   \r\n    Active,\r\n    Inactive\r\n  }\r\n\r\n  /**\r\n  * @notice Struct for Items on the Marketplace\r\n  */\r\n  struct itemOnSale{\r\n    uint256 tokenId;\r\n    uint256 marketItemId;\r\n    uint256 price;\r\n    address seller;\r\n    bool sold;\r\n  }\r\n\r\n  /**\r\n  * @notice Struct for Tickets on the Marketplace\r\n  */\r\n  struct caseTicket {\r\n    uint256 ticketId;\r\n    uint256 numTries;\r\n    uint256 duration;\r\n    uint256 price;\r\n    address owner;\r\n    uint256 timeWhenSold;\r\n    bool isAvaliable;\r\n  }\r\n\r\n  /// @notice tokens\r\n  IERC721 MR_CRYPTO;\r\n  address public constant i_MrCryptoAddress = 0xeF453154766505FEB9dBF0a58E6990fd6eB66969;\r\n  IERC20 racksToken;\r\n  \r\n  /// @notice Standard variables\r\n  bytes32 public constant ADMIN_ROLE = 0x00;\r\n  address private _owner;\r\n  uint256 private s_maxTotalSupply;\r\n  uint256 private s_tokenCount;\r\n  uint256 private _marketCount;\r\n  uint256 private s_ticketCount;\r\n  uint256 public casePrice; // Change to RacksToken\r\n  bool public contractActive = true;\r\n  ContractState public s_contractState;\r\n  itemOnSale[] _marketItems;\r\n  caseTicket[] _tickets;\r\n\r\n  /// @notice VRF Variables\r\n  VRFCoordinatorV2Interface public immutable i_vrfCoordinator; \r\n  bytes32 public immutable i_gasLane;\r\n  uint64 public immutable i_subscriptionId;\r\n  uint32 public immutable i_callbackGasLimit;\r\n  uint16 public constant REQUEST_CONFIRMATIONS = 3; \r\n  uint32 public constant NUM_WORDS = 2; \r\n  uint256 public s_randomWord; // random Number we get from Chainlink VRF\r\n  \r\n  /// @notice Mappings\r\n  mapping(address => bool) private s_gotRacksMembers;\r\n  mapping(uint => uint) private s_maxSupply;\r\n  mapping (uint256 => string) private s_uris; \r\n  mapping(address => bool) private s_isSellingTicket;\r\n  mapping(address => bool) private s_hasTicket; \r\n  mapping(address => bool) private s_ticketIsLended;\r\n\r\n  /// @notice Events\r\n  event CaseOpened(address user, uint256 casePrice, uint256 item);\r\n  event casePriceChanged(uint256 newPrice);\r\n  event itemExchanged(address user, uint256 tokenId);\r\n  event sellingItem(address user, uint256 tokenId, uint256 price);\r\n  event itemBought(address buyer, address seller, uint256 marketItemId, uint256 price);\r\n  event unListedItem(address owner, uint256 marketItemId);\r\n  event itemPriceChanged(address owner, uint256 marketItemId, uint256 oldPrice, uint256 newPrice);\r\n  event newTicketOnSale(address seller, uint256 numTries, uint256 _hours, uint256 price);\r\n  event unListTicketOnSale(address owner);\r\n  event ticketPriceChanged(address owner, uint256 newTries, uint256 newPrice);\r\n  event ticketBought(uint256 ticketId, address oldOwner, address newOwner, uint256 price);\r\n  event ticketClaimedBack(address borrower, address realOwner);\r\n  \r\n  /// @notice Modifiers\r\n  /// @notice Check that person calling a function is the owner of the Contract\r\n  modifier onlyOwner() {\r\n    require(msg.sender == _owner, \"User is not the owner\");\r\n      _;\r\n  }\r\n\r\n  /// @notice Check that user is Owner or Admin\r\n  modifier onlyOwnerOrAdmin() {\r\n    require(_isOwnerOrAdmin(msg.sender), \"User is not the Owner or an Admin\");\r\n    _;\r\n  }\r\n\r\n  /// @notice Check that user is Member and owns at least 1 MrCrypto\r\n  modifier onlyVIP() {\r\n    require(isVip(msg.sender), \"User is not RacksMembers or does not owns a MrCrypto\");\r\n      _;\r\n  }\r\n\r\n  /**  @notice Check that user is owns at least 1 ticket for opening case (used in case user\r\n  * does not own a MrCrypto or RacksMember and buys a ticket from another user)\r\n  */\r\n  modifier ownsTicket() {\r\n    require(s_hasTicket[msg.sender], \"User does not owns a Ticket for openning the case.\");\r\n    _;\r\n  }\r\n\r\n  /// @notice Check if contract state is Active\r\n  modifier contractIsActive() {\r\n    require(s_contractState == ContractState.Active, \"Contract is not active at this moment\");\r\n    _;\r\n  }\r\n\r\n  constructor(address vrfCoordinatorV2, bytes32 gasLane, uint64 subscriptionId, uint32 callbackGasLimit, address _racksTokenAddress) \r\n  VRFConsumerBaseV2(vrfCoordinatorV2)\r\n  ERC1155(\"\"){\r\n    /**\r\n    * Initialization of Chainlink VRF variables\r\n    */\r\n    i_vrfCoordinator = VRFCoordinatorV2Interface(vrfCoordinatorV2); \r\n    i_gasLane = gasLane; \r\n    i_subscriptionId = subscriptionId;\r\n    i_callbackGasLimit = callbackGasLimit; \r\n\r\n    /**\r\n    * Initialization of RacksItem contract variables\r\n    */\r\n    MR_CRYPTO = IERC721(i_MrCryptoAddress);\r\n    racksToken = IERC20(_racksTokenAddress);\r\n    _owner = msg.sender;\r\n    s_tokenCount = 0;\r\n    s_ticketCount = 0;\r\n    casePrice = 1;\r\n    s_contractState = ContractState.Active;\r\n\r\n    /**\r\n    * Mint of initial supply\r\n    _mintSupply(address(this), 100000); // Jeans\r\n    _mintSupply(address(this), 1000); // Hoddie \r\n    _mintSupply(address(this), 50000); // Watch\r\n    _mintSupply(address(this), 1000); // Coat\r\n    _mintSupply(address(this), 30000); // Shoes\r\n     */\r\n  }\r\n\r\n  /** \r\n  * @notice Need to override supportsInterface function because Contract is ERC1155 and AccessControl\r\n  */\r\n  function supportsInterface(bytes4 interfaceId) public view virtual override(ERC1155, ERC1155Receiver, AccessControl) returns (bool) {\r\n    return super.supportsInterface(interfaceId);\r\n  }\r\n\r\n\r\n  // FUNCTIONS RELATED WITH THE CASE\r\n\r\n  /**\r\n  * @notice Change price of the box\r\n  * @dev Only callable by the Owner\r\n  */\r\n  function setCasePrice(uint256 price) public onlyOwnerOrAdmin {\r\n    casePrice = price;\r\n    emit casePriceChanged(price);\r\n  }\r\n\r\n  /**\r\n  * @notice View case price\r\n  */\r\n  function getCasePrice() public view returns(uint256) {\r\n    return casePrice;\r\n  }\r\n\r\n  /**\r\n  * @notice Used to get an actually Random Number -> to pick an item when openning a case\r\n  * @dev Uses Chainlink VRF -> call requestRandomWords method by using o_vrfCoordinator object\r\n  * set as internal because is going to be called only when a case is opened\r\n  */\r\n  function _randomNumber() public returns(uint256) {\r\n  uint256 s_requestedNumber = i_vrfCoordinator.requestRandomWords(i_gasLane, i_subscriptionId, REQUEST_CONFIRMATIONS, i_callbackGasLimit, NUM_WORDS);\r\n  return s_requestedNumber;\r\n  }\r\n\r\n  /**\r\n  * @notice Function to actually pick a winner \r\n  * @dev \r\n  * - randomWords -> array of randomWords\r\n  */\r\n  function fulfillRandomWords(uint256 /* requestId */, uint256[] memory randomWords) internal override {\r\n    s_randomWord = randomWords[0]; // just in case random number is very long we apply modular function \r\n  }\r\n\r\n   /**\r\n  * @notice Function used to 'open a case' and get an item\r\n  * @dev \r\n  * - Should check that user owns a Ticket -> modifier\r\n  * - Should check that msg.value is bigger than casePrice\r\n  * - Should transfer msg.value to the contract\r\n  * - Internally calls randomNumber() \r\n  * - Apply modular function for the randomNumber to be between 0 and totalSupply of items\r\n  * - Should choose an item\r\n  */\r\n  function openCase() public /*ownsTicket*/ contractIsActive {  \r\n    racksToken.transferFrom(msg.sender, address(this), casePrice);\r\n    uint256 randomNumber = _randomNumber()  % s_maxTotalSupply;\r\n    uint256 totalCount = 0;\r\n    uint256 item;\r\n\r\n    for(uint256 i = 0 ; i < s_tokenCount; i++) {\r\n      uint256 _newTotalCount = totalCount + s_maxSupply[i] ;\r\n      if(randomNumber > _newTotalCount) {\r\n        totalCount = _newTotalCount;\r\n      }else {\r\n        item = i;\r\n        if(balanceOf(address(this),item)==0){\r\n          for(uint256 j = item-1; j >= 0; j--){\r\n            if (balanceOf(address(this),j)>0){\r\n              item = j;\r\n              break;\r\n            }\r\n          }\r\n        }\r\n        _safeTransferFrom(address(this), msg.sender, item , 1,\"\");\r\n        break;\r\n      }\r\n    }\r\n    decreaseTicketTries(msg.sender);\r\n    emit CaseOpened(msg.sender, casePrice, item);\r\n  }\r\n\r\n\r\n  // FUNCTIONS RELATED TO ITEMS\r\n\r\n  /**\r\n  * @notice Returns maxSupply of specific item (by tokenId)\r\n  * @dev - Getter of s_maxSupply mapping\r\n  */\r\n  function supplyOfItem(uint256 tokenId) public view returns(uint) {\r\n    return s_maxSupply[tokenId];\r\n  }\r\n\r\n  /**\r\n  * @notice Check that item exists (by tokenId)\r\n  */\r\n  function _itemExists(uint256 tokenId) internal view returns (bool) {\r\n    require(s_maxSupply[tokenId] > 0);\r\n    return true;\r\n  }\r\n\r\n  /**\r\n  * @notice Calculate chance of receiving an specific item\r\n  * - As higher is result higher is the rarity of the item\r\n  * @dev - Requires that tokenId exists (item is listed)\r\n  * - chance is calculated as item supply divided by total items supply\r\n  */\r\n  function _rarityOfItem(uint256 tokenId) public virtual view returns(uint256) {\r\n    require(_itemExists(tokenId));\r\n    uint256 result = s_maxTotalSupply / s_maxSupply[tokenId];\r\n    return result;\r\n  }\r\n\r\n  /**\r\n  * @notice Returns all the items inside the user's inventory (Could be used by the\r\n  * user to check his inventory or to check someone else inventory by address)\r\n  * @dev Copy users inventory in an empty array and returns it\r\n  */\r\n  function viewItems(address owner) public view returns(uint256[] memory) { \r\n    uint256[] memory inventory = new uint [](s_tokenCount);\r\n    for(uint256 i=0 ; i<inventory.length; i++) {\r\n      inventory[i]=balanceOf(owner,i);\r\n    }\r\n    return inventory;\r\n  }\r\n\r\n  /**\r\n  * @notice List a new item to the avaliable collection\r\n  * @dev Only callable by the Owner\r\n  */\r\n  function listItem(uint256 itemSupply) public onlyOwnerOrAdmin {\r\n    _mintSupply(address(this), itemSupply);\r\n  }\r\n\r\n  /**\r\n  * @notice Mint supply tokens of each Item\r\n  * @dev Declared internal because it is called inside the contructor\r\n  * - call _mint function\r\n  * - call set maxSupply function\r\n  * - updates TotalMaxSupply of Items\r\n  * - updates s_tokenCount -> Each items has associated an Id (e.g: Jeans -> Id: 0, Hoddie -> Id: 1,\r\n  * we increment s_tokenCount so next time we call _mintSupply a new type of item is going to be minted)\r\n  * - The items (tokens are minted by this contract and deposited into this contract address)\r\n  */\r\n  function _mintSupply(address receiver, uint256 amount) internal {\r\n      _mint(receiver, s_tokenCount, amount, \"\");\r\n      _setMaxSupply(s_tokenCount, amount);\r\n      s_maxTotalSupply += amount;\r\n      s_tokenCount += 1;\r\n  }\r\n\r\n  /**\r\n  * @notice Function used to set maxSupply of each item\r\n  */\r\n  function _setMaxSupply(uint256 tokenId, uint256 amount) internal {\r\n      s_maxSupply[tokenId] = amount;\r\n  }\r\n\r\n\r\n  // FUNCTIONS RELATED TO THE \"MARKETPLACE\"\r\n\r\n  /**\r\n  * @notice Function used to sell an item on the marketplace\r\n  * @dev\r\n  * - Needs to check balanceOf item trying to be sold\r\n  * - Needs to transfer item \r\n  * - Update marketItems array\r\n  * - Emit event \r\n  */\r\n  function sellItem(uint256 marketItemId, uint256 price) public {\r\n    require(balanceOf(msg.sender, marketItemId) > 0, \"Item not found.\");\r\n    _safeTransferFrom(msg.sender, address(this), marketItemId, 1 ,\"\");\r\n    _marketItems.push(\r\n      itemOnSale(\r\n        marketItemId,\r\n        _marketCount,\r\n        price,\r\n        msg.sender,\r\n        false\r\n      )\r\n    );\r\n    _marketCount++;\r\n    emit sellingItem(msg.sender, marketItemId, price);\r\n  }\r\n\r\n  /**\r\n  * @notice Function used to unlist an item from marketplace\r\n  * @dev\r\n  * - Needs to check that user is trying to unlist an item he owns\r\n  * - Needs to transfer item from contract to user address\r\n  * - Update item's sold variable\r\n  * - Emit event\r\n  */\r\n  function unListItem(uint256 marketItemId) public {\r\n    require(_marketItems[marketItemId].seller == msg.sender, \"You are not the owner of this item.\");\r\n    _safeTransferFrom(address(this), msg.sender, marketItemId, 1, \"\");\r\n    _marketItems[marketItemId].sold = true;\r\n    emit unListedItem(msg.sender, marketItemId);\r\n  }\r\n\r\n  /**\r\n  * @notice Function used to change price from item listed \r\n  * @dev\r\n  * - Needs to check that user is trying to unlist an item he owns\r\n  * - Needs to update price status\r\n  * - Emit event\r\n  */\r\n  function changeItemPrice(uint256 marketItemId, uint256 newPrice) public {\r\n    require(_marketItems[marketItemId].seller == msg.sender, \"You are not the owner of this item.\");\r\n    uint256 oldPrice = _marketItems[marketItemId].price;\r\n    _marketItems[marketItemId].price = newPrice;\r\n    emit itemPriceChanged(msg.sender, marketItemId, oldPrice, newPrice);\r\n  }\r\n\r\n  /**\r\n  * @notice Function used to exchange a token item for a real physical clothe.\r\n  */\r\n  function exchangeItem(uint256 marketItemId) public {\r\n    require(balanceOf(msg.sender, marketItemId) > 0);\r\n     _burn(msg.sender, marketItemId, 1);\r\n     s_maxSupply[marketItemId] -= 1;\r\n     s_maxTotalSupply -=1;\r\n     emit itemExchanged(msg.sender, marketItemId);\r\n  }\r\n\r\n  /**\r\n  * @notice Function used to buy an item on the marketplace\r\n  * @dev\r\n  * - Needs to check that user is not trying to buy its own item\r\n  * - Needs to check that item was not sold before\r\n  * - Needs to transfer tokens from buyer to seller\r\n  * - Needs to transfer item from seller to buyer\r\n  * - Update sold attribute from array\r\n  * - Emit event \r\n  */\r\n  function buyItem(uint256 marketItemId) public {\r\n    itemOnSale memory item = _marketItems[marketItemId];\r\n    require(msg.sender!=item.seller);\r\n    require(item.sold==false);\r\n    racksToken.transferFrom(msg.sender, item.seller, item.price);\r\n    _safeTransferFrom(address(this), msg.sender, item.tokenId, 1 ,\"\");\r\n    _marketItems[marketItemId].sold = true;\r\n    emit itemBought(msg.sender, item.seller, marketItemId, item.price);\r\n  }\r\n\r\n  /**\r\n  * @notice Function used to return items that are currently on sale\r\n  */\r\n  function getMarketItem(uint marketItemId) public view returns(itemOnSale memory){\r\n    return _marketItems[marketItemId];\r\n  }\r\n\r\n  /**\r\n  * @notice function used to return every item that is on sale on the MarketPlace\r\n  */\r\n  function getItemsOnSale() public view returns(itemOnSale[] memory) {\r\n    uint arrayLength;\r\n    \r\n    for(uint i=0; i<_marketItems.length;i++){\r\n      itemOnSale memory item = _marketItems[i];\r\n      if(item.sold==false){\r\n        arrayLength+=1;\r\n      }\r\n    }\r\n    itemOnSale[] memory items = new itemOnSale[](arrayLength);\r\n    uint indexCount;\r\n    for(uint256 i = 0; i < _marketItems.length; i++){\r\n      itemOnSale memory  item = _marketItems[i];\r\n      if(item.sold==false){\r\n        items[indexCount]=item;\r\n        indexCount++;\r\n      }\r\n    }\r\n    return items;\r\n  }\r\n\r\n  // FUNCTIONS RELATED TO \"TICKETS\"\r\n\r\n  /**\r\n  * @notice This function is used for a VIP user to list 'Case Tickets' on the MarketPlace\r\n  * @dev - Should check that user is Vip (Modifier)\r\n  * - Should check that user is NOT currently selling another ticket -> Users can only sell 1 ticket at the same time\r\n  * - Include ticket on array\r\n  * - Increase s_ticketCount\r\n  * - Set mapping to true\r\n  * - Emit event\r\n  *\r\n  */\r\n  function listTicket(uint256 numTries, uint256 _hours, uint256 price) public onlyVIP {\r\n    require(!s_isSellingTicket[msg.sender], \"User is already currently selling a Ticket\");\r\n    require(s_hasTicket[msg.sender], \"User has ticket avaliable\");\r\n    _tickets.push(\r\n      caseTicket(\r\n      s_ticketCount,\r\n      numTries,\r\n      _hours,\r\n      price,\r\n      msg.sender,\r\n      0,\r\n      true\r\n    ));\r\n    s_ticketCount++;\r\n    s_isSellingTicket[msg.sender] = true;\r\n    emit newTicketOnSale(msg.sender, numTries, _hours, price);\r\n  }\r\n\r\n  /**\r\n  * @notice This function is used for a VIP user to unlist 'Case Tickets' on the MarketPlace\r\n  * @dev - Should check that user is Vip (Modifier)\r\n  * - Should check that user has a listed ticket\r\n  * - Emit event\r\n  */\r\n  function unListTicket(uint256 ticketId) public onlyVIP {\r\n    require(s_isSellingTicket[msg.sender], \"User is not currently selling a Ticket\");\r\n    require(_tickets[ticketId].owner == msg.sender, \"User is not owner of this ticket\");\r\n    _tickets[ticketId].isAvaliable = false;\r\n    s_isSellingTicket[msg.sender] = false;\r\n    emit unListTicketOnSale(msg.sender);\r\n  }\r\n\r\n    /**\r\n  * @notice This function is used for a VIP user to change 'Case Tickets' price and tries on the MarketPlace\r\n  * @dev - Should check that user is Vip (Modifier)\r\n  * - Should check that user has a listed ticket\r\n  * - Emit event\r\n  */\r\n  function changeTicketConditions(uint256 ticketId, uint256 newTries, uint256 newPrice) public onlyVIP {\r\n    require(s_isSellingTicket[msg.sender], \"User is not currently selling a Ticket\");\r\n    require(_tickets[ticketId].owner == msg.sender, \"User is not owner of this ticket\");\r\n    _tickets[ticketId].price = newPrice;\r\n    _tickets[ticketId].numTries = newTries;\r\n    emit ticketPriceChanged(msg.sender, newTries, newPrice);\r\n  }\r\n\r\n    /**\r\n  * @notice This function is used to buy a caseTicket\r\n  * @dev - Should check that user is NOT Vip -> does make sense that a VIP user buys a ticket\r\n  * - Should check that user has a listed ticket\r\n  * - Transfer RacksToken from buyer to seller\r\n  * - Update mappings variables\r\n  * - Emit event\r\n  */\r\n  function buyTicket(uint256 ticketId) public {\r\n    require(!isVip(msg.sender));\r\n    require(_tickets[ticketId].owner != msg.sender, \"You can not buy a ticket to your self\");\r\n    require(_tickets[ticketId].isAvaliable == true, \"Ticket is not currently avaliable\");\r\n    address oldOwner = _tickets[ticketId].owner;\r\n    racksToken.transferFrom(msg.sender, _tickets[ticketId].owner, _tickets[ticketId].price);\r\n    _tickets[ticketId].timeWhenSold = block.timestamp;\r\n    s_hasTicket[_tickets[ticketId].owner] = false;\r\n    s_isSellingTicket[_tickets[ticketId].owner] = false;\r\n    s_ticketIsLended[_tickets[ticketId].owner] = true;\r\n    _tickets[ticketId].owner = msg.sender;\r\n    s_hasTicket[msg.sender] = true;\r\n    emit ticketBought(ticketId, oldOwner, msg.sender, _tickets[ticketId].price);\r\n  }\r\n\r\n  /** @notice Function used to claim Ticket back when duration is over\r\n  * @dev - Check that claimer is lending a Ticket\r\n  * - Check that duration of the Ticket is over -> block.timestamp is in seconds and duration in hours \r\n  * -> transform duration into seconds \r\n  * - Update mappings\r\n  * - Emit event\r\n  */\r\n  function claimTicketBack(uint256 ticketId) public {\r\n    require(s_ticketIsLended[msg.sender], \"User did not sell any Ticket\");\r\n    require((_tickets[ticketId].timeWhenSold - block.timestamp) > (_tickets[ticketId].duration) / 60, \"Duration of the Ticket is still avaliable\");\r\n    s_hasTicket[_tickets[ticketId].owner] = false;\r\n    s_hasTicket[msg.sender] = true;\r\n    s_ticketIsLended[msg.sender] = false;\r\n    emit ticketClaimedBack(_tickets[ticketId].owner, msg.sender);\r\n  }\r\n  \r\n  /** @notice Function used to decrease Ticket tries avaliables\r\n  * @dev - Check if used trie was last one\r\n  *        - If not: just decrease numTries\r\n  *        - If so: decrease numTries, update Avaliability and mappings\r\n  */\r\n  function decreaseTicketTries(address user) public {\r\n    for (uint256 i = 0; i < _tickets.length; i++) {\r\n        if (_tickets[i].owner == user) {\r\n            if(_tickets[i].numTries != 1) { // Case it was not the last trie avaliable\r\n                _tickets[i].numTries--;\r\n            }else { // it was his last trie avaliable\r\n                _tickets[i].numTries--;\r\n                _tickets[i].isAvaliable = false;\r\n                s_hasTicket[user] = false;\r\n        }\r\n     } \r\n    } \r\n  }\r\n\r\n  /**\r\n  * @notice Function used to return ticket that are currently on sale\r\n  */\r\n  function getMarketTicket(uint ticketId) public view returns(caseTicket memory) {\r\n    return _tickets[ticketId];\r\n  }\r\n\r\n  /**\r\n  * @notice Function used to return every ticket that are currently on sale\r\n  */\r\n   function getITicketsOnSale() public view returns(caseTicket[] memory) {\r\n    uint arrayLength;\r\n    \r\n    for(uint i=0; i<_tickets.length;i++){\r\n      caseTicket memory ticket = _tickets[i];\r\n      if(ticket.isAvaliable==true){\r\n        arrayLength+=1;\r\n      }\r\n    }\r\n    caseTicket[] memory tickets = new caseTicket[](arrayLength);\r\n    uint indexCount;\r\n    for(uint256 i = 0; i < _tickets.length; i++){\r\n      caseTicket memory ticket = _tickets[i];\r\n      if(ticket.isAvaliable==true){\r\n        tickets[indexCount]=ticket;\r\n        indexCount++;\r\n      }\r\n    }\r\n    return tickets;\r\n  }\r\n\r\n  // FUNCTIONS RELATED TO \"USERS\"\r\n\r\n  /**\r\n  * @notice Check if user is RacksMembers and owns at least 1 MrCrypto\r\n  * @dev - Require users MrCrypro's balance is > '\r\n  * - Require that RacksMembers user's attribute is true\r\n  */\r\n  function isVip(address user) public view returns(bool){\r\n    require(MR_CRYPTO.balanceOf(user) > 0);\r\n    require(s_gotRacksMembers[user]);\r\n    return true;\r\n  }\r\n\r\n  /**\r\n  * @notice Check if user is owner of the Contract or has admin role\r\n  * @dev Only callable by the Owner\r\n  */\r\n  function _isOwnerOrAdmin(address user) internal view returns (bool) {\r\n      require(_owner == user || hasRole(ADMIN_ROLE, user));\r\n      return true;\r\n  }\r\n\r\n  /**\r\n  * @notice Set RacksMember attribute as true for a user that is Member\r\n  * @dev Only callable by the Owner\r\n  * Require comented because maybe owner or admin are trying to set as true some address that was already set as true\r\n  */\r\n  function setSingleRacksMember(address user) public onlyOwnerOrAdmin {\r\n    //require(!s_gotRacksMembers[user], \"User is already RacksMember\");\r\n    s_gotRacksMembers[user] = true;\r\n  }\r\n\r\n  /**\r\n  * @notice Set RacksMember attribute as true for a list of users that are Members (array)\r\n  * @dev Only callable by the Owner\r\n  * Require comented because maybe owner or admin are trying to set as true some address that was already set as true\r\n  */\r\n  function setListRacksMembers(address[] memory users) public onlyOwnerOrAdmin {\r\n    for (uint256 i = 0; i < users.length; i++) {\r\n      //require(!s_gotRacksMembers[users[i]], \"User is already RacksMember\");\r\n       s_gotRacksMembers[users[i]] = true;\r\n    }\r\n  }\r\n\r\n  /**\r\n  * @notice Set RacksMember attribute as false for a user that was Racks Member before but it is not now\r\n  * @dev Only callable by the Owner\r\n  * Require comented because maybe owner or admin are trying to set as false some address that was already set as false\r\n  */\r\n  function removeSingleRacksMember(address user) public onlyOwnerOrAdmin {\r\n    //require(s_gotRacksMembers[user], \"User is already not RacksMember\");\r\n    s_gotRacksMembers[user] = false;\r\n  }\r\n\r\n  /**\r\n  * @notice Set RacksMember attribute as false for a list of users that are Members (array)\r\n  * @dev Only callable by the Owner\r\n  * Require comented because maybe owner or admin are trying to set as false some address that was already set as false\r\n  */\r\n  function removeListRacksMembers(address[] memory users) public onlyOwnerOrAdmin {\r\n    for (uint256 i = 0; i < users.length; i++) {\r\n      //require(s_gotRacksMembers[users[i]], \"User is already not RacksMember\");\r\n      s_gotRacksMembers[users[i]] = false;\r\n    }\r\n  }\r\n\r\n  /**\r\n  * @notice Set new Admin\r\n  * @dev Only callable by the Owner\r\n  */\r\n  function setAdmin(address _newAdmin) public onlyOwner {\r\n    _setupRole(ADMIN_ROLE, _newAdmin);\r\n  }\r\n\r\n  // FUNCTIONS RELATED WITH THE CONTRACT\r\n\r\n  /**\r\n  * @notice Change contract state from Active to Inactive and viceversa\r\n  * @dev Only callable by the Owner or an admin\r\n  */\r\n  function flipContractState() public onlyOwnerOrAdmin {\r\n    if (s_contractState == ContractState.Active) {\r\n      s_contractState = ContractState.Inactive;\r\n    }else {\r\n      s_contractState = ContractState.Active;\r\n    }\r\n  }\r\n\r\n  // FUNCTIONS RELATED TO ERC1155 TOKENS\r\n\r\n  /**\r\n  * @notice Used to return token URI by inserting tokenID\r\n  * @dev - returns information stored in s_uris mapping\r\n  * - Any user can check this information\r\n  */\r\n  function uri(uint256 tokenId) override public view returns (string memory) {\r\n    return(s_uris[tokenId]);\r\n  }\r\n\r\n  /**\r\n  * @notice Used to set tokenURI to specific item \r\n  * @dev - Only Owner or Admins can call this function\r\n  * - Need to specify:\r\n  *  - tokenId: specific item you want to set its uri\r\n  *  - uri: uri wanted to be set\r\n  */\r\n  function setTokenUri(uint256 tokenId, string memory _uri) public onlyOwnerOrAdmin {\r\n      require(bytes(s_uris[tokenId]).length == 0, \"Can not set uri twice\"); \r\n      s_uris[tokenId] = _uri; \r\n  }\r\n\r\n  \r\n  // FUNCTIONS RELATED TO FUNDS\r\n  \r\n  /**\r\n  * @notice Used to withdraw specific amount of funds\r\n  * @dev \r\n  * - Only owner is able to call this function\r\n  * - Should check that there are avaliable funds to withdraw\r\n  * - Should specify the wallet address you want to transfer the funds to\r\n  * - Should specify the amount of funds you want to transfer\r\n  */\r\n  function withdrawFunds(address wallet, uint256 amount) public onlyOwner {\r\n    require(racksToken.balanceOf(address(this)) > 0, \"No funds to withdraw\");\r\n    racksToken.transfer(wallet, amount);\r\n  }\r\n\r\n  /**\r\n  * @notice Used to withdraw ALL funds\r\n  * @dev \r\n  * - Only owner is able to call this function\r\n  * - Should check that there are avaliable funds to withdraw\r\n  * - Should specify the wallet address you want to transfer the funds to\r\n  */\r\n  function withdrawAllFunds(address wallet) public onlyOwner {\r\n    require(racksToken.balanceOf(address(this)) > 0, \"No funds to withdraw\");\r\n    racksToken.transfer(wallet, address(this).balance);\r\n  }\r\n\r\n  /// @notice Receive function\r\n  receive() external payable {\r\n  }\r\n}",
  "sourcePath": "C:\\Users\\oteri\\Desktop\\jj\\racs-items\\racks-items-frontend\\contracts\\RacksItemsv2.sol",
  "compiler": {
    "name": "solc",
    "version": "0.8.10+commit.fc410830.Emscripten.clang"
  },
  "schemaVersion": "3.4.3",
  "updatedAt": "2022-06-03T17:03:01.023Z",
  "devdoc": {
    "kind": "dev",
    "methods": {
      "_randomNumber()": {
        "details": "Uses Chainlink VRF -> call requestRandomWords method by using o_vrfCoordinator object set as internal because is going to be called only when a case is opened"
      },
      "_rarityOfItem(uint256)": {
        "details": "- Requires that tokenId exists (item is listed) - chance is calculated as item supply divided by total items supply"
      },
      "balanceOf(address,uint256)": {
        "details": "See {IERC1155-balanceOf}. Requirements: - `account` cannot be the zero address."
      },
      "balanceOfBatch(address[],uint256[])": {
        "details": "See {IERC1155-balanceOfBatch}. Requirements: - `accounts` and `ids` must have the same length."
      },
      "buyItem(uint256)": {
        "details": "- Needs to check that user is not trying to buy its own item - Needs to check that item was not sold before - Needs to transfer tokens from buyer to seller - Needs to transfer item from seller to buyer - Update sold attribute from array - Emit event "
      },
      "buyTicket(uint256)": {
        "details": "- Should check that user is NOT Vip -> does make sense that a VIP user buys a ticket - Should check that user has a listed ticket - Transfer RacksToken from buyer to seller - Update mappings variables - Emit event"
      },
      "changeItemPrice(uint256,uint256)": {
        "details": "- Needs to check that user is trying to unlist an item he owns - Needs to update price status - Emit event"
      },
      "changeTicketConditions(uint256,uint256,uint256)": {
        "details": "- Should check that user is Vip (Modifier) - Should check that user has a listed ticket - Emit event"
      },
      "claimTicketBack(uint256)": {
        "details": "- Check that claimer is lending a Ticket - Check that duration of the Ticket is over -> block.timestamp is in seconds and duration in hours  -> transform duration into seconds  - Update mappings - Emit event"
      },
      "decreaseTicketTries(address)": {
        "details": "- Check if used trie was last one        - If not: just decrease numTries        - If so: decrease numTries, update Avaliability and mappings"
      },
      "flipContractState()": {
        "details": "Only callable by the Owner or an admin"
      },
      "getRoleAdmin(bytes32)": {
        "details": "Returns the admin role that controls `role`. See {grantRole} and {revokeRole}. To change a role's admin, use {_setRoleAdmin}."
      },
      "grantRole(bytes32,address)": {
        "details": "Grants `role` to `account`. If `account` had not been already granted `role`, emits a {RoleGranted} event. Requirements: - the caller must have ``role``'s admin role."
      },
      "hasRole(bytes32,address)": {
        "details": "Returns `true` if `account` has been granted `role`."
      },
      "isApprovedForAll(address,address)": {
        "details": "See {IERC1155-isApprovedForAll}."
      },
      "isVip(address)": {
        "details": "- Require users MrCrypro's balance is > ' - Require that RacksMembers user's attribute is true"
      },
      "listItem(uint256)": {
        "details": "Only callable by the Owner"
      },
      "listTicket(uint256,uint256,uint256)": {
        "details": "- Should check that user is Vip (Modifier) - Should check that user is NOT currently selling another ticket -> Users can only sell 1 ticket at the same time - Include ticket on array - Increase s_ticketCount - Set mapping to true - Emit event"
      },
      "openCase()": {
        "details": " - Should check that user owns a Ticket -> modifier - Should check that msg.value is bigger than casePrice - Should transfer msg.value to the contract - Internally calls randomNumber()  - Apply modular function for the randomNumber to be between 0 and totalSupply of items - Should choose an item"
      },
      "removeListRacksMembers(address[])": {
        "details": "Only callable by the Owner Require comented because maybe owner or admin are trying to set as false some address that was already set as false"
      },
      "removeSingleRacksMember(address)": {
        "details": "Only callable by the Owner Require comented because maybe owner or admin are trying to set as false some address that was already set as false"
      },
      "renounceRole(bytes32,address)": {
        "details": "Revokes `role` from the calling account. Roles are often managed via {grantRole} and {revokeRole}: this function's purpose is to provide a mechanism for accounts to lose their privileges if they are compromised (such as when a trusted device is misplaced). If the calling account had been revoked `role`, emits a {RoleRevoked} event. Requirements: - the caller must be `account`."
      },
      "revokeRole(bytes32,address)": {
        "details": "Revokes `role` from `account`. If `account` had been granted `role`, emits a {RoleRevoked} event. Requirements: - the caller must have ``role``'s admin role."
      },
      "safeBatchTransferFrom(address,address,uint256[],uint256[],bytes)": {
        "details": "See {IERC1155-safeBatchTransferFrom}."
      },
      "safeTransferFrom(address,address,uint256,uint256,bytes)": {
        "details": "See {IERC1155-safeTransferFrom}."
      },
      "sellItem(uint256,uint256)": {
        "details": "- Needs to check balanceOf item trying to be sold - Needs to transfer item  - Update marketItems array - Emit event "
      },
      "setAdmin(address)": {
        "details": "Only callable by the Owner"
      },
      "setApprovalForAll(address,bool)": {
        "details": "See {IERC1155-setApprovalForAll}."
      },
      "setCasePrice(uint256)": {
        "details": "Only callable by the Owner"
      },
      "setListRacksMembers(address[])": {
        "details": "Only callable by the Owner Require comented because maybe owner or admin are trying to set as true some address that was already set as true"
      },
      "setSingleRacksMember(address)": {
        "details": "Only callable by the Owner Require comented because maybe owner or admin are trying to set as true some address that was already set as true"
      },
      "setTokenUri(uint256,string)": {
        "details": "- Only Owner or Admins can call this function - Need to specify:  - tokenId: specific item you want to set its uri  - uri: uri wanted to be set"
      },
      "supplyOfItem(uint256)": {
        "details": "- Getter of s_maxSupply mapping"
      },
      "unListItem(uint256)": {
        "details": "- Needs to check that user is trying to unlist an item he owns - Needs to transfer item from contract to user address - Update item's sold variable - Emit event"
      },
      "unListTicket(uint256)": {
        "details": "- Should check that user is Vip (Modifier) - Should check that user has a listed ticket - Emit event"
      },
      "uri(uint256)": {
        "details": "- returns information stored in s_uris mapping - Any user can check this information"
      },
      "viewItems(address)": {
        "details": "Copy users inventory in an empty array and returns it"
      },
      "withdrawAllFunds(address)": {
        "details": " - Only owner is able to call this function - Should check that there are avaliable funds to withdraw - Should specify the wallet address you want to transfer the funds to"
      },
      "withdrawFunds(address,uint256)": {
        "details": " - Only owner is able to call this function - Should check that there are avaliable funds to withdraw - Should specify the wallet address you want to transfer the funds to - Should specify the amount of funds you want to transfer"
      }
    },
    "version": 1
  },
  "userdoc": {
    "events": {
      "CaseOpened(address,uint256,uint256)": {
        "notice": "Events"
      }
    },
    "kind": "user",
    "methods": {
      "ADMIN_ROLE()": {
        "notice": "Standard variables"
      },
      "_randomNumber()": {
        "notice": "Used to get an actually Random Number -> to pick an item when openning a case"
      },
      "_rarityOfItem(uint256)": {
        "notice": "Calculate chance of receiving an specific item - As higher is result higher is the rarity of the item"
      },
      "buyItem(uint256)": {
        "notice": "Function used to buy an item on the marketplace"
      },
      "buyTicket(uint256)": {
        "notice": "This function is used to buy a caseTicket"
      },
      "changeItemPrice(uint256,uint256)": {
        "notice": "Function used to change price from item listed "
      },
      "changeTicketConditions(uint256,uint256,uint256)": {
        "notice": "This function is used for a VIP user to change 'Case Tickets' price and tries on the MarketPlace"
      },
      "claimTicketBack(uint256)": {
        "notice": "Function used to claim Ticket back when duration is over"
      },
      "decreaseTicketTries(address)": {
        "notice": "Function used to decrease Ticket tries avaliables"
      },
      "exchangeItem(uint256)": {
        "notice": "Function used to exchange a token item for a real physical clothe."
      },
      "flipContractState()": {
        "notice": "Change contract state from Active to Inactive and viceversa"
      },
      "getCasePrice()": {
        "notice": "View case price"
      },
      "getITicketsOnSale()": {
        "notice": "Function used to return every ticket that are currently on sale"
      },
      "getItemsOnSale()": {
        "notice": "function used to return every item that is on sale on the MarketPlace"
      },
      "getMarketItem(uint256)": {
        "notice": "Function used to return items that are currently on sale"
      },
      "getMarketTicket(uint256)": {
        "notice": "Function used to return ticket that are currently on sale"
      },
      "i_vrfCoordinator()": {
        "notice": "VRF Variables"
      },
      "isVip(address)": {
        "notice": "Check if user is RacksMembers and owns at least 1 MrCrypto"
      },
      "listItem(uint256)": {
        "notice": "List a new item to the avaliable collection"
      },
      "listTicket(uint256,uint256,uint256)": {
        "notice": "This function is used for a VIP user to list 'Case Tickets' on the MarketPlace"
      },
      "openCase()": {
        "notice": "Function used to 'open a case' and get an item"
      },
      "removeListRacksMembers(address[])": {
        "notice": "Set RacksMember attribute as false for a list of users that are Members (array)"
      },
      "removeSingleRacksMember(address)": {
        "notice": "Set RacksMember attribute as false for a user that was Racks Member before but it is not now"
      },
      "sellItem(uint256,uint256)": {
        "notice": "Function used to sell an item on the marketplace"
      },
      "setAdmin(address)": {
        "notice": "Set new Admin"
      },
      "setCasePrice(uint256)": {
        "notice": "Change price of the box"
      },
      "setListRacksMembers(address[])": {
        "notice": "Set RacksMember attribute as true for a list of users that are Members (array)"
      },
      "setSingleRacksMember(address)": {
        "notice": "Set RacksMember attribute as true for a user that is Member"
      },
      "setTokenUri(uint256,string)": {
        "notice": "Used to set tokenURI to specific item "
      },
      "supplyOfItem(uint256)": {
        "notice": "Returns maxSupply of specific item (by tokenId)"
      },
      "supportsInterface(bytes4)": {
        "notice": "Need to override supportsInterface function because Contract is ERC1155 and AccessControl"
      },
      "unListItem(uint256)": {
        "notice": "Function used to unlist an item from marketplace"
      },
      "unListTicket(uint256)": {
        "notice": "This function is used for a VIP user to unlist 'Case Tickets' on the MarketPlace"
      },
      "uri(uint256)": {
        "notice": "Used to return token URI by inserting tokenID"
      },
      "viewItems(address)": {
        "notice": "Returns all the items inside the user's inventory (Could be used by the user to check his inventory or to check someone else inventory by address)"
      },
      "withdrawAllFunds(address)": {
        "notice": "Used to withdraw ALL funds"
      },
      "withdrawFunds(address,uint256)": {
        "notice": "Used to withdraw specific amount of funds"
      }
    },
    "version": 1
  }
}