{
  "contractName": "RacksItemsv3",
  "abi": [
    {
      "inputs": [
        {
          "internalType": "address",
          "name": "_racksTokenAddress",
          "type": "address"
        },
        {
          "internalType": "address",
          "name": "_MockMrCryptoAddress",
          "type": "address"
        }
      ],
      "stateMutability": "nonpayable",
      "type": "constructor"
    },
    {
      "anonymous": false,
      "inputs": [
        {
          "indexed": true,
          "internalType": "address",
          "name": "account",
          "type": "address"
        },
        {
          "indexed": true,
          "internalType": "address",
          "name": "operator",
          "type": "address"
        },
        {
          "indexed": false,
          "internalType": "bool",
          "name": "approved",
          "type": "bool"
        }
      ],
      "name": "ApprovalForAll",
      "type": "event"
    },
    {
      "anonymous": false,
      "inputs": [
        {
          "indexed": false,
          "internalType": "address",
          "name": "user",
          "type": "address"
        },
        {
          "indexed": false,
          "internalType": "uint256",
          "name": "casePrice",
          "type": "uint256"
        },
        {
          "indexed": false,
          "internalType": "uint256",
          "name": "item",
          "type": "uint256"
        }
      ],
      "name": "CaseOpened",
      "type": "event"
    },
    {
      "anonymous": false,
      "inputs": [
        {
          "indexed": true,
          "internalType": "bytes32",
          "name": "role",
          "type": "bytes32"
        },
        {
          "indexed": true,
          "internalType": "bytes32",
          "name": "previousAdminRole",
          "type": "bytes32"
        },
        {
          "indexed": true,
          "internalType": "bytes32",
          "name": "newAdminRole",
          "type": "bytes32"
        }
      ],
      "name": "RoleAdminChanged",
      "type": "event"
    },
    {
      "anonymous": false,
      "inputs": [
        {
          "indexed": true,
          "internalType": "bytes32",
          "name": "role",
          "type": "bytes32"
        },
        {
          "indexed": true,
          "internalType": "address",
          "name": "account",
          "type": "address"
        },
        {
          "indexed": true,
          "internalType": "address",
          "name": "sender",
          "type": "address"
        }
      ],
      "name": "RoleGranted",
      "type": "event"
    },
    {
      "anonymous": false,
      "inputs": [
        {
          "indexed": true,
          "internalType": "bytes32",
          "name": "role",
          "type": "bytes32"
        },
        {
          "indexed": true,
          "internalType": "address",
          "name": "account",
          "type": "address"
        },
        {
          "indexed": true,
          "internalType": "address",
          "name": "sender",
          "type": "address"
        }
      ],
      "name": "RoleRevoked",
      "type": "event"
    },
    {
      "anonymous": false,
      "inputs": [
        {
          "indexed": true,
          "internalType": "address",
          "name": "operator",
          "type": "address"
        },
        {
          "indexed": true,
          "internalType": "address",
          "name": "from",
          "type": "address"
        },
        {
          "indexed": true,
          "internalType": "address",
          "name": "to",
          "type": "address"
        },
        {
          "indexed": false,
          "internalType": "uint256[]",
          "name": "ids",
          "type": "uint256[]"
        },
        {
          "indexed": false,
          "internalType": "uint256[]",
          "name": "values",
          "type": "uint256[]"
        }
      ],
      "name": "TransferBatch",
      "type": "event"
    },
    {
      "anonymous": false,
      "inputs": [
        {
          "indexed": true,
          "internalType": "address",
          "name": "operator",
          "type": "address"
        },
        {
          "indexed": true,
          "internalType": "address",
          "name": "from",
          "type": "address"
        },
        {
          "indexed": true,
          "internalType": "address",
          "name": "to",
          "type": "address"
        },
        {
          "indexed": false,
          "internalType": "uint256",
          "name": "id",
          "type": "uint256"
        },
        {
          "indexed": false,
          "internalType": "uint256",
          "name": "value",
          "type": "uint256"
        }
      ],
      "name": "TransferSingle",
      "type": "event"
    },
    {
      "anonymous": false,
      "inputs": [
        {
          "indexed": false,
          "internalType": "string",
          "name": "value",
          "type": "string"
        },
        {
          "indexed": true,
          "internalType": "uint256",
          "name": "id",
          "type": "uint256"
        }
      ],
      "name": "URI",
      "type": "event"
    },
    {
      "anonymous": false,
      "inputs": [
        {
          "indexed": false,
          "internalType": "uint256",
          "name": "newPrice",
          "type": "uint256"
        }
      ],
      "name": "casePriceChanged",
      "type": "event"
    },
    {
      "anonymous": false,
      "inputs": [
        {
          "indexed": false,
          "internalType": "address",
          "name": "buyer",
          "type": "address"
        },
        {
          "indexed": false,
          "internalType": "address",
          "name": "seller",
          "type": "address"
        },
        {
          "indexed": false,
          "internalType": "uint256",
          "name": "marketItemId",
          "type": "uint256"
        },
        {
          "indexed": false,
          "internalType": "uint256",
          "name": "price",
          "type": "uint256"
        }
      ],
      "name": "itemBought",
      "type": "event"
    },
    {
      "anonymous": false,
      "inputs": [
        {
          "indexed": false,
          "internalType": "address",
          "name": "user",
          "type": "address"
        },
        {
          "indexed": false,
          "internalType": "uint256",
          "name": "tokenId",
          "type": "uint256"
        }
      ],
      "name": "itemExchanged",
      "type": "event"
    },
    {
      "anonymous": false,
      "inputs": [
        {
          "indexed": false,
          "internalType": "address",
          "name": "owner",
          "type": "address"
        },
        {
          "indexed": false,
          "internalType": "uint256",
          "name": "marketItemId",
          "type": "uint256"
        },
        {
          "indexed": false,
          "internalType": "uint256",
          "name": "oldPrice",
          "type": "uint256"
        },
        {
          "indexed": false,
          "internalType": "uint256",
          "name": "newPrice",
          "type": "uint256"
        }
      ],
      "name": "itemPriceChanged",
      "type": "event"
    },
    {
      "anonymous": false,
      "inputs": [
        {
          "indexed": false,
          "internalType": "address",
          "name": "seller",
          "type": "address"
        },
        {
          "indexed": false,
          "internalType": "uint256",
          "name": "numTries",
          "type": "uint256"
        },
        {
          "indexed": false,
          "internalType": "uint256",
          "name": "_hours",
          "type": "uint256"
        },
        {
          "indexed": false,
          "internalType": "uint256",
          "name": "price",
          "type": "uint256"
        }
      ],
      "name": "newTicketOnSale",
      "type": "event"
    },
    {
      "anonymous": false,
      "inputs": [
        {
          "indexed": false,
          "internalType": "address",
          "name": "user",
          "type": "address"
        },
        {
          "indexed": false,
          "internalType": "uint256",
          "name": "tokenId",
          "type": "uint256"
        },
        {
          "indexed": false,
          "internalType": "uint256",
          "name": "price",
          "type": "uint256"
        }
      ],
      "name": "sellingItem",
      "type": "event"
    },
    {
      "anonymous": false,
      "inputs": [
        {
          "indexed": false,
          "internalType": "uint256",
          "name": "ticketId",
          "type": "uint256"
        },
        {
          "indexed": false,
          "internalType": "address",
          "name": "oldOwner",
          "type": "address"
        },
        {
          "indexed": false,
          "internalType": "address",
          "name": "newOwner",
          "type": "address"
        },
        {
          "indexed": false,
          "internalType": "uint256",
          "name": "price",
          "type": "uint256"
        }
      ],
      "name": "ticketBought",
      "type": "event"
    },
    {
      "anonymous": false,
      "inputs": [
        {
          "indexed": false,
          "internalType": "address",
          "name": "realOwner",
          "type": "address"
        }
      ],
      "name": "ticketClaimedBack",
      "type": "event"
    },
    {
      "anonymous": false,
      "inputs": [
        {
          "indexed": false,
          "internalType": "address",
          "name": "owner",
          "type": "address"
        },
        {
          "indexed": false,
          "internalType": "uint256",
          "name": "newTries",
          "type": "uint256"
        },
        {
          "indexed": false,
          "internalType": "uint256",
          "name": "newHours",
          "type": "uint256"
        },
        {
          "indexed": false,
          "internalType": "uint256",
          "name": "newPrice",
          "type": "uint256"
        }
      ],
      "name": "ticketConditionsChanged",
      "type": "event"
    },
    {
      "anonymous": false,
      "inputs": [
        {
          "indexed": false,
          "internalType": "address",
          "name": "owner",
          "type": "address"
        }
      ],
      "name": "unListTicketOnSale",
      "type": "event"
    },
    {
      "anonymous": false,
      "inputs": [
        {
          "indexed": false,
          "internalType": "address",
          "name": "owner",
          "type": "address"
        },
        {
          "indexed": false,
          "internalType": "uint256",
          "name": "marketItemId",
          "type": "uint256"
        }
      ],
      "name": "unListedItem",
      "type": "event"
    },
    {
      "inputs": [],
      "name": "ADMIN_ROLE",
      "outputs": [
        {
          "internalType": "bytes32",
          "name": "",
          "type": "bytes32"
        }
      ],
      "stateMutability": "view",
      "type": "function"
    },
    {
      "inputs": [],
      "name": "DEFAULT_ADMIN_ROLE",
      "outputs": [
        {
          "internalType": "bytes32",
          "name": "",
          "type": "bytes32"
        }
      ],
      "stateMutability": "view",
      "type": "function"
    },
    {
      "inputs": [
        {
          "internalType": "address",
          "name": "account",
          "type": "address"
        },
        {
          "internalType": "uint256",
          "name": "id",
          "type": "uint256"
        }
      ],
      "name": "balanceOf",
      "outputs": [
        {
          "internalType": "uint256",
          "name": "",
          "type": "uint256"
        }
      ],
      "stateMutability": "view",
      "type": "function"
    },
    {
      "inputs": [
        {
          "internalType": "address[]",
          "name": "accounts",
          "type": "address[]"
        },
        {
          "internalType": "uint256[]",
          "name": "ids",
          "type": "uint256[]"
        }
      ],
      "name": "balanceOfBatch",
      "outputs": [
        {
          "internalType": "uint256[]",
          "name": "",
          "type": "uint256[]"
        }
      ],
      "stateMutability": "view",
      "type": "function"
    },
    {
      "inputs": [
        {
          "internalType": "bytes32",
          "name": "role",
          "type": "bytes32"
        }
      ],
      "name": "getRoleAdmin",
      "outputs": [
        {
          "internalType": "bytes32",
          "name": "",
          "type": "bytes32"
        }
      ],
      "stateMutability": "view",
      "type": "function"
    },
    {
      "inputs": [
        {
          "internalType": "bytes32",
          "name": "role",
          "type": "bytes32"
        },
        {
          "internalType": "address",
          "name": "account",
          "type": "address"
        }
      ],
      "name": "grantRole",
      "outputs": [],
      "stateMutability": "nonpayable",
      "type": "function"
    },
    {
      "inputs": [
        {
          "internalType": "bytes32",
          "name": "role",
          "type": "bytes32"
        },
        {
          "internalType": "address",
          "name": "account",
          "type": "address"
        }
      ],
      "name": "hasRole",
      "outputs": [
        {
          "internalType": "bool",
          "name": "",
          "type": "bool"
        }
      ],
      "stateMutability": "view",
      "type": "function"
    },
    {
      "inputs": [
        {
          "internalType": "address",
          "name": "account",
          "type": "address"
        },
        {
          "internalType": "address",
          "name": "operator",
          "type": "address"
        }
      ],
      "name": "isApprovedForAll",
      "outputs": [
        {
          "internalType": "bool",
          "name": "",
          "type": "bool"
        }
      ],
      "stateMutability": "view",
      "type": "function"
    },
    {
      "inputs": [
        {
          "internalType": "address",
          "name": "",
          "type": "address"
        },
        {
          "internalType": "address",
          "name": "",
          "type": "address"
        },
        {
          "internalType": "uint256[]",
          "name": "",
          "type": "uint256[]"
        },
        {
          "internalType": "uint256[]",
          "name": "",
          "type": "uint256[]"
        },
        {
          "internalType": "bytes",
          "name": "",
          "type": "bytes"
        }
      ],
      "name": "onERC1155BatchReceived",
      "outputs": [
        {
          "internalType": "bytes4",
          "name": "",
          "type": "bytes4"
        }
      ],
      "stateMutability": "nonpayable",
      "type": "function"
    },
    {
      "inputs": [
        {
          "internalType": "address",
          "name": "",
          "type": "address"
        },
        {
          "internalType": "address",
          "name": "",
          "type": "address"
        },
        {
          "internalType": "uint256",
          "name": "",
          "type": "uint256"
        },
        {
          "internalType": "uint256",
          "name": "",
          "type": "uint256"
        },
        {
          "internalType": "bytes",
          "name": "",
          "type": "bytes"
        }
      ],
      "name": "onERC1155Received",
      "outputs": [
        {
          "internalType": "bytes4",
          "name": "",
          "type": "bytes4"
        }
      ],
      "stateMutability": "nonpayable",
      "type": "function"
    },
    {
      "inputs": [
        {
          "internalType": "bytes32",
          "name": "role",
          "type": "bytes32"
        },
        {
          "internalType": "address",
          "name": "account",
          "type": "address"
        }
      ],
      "name": "renounceRole",
      "outputs": [],
      "stateMutability": "nonpayable",
      "type": "function"
    },
    {
      "inputs": [
        {
          "internalType": "bytes32",
          "name": "role",
          "type": "bytes32"
        },
        {
          "internalType": "address",
          "name": "account",
          "type": "address"
        }
      ],
      "name": "revokeRole",
      "outputs": [],
      "stateMutability": "nonpayable",
      "type": "function"
    },
    {
      "inputs": [
        {
          "internalType": "address",
          "name": "from",
          "type": "address"
        },
        {
          "internalType": "address",
          "name": "to",
          "type": "address"
        },
        {
          "internalType": "uint256[]",
          "name": "ids",
          "type": "uint256[]"
        },
        {
          "internalType": "uint256[]",
          "name": "amounts",
          "type": "uint256[]"
        },
        {
          "internalType": "bytes",
          "name": "data",
          "type": "bytes"
        }
      ],
      "name": "safeBatchTransferFrom",
      "outputs": [],
      "stateMutability": "nonpayable",
      "type": "function"
    },
    {
      "inputs": [
        {
          "internalType": "address",
          "name": "from",
          "type": "address"
        },
        {
          "internalType": "address",
          "name": "to",
          "type": "address"
        },
        {
          "internalType": "uint256",
          "name": "id",
          "type": "uint256"
        },
        {
          "internalType": "uint256",
          "name": "amount",
          "type": "uint256"
        },
        {
          "internalType": "bytes",
          "name": "data",
          "type": "bytes"
        }
      ],
      "name": "safeTransferFrom",
      "outputs": [],
      "stateMutability": "nonpayable",
      "type": "function"
    },
    {
      "inputs": [
        {
          "internalType": "address",
          "name": "operator",
          "type": "address"
        },
        {
          "internalType": "bool",
          "name": "approved",
          "type": "bool"
        }
      ],
      "name": "setApprovalForAll",
      "outputs": [],
      "stateMutability": "nonpayable",
      "type": "function"
    },
    {
      "inputs": [
        {
          "internalType": "bytes4",
          "name": "interfaceId",
          "type": "bytes4"
        }
      ],
      "name": "supportsInterface",
      "outputs": [
        {
          "internalType": "bool",
          "name": "",
          "type": "bool"
        }
      ],
      "stateMutability": "view",
      "type": "function"
    },
    {
      "inputs": [
        {
          "internalType": "uint256",
          "name": "price",
          "type": "uint256"
        }
      ],
      "name": "setCasePrice",
      "outputs": [],
      "stateMutability": "nonpayable",
      "type": "function"
    },
    {
      "inputs": [],
      "name": "openCase",
      "outputs": [
        {
          "internalType": "bool",
          "name": "success",
          "type": "bool"
        }
      ],
      "stateMutability": "nonpayable",
      "type": "function"
    },
    {
      "inputs": [
        {
          "internalType": "address",
          "name": "_user",
          "type": "address"
        },
        {
          "internalType": "uint256",
          "name": "_randomNumber",
          "type": "uint256"
        }
      ],
      "name": "fulfillCaseRequest",
      "outputs": [],
      "stateMutability": "nonpayable",
      "type": "function"
    },
    {
      "inputs": [],
      "name": "caseLiquidity",
      "outputs": [
        {
          "internalType": "uint256[]",
          "name": "",
          "type": "uint256[]"
        }
      ],
      "stateMutability": "view",
      "type": "function"
    },
    {
      "inputs": [
        {
          "internalType": "uint256",
          "name": "tokenId",
          "type": "uint256"
        }
      ],
      "name": "supplyOfItem",
      "outputs": [
        {
          "internalType": "uint256",
          "name": "",
          "type": "uint256"
        }
      ],
      "stateMutability": "view",
      "type": "function"
    },
    {
      "inputs": [
        {
          "internalType": "address",
          "name": "owner",
          "type": "address"
        }
      ],
      "name": "viewItems",
      "outputs": [
        {
          "internalType": "uint256[]",
          "name": "",
          "type": "uint256[]"
        }
      ],
      "stateMutability": "view",
      "type": "function"
    },
    {
      "inputs": [
        {
          "internalType": "uint256",
          "name": "itemSupply",
          "type": "uint256"
        }
      ],
      "name": "listItem",
      "outputs": [],
      "stateMutability": "nonpayable",
      "type": "function"
    },
    {
      "inputs": [
        {
          "internalType": "uint256",
          "name": "marketItemId",
          "type": "uint256"
        },
        {
          "internalType": "uint256",
          "name": "price",
          "type": "uint256"
        }
      ],
      "name": "listItemOnMarket",
      "outputs": [],
      "stateMutability": "nonpayable",
      "type": "function"
    },
    {
      "inputs": [
        {
          "internalType": "uint256",
          "name": "marketItemId",
          "type": "uint256"
        }
      ],
      "name": "unListItem",
      "outputs": [],
      "stateMutability": "nonpayable",
      "type": "function"
    },
    {
      "inputs": [
        {
          "internalType": "uint256",
          "name": "marketItemId",
          "type": "uint256"
        },
        {
          "internalType": "uint256",
          "name": "newPrice",
          "type": "uint256"
        }
      ],
      "name": "changeItemPrice",
      "outputs": [],
      "stateMutability": "nonpayable",
      "type": "function"
    },
    {
      "inputs": [
        {
          "internalType": "uint256",
          "name": "tokenId",
          "type": "uint256"
        }
      ],
      "name": "exchangeItem",
      "outputs": [],
      "stateMutability": "nonpayable",
      "type": "function"
    },
    {
      "inputs": [
        {
          "internalType": "uint256",
          "name": "marketItemId",
          "type": "uint256"
        }
      ],
      "name": "buyItem",
      "outputs": [],
      "stateMutability": "nonpayable",
      "type": "function"
    },
    {
      "inputs": [],
      "name": "getItemsOnSale",
      "outputs": [
        {
          "components": [
            {
              "internalType": "uint256",
              "name": "tokenId",
              "type": "uint256"
            },
            {
              "internalType": "uint256",
              "name": "marketItemId",
              "type": "uint256"
            },
            {
              "internalType": "uint256",
              "name": "price",
              "type": "uint256"
            },
            {
              "internalType": "address",
              "name": "itemOwner",
              "type": "address"
            },
            {
              "internalType": "bool",
              "name": "isOnSale",
              "type": "bool"
            }
          ],
          "internalType": "struct IRacksItems.itemOnSale[]",
          "name": "",
          "type": "tuple[]"
        }
      ],
      "stateMutability": "view",
      "type": "function"
    },
    {
      "inputs": [
        {
          "internalType": "address",
          "name": "from",
          "type": "address"
        },
        {
          "internalType": "uint256",
          "name": "numTries",
          "type": "uint256"
        },
        {
          "internalType": "uint256",
          "name": "_hours",
          "type": "uint256"
        },
        {
          "internalType": "uint256",
          "name": "price",
          "type": "uint256"
        }
      ],
      "name": "listTicketFrom",
      "outputs": [],
      "stateMutability": "nonpayable",
      "type": "function"
    },
    {
      "inputs": [
        {
          "internalType": "address",
          "name": "from",
          "type": "address"
        }
      ],
      "name": "unListTicketFrom",
      "outputs": [],
      "stateMutability": "nonpayable",
      "type": "function"
    },
    {
      "inputs": [
        {
          "internalType": "address",
          "name": "from",
          "type": "address"
        },
        {
          "internalType": "uint256",
          "name": "newTries",
          "type": "uint256"
        },
        {
          "internalType": "uint256",
          "name": "newHours",
          "type": "uint256"
        },
        {
          "internalType": "uint256",
          "name": "newPrice",
          "type": "uint256"
        }
      ],
      "name": "changeTicketConditionsFrom",
      "outputs": [],
      "stateMutability": "nonpayable",
      "type": "function"
    },
    {
      "inputs": [
        {
          "internalType": "uint256",
          "name": "ticketId",
          "type": "uint256"
        }
      ],
      "name": "buyTicket",
      "outputs": [],
      "stateMutability": "nonpayable",
      "type": "function"
    },
    {
      "inputs": [
        {
          "internalType": "address",
          "name": "from",
          "type": "address"
        }
      ],
      "name": "claimTicketBackFrom",
      "outputs": [],
      "stateMutability": "nonpayable",
      "type": "function"
    },
    {
      "inputs": [
        {
          "internalType": "uint256",
          "name": "ticketId",
          "type": "uint256"
        }
      ],
      "name": "getMarketTicket",
      "outputs": [
        {
          "internalType": "uint256",
          "name": "numTries",
          "type": "uint256"
        },
        {
          "internalType": "uint256",
          "name": "duration",
          "type": "uint256"
        },
        {
          "internalType": "uint256",
          "name": "price",
          "type": "uint256"
        },
        {
          "internalType": "address",
          "name": "owner",
          "type": "address"
        },
        {
          "internalType": "uint256",
          "name": "timeWhenSold",
          "type": "uint256"
        },
        {
          "internalType": "bool",
          "name": "isAvaliable",
          "type": "bool"
        }
      ],
      "stateMutability": "view",
      "type": "function"
    },
    {
      "inputs": [
        {
          "internalType": "address",
          "name": "spender",
          "type": "address"
        },
        {
          "internalType": "bool",
          "name": "permission",
          "type": "bool"
        }
      ],
      "name": "approveForTickets",
      "outputs": [],
      "stateMutability": "nonpayable",
      "type": "function"
    },
    {
      "inputs": [
        {
          "internalType": "address",
          "name": "owner",
          "type": "address"
        },
        {
          "internalType": "address",
          "name": "spender",
          "type": "address"
        }
      ],
      "name": "ticketAllowance",
      "outputs": [
        {
          "internalType": "bool",
          "name": "",
          "type": "bool"
        }
      ],
      "stateMutability": "view",
      "type": "function"
    },
    {
      "inputs": [
        {
          "internalType": "address",
          "name": "user",
          "type": "address"
        }
      ],
      "name": "isApproved",
      "outputs": [
        {
          "internalType": "bool",
          "name": "",
          "type": "bool"
        }
      ],
      "stateMutability": "view",
      "type": "function"
    },
    {
      "inputs": [],
      "name": "getTicketsOnSale",
      "outputs": [
        {
          "components": [
            {
              "internalType": "uint256",
              "name": "ticketId",
              "type": "uint256"
            },
            {
              "internalType": "uint256",
              "name": "numTries",
              "type": "uint256"
            },
            {
              "internalType": "uint256",
              "name": "duration",
              "type": "uint256"
            },
            {
              "internalType": "uint256",
              "name": "price",
              "type": "uint256"
            },
            {
              "internalType": "address",
              "name": "owner",
              "type": "address"
            },
            {
              "internalType": "uint256",
              "name": "timeWhenSold",
              "type": "uint256"
            },
            {
              "internalType": "bool",
              "name": "isAvaliable",
              "type": "bool"
            }
          ],
          "internalType": "struct ITickets.caseTicket[]",
          "name": "",
          "type": "tuple[]"
        }
      ],
      "stateMutability": "view",
      "type": "function"
    },
    {
      "inputs": [
        {
          "internalType": "address",
          "name": "user",
          "type": "address"
        }
      ],
      "name": "getUserTicket",
      "outputs": [
        {
          "internalType": "uint256",
          "name": "durationLeft",
          "type": "uint256"
        },
        {
          "internalType": "uint256",
          "name": "triesLeft",
          "type": "uint256"
        },
        {
          "internalType": "uint256",
          "name": "ownerOrSpender",
          "type": "uint256"
        },
        {
          "internalType": "uint256",
          "name": "ticketPrice",
          "type": "uint256"
        }
      ],
      "stateMutability": "view",
      "type": "function"
    },
    {
      "inputs": [
        {
          "internalType": "address",
          "name": "user",
          "type": "address"
        }
      ],
      "name": "isVip",
      "outputs": [
        {
          "internalType": "bool",
          "name": "",
          "type": "bool"
        }
      ],
      "stateMutability": "view",
      "type": "function"
    },
    {
      "inputs": [
        {
          "internalType": "address",
          "name": "_newAdmin",
          "type": "address"
        }
      ],
      "name": "setAdmin",
      "outputs": [],
      "stateMutability": "nonpayable",
      "type": "function"
    },
    {
      "inputs": [],
      "name": "flipContractState",
      "outputs": [],
      "stateMutability": "nonpayable",
      "type": "function"
    },
    {
      "inputs": [
        {
          "internalType": "uint256",
          "name": "tokenId",
          "type": "uint256"
        }
      ],
      "name": "uri",
      "outputs": [
        {
          "internalType": "string",
          "name": "",
          "type": "string"
        }
      ],
      "stateMutability": "view",
      "type": "function"
    },
    {
      "inputs": [
        {
          "internalType": "uint256",
          "name": "tokenId",
          "type": "uint256"
        },
        {
          "internalType": "string",
          "name": "_uri",
          "type": "string"
        }
      ],
      "name": "setTokenUri",
      "outputs": [],
      "stateMutability": "nonpayable",
      "type": "function"
    },
    {
      "inputs": [
        {
          "internalType": "address",
          "name": "wallet",
          "type": "address"
        },
        {
          "internalType": "uint256",
          "name": "amount",
          "type": "uint256"
        }
      ],
      "name": "withdrawFunds",
      "outputs": [],
      "stateMutability": "nonpayable",
      "type": "function"
    },
    {
      "inputs": [
        {
          "internalType": "address",
          "name": "wallet",
          "type": "address"
        }
      ],
      "name": "withdrawAllFunds",
      "outputs": [],
      "stateMutability": "nonpayable",
      "type": "function"
    },
    {
      "inputs": [
        {
          "internalType": "address",
          "name": "_caseOpenerAddress",
          "type": "address"
        },
        {
          "internalType": "address",
          "name": "_ticketsAddress",
          "type": "address"
        }
      ],
      "name": "setInterfaces",
      "outputs": [],
      "stateMutability": "nonpayable",
      "type": "function"
    },
    {
      "inputs": [],
      "name": "getOwner",
      "outputs": [
        {
          "internalType": "address",
          "name": "",
          "type": "address"
        }
      ],
      "stateMutability": "view",
      "type": "function"
    },
    {
      "inputs": [],
      "name": "getMaxTotalSupply",
      "outputs": [
        {
          "internalType": "uint256",
          "name": "",
          "type": "uint256"
        }
      ],
      "stateMutability": "view",
      "type": "function"
    },
    {
      "inputs": [],
      "name": "getTokenCount",
      "outputs": [
        {
          "internalType": "uint256",
          "name": "",
          "type": "uint256"
        }
      ],
      "stateMutability": "view",
      "type": "function"
    },
    {
      "inputs": [],
      "name": "getMarketcount",
      "outputs": [
        {
          "internalType": "uint256",
          "name": "",
          "type": "uint256"
        }
      ],
      "stateMutability": "view",
      "type": "function"
    },
    {
      "inputs": [],
      "name": "getContractState",
      "outputs": [
        {
          "internalType": "enum RacksItemsv3.ContractState",
          "name": "",
          "type": "uint8"
        }
      ],
      "stateMutability": "view",
      "type": "function"
    },
    {
      "inputs": [],
      "name": "getCasePrice",
      "outputs": [
        {
          "internalType": "uint256",
          "name": "",
          "type": "uint256"
        }
      ],
      "stateMutability": "view",
      "type": "function"
    }
  ],
  "bytecode": "0x60806040523480156200001157600080fd5b50604051620087f0380380620087f0833981810160405281019062000037919062000298565b6040518060200160405280600081525062000058816200016260201b60201c565b5080600660006101000a81548173ffffffffffffffffffffffffffffffffffffffff021916908373ffffffffffffffffffffffffffffffffffffffff16021790555081600760006101000a81548173ffffffffffffffffffffffffffffffffffffffff021916908373ffffffffffffffffffffffffffffffffffffffff16021790555033600860006101000a81548173ffffffffffffffffffffffffffffffffffffffff021916908373ffffffffffffffffffffffffffffffffffffffff1602179055506000600a819055506064600c819055506000600d60006101000a81548160ff02191690836001811115620001555762000154620002df565b5b0217905550505062000373565b80600290805190602001906200017a9291906200017e565b5050565b8280546200018c906200033d565b90600052602060002090601f016020900481019282620001b05760008555620001fc565b82601f10620001cb57805160ff1916838001178555620001fc565b82800160010185558215620001fc579182015b82811115620001fb578251825591602001919060010190620001de565b5b5090506200020b91906200020f565b5090565b5b808211156200022a57600081600090555060010162000210565b5090565b600080fd5b600073ffffffffffffffffffffffffffffffffffffffff82169050919050565b6000620002608262000233565b9050919050565b620002728162000253565b81146200027e57600080fd5b50565b600081519050620002928162000267565b92915050565b60008060408385031215620002b257620002b16200022e565b5b6000620002c28582860162000281565b9250506020620002d58582860162000281565b9150509250929050565b7f4e487b7100000000000000000000000000000000000000000000000000000000600052602160045260246000fd5b7f4e487b7100000000000000000000000000000000000000000000000000000000600052602260045260246000fd5b600060028204905060018216806200035657607f821691505b602082108114156200036d576200036c6200030e565b5b50919050565b61846d80620003836000396000f3fe608060405234801561001057600080fd5b50600436106103415760003560e01c806384203f4b116101b8578063c107532911610104578063de08f653116100a2578063f23a6e611161007c578063f23a6e61146109e4578063f242432a14610a14578063f2edeb0b14610a30578063f48c9d3414610a4c57610341565b8063de08f6531461098e578063e7fb74c714610998578063e985e9c5146109b457610341565b8063c853d922116100de578063c853d92214610901578063d3c115f21461091f578063d547741f1461093d578063dd006d311461095957610341565b8063c107532914610894578063c25e2af4146108b0578063c4c42730146108e357610341565b8063983ba04411610171578063a7b194241161014b578063a7b194241461080e578063a7bc77c61461082a578063bbcbc2e714610846578063bc197c811461086457610341565b8063983ba044146107a4578063a217fddf146107d4578063a22cb465146107f257610341565b806384203f4b146106d0578063893d20e8146107005780638a9d96931461071e5780638dc5f45b1461073a57806391d1485414610756578063976298f31461078657610341565b806336568abe11610292578063673448dd1161023057806375b238fc1161020a57806375b238fc1461065a57806378a89567146106785780637a768017146106965780637f4e4849146106b257610341565b8063673448dd146105f257806367dd74ca14610622578063704b6c021461063e57610341565b80634e1273f41161026c5780634e1273f41461056c5780634e592c4b1461059c57806357f7789e146105b85780635db30bb1146105d457610341565b806336568abe14610516578063401ea50e146105325780634a2266571461054e57610341565b806320ba0814116102ff5780632eb2c2d6116102d95780632eb2c2d6146104a65780632f2ff15d146104c257806332dee40b146104de57806332f1d012146104fa57610341565b806320ba08141461042a578063248a9ca31461045a5780632ce381901461048a57610341565b8062fdd58e1461034657806301ffc9a714610376578063020f1980146103a65780630e89341c146103c257806310fa69b3146103f25780631cb0b2731461040e575b600080fd5b610360600480360381019061035b9190615912565b610a7c565b60405161036d9190615961565b60405180910390f35b610390600480360381019061038b91906159d4565b610b45565b60405161039d9190615a1c565b60405180910390f35b6103c060048036038101906103bb9190615a37565b610b57565b005b6103dc60048036038101906103d79190615a77565b610d99565b6040516103e99190615b3d565b60405180910390f35b61040c60048036038101906104079190615b5f565b610e3e565b005b61042860048036038101906104239190615a77565b610f54565b005b610444600480360381019061043f9190615a77565b610ff7565b6040516104519190615961565b60405180910390f35b610474600480360381019061046f9190615bd5565b611014565b6040516104819190615c11565b60405180910390f35b6104a4600480360381019061049f9190615a77565b611034565b005b6104c060048036038101906104bb9190615e29565b611089565b005b6104dc60048036038101906104d79190615ef8565b61112a565b005b6104f860048036038101906104f39190615f38565b61114b565b005b610514600480360381019061050f9190615f65565b6113f8565b005b610530600480360381019061052b9190615ef8565b61158e565b005b61054c60048036038101906105479190615912565b611611565b005b6105566117c7565b6040516105639190615a1c565b60405180910390f35b6105866004803603810190610581919061608f565b611be3565b60405161059391906161c5565b60405180910390f35b6105b660048036038101906105b19190616213565b611cfc565b005b6105d260048036038101906105cd91906162f4565b611e6f565b005b6105dc611f45565b6040516105e99190615961565b60405180910390f35b61060c60048036038101906106079190615f38565b611f4f565b6040516106199190615a1c565b60405180910390f35b61063c60048036038101906106379190615a77565b611ff4565b005b61065860048036038101906106539190615f38565b6122ce565b005b61066261236e565b60405161066f9190615c11565b60405180910390f35b610680612375565b60405161068d9190615961565b60405180910390f35b6106b060048036038101906106ab9190615f65565b61237f565b005b6106ba612515565b6040516106c791906163c7565b60405180910390f35b6106ea60048036038101906106e59190615f38565b61252c565b6040516106f79190615a1c565b60405180910390f35b610708612687565b60405161071591906163f1565b60405180910390f35b61073860048036038101906107339190615f38565b6126b1565b005b610754600480360381019061074f9190615a77565b612838565b005b610770600480360381019061076b9190615ef8565b6128c1565b60405161077d9190615a1c565b60405180910390f35b61078e61292c565b60405161079b9190615961565b60405180910390f35b6107be60048036038101906107b99190615b5f565b612936565b6040516107cb9190615a1c565b60405180910390f35b6107dc6129de565b6040516107e99190615c11565b60405180910390f35b61080c60048036038101906108079190616213565b6129e5565b005b61082860048036038101906108239190615a37565b6129fb565b005b610844600480360381019061083f9190615a77565b612b44565b005b61084e612cfe565b60405161085b9190616541565b60405180910390f35b61087e60048036038101906108799190615e29565b612fc9565b60405161088b9190616572565b60405180910390f35b6108ae60048036038101906108a99190615912565b612fde565b005b6108ca60048036038101906108c59190615f38565b6131f1565b6040516108da949392919061658d565b60405180910390f35b6108eb6132a2565b6040516108f89190615961565b60405180910390f35b6109096132ac565b604051610916919061670f565b60405180910390f35b61092761334f565b60405161093491906161c5565b60405180910390f35b61095760048036038101906109529190615ef8565b613455565b005b610973600480360381019061096e9190615a77565b613476565b60405161098596959493929190616731565b60405180910390f35b61099661352a565b005b6109b260048036038101906109ad9190615a77565b61360c565b005b6109ce60048036038101906109c99190615b5f565b613c85565b6040516109db9190615a1c565b60405180910390f35b6109fe60048036038101906109f99190616792565b613d19565b604051610a0b9190616572565b60405180910390f35b610a2e6004803603810190610a299190616792565b613d2e565b005b610a4a6004803603810190610a459190615f38565b613dcf565b005b610a666004803603810190610a619190615f38565b613ee0565b604051610a7391906161c5565b60405180910390f35b60008073ffffffffffffffffffffffffffffffffffffffff168373ffffffffffffffffffffffffffffffffffffffff161415610aed576040517f08c379a0000000000000000000000000000000000000000000000000000000008152600401610ae49061689b565b60405180910390fd5b60008083815260200190815260200160002060008473ffffffffffffffffffffffffffffffffffffffff1673ffffffffffffffffffffffffffffffffffffffff16815260200190815260200160002054905092915050565b6000610b5082613fde565b9050919050565b6000610b633384610a7c565b11610ba3576040517f08c379a0000000000000000000000000000000000000000000000000000000008152600401610b9a90616907565b60405180910390fd5b60008111610be6576040517f08c379a0000000000000000000000000000000000000000000000000000000008152600401610bdd90616973565b60405180910390fd5b6001601160003373ffffffffffffffffffffffffffffffffffffffff1673ffffffffffffffffffffffffffffffffffffffff16815260200190815260200160002060008481526020019081526020016000206000828254610c4791906169c2565b92505081905550600e6040518060a00160405280848152602001600b5481526020018381526020013373ffffffffffffffffffffffffffffffffffffffff16815260200160011515815250908060018154018082558091505060019003906000526020600020906004020160009091909190915060008201518160000155602082015181600101556040820151816002015560608201518160030160006101000a81548173ffffffffffffffffffffffffffffffffffffffff021916908373ffffffffffffffffffffffffffffffffffffffff16021790555060808201518160030160146101000a81548160ff0219169083151502179055505050600b6000815480929190610d5590616a18565b91905055507f23cba88d6c6f26b62b2cfc32a2cc04fbbde8590188b97cd3590e45af9ac6dd6d338383604051610d8d93929190616a61565b60405180910390a15050565b6060601060008381526020019081526020016000208054610db990616ac7565b80601f0160208091040260200160405190810160405280929190818152602001828054610de590616ac7565b8015610e325780601f10610e0757610100808354040283529160200191610e32565b820191906000526020600020905b815481529060010190602001808311610e1557829003601f168201915b50505050509050919050565b600860009054906101000a900473ffffffffffffffffffffffffffffffffffffffff1673ffffffffffffffffffffffffffffffffffffffff163373ffffffffffffffffffffffffffffffffffffffff1614610ece576040517f08c379a0000000000000000000000000000000000000000000000000000000008152600401610ec590616b45565b60405180910390fd5b81600460006101000a81548173ffffffffffffffffffffffffffffffffffffffff021916908373ffffffffffffffffffffffffffffffffffffffff16021790555080600560006101000a81548173ffffffffffffffffffffffffffffffffffffffff021916908373ffffffffffffffffffffffffffffffffffffffff1602179055505050565b6000610f603383610a7c565b11610f6a57600080fd5b610f7633826001614058565b6001600f60008381526020019081526020016000206000828254610f9a9190616b65565b92505081905550600160096000828254610fb49190616b65565b925050819055507f9e90d55d2f1f115ffe1b87372c45f27f6b3a2b5ba392942167be7845618900943382604051610fec929190616b99565b60405180910390a150565b6000600f6000838152602001908152602001600020549050919050565b600060036000838152602001908152602001600020600101549050919050565b61103d3361429f565b61107c576040517f08c379a000000000000000000000000000000000000000000000000000000000815260040161107390616c34565b60405180910390fd5b6110863082614318565b50565b611091614378565b73ffffffffffffffffffffffffffffffffffffffff168573ffffffffffffffffffffffffffffffffffffffff1614806110d757506110d6856110d1614378565b613c85565b5b611116576040517f08c379a000000000000000000000000000000000000000000000000000000000815260040161110d90616cc6565b60405180910390fd5b6111238585858585614380565b5050505050565b61113382611014565b61113c816146a2565b61114683836146b6565b505050565b600860009054906101000a900473ffffffffffffffffffffffffffffffffffffffff1673ffffffffffffffffffffffffffffffffffffffff163373ffffffffffffffffffffffffffffffffffffffff16146111db576040517f08c379a00000000000000000000000000000000000000000000000000000000081526004016111d290616b45565b60405180910390fd5b6000600760009054906101000a900473ffffffffffffffffffffffffffffffffffffffff1673ffffffffffffffffffffffffffffffffffffffff166370a08231306040518263ffffffff1660e01b815260040161123891906163f1565b602060405180830381865afa158015611255573d6000803e3d6000fd5b505050506040513d601f19601f820116820180604052508101906112799190616cfb565b116112b9576040517f08c379a00000000000000000000000000000000000000000000000000000000081526004016112b090616d74565b60405180910390fd5b600760009054906101000a900473ffffffffffffffffffffffffffffffffffffffff1673ffffffffffffffffffffffffffffffffffffffff1663a9059cbb82600760009054906101000a900473ffffffffffffffffffffffffffffffffffffffff1673ffffffffffffffffffffffffffffffffffffffff166370a08231306040518263ffffffff1660e01b815260040161135391906163f1565b602060405180830381865afa158015611370573d6000803e3d6000fd5b505050506040513d601f19601f820116820180604052508101906113949190616cfb565b6040518363ffffffff1660e01b81526004016113b1929190616b99565b6020604051808303816000875af11580156113d0573d6000803e3d6000fd5b505050506040513d601f19601f820116820180604052508101906113f49190616da9565b5050565b6114013361252c565b611440576040517f08c379a000000000000000000000000000000000000000000000000000000000815260040161143790616e22565b60405180910390fd5b6000600181111561145457611453616350565b5b600d60009054906101000a900460ff16600181111561147657611475616350565b5b146114b6576040517f08c379a00000000000000000000000000000000000000000000000000000000081526004016114ad90616eb4565b60405180910390fd5b600560009054906101000a900473ffffffffffffffffffffffffffffffffffffffff1673ffffffffffffffffffffffffffffffffffffffff1663fd5afd8085858585336040518663ffffffff1660e01b8152600401611519959493929190616ed4565b600060405180830381600087803b15801561153357600080fd5b505af1158015611547573d6000803e3d6000fd5b505050507f0fcd915268f7fe921a6c99bd903199d2f30c7f65a422416bfd1de6a264b8264d848484846040516115809493929190616f27565b60405180910390a150505050565b611596614378565b73ffffffffffffffffffffffffffffffffffffffff168173ffffffffffffffffffffffffffffffffffffffff1614611603576040517f08c379a00000000000000000000000000000000000000000000000000000000081526004016115fa90616fde565b60405180910390fd5b61160d8282614797565b5050565b600460009054906101000a900473ffffffffffffffffffffffffffffffffffffffff1673ffffffffffffffffffffffffffffffffffffffff163373ffffffffffffffffffffffffffffffffffffffff161461166b57600080fd5b60008061167661334f565b905060005b81518110156116c7576116a782828151811061169a57611699616ffe565b5b6020026020010151610ff7565b836116b291906169c2565b925080806116bf90616a18565b91505061167b565b50600082846116d6919061705c565b905060008080600090505b845181101561176357600061170f86838151811061170257611701616ffe565b5b6020026020010151610ff7565b8461171a91906169c2565b90508085111561172c5780935061174f565b85828151811061173f5761173e616ffe565b5b6020026020010151925050611763565b50808061175b90616a18565b9150506116e1565b50611781308883600160405180602001604052806000815250614879565b7fea32e37a2618dbb680c93d891742e9e13b30d184822562a0ee3c09290fd42b4333600c54836040516117b693929190616a61565b60405180910390a150505050505050565b6000806009541161180d576040517f08c379a0000000000000000000000000000000000000000000000000000000008152600401611804906170d9565b60405180910390fd5b6000600181111561182157611820616350565b5b600d60009054906101000a900460ff16600181111561184357611842616350565b5b14611883576040517f08c379a000000000000000000000000000000000000000000000000000000000815260040161187a90616eb4565b60405180910390fd5b6001600660009054906101000a900473ffffffffffffffffffffffffffffffffffffffff1673ffffffffffffffffffffffffffffffffffffffff166370a08231336040518263ffffffff1660e01b81526004016118e091906163f1565b602060405180830381865afa1580156118fd573d6000803e3d6000fd5b505050506040513d601f19601f820116820180604052508101906119219190616cfb565b1015611a0f576000600560009054906101000a900473ffffffffffffffffffffffffffffffffffffffff1673ffffffffffffffffffffffffffffffffffffffff1663c25e2af4336040518263ffffffff1660e01b815260040161198491906163f1565b608060405180830381865afa1580156119a1573d6000803e3d6000fd5b505050506040513d601f19601f820116820180604052508101906119c591906170f9565b509250505060028114611a0d576040517f08c379a0000000000000000000000000000000000000000000000000000000008152600401611a04906171d2565b60405180910390fd5b505b600760009054906101000a900473ffffffffffffffffffffffffffffffffffffffff1673ffffffffffffffffffffffffffffffffffffffff166323b872dd3330600c546040518463ffffffff1660e01b8152600401611a70939291906171f2565b6020604051808303816000875af1158015611a8f573d6000803e3d6000fd5b505050506040513d601f19601f82011682018060405250810190611ab39190616da9565b50600460009054906101000a900473ffffffffffffffffffffffffffffffffffffffff1673ffffffffffffffffffffffffffffffffffffffff1663831cbb6b336040518263ffffffff1660e01b8152600401611b0f91906163f1565b600060405180830381600087803b158015611b2957600080fd5b505af1158015611b3d573d6000803e3d6000fd5b50505050611b4a3361252c565b611bdc57600560009054906101000a900473ffffffffffffffffffffffffffffffffffffffff1673ffffffffffffffffffffffffffffffffffffffff1663b28b45fe336040518263ffffffff1660e01b8152600401611ba991906163f1565b600060405180830381600087803b158015611bc357600080fd5b505af1158015611bd7573d6000803e3d6000fd5b505050505b6001905090565b60608151835114611c29576040517f08c379a0000000000000000000000000000000000000000000000000000000008152600401611c209061729b565b60405180910390fd5b6000835167ffffffffffffffff811115611c4657611c45615c31565b5b604051908082528060200260200182016040528015611c745781602001602082028036833780820191505090505b50905060005b8451811015611cf157611cc1858281518110611c9957611c98616ffe565b5b6020026020010151858381518110611cb457611cb3616ffe565b5b6020026020010151610a7c565b828281518110611cd457611cd3616ffe565b5b60200260200101818152505080611cea90616a18565b9050611c7a565b508091505092915050565b6000600660009054906101000a900473ffffffffffffffffffffffffffffffffffffffff1673ffffffffffffffffffffffffffffffffffffffff166370a08231336040518263ffffffff1660e01b8152600401611d5991906163f1565b602060405180830381865afa158015611d76573d6000803e3d6000fd5b505050506040513d601f19601f82011682018060405250810190611d9a9190616cfb565b11611dda576040517f08c379a0000000000000000000000000000000000000000000000000000000008152600401611dd190617307565b60405180910390fd5b600560009054906101000a900473ffffffffffffffffffffffffffffffffffffffff1673ffffffffffffffffffffffffffffffffffffffff16637fa187e73384846040518463ffffffff1660e01b8152600401611e3993929190617327565b600060405180830381600087803b158015611e5357600080fd5b505af1158015611e67573d6000803e3d6000fd5b505050505050565b611e783361429f565b611eb7576040517f08c379a0000000000000000000000000000000000000000000000000000000008152600401611eae90616c34565b60405180910390fd5b6000601060008481526020019081526020016000208054611ed790616ac7565b905014611f19576040517f08c379a0000000000000000000000000000000000000000000000000000000008152600401611f10906173aa565b60405180910390fd5b80601060008481526020019081526020016000209080519060200190611f40929190615780565b505050565b6000600954905090565b6000600560009054906101000a900473ffffffffffffffffffffffffffffffffffffffff1673ffffffffffffffffffffffffffffffffffffffff1663673448dd836040518263ffffffff1660e01b8152600401611fac91906163f1565b602060405180830381865afa158015611fc9573d6000803e3d6000fd5b505050506040513d601f19601f82011682018060405250810190611fed9190616da9565b9050919050565b6000600181111561200857612007616350565b5b600d60009054906101000a900460ff16600181111561202a57612029616350565b5b1461206a576040517f08c379a000000000000000000000000000000000000000000000000000000000815260040161206190616eb4565b60405180910390fd5b6120733361252c565b156120b3576040517f08c379a00000000000000000000000000000000000000000000000000000000081526004016120aa90617416565b60405180910390fd5b600080600560009054906101000a900473ffffffffffffffffffffffffffffffffffffffff1673ffffffffffffffffffffffffffffffffffffffff1663dd006d31846040518263ffffffff1660e01b81526004016121119190615961565b60c060405180830381865afa15801561212e573d6000803e3d6000fd5b505050506040513d601f19601f82011682018060405250810190612152919061744b565b5050935093505050600760009054906101000a900473ffffffffffffffffffffffffffffffffffffffff1673ffffffffffffffffffffffffffffffffffffffff166323b872dd3383856040518463ffffffff1660e01b81526004016121b9939291906171f2565b6020604051808303816000875af11580156121d8573d6000803e3d6000fd5b505050506040513d601f19601f820116820180604052508101906121fc9190616da9565b50600560009054906101000a900473ffffffffffffffffffffffffffffffffffffffff1673ffffffffffffffffffffffffffffffffffffffff16630f03e92484336040518363ffffffff1660e01b815260040161225a9291906174d8565b600060405180830381600087803b15801561227457600080fd5b505af1158015612288573d6000803e3d6000fd5b505050507f060f7dd92424d6f1af65d2fe9acba5b63d299cc26cd8eb26403ca371bc9fbfbb838233856040516122c19493929190617501565b60405180910390a1505050565b600860009054906101000a900473ffffffffffffffffffffffffffffffffffffffff1673ffffffffffffffffffffffffffffffffffffffff163373ffffffffffffffffffffffffffffffffffffffff161461235e576040517f08c379a000000000000000000000000000000000000000000000000000000000815260040161235590616b45565b60405180910390fd5b61236b6000801b82614b15565b50565b6000801b81565b6000600a54905090565b6123883361252c565b6123c7576040517f08c379a00000000000000000000000000000000000000000000000000000000081526004016123be90616e22565b60405180910390fd5b600060018111156123db576123da616350565b5b600d60009054906101000a900460ff1660018111156123fd576123fc616350565b5b1461243d576040517f08c379a000000000000000000000000000000000000000000000000000000000815260040161243490616eb4565b60405180910390fd5b600560009054906101000a900473ffffffffffffffffffffffffffffffffffffffff1673ffffffffffffffffffffffffffffffffffffffff1663fbd183d985858585336040518663ffffffff1660e01b81526004016124a0959493929190616ed4565b600060405180830381600087803b1580156124ba57600080fd5b505af11580156124ce573d6000803e3d6000fd5b505050507f07814713aba2e13eb5f2470225f7395d33fad1452b70f8427dae73e4d3a59344848484846040516125079493929190616f27565b60405180910390a150505050565b6000600d60009054906101000a900460ff16905090565b600080600660009054906101000a900473ffffffffffffffffffffffffffffffffffffffff1673ffffffffffffffffffffffffffffffffffffffff166370a08231846040518263ffffffff1660e01b815260040161258a91906163f1565b602060405180830381865afa1580156125a7573d6000803e3d6000fd5b505050506040513d601f19601f820116820180604052508101906125cb9190616cfb565b118061266f5750600560009054906101000a900473ffffffffffffffffffffffffffffffffffffffff1673ffffffffffffffffffffffffffffffffffffffff1663673448dd836040518263ffffffff1660e01b815260040161262d91906163f1565b602060405180830381865afa15801561264a573d6000803e3d6000fd5b505050506040513d601f19601f8201168201806040525081019061266e9190616da9565b5b1561267d5760019050612682565b600090505b919050565b6000600860009054906101000a900473ffffffffffffffffffffffffffffffffffffffff16905090565b6126ba3361252c565b6126f9576040517f08c379a00000000000000000000000000000000000000000000000000000000081526004016126f090616e22565b60405180910390fd5b6000600181111561270d5761270c616350565b5b600d60009054906101000a900460ff16600181111561272f5761272e616350565b5b1461276f576040517f08c379a000000000000000000000000000000000000000000000000000000000815260040161276690616eb4565b60405180910390fd5b600560009054906101000a900473ffffffffffffffffffffffffffffffffffffffff1673ffffffffffffffffffffffffffffffffffffffff1663d9adf06382336040518363ffffffff1660e01b81526004016127cc929190617546565b600060405180830381600087803b1580156127e657600080fd5b505af11580156127fa573d6000803e3d6000fd5b505050507f5dbab6b1e9ddd154d6eb51aa5622fb5278ea62a0b5f81d046a945d899490f6318160405161282d91906163f1565b60405180910390a150565b6128413361429f565b612880576040517f08c379a000000000000000000000000000000000000000000000000000000000815260040161287790616c34565b60405180910390fd5b80600c819055507f06cd74aabc11982a85b554df4d7833623303656fe69bed4db1b0cb3245feebe3816040516128b69190615961565b60405180910390a150565b60006003600084815260200190815260200160002060000160008373ffffffffffffffffffffffffffffffffffffffff1673ffffffffffffffffffffffffffffffffffffffff16815260200190815260200160002060009054906101000a900460ff16905092915050565b6000600c54905090565b6000600560009054906101000a900473ffffffffffffffffffffffffffffffffffffffff1673ffffffffffffffffffffffffffffffffffffffff1663983ba04484846040518363ffffffff1660e01b8152600401612995929190617546565b602060405180830381865afa1580156129b2573d6000803e3d6000fd5b505050506040513d601f19601f820116820180604052508101906129d69190616da9565b905092915050565b6000801b81565b6129f76129f0614378565b8383614b23565b5050565b3373ffffffffffffffffffffffffffffffffffffffff16600e8381548110612a2657612a25616ffe565b5b906000526020600020906004020160030160009054906101000a900473ffffffffffffffffffffffffffffffffffffffff1673ffffffffffffffffffffffffffffffffffffffff1614612aae576040517f08c379a0000000000000000000000000000000000000000000000000000000008152600401612aa5906175e1565b60405180910390fd5b6000600e8381548110612ac457612ac3616ffe565b5b906000526020600020906004020160020154905081600e8481548110612aed57612aec616ffe565b5b9060005260206000209060040201600201819055507fb141d00f22a670547caacc412e6489d8edaba6a840df558118363ce1a40d6ed233848385604051612b379493929190616f27565b60405180910390a1505050565b3373ffffffffffffffffffffffffffffffffffffffff16600e8281548110612b6f57612b6e616ffe565b5b906000526020600020906004020160030160009054906101000a900473ffffffffffffffffffffffffffffffffffffffff1673ffffffffffffffffffffffffffffffffffffffff1614612bf7576040517f08c379a0000000000000000000000000000000000000000000000000000000008152600401612bee906175e1565b60405180910390fd5b6001601160003373ffffffffffffffffffffffffffffffffffffffff1673ffffffffffffffffffffffffffffffffffffffff1681526020019081526020016000206000600e8481548110612c4e57612c4d616ffe565b5b90600052602060002090600402016000015481526020019081526020016000206000828254612c7d9190616b65565b925050819055506000600e8281548110612c9a57612c99616ffe565b5b906000526020600020906004020160030160146101000a81548160ff0219169083151502179055507fc9cedcca3d85d6009a562a9e70071f6288adabda9ba7f059589165e75c9cf4043382604051612cf3929190616b99565b60405180910390a150565b6060600080600090505b600e80549050811015612e24576000600e8281548110612d2b57612d2a616ffe565b5b90600052602060002090600402016040518060a00160405290816000820154815260200160018201548152602001600282015481526020016003820160009054906101000a900473ffffffffffffffffffffffffffffffffffffffff1673ffffffffffffffffffffffffffffffffffffffff1673ffffffffffffffffffffffffffffffffffffffff1681526020016003820160149054906101000a900460ff16151515158152505090506001151581608001511515148015612dfb5750612dfa81606001518260000151614c90565b5b15612e1057600183612e0d91906169c2565b92505b508080612e1c90616a18565b915050612d08565b5060008167ffffffffffffffff811115612e4157612e40615c31565b5b604051908082528060200260200182016040528015612e7a57816020015b612e67615806565b815260200190600190039081612e5f5790505b509050600080600090505b600e80549050811015612fbf576000600e8281548110612ea857612ea7616ffe565b5b90600052602060002090600402016040518060a00160405290816000820154815260200160018201548152602001600282015481526020016003820160009054906101000a900473ffffffffffffffffffffffffffffffffffffffff1673ffffffffffffffffffffffffffffffffffffffff1673ffffffffffffffffffffffffffffffffffffffff1681526020016003820160149054906101000a900460ff16151515158152505090506001151581608001511515148015612f785750612f7781606001518260000151614c90565b5b15612fab5780848481518110612f9157612f90616ffe565b5b60200260200101819052508280612fa790616a18565b9350505b508080612fb790616a18565b915050612e85565b5081935050505090565b600063bc197c8160e01b905095945050505050565b600860009054906101000a900473ffffffffffffffffffffffffffffffffffffffff1673ffffffffffffffffffffffffffffffffffffffff163373ffffffffffffffffffffffffffffffffffffffff161461306e576040517f08c379a000000000000000000000000000000000000000000000000000000000815260040161306590616b45565b60405180910390fd5b6000600760009054906101000a900473ffffffffffffffffffffffffffffffffffffffff1673ffffffffffffffffffffffffffffffffffffffff166370a08231306040518263ffffffff1660e01b81526004016130cb91906163f1565b602060405180830381865afa1580156130e8573d6000803e3d6000fd5b505050506040513d601f19601f8201168201806040525081019061310c9190616cfb565b1161314c576040517f08c379a000000000000000000000000000000000000000000000000000000000815260040161314390616d74565b60405180910390fd5b600760009054906101000a900473ffffffffffffffffffffffffffffffffffffffff1673ffffffffffffffffffffffffffffffffffffffff1663a9059cbb83836040518363ffffffff1660e01b81526004016131a9929190616b99565b6020604051808303816000875af11580156131c8573d6000803e3d6000fd5b505050506040513d601f19601f820116820180604052508101906131ec9190616da9565b505050565b600080600080600560009054906101000a900473ffffffffffffffffffffffffffffffffffffffff1673ffffffffffffffffffffffffffffffffffffffff1663c25e2af4866040518263ffffffff1660e01b815260040161325291906163f1565b608060405180830381865afa15801561326f573d6000803e3d6000fd5b505050506040513d601f19601f8201168201806040525081019061329391906170f9565b93509350935093509193509193565b6000600b54905090565b60606000600560009054906101000a900473ffffffffffffffffffffffffffffffffffffffff1673ffffffffffffffffffffffffffffffffffffffff1663c853d9226040518163ffffffff1660e01b8152600401600060405180830381865afa15801561331d573d6000803e3d6000fd5b505050506040513d6000823e3d601f19601f82011682018060405250810190613346919061777d565b90508091505090565b6060600080600090505b600a5481101561339757600061336f3083610a7c565b111561338457818061338090616a18565b9250505b808061338f90616a18565b915050613359565b5060008167ffffffffffffffff8111156133b4576133b3615c31565b5b6040519080825280602002602001820160405280156133e25781602001602082028036833780820191505090505b509050600080600090505b600a5481101561344b5760006134033083610a7c565b1115613438578083838151811061341d5761341c616ffe565b5b602002602001018181525050818061343490616a18565b9250505b808061344390616a18565b9150506133ed565b5081935050505090565b61345e82611014565b613467816146a2565b6134718383614797565b505050565b600080600080600080600560009054906101000a900473ffffffffffffffffffffffffffffffffffffffff1673ffffffffffffffffffffffffffffffffffffffff1663dd006d31886040518263ffffffff1660e01b81526004016134da9190615961565b60c060405180830381865afa1580156134f7573d6000803e3d6000fd5b505050506040513d601f19601f8201168201806040525081019061351b919061744b565b50505050505091939550919395565b6135333361429f565b613572576040517f08c379a000000000000000000000000000000000000000000000000000000000815260040161356990616c34565b60405180910390fd5b6000600181111561358657613585616350565b5b600d60009054906101000a900460ff1660018111156135a8576135a7616350565b5b14156135de576001600d60006101000a81548160ff021916908360018111156135d4576135d3616350565b5b021790555061360a565b6000600d60006101000a81548160ff0219169083600181111561360457613603616350565b5b02179055505b565b6000600e828154811061362257613621616ffe565b5b90600052602060002090600402016040518060a00160405290816000820154815260200160018201548152602001600282015481526020016003820160009054906101000a900473ffffffffffffffffffffffffffffffffffffffff1673ffffffffffffffffffffffffffffffffffffffff1673ffffffffffffffffffffffffffffffffffffffff1681526020016003820160149054906101000a900460ff1615151515815250509050600e82815481106136e0576136df616ffe565b5b906000526020600020906004020160030160009054906101000a900473ffffffffffffffffffffffffffffffffffffffff1673ffffffffffffffffffffffffffffffffffffffff163373ffffffffffffffffffffffffffffffffffffffff161415613780576040517f08c379a000000000000000000000000000000000000000000000000000000000815260040161377790617838565b60405180910390fd5b60011515600e838154811061379857613797616ffe565b5b906000526020600020906004020160030160149054906101000a900460ff161515146137f9576040517f08c379a00000000000000000000000000000000000000000000000000000000081526004016137f0906178ca565b60405180910390fd5b61380b81606001518260000151614c90565b61384a576040517f08c379a000000000000000000000000000000000000000000000000000000000815260040161384190617936565b60405180910390fd5b8060400151600760009054906101000a900473ffffffffffffffffffffffffffffffffffffffff1673ffffffffffffffffffffffffffffffffffffffff1663dd62ed3e33306040518363ffffffff1660e01b81526004016138ac929190617546565b602060405180830381865afa1580156138c9573d6000803e3d6000fd5b505050506040513d601f19601f820116820180604052508101906138ed9190616cfb565b101561392e576040517f08c379a0000000000000000000000000000000000000000000000000000000008152600401613925906179a2565b60405180910390fd5b600760009054906101000a900473ffffffffffffffffffffffffffffffffffffffff1673ffffffffffffffffffffffffffffffffffffffff166323b872dd33600e858154811061398157613980616ffe565b5b906000526020600020906004020160030160009054906101000a900473ffffffffffffffffffffffffffffffffffffffff16600e86815481106139c7576139c6616ffe565b5b9060005260206000209060040201600201546040518463ffffffff1660e01b81526004016139f7939291906171f2565b6020604051808303816000875af1158015613a16573d6000803e3d6000fd5b505050506040513d601f19601f82011682018060405250810190613a3a9190616da9565b50613ac2600e8381548110613a5257613a51616ffe565b5b906000526020600020906004020160030160009054906101000a900473ffffffffffffffffffffffffffffffffffffffff1633600e8581548110613a9957613a98616ffe565b5b906000526020600020906004020160000154600160405180602001604052806000815250614879565b600160116000836060015173ffffffffffffffffffffffffffffffffffffffff1673ffffffffffffffffffffffffffffffffffffffff1681526020019081526020016000206000836000015181526020019081526020016000206000828254613b2b9190616b65565b925050819055506000600e8381548110613b4857613b47616ffe565b5b906000526020600020906004020160030160009054906101000a900473ffffffffffffffffffffffffffffffffffffffff16905033600e8481548110613b9157613b90616ffe565b5b906000526020600020906004020160030160006101000a81548173ffffffffffffffffffffffffffffffffffffffff021916908373ffffffffffffffffffffffffffffffffffffffff1602179055506000600e8481548110613bf657613bf5616ffe565b5b906000526020600020906004020160030160146101000a81548160ff0219169083151502179055507f642067ff529c9b5b1162502fc8e8a3a91dda56e126a84f2fe38d341236231a82338285600e8781548110613c5657613c55616ffe565b5b906000526020600020906004020160020154604051613c7894939291906179c2565b60405180910390a1505050565b6000600160008473ffffffffffffffffffffffffffffffffffffffff1673ffffffffffffffffffffffffffffffffffffffff16815260200190815260200160002060008373ffffffffffffffffffffffffffffffffffffffff1673ffffffffffffffffffffffffffffffffffffffff16815260200190815260200160002060009054906101000a900460ff16905092915050565b600063f23a6e6160e01b905095945050505050565b613d36614378565b73ffffffffffffffffffffffffffffffffffffffff168573ffffffffffffffffffffffffffffffffffffffff161480613d7c5750613d7b85613d76614378565b613c85565b5b613dbb576040517f08c379a0000000000000000000000000000000000000000000000000000000008152600401613db290617a79565b60405180910390fd5b613dc88585858585614879565b5050505050565b613dd83361252c565b613e17576040517f08c379a0000000000000000000000000000000000000000000000000000000008152600401613e0e90616e22565b60405180910390fd5b600560009054906101000a900473ffffffffffffffffffffffffffffffffffffffff1673ffffffffffffffffffffffffffffffffffffffff16634fca5df982336040518363ffffffff1660e01b8152600401613e74929190617546565b600060405180830381600087803b158015613e8e57600080fd5b505af1158015613ea2573d6000803e3d6000fd5b505050507f7786f3ed748004d17dc650f21466cb6542269adcfbdd3e88f5c0aa131909b9c381604051613ed591906163f1565b60405180910390a150565b60606000600a5467ffffffffffffffff811115613f0057613eff615c31565b5b604051908082528060200260200182016040528015613f2e5781602001602082028036833780820191505090505b50905060005b8151811015613fd457601160008573ffffffffffffffffffffffffffffffffffffffff1673ffffffffffffffffffffffffffffffffffffffff168152602001908152602001600020600082815260200190815260200160002054613f988583610a7c565b613fa29190616b65565b828281518110613fb557613fb4616ffe565b5b6020026020010181815250508080613fcc90616a18565b915050613f34565b5080915050919050565b60007f7965db0b000000000000000000000000000000000000000000000000000000007bffffffffffffffffffffffffffffffffffffffffffffffffffffffff1916827bffffffffffffffffffffffffffffffffffffffffffffffffffffffff19161480614051575061405082614cb7565b5b9050919050565b600073ffffffffffffffffffffffffffffffffffffffff168373ffffffffffffffffffffffffffffffffffffffff1614156140c8576040517f08c379a00000000000000000000000000000000000000000000000000000000081526004016140bf90617b0b565b60405180910390fd5b60006140d2614378565b905060006140df84614d31565b905060006140ec84614d31565b905061410c83876000858560405180602001604052806000815250614dab565b600080600087815260200190815260200160002060008873ffffffffffffffffffffffffffffffffffffffff1673ffffffffffffffffffffffffffffffffffffffff168152602001908152602001600020549050848110156141a3576040517f08c379a000000000000000000000000000000000000000000000000000000000815260040161419a90617b9d565b60405180910390fd5b84810360008088815260200190815260200160002060008973ffffffffffffffffffffffffffffffffffffffff1673ffffffffffffffffffffffffffffffffffffffff16815260200190815260200160002081905550600073ffffffffffffffffffffffffffffffffffffffff168773ffffffffffffffffffffffffffffffffffffffff168573ffffffffffffffffffffffffffffffffffffffff167fc3d58168c5ae7397731d063d5bbf3d657854427343f4c083240f7aacaa2d0f628989604051614270929190617bbd565b60405180910390a461429684886000868660405180602001604052806000815250614db3565b50505050505050565b60008173ffffffffffffffffffffffffffffffffffffffff16600860009054906101000a900473ffffffffffffffffffffffffffffffffffffffff1673ffffffffffffffffffffffffffffffffffffffff16148061430657506143056000801b836128c1565b5b61430f57600080fd5b60019050919050565b61433582600a548360405180602001604052806000815250614dbb565b614341600a5482614f6c565b806009600082825461435391906169c2565b925050819055506001600a600082825461436d91906169c2565b925050819055505050565b600033905090565b81518351146143c4576040517f08c379a00000000000000000000000000000000000000000000000000000000081526004016143bb90617c58565b60405180910390fd5b600073ffffffffffffffffffffffffffffffffffffffff168473ffffffffffffffffffffffffffffffffffffffff161415614434576040517f08c379a000000000000000000000000000000000000000000000000000000000815260040161442b90617cea565b60405180910390fd5b600061443e614378565b905061444e818787878787614dab565b60005b84518110156145ff57600085828151811061446f5761446e616ffe565b5b60200260200101519050600085838151811061448e5761448d616ffe565b5b60200260200101519050600080600084815260200190815260200160002060008b73ffffffffffffffffffffffffffffffffffffffff1673ffffffffffffffffffffffffffffffffffffffff1681526020019081526020016000205490508181101561452f576040517f08c379a000000000000000000000000000000000000000000000000000000000815260040161452690617d7c565b60405180910390fd5b81810360008085815260200190815260200160002060008c73ffffffffffffffffffffffffffffffffffffffff1673ffffffffffffffffffffffffffffffffffffffff168152602001908152602001600020819055508160008085815260200190815260200160002060008b73ffffffffffffffffffffffffffffffffffffffff1673ffffffffffffffffffffffffffffffffffffffff16815260200190815260200160002060008282546145e491906169c2565b92505081905550505050806145f890616a18565b9050614451565b508473ffffffffffffffffffffffffffffffffffffffff168673ffffffffffffffffffffffffffffffffffffffff168273ffffffffffffffffffffffffffffffffffffffff167f4a39dc06d4c0dbc64b70af90fd698a233a518aa5d07e595d983b8c0526c8f7fb8787604051614676929190617d9c565b60405180910390a461468c818787878787614db3565b61469a818787878787614f88565b505050505050565b6146b3816146ae614378565b615160565b50565b6146c082826128c1565b6147935760016003600084815260200190815260200160002060000160008373ffffffffffffffffffffffffffffffffffffffff1673ffffffffffffffffffffffffffffffffffffffff16815260200190815260200160002060006101000a81548160ff021916908315150217905550614738614378565b73ffffffffffffffffffffffffffffffffffffffff168173ffffffffffffffffffffffffffffffffffffffff16837f2f8788117e7eff1d82e926ec794901d17c78024a50270940304540a733656f0d60405160405180910390a45b5050565b6147a182826128c1565b156148755760006003600084815260200190815260200160002060000160008373ffffffffffffffffffffffffffffffffffffffff1673ffffffffffffffffffffffffffffffffffffffff16815260200190815260200160002060006101000a81548160ff02191690831515021790555061481a614378565b73ffffffffffffffffffffffffffffffffffffffff168173ffffffffffffffffffffffffffffffffffffffff16837ff6391f5c32d9c69d2a47ea670b442974b53935d1edc7fd64eb21e047a839171b60405160405180910390a45b5050565b600073ffffffffffffffffffffffffffffffffffffffff168473ffffffffffffffffffffffffffffffffffffffff1614156148e9576040517f08c379a00000000000000000000000000000000000000000000000000000000081526004016148e090617cea565b60405180910390fd5b60006148f3614378565b9050600061490085614d31565b9050600061490d85614d31565b905061491d838989858589614dab565b600080600088815260200190815260200160002060008a73ffffffffffffffffffffffffffffffffffffffff1673ffffffffffffffffffffffffffffffffffffffff168152602001908152602001600020549050858110156149b4576040517f08c379a00000000000000000000000000000000000000000000000000000000081526004016149ab90617d7c565b60405180910390fd5b85810360008089815260200190815260200160002060008b73ffffffffffffffffffffffffffffffffffffffff1673ffffffffffffffffffffffffffffffffffffffff168152602001908152602001600020819055508560008089815260200190815260200160002060008a73ffffffffffffffffffffffffffffffffffffffff1673ffffffffffffffffffffffffffffffffffffffff1681526020019081526020016000206000828254614a6991906169c2565b925050819055508773ffffffffffffffffffffffffffffffffffffffff168973ffffffffffffffffffffffffffffffffffffffff168573ffffffffffffffffffffffffffffffffffffffff167fc3d58168c5ae7397731d063d5bbf3d657854427343f4c083240f7aacaa2d0f628a8a604051614ae6929190617bbd565b60405180910390a4614afc848a8a86868a614db3565b614b0a848a8a8a8a8a6151fd565b505050505050505050565b614b1f82826146b6565b5050565b8173ffffffffffffffffffffffffffffffffffffffff168373ffffffffffffffffffffffffffffffffffffffff161415614b92576040517f08c379a0000000000000000000000000000000000000000000000000000000008152600401614b8990617e45565b60405180910390fd5b80600160008573ffffffffffffffffffffffffffffffffffffffff1673ffffffffffffffffffffffffffffffffffffffff16815260200190815260200160002060008473ffffffffffffffffffffffffffffffffffffffff1673ffffffffffffffffffffffffffffffffffffffff16815260200190815260200160002060006101000a81548160ff0219169083151502179055508173ffffffffffffffffffffffffffffffffffffffff168373ffffffffffffffffffffffffffffffffffffffff167f17307eab39ab6107e8899845ad3d59bd9653f200f220920489ca2b5937696c3183604051614c839190615a1c565b60405180910390a3505050565b600080614c9d8484610a7c565b1115614cac5760019050614cb1565b600090505b92915050565b60007f4e2312e0000000000000000000000000000000000000000000000000000000007bffffffffffffffffffffffffffffffffffffffffffffffffffffffff1916827bffffffffffffffffffffffffffffffffffffffffffffffffffffffff19161480614d2a5750614d29826153d5565b5b9050919050565b60606000600167ffffffffffffffff811115614d5057614d4f615c31565b5b604051908082528060200260200182016040528015614d7e5781602001602082028036833780820191505090505b5090508281600081518110614d9657614d95616ffe565b5b60200260200101818152505080915050919050565b505050505050565b505050505050565b600073ffffffffffffffffffffffffffffffffffffffff168473ffffffffffffffffffffffffffffffffffffffff161415614e2b576040517f08c379a0000000000000000000000000000000000000000000000000000000008152600401614e2290617ed7565b60405180910390fd5b6000614e35614378565b90506000614e4285614d31565b90506000614e4f85614d31565b9050614e6083600089858589614dab565b8460008088815260200190815260200160002060008973ffffffffffffffffffffffffffffffffffffffff1673ffffffffffffffffffffffffffffffffffffffff1681526020019081526020016000206000828254614ebf91906169c2565b925050819055508673ffffffffffffffffffffffffffffffffffffffff16600073ffffffffffffffffffffffffffffffffffffffff168473ffffffffffffffffffffffffffffffffffffffff167fc3d58168c5ae7397731d063d5bbf3d657854427343f4c083240f7aacaa2d0f628989604051614f3d929190617bbd565b60405180910390a4614f5483600089858589614db3565b614f63836000898989896151fd565b50505050505050565b80600f6000848152602001908152602001600020819055505050565b614fa78473ffffffffffffffffffffffffffffffffffffffff166154b7565b15615158578373ffffffffffffffffffffffffffffffffffffffff1663bc197c8187878686866040518663ffffffff1660e01b8152600401614fed959493929190617f4c565b6020604051808303816000875af192505050801561502957506040513d601f19601f820116820180604052508101906150269190617fc9565b60015b6150cf57615035618003565b806308c379a01415615092575061504a618025565b806150555750615094565b806040517f08c379a00000000000000000000000000000000000000000000000000000000081526004016150899190615b3d565b60405180910390fd5b505b6040517f08c379a00000000000000000000000000000000000000000000000000000000081526004016150c69061812d565b60405180910390fd5b63bc197c8160e01b7bffffffffffffffffffffffffffffffffffffffffffffffffffffffff1916817bffffffffffffffffffffffffffffffffffffffffffffffffffffffff191614615156576040517f08c379a000000000000000000000000000000000000000000000000000000000815260040161514d906181bf565b60405180910390fd5b505b505050505050565b61516a82826128c1565b6151f95761518f8173ffffffffffffffffffffffffffffffffffffffff1660146154da565b61519d8360001c60206154da565b6040516020016151ae9291906182b3565b6040516020818303038152906040526040517f08c379a00000000000000000000000000000000000000000000000000000000081526004016151f09190615b3d565b60405180910390fd5b5050565b61521c8473ffffffffffffffffffffffffffffffffffffffff166154b7565b156153cd578373ffffffffffffffffffffffffffffffffffffffff1663f23a6e6187878686866040518663ffffffff1660e01b81526004016152629594939291906182ed565b6020604051808303816000875af192505050801561529e57506040513d601f19601f8201168201806040525081019061529b9190617fc9565b60015b615344576152aa618003565b806308c379a0141561530757506152bf618025565b806152ca5750615309565b806040517f08c379a00000000000000000000000000000000000000000000000000000000081526004016152fe9190615b3d565b60405180910390fd5b505b6040517f08c379a000000000000000000000000000000000000000000000000000000000815260040161533b9061812d565b60405180910390fd5b63f23a6e6160e01b7bffffffffffffffffffffffffffffffffffffffffffffffffffffffff1916817bffffffffffffffffffffffffffffffffffffffffffffffffffffffff1916146153cb576040517f08c379a00000000000000000000000000000000000000000000000000000000081526004016153c2906181bf565b60405180910390fd5b505b505050505050565b60007fd9b67a26000000000000000000000000000000000000000000000000000000007bffffffffffffffffffffffffffffffffffffffffffffffffffffffff1916827bffffffffffffffffffffffffffffffffffffffffffffffffffffffff191614806154a057507f0e89341c000000000000000000000000000000000000000000000000000000007bffffffffffffffffffffffffffffffffffffffffffffffffffffffff1916827bffffffffffffffffffffffffffffffffffffffffffffffffffffffff1916145b806154b057506154af82615716565b5b9050919050565b6000808273ffffffffffffffffffffffffffffffffffffffff163b119050919050565b6060600060028360026154ed9190618347565b6154f791906169c2565b67ffffffffffffffff8111156155105761550f615c31565b5b6040519080825280601f01601f1916602001820160405280156155425781602001600182028036833780820191505090505b5090507f30000000000000000000000000000000000000000000000000000000000000008160008151811061557a57615579616ffe565b5b60200101907effffffffffffffffffffffffffffffffffffffffffffffffffffffffffffff1916908160001a9053507f7800000000000000000000000000000000000000000000000000000000000000816001815181106155de576155dd616ffe565b5b60200101907effffffffffffffffffffffffffffffffffffffffffffffffffffffffffffff1916908160001a9053506000600184600261561e9190618347565b61562891906169c2565b90505b60018111156156c8577f3031323334353637383961626364656600000000000000000000000000000000600f86166010811061566a57615669616ffe565b5b1a60f81b82828151811061568157615680616ffe565b5b60200101907effffffffffffffffffffffffffffffffffffffffffffffffffffffffffffff1916908160001a905350600485901c9450806156c1906183a1565b905061562b565b506000841461570c576040517f08c379a000000000000000000000000000000000000000000000000000000000815260040161570390618417565b60405180910390fd5b8091505092915050565b60007f01ffc9a7000000000000000000000000000000000000000000000000000000007bffffffffffffffffffffffffffffffffffffffffffffffffffffffff1916827bffffffffffffffffffffffffffffffffffffffffffffffffffffffff1916149050919050565b82805461578c90616ac7565b90600052602060002090601f0160209004810192826157ae57600085556157f5565b82601f106157c757805160ff19168380011785556157f5565b828001600101855582156157f5579182015b828111156157f45782518255916020019190600101906157d9565b5b509050615802919061584d565b5090565b6040518060a00160405280600081526020016000815260200160008152602001600073ffffffffffffffffffffffffffffffffffffffff1681526020016000151581525090565b5b8082111561586657600081600090555060010161584e565b5090565b6000604051905090565b600080fd5b600080fd5b600073ffffffffffffffffffffffffffffffffffffffff82169050919050565b60006158a98261587e565b9050919050565b6158b98161589e565b81146158c457600080fd5b50565b6000813590506158d6816158b0565b92915050565b6000819050919050565b6158ef816158dc565b81146158fa57600080fd5b50565b60008135905061590c816158e6565b92915050565b6000806040838503121561592957615928615874565b5b6000615937858286016158c7565b9250506020615948858286016158fd565b9150509250929050565b61595b816158dc565b82525050565b60006020820190506159766000830184615952565b92915050565b60007fffffffff0000000000000000000000000000000000000000000000000000000082169050919050565b6159b18161597c565b81146159bc57600080fd5b50565b6000813590506159ce816159a8565b92915050565b6000602082840312156159ea576159e9615874565b5b60006159f8848285016159bf565b91505092915050565b60008115159050919050565b615a1681615a01565b82525050565b6000602082019050615a316000830184615a0d565b92915050565b60008060408385031215615a4e57615a4d615874565b5b6000615a5c858286016158fd565b9250506020615a6d858286016158fd565b9150509250929050565b600060208284031215615a8d57615a8c615874565b5b6000615a9b848285016158fd565b91505092915050565b600081519050919050565b600082825260208201905092915050565b60005b83811015615ade578082015181840152602081019050615ac3565b83811115615aed576000848401525b50505050565b6000601f19601f8301169050919050565b6000615b0f82615aa4565b615b198185615aaf565b9350615b29818560208601615ac0565b615b3281615af3565b840191505092915050565b60006020820190508181036000830152615b578184615b04565b905092915050565b60008060408385031215615b7657615b75615874565b5b6000615b84858286016158c7565b9250506020615b95858286016158c7565b9150509250929050565b6000819050919050565b615bb281615b9f565b8114615bbd57600080fd5b50565b600081359050615bcf81615ba9565b92915050565b600060208284031215615beb57615bea615874565b5b6000615bf984828501615bc0565b91505092915050565b615c0b81615b9f565b82525050565b6000602082019050615c266000830184615c02565b92915050565b600080fd5b7f4e487b7100000000000000000000000000000000000000000000000000000000600052604160045260246000fd5b615c6982615af3565b810181811067ffffffffffffffff82111715615c8857615c87615c31565b5b80604052505050565b6000615c9b61586a565b9050615ca78282615c60565b919050565b600067ffffffffffffffff821115615cc757615cc6615c31565b5b602082029050602081019050919050565b600080fd5b6000615cf0615ceb84615cac565b615c91565b90508083825260208201905060208402830185811115615d1357615d12615cd8565b5b835b81811015615d3c5780615d2888826158fd565b845260208401935050602081019050615d15565b5050509392505050565b600082601f830112615d5b57615d5a615c2c565b5b8135615d6b848260208601615cdd565b91505092915050565b600080fd5b600067ffffffffffffffff821115615d9457615d93615c31565b5b615d9d82615af3565b9050602081019050919050565b82818337600083830152505050565b6000615dcc615dc784615d79565b615c91565b905082815260208101848484011115615de857615de7615d74565b5b615df3848285615daa565b509392505050565b600082601f830112615e1057615e0f615c2c565b5b8135615e20848260208601615db9565b91505092915050565b600080600080600060a08688031215615e4557615e44615874565b5b6000615e53888289016158c7565b9550506020615e64888289016158c7565b945050604086013567ffffffffffffffff811115615e8557615e84615879565b5b615e9188828901615d46565b935050606086013567ffffffffffffffff811115615eb257615eb1615879565b5b615ebe88828901615d46565b925050608086013567ffffffffffffffff811115615edf57615ede615879565b5b615eeb88828901615dfb565b9150509295509295909350565b60008060408385031215615f0f57615f0e615874565b5b6000615f1d85828601615bc0565b9250506020615f2e858286016158c7565b9150509250929050565b600060208284031215615f4e57615f4d615874565b5b6000615f5c848285016158c7565b91505092915050565b60008060008060808587031215615f7f57615f7e615874565b5b6000615f8d878288016158c7565b9450506020615f9e878288016158fd565b9350506040615faf878288016158fd565b9250506060615fc0878288016158fd565b91505092959194509250565b600067ffffffffffffffff821115615fe757615fe6615c31565b5b602082029050602081019050919050565b600061600b61600684615fcc565b615c91565b9050808382526020820190506020840283018581111561602e5761602d615cd8565b5b835b81811015616057578061604388826158c7565b845260208401935050602081019050616030565b5050509392505050565b600082601f83011261607657616075615c2c565b5b8135616086848260208601615ff8565b91505092915050565b600080604083850312156160a6576160a5615874565b5b600083013567ffffffffffffffff8111156160c4576160c3615879565b5b6160d085828601616061565b925050602083013567ffffffffffffffff8111156160f1576160f0615879565b5b6160fd85828601615d46565b9150509250929050565b600081519050919050565b600082825260208201905092915050565b6000819050602082019050919050565b61613c816158dc565b82525050565b600061614e8383616133565b60208301905092915050565b6000602082019050919050565b600061617282616107565b61617c8185616112565b935061618783616123565b8060005b838110156161b857815161619f8882616142565b97506161aa8361615a565b92505060018101905061618b565b5085935050505092915050565b600060208201905081810360008301526161df8184616167565b905092915050565b6161f081615a01565b81146161fb57600080fd5b50565b60008135905061620d816161e7565b92915050565b6000806040838503121561622a57616229615874565b5b6000616238858286016158c7565b9250506020616249858286016161fe565b9150509250929050565b600067ffffffffffffffff82111561626e5761626d615c31565b5b61627782615af3565b9050602081019050919050565b600061629761629284616253565b615c91565b9050828152602081018484840111156162b3576162b2615d74565b5b6162be848285615daa565b509392505050565b600082601f8301126162db576162da615c2c565b5b81356162eb848260208601616284565b91505092915050565b6000806040838503121561630b5761630a615874565b5b6000616319858286016158fd565b925050602083013567ffffffffffffffff81111561633a57616339615879565b5b616346858286016162c6565b9150509250929050565b7f4e487b7100000000000000000000000000000000000000000000000000000000600052602160045260246000fd5b600281106163905761638f616350565b5b50565b60008190506163a18261637f565b919050565b60006163b182616393565b9050919050565b6163c1816163a6565b82525050565b60006020820190506163dc60008301846163b8565b92915050565b6163eb8161589e565b82525050565b600060208201905061640660008301846163e2565b92915050565b600081519050919050565b600082825260208201905092915050565b6000819050602082019050919050565b6164418161589e565b82525050565b61645081615a01565b82525050565b60a08201600082015161646c6000850182616133565b50602082015161647f6020850182616133565b5060408201516164926040850182616133565b5060608201516164a56060850182616438565b5060808201516164b86080850182616447565b50505050565b60006164ca8383616456565b60a08301905092915050565b6000602082019050919050565b60006164ee8261640c565b6164f88185616417565b935061650383616428565b8060005b8381101561653457815161651b88826164be565b9750616526836164d6565b925050600181019050616507565b5085935050505092915050565b6000602082019050818103600083015261655b81846164e3565b905092915050565b61656c8161597c565b82525050565b60006020820190506165876000830184616563565b92915050565b60006080820190506165a26000830187615952565b6165af6020830186615952565b6165bc6040830185615952565b6165c96060830184615952565b95945050505050565b600081519050919050565b600082825260208201905092915050565b6000819050602082019050919050565b60e0820160008201516166146000850182616133565b5060208201516166276020850182616133565b50604082015161663a6040850182616133565b50606082015161664d6060850182616133565b5060808201516166606080850182616438565b5060a082015161667360a0850182616133565b5060c082015161668660c0850182616447565b50505050565b600061669883836165fe565b60e08301905092915050565b6000602082019050919050565b60006166bc826165d2565b6166c681856165dd565b93506166d1836165ee565b8060005b838110156167025781516166e9888261668c565b97506166f4836166a4565b9250506001810190506166d5565b5085935050505092915050565b6000602082019050818103600083015261672981846166b1565b905092915050565b600060c0820190506167466000830189615952565b6167536020830188615952565b6167606040830187615952565b61676d60608301866163e2565b61677a6080830185615952565b61678760a0830184615a0d565b979650505050505050565b600080600080600060a086880312156167ae576167ad615874565b5b60006167bc888289016158c7565b95505060206167cd888289016158c7565b94505060406167de888289016158fd565b93505060606167ef888289016158fd565b925050608086013567ffffffffffffffff8111156168105761680f615879565b5b61681c88828901615dfb565b9150509295509295909350565b7f455243313135353a2062616c616e636520717565727920666f7220746865207a60008201527f65726f2061646472657373000000000000000000000000000000000000000000602082015250565b6000616885602b83615aaf565b915061689082616829565b604082019050919050565b600060208201905081810360008301526168b481616878565b9050919050565b7f4974656d206e6f7420666f756e642e0000000000000000000000000000000000600082015250565b60006168f1600f83615aaf565b91506168fc826168bb565b602082019050919050565b60006020820190508181036000830152616920816168e4565b9050919050565b7f5072696365206d7573742062652067726561746572207468616e203000000000600082015250565b600061695d601c83615aaf565b915061696882616927565b602082019050919050565b6000602082019050818103600083015261698c81616950565b9050919050565b7f4e487b7100000000000000000000000000000000000000000000000000000000600052601160045260246000fd5b60006169cd826158dc565b91506169d8836158dc565b9250827fffffffffffffffffffffffffffffffffffffffffffffffffffffffffffffffff03821115616a0d57616a0c616993565b5b828201905092915050565b6000616a23826158dc565b91507fffffffffffffffffffffffffffffffffffffffffffffffffffffffffffffffff821415616a5657616a55616993565b5b600182019050919050565b6000606082019050616a7660008301866163e2565b616a836020830185615952565b616a906040830184615952565b949350505050565b7f4e487b7100000000000000000000000000000000000000000000000000000000600052602260045260246000fd5b60006002820490506001821680616adf57607f821691505b60208210811415616af357616af2616a98565b5b50919050565b7f55736572206973206e6f7420746865206f776e65720000000000000000000000600082015250565b6000616b2f601583615aaf565b9150616b3a82616af9565b602082019050919050565b60006020820190508181036000830152616b5e81616b22565b9050919050565b6000616b70826158dc565b9150616b7b836158dc565b925082821015616b8e57616b8d616993565b5b828203905092915050565b6000604082019050616bae60008301856163e2565b616bbb6020830184615952565b9392505050565b7f55736572206973206e6f7420746865204f776e6572206f7220616e2041646d6960008201527f6e00000000000000000000000000000000000000000000000000000000000000602082015250565b6000616c1e602183615aaf565b9150616c2982616bc2565b604082019050919050565b60006020820190508181036000830152616c4d81616c11565b9050919050565b7f455243313135353a207472616e736665722063616c6c6572206973206e6f742060008201527f6f776e6572206e6f7220617070726f7665640000000000000000000000000000602082015250565b6000616cb0603283615aaf565b9150616cbb82616c54565b604082019050919050565b60006020820190508181036000830152616cdf81616ca3565b9050919050565b600081519050616cf5816158e6565b92915050565b600060208284031215616d1157616d10615874565b5b6000616d1f84828501616ce6565b91505092915050565b7f4e6f2066756e647320746f207769746864726177000000000000000000000000600082015250565b6000616d5e601483615aaf565b9150616d6982616d28565b602082019050919050565b60006020820190508181036000830152616d8d81616d51565b9050919050565b600081519050616da3816161e7565b92915050565b600060208284031215616dbf57616dbe615874565b5b6000616dcd84828501616d94565b91505092915050565b7f5573657220646f6573206e6f74206f776e732061204d7243727970746f000000600082015250565b6000616e0c601d83615aaf565b9150616e1782616dd6565b602082019050919050565b60006020820190508181036000830152616e3b81616dff565b9050919050565b7f436f6e7472616374206973206e6f74206163746976652061742074686973206d60008201527f6f6d656e74000000000000000000000000000000000000000000000000000000602082015250565b6000616e9e602583615aaf565b9150616ea982616e42565b604082019050919050565b60006020820190508181036000830152616ecd81616e91565b9050919050565b600060a082019050616ee960008301886163e2565b616ef66020830187615952565b616f036040830186615952565b616f106060830185615952565b616f1d60808301846163e2565b9695505050505050565b6000608082019050616f3c60008301876163e2565b616f496020830186615952565b616f566040830185615952565b616f636060830184615952565b95945050505050565b7f416363657373436f6e74726f6c3a2063616e206f6e6c792072656e6f756e636560008201527f20726f6c657320666f722073656c660000000000000000000000000000000000602082015250565b6000616fc8602f83615aaf565b9150616fd382616f6c565b604082019050919050565b60006020820190508181036000830152616ff781616fbb565b9050919050565b7f4e487b7100000000000000000000000000000000000000000000000000000000600052603260045260246000fd5b7f4e487b7100000000000000000000000000000000000000000000000000000000600052601260045260246000fd5b6000617067826158dc565b9150617072836158dc565b9250826170825761708161702d565b5b828206905092915050565b7f546865726520617265206e6f206974656d73206176616c6961626c6500000000600082015250565b60006170c3601c83615aaf565b91506170ce8261708d565b602082019050919050565b600060208201905081810360008301526170f2816170b6565b9050919050565b6000806000806080858703121561711357617112615874565b5b600061712187828801616ce6565b945050602061713287828801616ce6565b935050604061714387828801616ce6565b925050606061715487828801616ce6565b91505092959194509250565b7f5573657220646f6573206e6f74206f776e2061205469636b657420666f72206f60008201527f70656e6e696e672074686520636173652e000000000000000000000000000000602082015250565b60006171bc603183615aaf565b91506171c782617160565b604082019050919050565b600060208201905081810360008301526171eb816171af565b9050919050565b600060608201905061720760008301866163e2565b61721460208301856163e2565b6172216040830184615952565b949350505050565b7f455243313135353a206163636f756e747320616e6420696473206c656e67746860008201527f206d69736d617463680000000000000000000000000000000000000000000000602082015250565b6000617285602983615aaf565b915061729082617229565b604082019050919050565b600060208201905081810360008301526172b481617278565b9050919050565b7f596f7520617265206e6f74205649502075736572000000000000000000000000600082015250565b60006172f1601483615aaf565b91506172fc826172bb565b602082019050919050565b60006020820190508181036000830152617320816172e4565b9050919050565b600060608201905061733c60008301866163e2565b61734960208301856163e2565b6173566040830184615a0d565b949350505050565b7f43616e206e6f7420736574207572692074776963650000000000000000000000600082015250565b6000617394601583615aaf565b915061739f8261735e565b602082019050919050565b600060208201905081810360008301526173c381617387565b9050919050565b7f412056495020757365722063616e206e6f74206275792061207469636b657400600082015250565b6000617400601f83615aaf565b915061740b826173ca565b602082019050919050565b6000602082019050818103600083015261742f816173f3565b9050919050565b600081519050617445816158b0565b92915050565b60008060008060008060c0878903121561746857617467615874565b5b600061747689828a01616ce6565b965050602061748789828a01616ce6565b955050604061749889828a01616ce6565b94505060606174a989828a01617436565b93505060806174ba89828a01616ce6565b92505060a06174cb89828a01616d94565b9150509295509295509295565b60006040820190506174ed6000830185615952565b6174fa60208301846163e2565b9392505050565b60006080820190506175166000830187615952565b61752360208301866163e2565b61753060408301856163e2565b61753d6060830184615952565b95945050505050565b600060408201905061755b60008301856163e2565b61756860208301846163e2565b9392505050565b7f596f7520617265206e6f7420746865206f776e6572206f66207468697320697460008201527f656d2e0000000000000000000000000000000000000000000000000000000000602082015250565b60006175cb602383615aaf565b91506175d68261756f565b604082019050919050565b600060208201905081810360008301526175fa816175be565b9050919050565b600067ffffffffffffffff82111561761c5761761b615c31565b5b602082029050602081019050919050565b600080fd5b600060e082840312156176485761764761762d565b5b61765260e0615c91565b9050600061766284828501616ce6565b600083015250602061767684828501616ce6565b602083015250604061768a84828501616ce6565b604083015250606061769e84828501616ce6565b60608301525060806176b284828501617436565b60808301525060a06176c684828501616ce6565b60a08301525060c06176da84828501616d94565b60c08301525092915050565b60006176f96176f484617601565b615c91565b90508083825260208201905060e0840283018581111561771c5761771b615cd8565b5b835b8181101561774557806177318882617632565b84526020840193505060e08101905061771e565b5050509392505050565b600082601f83011261776457617763615c2c565b5b81516177748482602086016176e6565b91505092915050565b60006020828403121561779357617792615874565b5b600082015167ffffffffffffffff8111156177b1576177b0615879565b5b6177bd8482850161774f565b91505092915050565b7f596f752063616e206e6f742062757920616e206974656d20746f20796f75727360008201527f656c660000000000000000000000000000000000000000000000000000000000602082015250565b6000617822602383615aaf565b915061782d826177c6565b604082019050919050565b6000602082019050818103600083015261785181617815565b9050919050565b7f54686973206974656d206973206e6f74206f6e2073616c6520616e796d6f726560008201527f2e00000000000000000000000000000000000000000000000000000000000000602082015250565b60006178b4602183615aaf565b91506178bf82617858565b604082019050919050565b600060208201905081810360008301526178e3816178a7565b9050919050565b7f4974656d20646f6573206e6f742065786973742e000000000000000000000000600082015250565b6000617920601483615aaf565b915061792b826178ea565b602082019050919050565b6000602082019050818103600083015261794f81617913565b9050919050565b7f496e73756666696369656e7420455243323020616c6c6f77616e636500000000600082015250565b600061798c601c83615aaf565b915061799782617956565b602082019050919050565b600060208201905081810360008301526179bb8161797f565b9050919050565b60006080820190506179d760008301876163e2565b6179e460208301866163e2565b6179f16040830185615952565b6179fe6060830184615952565b95945050505050565b7f455243313135353a2063616c6c6572206973206e6f74206f776e6572206e6f7260008201527f20617070726f7665640000000000000000000000000000000000000000000000602082015250565b6000617a63602983615aaf565b9150617a6e82617a07565b604082019050919050565b60006020820190508181036000830152617a9281617a56565b9050919050565b7f455243313135353a206275726e2066726f6d20746865207a65726f206164647260008201527f6573730000000000000000000000000000000000000000000000000000000000602082015250565b6000617af5602383615aaf565b9150617b0082617a99565b604082019050919050565b60006020820190508181036000830152617b2481617ae8565b9050919050565b7f455243313135353a206275726e20616d6f756e7420657863656564732062616c60008201527f616e636500000000000000000000000000000000000000000000000000000000602082015250565b6000617b87602483615aaf565b9150617b9282617b2b565b604082019050919050565b60006020820190508181036000830152617bb681617b7a565b9050919050565b6000604082019050617bd26000830185615952565b617bdf6020830184615952565b9392505050565b7f455243313135353a2069647320616e6420616d6f756e7473206c656e6774682060008201527f6d69736d61746368000000000000000000000000000000000000000000000000602082015250565b6000617c42602883615aaf565b9150617c4d82617be6565b604082019050919050565b60006020820190508181036000830152617c7181617c35565b9050919050565b7f455243313135353a207472616e7366657220746f20746865207a65726f20616460008201527f6472657373000000000000000000000000000000000000000000000000000000602082015250565b6000617cd4602583615aaf565b9150617cdf82617c78565b604082019050919050565b60006020820190508181036000830152617d0381617cc7565b9050919050565b7f455243313135353a20696e73756666696369656e742062616c616e636520666f60008201527f72207472616e7366657200000000000000000000000000000000000000000000602082015250565b6000617d66602a83615aaf565b9150617d7182617d0a565b604082019050919050565b60006020820190508181036000830152617d9581617d59565b9050919050565b60006040820190508181036000830152617db68185616167565b90508181036020830152617dca8184616167565b90509392505050565b7f455243313135353a2073657474696e6720617070726f76616c2073746174757360008201527f20666f722073656c660000000000000000000000000000000000000000000000602082015250565b6000617e2f602983615aaf565b9150617e3a82617dd3565b604082019050919050565b60006020820190508181036000830152617e5e81617e22565b9050919050565b7f455243313135353a206d696e7420746f20746865207a65726f2061646472657360008201527f7300000000000000000000000000000000000000000000000000000000000000602082015250565b6000617ec1602183615aaf565b9150617ecc82617e65565b604082019050919050565b60006020820190508181036000830152617ef081617eb4565b9050919050565b600081519050919050565b600082825260208201905092915050565b6000617f1e82617ef7565b617f288185617f02565b9350617f38818560208601615ac0565b617f4181615af3565b840191505092915050565b600060a082019050617f6160008301886163e2565b617f6e60208301876163e2565b8181036040830152617f808186616167565b90508181036060830152617f948185616167565b90508181036080830152617fa88184617f13565b90509695505050505050565b600081519050617fc3816159a8565b92915050565b600060208284031215617fdf57617fde615874565b5b6000617fed84828501617fb4565b91505092915050565b60008160e01c9050919050565b600060033d11156180225760046000803e61801f600051617ff6565b90505b90565b600060443d1015618035576180b8565b61803d61586a565b60043d036004823e80513d602482011167ffffffffffffffff821117156180655750506180b8565b808201805167ffffffffffffffff81111561808357505050506180b8565b80602083010160043d0385018111156180a05750505050506180b8565b6180af82602001850186615c60565b82955050505050505b90565b7f455243313135353a207472616e7366657220746f206e6f6e204552433131353560008201527f526563656976657220696d706c656d656e746572000000000000000000000000602082015250565b6000618117603483615aaf565b9150618122826180bb565b604082019050919050565b600060208201905081810360008301526181468161810a565b9050919050565b7f455243313135353a204552433131353552656365697665722072656a6563746560008201527f6420746f6b656e73000000000000000000000000000000000000000000000000602082015250565b60006181a9602883615aaf565b91506181b48261814d565b604082019050919050565b600060208201905081810360008301526181d88161819c565b9050919050565b600081905092915050565b7f416363657373436f6e74726f6c3a206163636f756e7420000000000000000000600082015250565b60006182206017836181df565b915061822b826181ea565b601782019050919050565b600061824182615aa4565b61824b81856181df565b935061825b818560208601615ac0565b80840191505092915050565b7f206973206d697373696e6720726f6c6520000000000000000000000000000000600082015250565b600061829d6011836181df565b91506182a882618267565b601182019050919050565b60006182be82618213565b91506182ca8285618236565b91506182d582618290565b91506182e18284618236565b91508190509392505050565b600060a08201905061830260008301886163e2565b61830f60208301876163e2565b61831c6040830186615952565b6183296060830185615952565b818103608083015261833b8184617f13565b90509695505050505050565b6000618352826158dc565b915061835d836158dc565b9250817fffffffffffffffffffffffffffffffffffffffffffffffffffffffffffffffff048311821515161561839657618395616993565b5b828202905092915050565b60006183ac826158dc565b915060008214156183c0576183bf616993565b5b600182039050919050565b7f537472696e67733a20686578206c656e67746820696e73756666696369656e74600082015250565b6000618401602083615aaf565b915061840c826183cb565b602082019050919050565b60006020820190508181036000830152618430816183f4565b905091905056fea26469706673582212204d106210c00cc2bea590bde5f5d86e7bd4a2f62ae714d9aba1352881e6ec0fe264736f6c634300080a0033",
  "immutableReferences": {},
  "source": "// SPDX-License-Identifier: MIT\r\n\r\npragma solidity ^0.8.0;\r\nimport \"./ICaseOpener.sol\";\r\nimport \"./IRacksItems.sol\";\r\nimport \"./ITickets.sol\";\r\nimport \"@openzeppelin/contracts/access/AccessControl.sol\"; \r\nimport \"@openzeppelin/contracts/token/ERC1155/ERC1155.sol\"; \r\nimport \"@openzeppelin/contracts/token/ERC1155/utils/ERC1155Holder.sol\"; \r\nimport \"@openzeppelin/contracts/token/ERC721/extensions/IERC721Enumerable.sol\"; \r\nimport \"@openzeppelin/contracts/token/ERC20/IERC20.sol\"; \r\n\r\ncontract RacksItemsv3 is IRacksItems, ERC1155, ERC1155Holder, AccessControl{ \r\n   \r\n    /**\r\n    * @notice Enum for Contract state -> to let user enter call some functions or not\r\n    */\r\n    enum ContractState {   \r\n    Active,\r\n    Inactive\r\n    }\r\n    /// @notice Interfaces\r\n    ICaseOpener CASE_OPENER;\r\n    ITickets TICKETS;\r\n\r\n    /// @notice tokens\r\n    IERC721Enumerable MR_CRYPTO;\r\n    IERC20 racksToken;\r\n\r\n    /// @notice Standard variables\r\n    bytes32 public constant ADMIN_ROLE = 0x00;\r\n    address private _owner;\r\n    uint256 private s_maxTotalSupply;\r\n    uint256 private s_tokenCount;\r\n    uint256 private _marketCount;\r\n    uint256 private casePrice; \r\n    ContractState private s_contractState;\r\n    itemOnSale[] private _marketItems;\r\n\r\n\r\n\r\n\r\n    /// @notice Mappings\r\n    mapping(uint => uint) private s_maxSupply;\r\n    mapping (uint256 => string) private s_uris; \r\n    mapping (address => mapping(uint256=> uint256)) s_marketInventory;\r\n\r\n\r\n    /// @notice Modifiers\r\n    /// @notice Check that person calling a function is the owner of the Contract\r\n    modifier onlyOwner() {\r\n    require(msg.sender == _owner, \"User is not the owner\");\r\n        _;\r\n    }\r\n\r\n    /// @notice Check that user is Owner or Admin\r\n    modifier onlyOwnerOrAdmin() {\r\n    require(_isOwnerOrAdmin(msg.sender), \"User is not the Owner or an Admin\");\r\n    _;\r\n    }\r\n\r\n    /// @notice Check that user is Member and owns at least 1 MrCrypto\r\n    modifier onlyVIP() {\r\n    require(isVip(msg.sender), \"User does not owns a MrCrypto\");\r\n        _;\r\n    }\r\n\r\n    /**  @notice Check that there is at least 1 item avaliable so the user can open a case for example\r\n    */\r\n    modifier supplyAvaliable() {\r\n    require(s_maxTotalSupply > 0, \"There are no items avaliable\");\r\n    _;\r\n    }\r\n\r\n    /// @notice Check if contract state is Active\r\n    modifier contractIsActive() {\r\n    require(s_contractState == ContractState.Active, \"Contract is not active at this moment\");\r\n    _;\r\n    }\r\n\r\n    constructor(address _racksTokenAddress, address _MockMrCryptoAddress) \r\n    ERC1155(\"\"){\r\n        \r\n    /**\r\n    * Initialization of RacksItem contract variables\r\n    */\r\n    MR_CRYPTO = IERC721Enumerable(_MockMrCryptoAddress);\r\n    racksToken = IERC20(_racksTokenAddress);\r\n    _owner = msg.sender;\r\n    s_tokenCount = 0;\r\n    casePrice = 100;\r\n    s_contractState = ContractState.Active;\r\n    \r\n    }\r\n\r\n    /** \r\n    * @notice Need to override supportsInterface function because Contract is ERC1155 and AccessControl\r\n    */\r\n    function supportsInterface(bytes4 interfaceId) public view virtual override(ERC1155, ERC1155Receiver, AccessControl) returns (bool) {\r\n        return super.supportsInterface(interfaceId);\r\n    }\r\n\r\n\r\n    //////////////////////\r\n    //  Case Functions // \r\n    /////////////////////\r\n\r\n    /**\r\n    * @notice Change price of the box\r\n    * @dev Only callable by the Owner\r\n    */\r\n    function setCasePrice(uint256 price) public onlyOwnerOrAdmin {\r\n        casePrice = price;\r\n        emit casePriceChanged(price);\r\n    }\r\n\r\n   \r\n\r\n    /**\r\n    * @notice Function used to 'open a case' and get an item\r\n    * @dev \r\n    * - Should check that user owns a Ticket -> modifier\r\n    * - Should transfer case price to the contract\r\n    * - Internally calls the case opener contract to get a random number from Chainlink VRF \r\n    */\r\n    function openCase() public override supplyAvaliable contractIsActive returns(bool success){  \r\n        if (MR_CRYPTO.balanceOf(msg.sender) < 1) {\r\n            (,,uint ownerOrSpender,)= TICKETS.getUserTicket(msg.sender);\r\n            require(ownerOrSpender==2, \"User does not own a Ticket for openning the case.\");\r\n        }\r\n\r\n        racksToken.transferFrom(msg.sender , address(this), casePrice);\r\n        CASE_OPENER._generate(msg.sender);\r\n\r\n        if (!isVip(msg.sender)){ // Case opener is someone that bought a ticket\r\n            TICKETS._decreaseT(msg.sender);\r\n        }\r\n       \r\n        return true;\r\n    }\r\n    /**\r\n    * @notice This function is called back by the Chainlink Oracle after requesting a random number\r\n    * The function receives a random number and the user that originally opened the case\r\n    * Apply modular function for the randomNumber to be between 0 and totalSupply of items\r\n    * Algorithmically pick an item based on the random number and statistics of its item\r\n    */\r\n\r\n    function fulfillCaseRequest(address _user, uint _randomNumber) external override{\r\n        require(msg.sender == address (CASE_OPENER));\r\n\r\n        uint caseSupply;\r\n        uint256 [] memory itemList = caseLiquidity();\r\n        for(uint i =0 ;i<itemList.length; i++){\r\n          caseSupply+=supplyOfItem(itemList[i]);\r\n        }\r\n        uint randomNumber = _randomNumber % caseSupply;\r\n        uint256 totalCount = 0;\r\n        uint256 item;\r\n\r\n        for(uint256 i = 0 ; i < itemList.length; i++) {\r\n          uint256 _newTotalCount = totalCount + supplyOfItem(itemList[i]) ;\r\n          if(randomNumber > _newTotalCount) {\r\n            totalCount = _newTotalCount;\r\n          }else {\r\n            item = itemList[i];\r\n            break;\r\n          }\r\n        }\r\n        _safeTransferFrom(address(this), _user ,  item , 1,\"\");\r\n        emit CaseOpened(msg.sender, casePrice, item);\r\n\r\n    }\r\n    /**\r\n    * @notice Returns all the items the case can drop\r\n    */\r\n    function caseLiquidity() public view override returns(uint256[] memory){\r\n        uint256 arrayLength;\r\n        for(uint256 i=0; i< s_tokenCount; i++){\r\n            if(balanceOf(address(this), i)>0 ){\r\n            arrayLength++;\r\n            }\r\n        }\r\n        uint256 [] memory items = new uint256[](arrayLength);\r\n        uint256 indexCount;\r\n        for(uint256 j=0; j< s_tokenCount; j++){\r\n            if(balanceOf(address(this), j)>0 ){\r\n            items[indexCount]=j;\r\n            indexCount++;\r\n\r\n            }\r\n        }\r\n    return items;\r\n    }\r\n\r\n\r\n    //////////////////////\r\n    //  Item Functions // \r\n    /////////////////////\r\n\r\n    /**\r\n    * @notice Returns maxSupply of specific item (by tokenId)\r\n    * @dev - Getter of s_maxSupply mapping\r\n    */\r\n    function supplyOfItem(uint256 tokenId) public view override returns(uint) {\r\n    return s_maxSupply[tokenId];\r\n    }\r\n\r\n    /**\r\n    * @notice Check that item exists (by tokenId)\r\n    */\r\n    function _itemExists(uint256 tokenId) internal view returns (bool) {\r\n    require(s_maxSupply[tokenId] > 0);\r\n    return true;\r\n    } \r\n\r\n    /**\r\n    * @notice Returns all the items inside the user's inventory without the ones on Market Sale(Could be used by the\r\n    * user to check his inventory or to check someone else inventory by address)\r\n    * @dev Copy users inventory in an empty array and returns it\r\n    */\r\n    function viewItems(address owner) public view override returns(uint256[] memory) { \r\n        uint256[] memory inventory = new uint [](s_tokenCount);\r\n        for(uint256 i=0 ; i < inventory.length; i++) {\r\n            inventory[i] = balanceOf(owner,i) - s_marketInventory[owner][i];\r\n        }\r\n        return inventory;\r\n    }\r\n\r\n    /**\r\n    * @notice List a new item to the avaliable collection\r\n    * @dev Only callable by the Owner\r\n    */\r\n    function listItem(uint256 itemSupply) public onlyOwnerOrAdmin {\r\n        _mintSupply(address(this), itemSupply);\r\n    }\r\n\r\n    /**\r\n    * @notice Mint supply tokens of each Item\r\n    * @dev Declared internal because it is called inside the contructor\r\n    * - call _mint function\r\n    * - call set maxSupply function\r\n    * - updates TotalMaxSupply of Items\r\n    * - updates s_tokenCount -> Each items has associated an Id (e.g: Jeans -> Id: 0, Hoddie -> Id: 1,\r\n    * we increment s_tokenCount so next time we call _mintSupply a new type of item is going to be minted)\r\n    * - The items (tokens are minted by this contract and deposited into this contract address)\r\n    */\r\n    function _mintSupply(address receiver, uint256 amount) internal {\r\n        _mint(receiver, s_tokenCount, amount, \"\");\r\n        _setMaxSupply(s_tokenCount, amount);\r\n        s_maxTotalSupply += amount;\r\n        s_tokenCount += 1;\r\n    }\r\n\r\n    /**\r\n    * @notice Function used to set maxSupply of each item\r\n    */\r\n    function _setMaxSupply(uint256 tokenId, uint256 amount) internal {\r\n        s_maxSupply[tokenId] = amount;\r\n    }\r\n\r\n\r\n    ////////////////////////////\r\n    //  Marketplace Functions // \r\n    ///////////////////////////\r\n\r\n    /**\r\n    * @notice Function used to sell an item on the marketplace\r\n    * @dev\r\n    * - Needs to check balanceOf item trying to be sold\r\n    * - Needs to check if user has correctly done an Approve for the item transfer in case it is sold\r\n    * - Needs to transfer item \r\n    * - Update s_marketInventory\r\n    * - Update marketItems array\r\n    * - Emit event \r\n    */\r\n    function listItemOnMarket(uint256 marketItemId, uint256 price) public override {\r\n        require(balanceOf(msg.sender, marketItemId) > 0, \"Item not found.\");\r\n        require(price > 0, \"Price must be greater than 0\");\r\n        s_marketInventory[msg.sender][marketItemId] += 1;\r\n        _marketItems.push(\r\n            itemOnSale(\r\n            marketItemId,\r\n            _marketCount,\r\n            price,\r\n            msg.sender,\r\n            true\r\n            )\r\n        );\r\n        _marketCount++;\r\n        emit sellingItem(msg.sender, marketItemId, price);\r\n    }\r\n\r\n    /**\r\n    * @notice Function used to unlist an item from marketplace\r\n    * @dev\r\n    * - Needs to check that user is trying to unlist an item he owns\r\n    * - Update marketInventory\r\n    * - Update item's sold variable\r\n    * - Emit event\r\n    */\r\n    function unListItem(uint256 marketItemId) public override {\r\n        require(_marketItems[marketItemId].itemOwner == msg.sender, \"You are not the owner of this item.\");\r\n        s_marketInventory[msg.sender][_marketItems[marketItemId].tokenId] -= 1;\r\n        _marketItems[marketItemId].isOnSale = false;\r\n        emit unListedItem(msg.sender, marketItemId);\r\n    }\r\n\r\n    /**\r\n    * @notice Function used to change price from item listed \r\n    * @dev\r\n    * - Needs to check that user is trying to unlist an item he owns\r\n    * - Needs to update price status\r\n    * - Emit event\r\n    */\r\n    function changeItemPrice(uint256 marketItemId, uint256 newPrice) public override {\r\n        require(_marketItems[marketItemId].itemOwner == msg.sender, \"You are not the owner of this item.\");\r\n        uint256 oldPrice = _marketItems[marketItemId].price;\r\n        _marketItems[marketItemId].price = newPrice;\r\n        emit itemPriceChanged(msg.sender, marketItemId, oldPrice, newPrice);\r\n    }\r\n\r\n    /**\r\n    * @notice Function used to exchange a token item for a real physical clothe.\r\n    */\r\n    function exchangeItem(uint256 tokenId) public override {\r\n        require(balanceOf(msg.sender, tokenId) > 0);\r\n        _burn(msg.sender, tokenId, 1);\r\n        s_maxSupply[tokenId] -= 1;\r\n        s_maxTotalSupply -=1;\r\n        emit itemExchanged(msg.sender, tokenId);\r\n    }\r\n\r\n    /**\r\n    * @notice Function used to buy an item on the marketplace\r\n    * @dev\r\n    * - Needs to check that user is not trying to buy its own item\r\n    * - Needs to check that item was not sold before\r\n    * - Needs to transfer tokens from buyer to seller\r\n    * - Needs to transfer item from seller to buyer\r\n    * - Update sold attribute from array\r\n    * - Emit event \r\n    */\r\n    function buyItem(uint256 marketItemId) public override {\r\n\r\n        itemOnSale memory item = _marketItems[marketItemId];\r\n        require(msg.sender != _marketItems[marketItemId].itemOwner, \"You can not buy an item to yourself\");\r\n        require(_marketItems[marketItemId].isOnSale == true, \"This item is not on sale anymore.\");\r\n        require(_itemStillAvailable(item.itemOwner, item.tokenId), \"Item does not exist.\");\r\n        require(racksToken.allowance(msg.sender, address(this)) >= item.price, \"Insufficient ERC20 allowance\");\r\n        racksToken.transferFrom(msg.sender, _marketItems[marketItemId].itemOwner, _marketItems[marketItemId].price);\r\n        _safeTransferFrom(_marketItems[marketItemId].itemOwner, msg.sender, _marketItems[marketItemId].tokenId, 1 ,\"\");\r\n        s_marketInventory[item.itemOwner][item.tokenId]-=1;\r\n        address oldOwner = _marketItems[marketItemId].itemOwner;\r\n        _marketItems[marketItemId].itemOwner = msg.sender;\r\n        _marketItems[marketItemId].isOnSale = false;\r\n        emit itemBought(msg.sender, oldOwner, marketItemId, _marketItems[marketItemId].price);\r\n\r\n    }\r\n\r\n  \r\n\r\n    /**\r\n    * @notice function used to return every item that is on sale on the MarketPlace\r\n    */\r\n    function getItemsOnSale() public view override returns(itemOnSale[] memory) {\r\n        uint arrayLength;\r\n\r\n        for(uint i=0; i<_marketItems.length;i++){\r\n            itemOnSale memory item = _marketItems[i];\r\n            if(item.isOnSale == true && _itemStillAvailable(item.itemOwner, item.tokenId)){\r\n            arrayLength+=1;\r\n            }\r\n        }\r\n        itemOnSale[] memory items = new itemOnSale[](arrayLength);\r\n        uint indexCount;\r\n        for(uint256 i = 0; i < _marketItems.length; i++){\r\n            itemOnSale memory  item = _marketItems[i];\r\n            if(item.isOnSale == true  && _itemStillAvailable(item.itemOwner, item.tokenId)){\r\n            items[indexCount]=item;\r\n            indexCount++;\r\n            }\r\n        }\r\n        return items;\r\n    }\r\n\r\n    //////////////////////\r\n    //  Ticket Functions // \r\n    /////////////////////\r\n\r\n    /**\r\n    * @notice This function is used for a VIP user to list 'Case Tickets' on the MarketPlace\r\n    * @dev - Should check that user is Vip (Modifier)\r\n    * - Check is user has had a ticket before\r\n    *     - If so: check that is has ticket now\r\n    *     - if not: create ticket (first ticket in live for this user)\r\n    * - Should check that user is NOT currently selling another ticket -> Users can only sell 1 ticket at the same time\r\n    * - Include ticket on array\r\n    * - Increase s_ticketCount\r\n    * - Set mapping to true\r\n    * - Emit event\r\n    *\r\n    */\r\n    function listTicketFrom(address from, uint256 numTries, uint256 _hours, uint256 price) public override onlyVIP contractIsActive  {\r\n        TICKETS._listT(from,numTries, _hours , price, msg.sender);\r\n        emit newTicketOnSale(from, numTries, _hours, price);\r\n    }\r\n\r\n    /**\r\n    * @notice This function is used for a VIP user to unlist 'Case Tickets' on the MarketPlace\r\n    * @dev - Should check that user is Vip (Modifier)\r\n    * - Should check that user has a listed ticket\r\n    * - Emit event\r\n    */\r\n    function unListTicketFrom(address from) public override onlyVIP contractIsActive  {\r\n        TICKETS._unlistT(from, msg.sender);\r\n        emit unListTicketOnSale(from);\r\n    }\r\n\r\n    /**\r\n    * @notice This function is used for a VIP user to change 'Case Tickets' price and tries on the MarketPlace\r\n    * @dev - Should check that user is Vip (Modifier)\r\n    * - Should check that user has a listed ticket\r\n    * - Emit event\r\n    */\r\n    function changeTicketConditionsFrom(address from, uint256 newTries, uint256 newHours, uint256 newPrice) public override onlyVIP contractIsActive {\r\n        TICKETS._changeT(from, newTries,  newHours,  newPrice, msg.sender);\r\n        emit ticketConditionsChanged(from, newTries, newHours, newPrice);\r\n    }\r\n\r\n    /**\r\n    * @notice This function is used to buy a caseTicket\r\n    * @dev - Should check that user is NOT Vip -> does make sense that a VIP user buys a ticket\r\n    * - Should check that user has a listed ticket\r\n    * - Transfer RacksToken from buyer to seller\r\n    * - Update mappings variables\r\n    * - Emit event\r\n    */\r\n    function buyTicket(uint256 ticketId) public override contractIsActive {\r\n        require(!isVip(msg.sender), \"A VIP user can not buy a ticket\");\r\n        (,,uint price,address oldOwner,,) = TICKETS.getMarketTicket(ticketId);\r\n        racksToken.transferFrom(msg.sender, oldOwner, price);  \r\n        TICKETS._buyT(ticketId, msg.sender);\r\n        emit ticketBought(ticketId, oldOwner, msg.sender, price);\r\n    }\r\n\r\n    /** @notice Function used to claim Ticket back when duration is over\r\n    * @dev - Check that claimer is lending a Ticket\r\n    * - Check that duration of the Ticket is over -> block.timestamp is in seconds and duration in hours \r\n    * -> transform duration into seconds \r\n    * - Update mappings\r\n    * - Emit event\r\n    */\r\n    function claimTicketBackFrom(address from) public override onlyVIP {\r\n        TICKETS._claimT(from, msg.sender);\r\n        emit ticketClaimedBack( from);\r\n    }\r\n\r\n   \r\n\r\n    /**\r\n    * @notice Function used to return ticket that are currently on sale\r\n    */\r\n    function getMarketTicket(uint256 ticketId) public view override returns( uint256 numTries, uint256 duration, uint256 price, address owner, uint256 timeWhenSold, bool isAvaliable) {\r\n        TICKETS.getMarketTicket(ticketId);\r\n    }\r\n\r\n    \r\n    function approveForTickets( address spender, bool permission) public override {\r\n      require(MR_CRYPTO.balanceOf(msg.sender)>0,\"You are not VIP user\");\r\n      TICKETS._approveT(msg.sender, spender, permission);\r\n    }\r\n\r\n    function ticketAllowance(address owner, address spender) public override view returns(bool){\r\n      return TICKETS.ticketAllowance(owner, spender);\r\n    }\r\n\r\n    function isApproved(address user) public override view returns(bool){\r\n      return TICKETS.isApproved(user);\r\n    }\r\n\r\n\r\n    /**\r\n    * @notice Function used to return every ticket that are currently on sale\r\n    */\r\n    function getTicketsOnSale() public view override returns(ITickets.caseTicket[] memory) {\r\n        ITickets.caseTicket[] memory caseTickets =  TICKETS.getTicketsOnSale();\r\n        return caseTickets;\r\n    }\r\n\r\n    /**\r\n    * @notice Function used to check if an item is still owned and approved by its owner\r\n    */\r\n    function _itemStillAvailable(address owner, uint256 tokenId) internal view returns(bool){\r\n        if(balanceOf(owner, tokenId) > 0){\r\n            return true;\r\n        }else{\r\n            return false;\r\n        }\r\n    }\r\n\r\n\r\n    /**\r\n    *@notice  Returns an address tickets data(time, tries , onwership and price)\r\n    */\r\n    function getUserTicket(address user) public view override returns(uint256 durationLeft, uint256 triesLeft, uint ownerOrSpender, uint256 ticketPrice) {\r\n       return TICKETS.getUserTicket(user);\r\n    }\r\n\r\n\r\n    //////////////////////\r\n    //  User Functions // \r\n    /////////////////////\r\n    \r\n    /**\r\n    * @notice Check if user owns at least 1 MrCrypto\r\n    * @dev - Require users MrCrypro's balance is > 0\r\n    */\r\n    function isVip(address user) public view override returns(bool) {\r\n        if((MR_CRYPTO.balanceOf(user) > 0) || TICKETS.isApproved(user)) {\r\n            return true;\r\n        } else{\r\n            return false;\r\n        } \r\n    }\r\n\r\n    /**\r\n    * @notice Check if user is owner of the Contract or has admin role\r\n    * @dev Only callable by the Owner\r\n    */\r\n    function _isOwnerOrAdmin(address user) internal view returns (bool) {\r\n        require(_owner == user || hasRole(ADMIN_ROLE, user));\r\n        return true;\r\n    }\r\n\r\n    /**\r\n    * @notice Set new Admin\r\n    * @dev Only callable by the Owner\r\n    */\r\n    function setAdmin(address _newAdmin) public override onlyOwner {\r\n        _setupRole(ADMIN_ROLE, _newAdmin);\r\n    }\r\n\r\n    ////////////////////////////\r\n    //  Management Functions // \r\n    //////////////////////////\r\n\r\n    /**\r\n    * @notice Change contract state from Active to Inactive and viceversa\r\n    * @dev Only callable by the Owner or an admin\r\n    */\r\n    function flipContractState() public onlyOwnerOrAdmin {\r\n        if (s_contractState == ContractState.Active) {\r\n            s_contractState = ContractState.Inactive;\r\n        }else {\r\n            s_contractState = ContractState.Active;\r\n        }\r\n    }\r\n\r\n    ////////////////////////////\r\n    //  ERC1155 Functions   // \r\n    //////////////////////////\r\n\r\n    /**\r\n    * @notice Used to return token URI by inserting tokenID\r\n    * @dev - returns information stored in s_uris mapping\r\n    * - Any user can check this information\r\n    */\r\n    function uri(uint256 tokenId) override public view returns (string memory) {\r\n        return(s_uris[tokenId]);\r\n    }\r\n\r\n    /**\r\n    * @notice Used to set tokenURI to specific item \r\n    * @dev - Only Owner or Admins can call this function\r\n    * - Need to specify:\r\n    *  - tokenId: specific item you want to set its uri\r\n    *  - uri: uri wanted to be set\r\n    */\r\n    function setTokenUri(uint256 tokenId, string memory _uri) public override onlyOwnerOrAdmin {\r\n        require(bytes(s_uris[tokenId]).length == 0, \"Can not set uri twice\"); \r\n        s_uris[tokenId] = _uri; \r\n    }\r\n\r\n    ////////////////////////\r\n    //  Funds Functions // \r\n    //////////////////////\r\n\r\n    /**\r\n    * @notice Used to withdraw specific amount of funds\r\n    * @dev \r\n    * - Only owner is able to call this function\r\n    * - Should check that there are avaliable funds to withdraw\r\n    * - Should specify the wallet address you want to transfer the funds to\r\n    * - Should specify the amount of funds you want to transfer\r\n    */\r\n    function withdrawFunds(address wallet, uint256 amount) public override onlyOwner {\r\n        require(racksToken.balanceOf(address(this)) > 0, \"No funds to withdraw\");\r\n        racksToken.transfer(wallet, amount);\r\n    }\r\n\r\n    /**\r\n    * @notice Used to withdraw ALL funds\r\n    * @dev \r\n    * - Only owner is able to call this function\r\n    * - Should check that there are avaliable funds to withdraw\r\n    * - Should specify the wallet address you want to transfer the funds to\r\n    */\r\n    function withdrawAllFunds(address wallet) public override onlyOwner {\r\n        require(racksToken.balanceOf(address(this)) > 0, \"No funds to withdraw\");\r\n        racksToken.transfer(wallet, racksToken.balanceOf(address(this)));\r\n    }\r\n\r\n\r\n    function setInterfaces(address _caseOpenerAddress, address _ticketsAddress) public onlyOwner{\r\n        CASE_OPENER  = ICaseOpener(_caseOpenerAddress);\r\n        TICKETS = ITickets(_ticketsAddress);\r\n\r\n    }\r\n\r\n  \r\n     //////////////\r\n    //  Getters // \r\n    //////////////\r\n\r\n    function getOwner() public view returns(address) {\r\n        return _owner;\r\n    }\r\n\r\n    function getMaxTotalSupply() public view returns(uint256) {\r\n        return s_maxTotalSupply;\r\n    }\r\n\r\n    function getTokenCount() public view returns(uint256) {\r\n        return s_tokenCount;\r\n    }\r\n\r\n    function getMarketcount() public view returns(uint256) {\r\n        return _marketCount;\r\n    }\r\n  \r\n\r\n    function getContractState() public view returns(ContractState) {\r\n        return s_contractState;\r\n    }\r\n\r\n    function getCasePrice() public view returns(uint){\r\n        return casePrice;\r\n    }\r\n\r\n\r\n}",
  "sourcePath": "C:\\Users\\oteri\\Desktop\\racs-items\\racks-items-frontend\\contracts\\RacksItemsv3.sol",
  "compiler": {
    "name": "solc",
    "version": "0.8.10+commit.fc410830.Emscripten.clang"
  },
  "schemaVersion": "3.4.3",
  "updatedAt": "2022-07-21T22:15:35.193Z",
  "devdoc": {
    "kind": "dev",
    "methods": {
      "balanceOf(address,uint256)": {
        "details": "See {IERC1155-balanceOf}. Requirements: - `account` cannot be the zero address."
      },
      "balanceOfBatch(address[],uint256[])": {
        "details": "See {IERC1155-balanceOfBatch}. Requirements: - `accounts` and `ids` must have the same length."
      },
      "buyItem(uint256)": {
        "details": "- Needs to check that user is not trying to buy its own item - Needs to check that item was not sold before - Needs to transfer tokens from buyer to seller - Needs to transfer item from seller to buyer - Update sold attribute from array - Emit event "
      },
      "buyTicket(uint256)": {
        "details": "- Should check that user is NOT Vip -> does make sense that a VIP user buys a ticket - Should check that user has a listed ticket - Transfer RacksToken from buyer to seller - Update mappings variables - Emit event"
      },
      "changeItemPrice(uint256,uint256)": {
        "details": "- Needs to check that user is trying to unlist an item he owns - Needs to update price status - Emit event"
      },
      "changeTicketConditionsFrom(address,uint256,uint256,uint256)": {
        "details": "- Should check that user is Vip (Modifier) - Should check that user has a listed ticket - Emit event"
      },
      "claimTicketBackFrom(address)": {
        "details": "- Check that claimer is lending a Ticket - Check that duration of the Ticket is over -> block.timestamp is in seconds and duration in hours  -> transform duration into seconds  - Update mappings - Emit event"
      },
      "flipContractState()": {
        "details": "Only callable by the Owner or an admin"
      },
      "getRoleAdmin(bytes32)": {
        "details": "Returns the admin role that controls `role`. See {grantRole} and {revokeRole}. To change a role's admin, use {_setRoleAdmin}."
      },
      "grantRole(bytes32,address)": {
        "details": "Grants `role` to `account`. If `account` had not been already granted `role`, emits a {RoleGranted} event. Requirements: - the caller must have ``role``'s admin role."
      },
      "hasRole(bytes32,address)": {
        "details": "Returns `true` if `account` has been granted `role`."
      },
      "isApprovedForAll(address,address)": {
        "details": "See {IERC1155-isApprovedForAll}."
      },
      "isVip(address)": {
        "details": "- Require users MrCrypro's balance is > 0"
      },
      "listItem(uint256)": {
        "details": "Only callable by the Owner"
      },
      "listItemOnMarket(uint256,uint256)": {
        "details": "- Needs to check balanceOf item trying to be sold - Needs to check if user has correctly done an Approve for the item transfer in case it is sold - Needs to transfer item  - Update s_marketInventory - Update marketItems array - Emit event "
      },
      "listTicketFrom(address,uint256,uint256,uint256)": {
        "details": "- Should check that user is Vip (Modifier) - Check is user has had a ticket before     - If so: check that is has ticket now     - if not: create ticket (first ticket in live for this user) - Should check that user is NOT currently selling another ticket -> Users can only sell 1 ticket at the same time - Include ticket on array - Increase s_ticketCount - Set mapping to true - Emit event"
      },
      "openCase()": {
        "details": " - Should check that user owns a Ticket -> modifier - Should transfer case price to the contract - Internally calls the case opener contract to get a random number from Chainlink VRF "
      },
      "renounceRole(bytes32,address)": {
        "details": "Revokes `role` from the calling account. Roles are often managed via {grantRole} and {revokeRole}: this function's purpose is to provide a mechanism for accounts to lose their privileges if they are compromised (such as when a trusted device is misplaced). If the calling account had been revoked `role`, emits a {RoleRevoked} event. Requirements: - the caller must be `account`."
      },
      "revokeRole(bytes32,address)": {
        "details": "Revokes `role` from `account`. If `account` had been granted `role`, emits a {RoleRevoked} event. Requirements: - the caller must have ``role``'s admin role."
      },
      "safeBatchTransferFrom(address,address,uint256[],uint256[],bytes)": {
        "details": "See {IERC1155-safeBatchTransferFrom}."
      },
      "safeTransferFrom(address,address,uint256,uint256,bytes)": {
        "details": "See {IERC1155-safeTransferFrom}."
      },
      "setAdmin(address)": {
        "details": "Only callable by the Owner"
      },
      "setApprovalForAll(address,bool)": {
        "details": "See {IERC1155-setApprovalForAll}."
      },
      "setCasePrice(uint256)": {
        "details": "Only callable by the Owner"
      },
      "setTokenUri(uint256,string)": {
        "details": "- Only Owner or Admins can call this function - Need to specify:  - tokenId: specific item you want to set its uri  - uri: uri wanted to be set"
      },
      "supplyOfItem(uint256)": {
        "details": "- Getter of s_maxSupply mapping"
      },
      "unListItem(uint256)": {
        "details": "- Needs to check that user is trying to unlist an item he owns - Update marketInventory - Update item's sold variable - Emit event"
      },
      "unListTicketFrom(address)": {
        "details": "- Should check that user is Vip (Modifier) - Should check that user has a listed ticket - Emit event"
      },
      "uri(uint256)": {
        "details": "- returns information stored in s_uris mapping - Any user can check this information"
      },
      "viewItems(address)": {
        "details": "Copy users inventory in an empty array and returns it"
      },
      "withdrawAllFunds(address)": {
        "details": " - Only owner is able to call this function - Should check that there are avaliable funds to withdraw - Should specify the wallet address you want to transfer the funds to"
      },
      "withdrawFunds(address,uint256)": {
        "details": " - Only owner is able to call this function - Should check that there are avaliable funds to withdraw - Should specify the wallet address you want to transfer the funds to - Should specify the amount of funds you want to transfer"
      }
    },
    "version": 1
  },
  "userdoc": {
    "events": {
      "CaseOpened(address,uint256,uint256)": {
        "notice": "Events"
      }
    },
    "kind": "user",
    "methods": {
      "ADMIN_ROLE()": {
        "notice": "Standard variables"
      },
      "buyItem(uint256)": {
        "notice": "Function used to buy an item on the marketplace"
      },
      "buyTicket(uint256)": {
        "notice": "This function is used to buy a caseTicket"
      },
      "caseLiquidity()": {
        "notice": "Returns all the items the case can drop"
      },
      "changeItemPrice(uint256,uint256)": {
        "notice": "Function used to change price from item listed "
      },
      "changeTicketConditionsFrom(address,uint256,uint256,uint256)": {
        "notice": "This function is used for a VIP user to change 'Case Tickets' price and tries on the MarketPlace"
      },
      "claimTicketBackFrom(address)": {
        "notice": "Function used to claim Ticket back when duration is over"
      },
      "exchangeItem(uint256)": {
        "notice": "Function used to exchange a token item for a real physical clothe."
      },
      "flipContractState()": {
        "notice": "Change contract state from Active to Inactive and viceversa"
      },
      "fulfillCaseRequest(address,uint256)": {
        "notice": "This function is called back by the Chainlink Oracle after requesting a random number The function receives a random number and the user that originally opened the case Apply modular function for the randomNumber to be between 0 and totalSupply of items Algorithmically pick an item based on the random number and statistics of its item"
      },
      "getItemsOnSale()": {
        "notice": "function used to return every item that is on sale on the MarketPlace"
      },
      "getMarketTicket(uint256)": {
        "notice": "Function used to return ticket that are currently on sale"
      },
      "getTicketsOnSale()": {
        "notice": "Function used to return every ticket that are currently on sale"
      },
      "getUserTicket(address)": {
        "notice": "Returns an address tickets data(time, tries , onwership and price)"
      },
      "isVip(address)": {
        "notice": "Check if user owns at least 1 MrCrypto"
      },
      "listItem(uint256)": {
        "notice": "List a new item to the avaliable collection"
      },
      "listItemOnMarket(uint256,uint256)": {
        "notice": "Function used to sell an item on the marketplace"
      },
      "listTicketFrom(address,uint256,uint256,uint256)": {
        "notice": "This function is used for a VIP user to list 'Case Tickets' on the MarketPlace"
      },
      "openCase()": {
        "notice": "Function used to 'open a case' and get an item"
      },
      "setAdmin(address)": {
        "notice": "Set new Admin"
      },
      "setCasePrice(uint256)": {
        "notice": "Change price of the box"
      },
      "setTokenUri(uint256,string)": {
        "notice": "Used to set tokenURI to specific item "
      },
      "supplyOfItem(uint256)": {
        "notice": "Returns maxSupply of specific item (by tokenId)"
      },
      "supportsInterface(bytes4)": {
        "notice": "Need to override supportsInterface function because Contract is ERC1155 and AccessControl"
      },
      "unListItem(uint256)": {
        "notice": "Function used to unlist an item from marketplace"
      },
      "unListTicketFrom(address)": {
        "notice": "This function is used for a VIP user to unlist 'Case Tickets' on the MarketPlace"
      },
      "uri(uint256)": {
        "notice": "Used to return token URI by inserting tokenID"
      },
      "viewItems(address)": {
        "notice": "Returns all the items inside the user's inventory without the ones on Market Sale(Could be used by the user to check his inventory or to check someone else inventory by address)"
      },
      "withdrawAllFunds(address)": {
        "notice": "Used to withdraw ALL funds"
      },
      "withdrawFunds(address,uint256)": {
        "notice": "Used to withdraw specific amount of funds"
      }
    },
    "version": 1
  }
}