{
  "contractName": "RacksItems",
  "abi": [
    {
      "inputs": [
        {
          "internalType": "address",
          "name": "vrfCoordinatorV2",
          "type": "address"
        },
        {
          "internalType": "bytes32",
          "name": "gasLane",
          "type": "bytes32"
        },
        {
          "internalType": "uint64",
          "name": "subscriptionId",
          "type": "uint64"
        },
        {
          "internalType": "uint32",
          "name": "callbackGasLimit",
          "type": "uint32"
        },
        {
          "internalType": "address",
          "name": "_racksTokenAddress",
          "type": "address"
        }
      ],
      "stateMutability": "nonpayable",
      "type": "constructor"
    },
    {
      "inputs": [
        {
          "internalType": "address",
          "name": "have",
          "type": "address"
        },
        {
          "internalType": "address",
          "name": "want",
          "type": "address"
        }
      ],
      "name": "OnlyCoordinatorCanFulfill",
      "type": "error"
    },
    {
      "anonymous": false,
      "inputs": [
        {
          "indexed": true,
          "internalType": "address",
          "name": "account",
          "type": "address"
        },
        {
          "indexed": true,
          "internalType": "address",
          "name": "operator",
          "type": "address"
        },
        {
          "indexed": false,
          "internalType": "bool",
          "name": "approved",
          "type": "bool"
        }
      ],
      "name": "ApprovalForAll",
      "type": "event"
    },
    {
      "anonymous": false,
      "inputs": [
        {
          "indexed": false,
          "internalType": "address",
          "name": "user",
          "type": "address"
        },
        {
          "indexed": false,
          "internalType": "uint256",
          "name": "casePrice",
          "type": "uint256"
        },
        {
          "indexed": false,
          "internalType": "uint256",
          "name": "item",
          "type": "uint256"
        }
      ],
      "name": "CaseOpened",
      "type": "event"
    },
    {
      "anonymous": false,
      "inputs": [
        {
          "indexed": true,
          "internalType": "bytes32",
          "name": "role",
          "type": "bytes32"
        },
        {
          "indexed": true,
          "internalType": "bytes32",
          "name": "previousAdminRole",
          "type": "bytes32"
        },
        {
          "indexed": true,
          "internalType": "bytes32",
          "name": "newAdminRole",
          "type": "bytes32"
        }
      ],
      "name": "RoleAdminChanged",
      "type": "event"
    },
    {
      "anonymous": false,
      "inputs": [
        {
          "indexed": true,
          "internalType": "bytes32",
          "name": "role",
          "type": "bytes32"
        },
        {
          "indexed": true,
          "internalType": "address",
          "name": "account",
          "type": "address"
        },
        {
          "indexed": true,
          "internalType": "address",
          "name": "sender",
          "type": "address"
        }
      ],
      "name": "RoleGranted",
      "type": "event"
    },
    {
      "anonymous": false,
      "inputs": [
        {
          "indexed": true,
          "internalType": "bytes32",
          "name": "role",
          "type": "bytes32"
        },
        {
          "indexed": true,
          "internalType": "address",
          "name": "account",
          "type": "address"
        },
        {
          "indexed": true,
          "internalType": "address",
          "name": "sender",
          "type": "address"
        }
      ],
      "name": "RoleRevoked",
      "type": "event"
    },
    {
      "anonymous": false,
      "inputs": [
        {
          "indexed": true,
          "internalType": "address",
          "name": "operator",
          "type": "address"
        },
        {
          "indexed": true,
          "internalType": "address",
          "name": "from",
          "type": "address"
        },
        {
          "indexed": true,
          "internalType": "address",
          "name": "to",
          "type": "address"
        },
        {
          "indexed": false,
          "internalType": "uint256[]",
          "name": "ids",
          "type": "uint256[]"
        },
        {
          "indexed": false,
          "internalType": "uint256[]",
          "name": "values",
          "type": "uint256[]"
        }
      ],
      "name": "TransferBatch",
      "type": "event"
    },
    {
      "anonymous": false,
      "inputs": [
        {
          "indexed": true,
          "internalType": "address",
          "name": "operator",
          "type": "address"
        },
        {
          "indexed": true,
          "internalType": "address",
          "name": "from",
          "type": "address"
        },
        {
          "indexed": true,
          "internalType": "address",
          "name": "to",
          "type": "address"
        },
        {
          "indexed": false,
          "internalType": "uint256",
          "name": "id",
          "type": "uint256"
        },
        {
          "indexed": false,
          "internalType": "uint256",
          "name": "value",
          "type": "uint256"
        }
      ],
      "name": "TransferSingle",
      "type": "event"
    },
    {
      "anonymous": false,
      "inputs": [
        {
          "indexed": false,
          "internalType": "string",
          "name": "value",
          "type": "string"
        },
        {
          "indexed": true,
          "internalType": "uint256",
          "name": "id",
          "type": "uint256"
        }
      ],
      "name": "URI",
      "type": "event"
    },
    {
      "anonymous": false,
      "inputs": [
        {
          "indexed": false,
          "internalType": "uint256",
          "name": "newPrice",
          "type": "uint256"
        }
      ],
      "name": "casePriceChanged",
      "type": "event"
    },
    {
      "anonymous": false,
      "inputs": [
        {
          "indexed": false,
          "internalType": "address",
          "name": "buyer",
          "type": "address"
        },
        {
          "indexed": false,
          "internalType": "address",
          "name": "seller",
          "type": "address"
        },
        {
          "indexed": false,
          "internalType": "uint256",
          "name": "marketItemId",
          "type": "uint256"
        },
        {
          "indexed": false,
          "internalType": "uint256",
          "name": "price",
          "type": "uint256"
        }
      ],
      "name": "itemBought",
      "type": "event"
    },
    {
      "anonymous": false,
      "inputs": [
        {
          "indexed": false,
          "internalType": "address",
          "name": "user",
          "type": "address"
        },
        {
          "indexed": false,
          "internalType": "uint256",
          "name": "tokenId",
          "type": "uint256"
        }
      ],
      "name": "itemExchanged",
      "type": "event"
    },
    {
      "anonymous": false,
      "inputs": [
        {
          "indexed": false,
          "internalType": "address",
          "name": "owner",
          "type": "address"
        },
        {
          "indexed": false,
          "internalType": "uint256",
          "name": "marketItemId",
          "type": "uint256"
        },
        {
          "indexed": false,
          "internalType": "uint256",
          "name": "oldPrice",
          "type": "uint256"
        },
        {
          "indexed": false,
          "internalType": "uint256",
          "name": "newPrice",
          "type": "uint256"
        }
      ],
      "name": "itemPriceChanged",
      "type": "event"
    },
    {
      "anonymous": false,
      "inputs": [
        {
          "indexed": false,
          "internalType": "address",
          "name": "user",
          "type": "address"
        },
        {
          "indexed": false,
          "internalType": "uint256",
          "name": "tokenId",
          "type": "uint256"
        },
        {
          "indexed": false,
          "internalType": "uint256",
          "name": "price",
          "type": "uint256"
        }
      ],
      "name": "sellingItem",
      "type": "event"
    },
    {
      "anonymous": false,
      "inputs": [
        {
          "indexed": false,
          "internalType": "address",
          "name": "owner",
          "type": "address"
        },
        {
          "indexed": false,
          "internalType": "uint256",
          "name": "marketItemId",
          "type": "uint256"
        }
      ],
      "name": "unListedItem",
      "type": "event"
    },
    {
      "inputs": [],
      "name": "ADMIN_ROLE",
      "outputs": [
        {
          "internalType": "bytes32",
          "name": "",
          "type": "bytes32"
        }
      ],
      "stateMutability": "view",
      "type": "function"
    },
    {
      "inputs": [],
      "name": "DEFAULT_ADMIN_ROLE",
      "outputs": [
        {
          "internalType": "bytes32",
          "name": "",
          "type": "bytes32"
        }
      ],
      "stateMutability": "view",
      "type": "function"
    },
    {
      "inputs": [],
      "name": "NUM_WORDS",
      "outputs": [
        {
          "internalType": "uint32",
          "name": "",
          "type": "uint32"
        }
      ],
      "stateMutability": "view",
      "type": "function"
    },
    {
      "inputs": [],
      "name": "REQUEST_CONFIRMATIONS",
      "outputs": [
        {
          "internalType": "uint16",
          "name": "",
          "type": "uint16"
        }
      ],
      "stateMutability": "view",
      "type": "function"
    },
    {
      "inputs": [
        {
          "internalType": "address",
          "name": "account",
          "type": "address"
        },
        {
          "internalType": "uint256",
          "name": "id",
          "type": "uint256"
        }
      ],
      "name": "balanceOf",
      "outputs": [
        {
          "internalType": "uint256",
          "name": "",
          "type": "uint256"
        }
      ],
      "stateMutability": "view",
      "type": "function"
    },
    {
      "inputs": [
        {
          "internalType": "address[]",
          "name": "accounts",
          "type": "address[]"
        },
        {
          "internalType": "uint256[]",
          "name": "ids",
          "type": "uint256[]"
        }
      ],
      "name": "balanceOfBatch",
      "outputs": [
        {
          "internalType": "uint256[]",
          "name": "",
          "type": "uint256[]"
        }
      ],
      "stateMutability": "view",
      "type": "function"
    },
    {
      "inputs": [],
      "name": "casePrice",
      "outputs": [
        {
          "internalType": "uint256",
          "name": "",
          "type": "uint256"
        }
      ],
      "stateMutability": "view",
      "type": "function"
    },
    {
      "inputs": [],
      "name": "contractActive",
      "outputs": [
        {
          "internalType": "bool",
          "name": "",
          "type": "bool"
        }
      ],
      "stateMutability": "view",
      "type": "function"
    },
    {
      "inputs": [
        {
          "internalType": "bytes32",
          "name": "role",
          "type": "bytes32"
        }
      ],
      "name": "getRoleAdmin",
      "outputs": [
        {
          "internalType": "bytes32",
          "name": "",
          "type": "bytes32"
        }
      ],
      "stateMutability": "view",
      "type": "function"
    },
    {
      "inputs": [
        {
          "internalType": "bytes32",
          "name": "role",
          "type": "bytes32"
        },
        {
          "internalType": "address",
          "name": "account",
          "type": "address"
        }
      ],
      "name": "grantRole",
      "outputs": [],
      "stateMutability": "nonpayable",
      "type": "function"
    },
    {
      "inputs": [
        {
          "internalType": "bytes32",
          "name": "role",
          "type": "bytes32"
        },
        {
          "internalType": "address",
          "name": "account",
          "type": "address"
        }
      ],
      "name": "hasRole",
      "outputs": [
        {
          "internalType": "bool",
          "name": "",
          "type": "bool"
        }
      ],
      "stateMutability": "view",
      "type": "function"
    },
    {
      "inputs": [],
      "name": "i_MrCryptoAddress",
      "outputs": [
        {
          "internalType": "address",
          "name": "",
          "type": "address"
        }
      ],
      "stateMutability": "view",
      "type": "function"
    },
    {
      "inputs": [],
      "name": "i_callbackGasLimit",
      "outputs": [
        {
          "internalType": "uint32",
          "name": "",
          "type": "uint32"
        }
      ],
      "stateMutability": "view",
      "type": "function"
    },
    {
      "inputs": [],
      "name": "i_gasLane",
      "outputs": [
        {
          "internalType": "bytes32",
          "name": "",
          "type": "bytes32"
        }
      ],
      "stateMutability": "view",
      "type": "function"
    },
    {
      "inputs": [],
      "name": "i_subscriptionId",
      "outputs": [
        {
          "internalType": "uint64",
          "name": "",
          "type": "uint64"
        }
      ],
      "stateMutability": "view",
      "type": "function"
    },
    {
      "inputs": [],
      "name": "i_vrfCoordinator",
      "outputs": [
        {
          "internalType": "contract VRFCoordinatorV2Interface",
          "name": "",
          "type": "address"
        }
      ],
      "stateMutability": "view",
      "type": "function"
    },
    {
      "inputs": [
        {
          "internalType": "address",
          "name": "account",
          "type": "address"
        },
        {
          "internalType": "address",
          "name": "operator",
          "type": "address"
        }
      ],
      "name": "isApprovedForAll",
      "outputs": [
        {
          "internalType": "bool",
          "name": "",
          "type": "bool"
        }
      ],
      "stateMutability": "view",
      "type": "function"
    },
    {
      "inputs": [
        {
          "internalType": "address",
          "name": "",
          "type": "address"
        },
        {
          "internalType": "address",
          "name": "",
          "type": "address"
        },
        {
          "internalType": "uint256[]",
          "name": "",
          "type": "uint256[]"
        },
        {
          "internalType": "uint256[]",
          "name": "",
          "type": "uint256[]"
        },
        {
          "internalType": "bytes",
          "name": "",
          "type": "bytes"
        }
      ],
      "name": "onERC1155BatchReceived",
      "outputs": [
        {
          "internalType": "bytes4",
          "name": "",
          "type": "bytes4"
        }
      ],
      "stateMutability": "nonpayable",
      "type": "function"
    },
    {
      "inputs": [
        {
          "internalType": "address",
          "name": "",
          "type": "address"
        },
        {
          "internalType": "address",
          "name": "",
          "type": "address"
        },
        {
          "internalType": "uint256",
          "name": "",
          "type": "uint256"
        },
        {
          "internalType": "uint256",
          "name": "",
          "type": "uint256"
        },
        {
          "internalType": "bytes",
          "name": "",
          "type": "bytes"
        }
      ],
      "name": "onERC1155Received",
      "outputs": [
        {
          "internalType": "bytes4",
          "name": "",
          "type": "bytes4"
        }
      ],
      "stateMutability": "nonpayable",
      "type": "function"
    },
    {
      "inputs": [
        {
          "internalType": "uint256",
          "name": "requestId",
          "type": "uint256"
        },
        {
          "internalType": "uint256[]",
          "name": "randomWords",
          "type": "uint256[]"
        }
      ],
      "name": "rawFulfillRandomWords",
      "outputs": [],
      "stateMutability": "nonpayable",
      "type": "function"
    },
    {
      "inputs": [
        {
          "internalType": "bytes32",
          "name": "role",
          "type": "bytes32"
        },
        {
          "internalType": "address",
          "name": "account",
          "type": "address"
        }
      ],
      "name": "renounceRole",
      "outputs": [],
      "stateMutability": "nonpayable",
      "type": "function"
    },
    {
      "inputs": [
        {
          "internalType": "bytes32",
          "name": "role",
          "type": "bytes32"
        },
        {
          "internalType": "address",
          "name": "account",
          "type": "address"
        }
      ],
      "name": "revokeRole",
      "outputs": [],
      "stateMutability": "nonpayable",
      "type": "function"
    },
    {
      "inputs": [],
      "name": "s_contractState",
      "outputs": [
        {
          "internalType": "enum RacksItems.ContractState",
          "name": "",
          "type": "uint8"
        }
      ],
      "stateMutability": "view",
      "type": "function"
    },
    {
      "inputs": [],
      "name": "s_randomWord",
      "outputs": [
        {
          "internalType": "uint256",
          "name": "",
          "type": "uint256"
        }
      ],
      "stateMutability": "view",
      "type": "function"
    },
    {
      "inputs": [
        {
          "internalType": "address",
          "name": "from",
          "type": "address"
        },
        {
          "internalType": "address",
          "name": "to",
          "type": "address"
        },
        {
          "internalType": "uint256[]",
          "name": "ids",
          "type": "uint256[]"
        },
        {
          "internalType": "uint256[]",
          "name": "amounts",
          "type": "uint256[]"
        },
        {
          "internalType": "bytes",
          "name": "data",
          "type": "bytes"
        }
      ],
      "name": "safeBatchTransferFrom",
      "outputs": [],
      "stateMutability": "nonpayable",
      "type": "function"
    },
    {
      "inputs": [
        {
          "internalType": "address",
          "name": "from",
          "type": "address"
        },
        {
          "internalType": "address",
          "name": "to",
          "type": "address"
        },
        {
          "internalType": "uint256",
          "name": "id",
          "type": "uint256"
        },
        {
          "internalType": "uint256",
          "name": "amount",
          "type": "uint256"
        },
        {
          "internalType": "bytes",
          "name": "data",
          "type": "bytes"
        }
      ],
      "name": "safeTransferFrom",
      "outputs": [],
      "stateMutability": "nonpayable",
      "type": "function"
    },
    {
      "inputs": [
        {
          "internalType": "address",
          "name": "operator",
          "type": "address"
        },
        {
          "internalType": "bool",
          "name": "approved",
          "type": "bool"
        }
      ],
      "name": "setApprovalForAll",
      "outputs": [],
      "stateMutability": "nonpayable",
      "type": "function"
    },
    {
      "stateMutability": "payable",
      "type": "receive"
    },
    {
      "inputs": [
        {
          "internalType": "bytes4",
          "name": "interfaceId",
          "type": "bytes4"
        }
      ],
      "name": "supportsInterface",
      "outputs": [
        {
          "internalType": "bool",
          "name": "",
          "type": "bool"
        }
      ],
      "stateMutability": "view",
      "type": "function"
    },
    {
      "inputs": [
        {
          "internalType": "uint256",
          "name": "price",
          "type": "uint256"
        }
      ],
      "name": "setCasePrice",
      "outputs": [],
      "stateMutability": "nonpayable",
      "type": "function"
    },
    {
      "inputs": [],
      "name": "getCasePrice",
      "outputs": [
        {
          "internalType": "uint256",
          "name": "",
          "type": "uint256"
        }
      ],
      "stateMutability": "view",
      "type": "function"
    },
    {
      "inputs": [],
      "name": "_randomNumber",
      "outputs": [
        {
          "internalType": "uint256",
          "name": "",
          "type": "uint256"
        }
      ],
      "stateMutability": "nonpayable",
      "type": "function"
    },
    {
      "inputs": [],
      "name": "openCase",
      "outputs": [],
      "stateMutability": "nonpayable",
      "type": "function"
    },
    {
      "inputs": [
        {
          "internalType": "uint256",
          "name": "tokenId",
          "type": "uint256"
        }
      ],
      "name": "supplyOfItem",
      "outputs": [
        {
          "internalType": "uint256",
          "name": "",
          "type": "uint256"
        }
      ],
      "stateMutability": "view",
      "type": "function"
    },
    {
      "inputs": [
        {
          "internalType": "uint256",
          "name": "tokenId",
          "type": "uint256"
        }
      ],
      "name": "_rarityOfItem",
      "outputs": [
        {
          "internalType": "uint256",
          "name": "",
          "type": "uint256"
        }
      ],
      "stateMutability": "view",
      "type": "function"
    },
    {
      "inputs": [
        {
          "internalType": "address",
          "name": "owner",
          "type": "address"
        }
      ],
      "name": "viewItems",
      "outputs": [
        {
          "internalType": "uint256[]",
          "name": "",
          "type": "uint256[]"
        }
      ],
      "stateMutability": "view",
      "type": "function"
    },
    {
      "inputs": [
        {
          "internalType": "uint256",
          "name": "itemSupply",
          "type": "uint256"
        }
      ],
      "name": "listItem",
      "outputs": [],
      "stateMutability": "nonpayable",
      "type": "function"
    },
    {
      "inputs": [
        {
          "internalType": "uint256",
          "name": "marketItemId",
          "type": "uint256"
        },
        {
          "internalType": "uint256",
          "name": "price",
          "type": "uint256"
        }
      ],
      "name": "sellItem",
      "outputs": [],
      "stateMutability": "nonpayable",
      "type": "function"
    },
    {
      "inputs": [
        {
          "internalType": "uint256",
          "name": "marketItemId",
          "type": "uint256"
        }
      ],
      "name": "unListItem",
      "outputs": [],
      "stateMutability": "nonpayable",
      "type": "function"
    },
    {
      "inputs": [
        {
          "internalType": "uint256",
          "name": "marketItemId",
          "type": "uint256"
        },
        {
          "internalType": "uint256",
          "name": "newPrice",
          "type": "uint256"
        }
      ],
      "name": "changeItemPrice",
      "outputs": [],
      "stateMutability": "nonpayable",
      "type": "function"
    },
    {
      "inputs": [
        {
          "internalType": "uint256",
          "name": "marketItemId",
          "type": "uint256"
        }
      ],
      "name": "exchangeItem",
      "outputs": [],
      "stateMutability": "nonpayable",
      "type": "function"
    },
    {
      "inputs": [
        {
          "internalType": "uint256",
          "name": "marketItemId",
          "type": "uint256"
        }
      ],
      "name": "buyItem",
      "outputs": [],
      "stateMutability": "nonpayable",
      "type": "function"
    },
    {
      "inputs": [
        {
          "internalType": "uint256",
          "name": "marketItemId",
          "type": "uint256"
        }
      ],
      "name": "getMarketItem",
      "outputs": [
        {
          "components": [
            {
              "internalType": "uint256",
              "name": "tokenId",
              "type": "uint256"
            },
            {
              "internalType": "uint256",
              "name": "marketItemId",
              "type": "uint256"
            },
            {
              "internalType": "uint256",
              "name": "price",
              "type": "uint256"
            },
            {
              "internalType": "address",
              "name": "seller",
              "type": "address"
            },
            {
              "internalType": "bool",
              "name": "sold",
              "type": "bool"
            }
          ],
          "internalType": "struct RacksItems.itemOnSale",
          "name": "",
          "type": "tuple"
        }
      ],
      "stateMutability": "view",
      "type": "function"
    },
    {
      "inputs": [],
      "name": "getItemsOnSale",
      "outputs": [
        {
          "components": [
            {
              "internalType": "uint256",
              "name": "tokenId",
              "type": "uint256"
            },
            {
              "internalType": "uint256",
              "name": "marketItemId",
              "type": "uint256"
            },
            {
              "internalType": "uint256",
              "name": "price",
              "type": "uint256"
            },
            {
              "internalType": "address",
              "name": "seller",
              "type": "address"
            },
            {
              "internalType": "bool",
              "name": "sold",
              "type": "bool"
            }
          ],
          "internalType": "struct RacksItems.itemOnSale[]",
          "name": "",
          "type": "tuple[]"
        }
      ],
      "stateMutability": "view",
      "type": "function"
    },
    {
      "inputs": [
        {
          "internalType": "address",
          "name": "user",
          "type": "address"
        }
      ],
      "name": "isVip",
      "outputs": [
        {
          "internalType": "bool",
          "name": "",
          "type": "bool"
        }
      ],
      "stateMutability": "view",
      "type": "function"
    },
    {
      "inputs": [
        {
          "internalType": "address",
          "name": "user",
          "type": "address"
        }
      ],
      "name": "setSingleRacksMember",
      "outputs": [],
      "stateMutability": "nonpayable",
      "type": "function"
    },
    {
      "inputs": [
        {
          "internalType": "address[]",
          "name": "users",
          "type": "address[]"
        }
      ],
      "name": "setListRacksMembers",
      "outputs": [],
      "stateMutability": "nonpayable",
      "type": "function"
    },
    {
      "inputs": [
        {
          "internalType": "address",
          "name": "user",
          "type": "address"
        }
      ],
      "name": "removeSingleRacksMember",
      "outputs": [],
      "stateMutability": "nonpayable",
      "type": "function"
    },
    {
      "inputs": [
        {
          "internalType": "address[]",
          "name": "users",
          "type": "address[]"
        }
      ],
      "name": "removeListRacksMembers",
      "outputs": [],
      "stateMutability": "nonpayable",
      "type": "function"
    },
    {
      "inputs": [
        {
          "internalType": "address",
          "name": "_newAdmin",
          "type": "address"
        }
      ],
      "name": "setAdmin",
      "outputs": [],
      "stateMutability": "nonpayable",
      "type": "function"
    },
    {
      "inputs": [],
      "name": "flipContractState",
      "outputs": [],
      "stateMutability": "nonpayable",
      "type": "function"
    },
    {
      "inputs": [
        {
          "internalType": "uint256",
          "name": "tokenId",
          "type": "uint256"
        }
      ],
      "name": "uri",
      "outputs": [
        {
          "internalType": "string",
          "name": "",
          "type": "string"
        }
      ],
      "stateMutability": "view",
      "type": "function"
    },
    {
      "inputs": [
        {
          "internalType": "uint256",
          "name": "tokenId",
          "type": "uint256"
        },
        {
          "internalType": "string",
          "name": "_uri",
          "type": "string"
        }
      ],
      "name": "setTokenUri",
      "outputs": [],
      "stateMutability": "nonpayable",
      "type": "function"
    },
    {
      "inputs": [
        {
          "internalType": "address",
          "name": "wallet",
          "type": "address"
        },
        {
          "internalType": "uint256",
          "name": "amount",
          "type": "uint256"
        }
      ],
      "name": "withdrawFunds",
      "outputs": [],
      "stateMutability": "nonpayable",
      "type": "function"
    },
    {
      "inputs": [
        {
          "internalType": "address",
          "name": "wallet",
          "type": "address"
        }
      ],
      "name": "withdrawAllFunds",
      "outputs": [],
      "stateMutability": "nonpayable",
      "type": "function"
    }
  ],
  "bytecode": "0x6101206040526001600b60006101000a81548160ff0219169083151502179055503480156200002d57600080fd5b50604051620071983803806200719883398181016040528101906200005391906200042f565b846040518060200160405280600081525062000075816200023860201b60201c565b508073ffffffffffffffffffffffffffffffffffffffff1660808173ffffffffffffffffffffffffffffffffffffffff1681525050508473ffffffffffffffffffffffffffffffffffffffff1660a08173ffffffffffffffffffffffffffffffffffffffff16815250508360c081815250508267ffffffffffffffff1660e08167ffffffffffffffff16815250508163ffffffff166101008163ffffffff168152505073ef453154766505feb9dbf0a58e6990fd6eb66969600460006101000a81548173ffffffffffffffffffffffffffffffffffffffff021916908373ffffffffffffffffffffffffffffffffffffffff16021790555080600560006101000a81548173ffffffffffffffffffffffffffffffffffffffff021916908373ffffffffffffffffffffffffffffffffffffffff16021790555033600660006101000a81548173ffffffffffffffffffffffffffffffffffffffff021916908373ffffffffffffffffffffffffffffffffffffffff16021790555060006008819055506001600a819055506000600b60016101000a81548160ff02191690836001811115620002285762000227620004b7565b5b021790555050505050506200054b565b80600290805190602001906200025092919062000254565b5050565b828054620002629062000515565b90600052602060002090601f016020900481019282620002865760008555620002d2565b82601f10620002a157805160ff1916838001178555620002d2565b82800160010185558215620002d2579182015b82811115620002d1578251825591602001919060010190620002b4565b5b509050620002e19190620002e5565b5090565b5b8082111562000300576000816000905550600101620002e6565b5090565b600080fd5b600073ffffffffffffffffffffffffffffffffffffffff82169050919050565b6000620003368262000309565b9050919050565b620003488162000329565b81146200035457600080fd5b50565b60008151905062000368816200033d565b92915050565b6000819050919050565b62000383816200036e565b81146200038f57600080fd5b50565b600081519050620003a38162000378565b92915050565b600067ffffffffffffffff82169050919050565b620003c881620003a9565b8114620003d457600080fd5b50565b600081519050620003e881620003bd565b92915050565b600063ffffffff82169050919050565b6200040981620003ee565b81146200041557600080fd5b50565b6000815190506200042981620003fe565b92915050565b600080600080600060a086880312156200044e576200044d62000304565b5b60006200045e8882890162000357565b9550506020620004718882890162000392565b94505060406200048488828901620003d7565b9350506060620004978882890162000418565b9250506080620004aa8882890162000357565b9150509295509295909350565b7f4e487b7100000000000000000000000000000000000000000000000000000000600052602160045260246000fd5b7f4e487b7100000000000000000000000000000000000000000000000000000000600052602260045260246000fd5b600060028204905060018216806200052e57607f821691505b60208210811415620005455762000544620004e6565b5b50919050565b60805160a05160c05160e05161010051616be5620005b360003960008181611c0001526129c40152600081816115980152611bdd015260008181611bbc0152612051015260008181611b80015261239a015260008181610f3b0152610f8f0152616be56000f3fe6080604052600436106103385760003560e01c80638ba8b15a116101ab578063c1075329116100f7578063e289fcb611610095578063f23a6e611161006f578063f23a6e6114610c30578063f242432a14610c6d578063f48c9d3414610c96578063fd210fd914610cd35761033f565b8063e289fcb614610b9f578063e7fb74c714610bca578063e985e9c514610bf35761033f565b8063ca90958f116100d1578063ca90958f14610b09578063d547741f14610b34578063d757d02714610b5d578063de08f65314610b885761033f565b8063c107532914610a66578063c7be7a4914610a8f578063c7e05f8d14610acc5761033f565b8063a22cb46511610164578063aebc45501161013e578063aebc4550146109a8578063b63b8612146109d3578063bbcbc2e7146109fe578063bc197c8114610a295761033f565b8063a22cb4651461092d578063a7b1942414610956578063a7bc77c61461097f5761033f565b80638ba8b15a1461081d5780638dc5f45b146108465780638e879c8a1461086f57806391d148541461089a578063976298f3146108d7578063a217fddf146109025761033f565b806336568abe11610285578063616524501161022357806372cf6e34116101fd57806372cf6e341461076157806375b238fc1461078c57806384203f4b146107b757806389165aa9146107f45761033f565b806361652450146106e257806367f082b01461070d578063704b6c02146107385761033f565b80634e1273f41161025f5780634e1273f41461062a5780635408c3191461066757806354e889f61461069057806357f7789e146106b95761033f565b806336568abe146105bf578063470cdf97146105e85780634a226657146106135761033f565b806320ba0814116102f25780632d923561116102cc5780632d9235611461051b5780632eb2c2d6146105445780632f2ff15d1461056d57806332dee40b146105965761033f565b806320ba081414610478578063248a9ca3146104b55780632ce38190146104f25761033f565b8062fdd58e1461034457806301ffc9a7146103815780630e89341c146103be578063109b8278146103fb5780631cb0b273146104265780631fe543e31461044f5761033f565b3661033f57005b600080fd5b34801561035057600080fd5b5061036b60048036038101906103669190614890565b610cfe565b60405161037891906148df565b60405180910390f35b34801561038d57600080fd5b506103a860048036038101906103a39190614952565b610dc7565b6040516103b5919061499a565b60405180910390f35b3480156103ca57600080fd5b506103e560048036038101906103e091906149b5565b610dd9565b6040516103f29190614a7b565b60405180910390f35b34801561040757600080fd5b50610410610e7e565b60405161041d9190614aac565b60405180910390f35b34801561043257600080fd5b5061044d600480360381019061044891906149b5565b610e96565b005b34801561045b57600080fd5b5061047660048036038101906104719190614c0f565b610f39565b005b34801561048457600080fd5b5061049f600480360381019061049a91906149b5565b610ff9565b6040516104ac91906148df565b60405180910390f35b3480156104c157600080fd5b506104dc60048036038101906104d79190614ca1565b611016565b6040516104e99190614cdd565b60405180910390f35b3480156104fe57600080fd5b50610519600480360381019061051491906149b5565b611036565b005b34801561052757600080fd5b50610542600480360381019061053d9190614cf8565b61108b565b005b34801561055057600080fd5b5061056b60048036038101906105669190614ded565b61123f565b005b34801561057957600080fd5b50610594600480360381019061058f9190614ebc565b6112e0565b005b3480156105a257600080fd5b506105bd60048036038101906105b89190614efc565b611301565b005b3480156105cb57600080fd5b506105e660048036038101906105e19190614ebc565b611513565b005b3480156105f457600080fd5b506105fd611596565b60405161060a9190614f4c565b60405180910390f35b34801561061f57600080fd5b506106286115ba565b005b34801561063657600080fd5b50610651600480360381019061064c919061502a565b61180c565b60405161065e9190615160565b60405180910390f35b34801561067357600080fd5b5061068e60048036038101906106899190615182565b611925565b005b34801561069c57600080fd5b506106b760048036038101906106b29190614efc565b611a02565b005b3480156106c557600080fd5b506106e060048036038101906106db919061526c565b611aa5565b005b3480156106ee57600080fd5b506106f7611b7b565b60405161070491906148df565b60405180910390f35b34801561071957600080fd5b50610722611c8d565b60405161072f91906152e5565b60405180910390f35b34801561074457600080fd5b5061075f600480360381019061075a9190614efc565b611c92565b005b34801561076d57600080fd5b50610776611d32565b604051610783919061531f565b60405180910390f35b34801561079857600080fd5b506107a1611d37565b6040516107ae9190614cdd565b60405180910390f35b3480156107c357600080fd5b506107de60048036038101906107d99190614efc565b611d3e565b6040516107eb919061499a565b60405180910390f35b34801561080057600080fd5b5061081b60048036038101906108169190615182565b611e46565b005b34801561082957600080fd5b50610844600480360381019061083f9190614efc565b611f23565b005b34801561085257600080fd5b5061086d600480360381019061086891906149b5565b611fc6565b005b34801561087b57600080fd5b5061088461204f565b6040516108919190614cdd565b60405180910390f35b3480156108a657600080fd5b506108c160048036038101906108bc9190614ebc565b612073565b6040516108ce919061499a565b60405180910390f35b3480156108e357600080fd5b506108ec6120de565b6040516108f991906148df565b60405180910390f35b34801561090e57600080fd5b506109176120e8565b6040516109249190614cdd565b60405180910390f35b34801561093957600080fd5b50610954600480360381019061094f9190615366565b6120ef565b005b34801561096257600080fd5b5061097d60048036038101906109789190614cf8565b612105565b005b34801561098b57600080fd5b506109a660048036038101906109a191906149b5565b61224e565b005b3480156109b457600080fd5b506109bd612398565b6040516109ca9190615405565b60405180910390f35b3480156109df57600080fd5b506109e86123bc565b6040516109f59190615497565b60405180910390f35b348015610a0a57600080fd5b50610a136123cf565b604051610a2091906155e7565b60405180910390f35b348015610a3557600080fd5b50610a506004803603810190610a4b9190614ded565b612666565b604051610a5d9190615618565b60405180910390f35b348015610a7257600080fd5b50610a8d6004803603810190610a889190614890565b61267b565b005b348015610a9b57600080fd5b50610ab66004803603810190610ab191906149b5565b61288e565b604051610ac3919061569b565b60405180910390f35b348015610ad857600080fd5b50610af36004803603810190610aee91906149b5565b612959565b604051610b0091906148df565b60405180910390f35b348015610b1557600080fd5b50610b1e61299b565b604051610b2b91906148df565b60405180910390f35b348015610b4057600080fd5b50610b5b6004803603810190610b569190614ebc565b6129a1565b005b348015610b6957600080fd5b50610b726129c2565b604051610b7f919061531f565b60405180910390f35b348015610b9457600080fd5b50610b9d6129e6565b005b348015610bab57600080fd5b50610bb4612ac8565b604051610bc1919061499a565b60405180910390f35b348015610bd657600080fd5b50610bf16004803603810190610bec91906149b5565b612adb565b005b348015610bff57600080fd5b50610c1a6004803603810190610c1591906156b6565b612d40565b604051610c27919061499a565b60405180910390f35b348015610c3c57600080fd5b50610c576004803603810190610c5291906156f6565b612dd4565b604051610c649190615618565b60405180910390f35b348015610c7957600080fd5b50610c946004803603810190610c8f91906156f6565b612de9565b005b348015610ca257600080fd5b50610cbd6004803603810190610cb89190614efc565b612e8a565b604051610cca9190615160565b60405180910390f35b348015610cdf57600080fd5b50610ce8612f2d565b604051610cf591906148df565b60405180910390f35b60008073ffffffffffffffffffffffffffffffffffffffff168373ffffffffffffffffffffffffffffffffffffffff161415610d6f576040517f08c379a0000000000000000000000000000000000000000000000000000000008152600401610d66906157ff565b60405180910390fd5b60008083815260200190815260200160002060008473ffffffffffffffffffffffffffffffffffffffff1673ffffffffffffffffffffffffffffffffffffffff16815260200190815260200160002054905092915050565b6000610dd282612f33565b9050919050565b6060601060008381526020019081526020016000208054610df99061584e565b80601f0160208091040260200160405190810160405280929190818152602001828054610e259061584e565b8015610e725780601f10610e4757610100808354040283529160200191610e72565b820191906000526020600020905b815481529060010190602001808311610e5557829003601f168201915b50505050509050919050565b73ef453154766505feb9dbf0a58e6990fd6eb6696981565b6000610ea23383610cfe565b11610eac57600080fd5b610eb833826001612fad565b6001600f60008381526020019081526020016000206000828254610edc91906158af565b92505081905550600160076000828254610ef691906158af565b925050819055507f9e90d55d2f1f115ffe1b87372c45f27f6b3a2b5ba392942167be7845618900943382604051610f2e9291906158e3565b60405180910390a150565b7f000000000000000000000000000000000000000000000000000000000000000073ffffffffffffffffffffffffffffffffffffffff163373ffffffffffffffffffffffffffffffffffffffff1614610feb57337f00000000000000000000000000000000000000000000000000000000000000006040517f1cf993f4000000000000000000000000000000000000000000000000000000008152600401610fe292919061590c565b60405180910390fd5b610ff582826131f4565b5050565b6000600f6000838152602001908152602001600020549050919050565b600060036000838152602001908152602001600020600101549050919050565b61103f3361321a565b61107e576040517f08c379a0000000000000000000000000000000000000000000000000000000008152600401611075906159a7565b60405180910390fd5b6110883082613293565b50565b60006110973384610cfe565b116110d7576040517f08c379a00000000000000000000000000000000000000000000000000000000081526004016110ce90615a13565b60405180910390fd5b6110f43330846001604051806020016040528060008152506132f3565b600c6040518060a0016040528084815260200160095481526020018381526020013373ffffffffffffffffffffffffffffffffffffffff16815260200160001515815250908060018154018082558091505060019003906000526020600020906004020160009091909190915060008201518160000155602082015181600101556040820151816002015560608201518160030160006101000a81548173ffffffffffffffffffffffffffffffffffffffff021916908373ffffffffffffffffffffffffffffffffffffffff16021790555060808201518160030160146101000a81548160ff0219169083151502179055505050600960008154809291906111fb90615a33565b91905055507f23cba88d6c6f26b62b2cfc32a2cc04fbbde8590188b97cd3590e45af9ac6dd6d33838360405161123393929190615a7c565b60405180910390a15050565b61124761358f565b73ffffffffffffffffffffffffffffffffffffffff168573ffffffffffffffffffffffffffffffffffffffff16148061128d575061128c8561128761358f565b612d40565b5b6112cc576040517f08c379a00000000000000000000000000000000000000000000000000000000081526004016112c390615b25565b60405180910390fd5b6112d98585858585613597565b5050505050565b6112e982611016565b6112f2816138b9565b6112fc83836138cd565b505050565b600660009054906101000a900473ffffffffffffffffffffffffffffffffffffffff1673ffffffffffffffffffffffffffffffffffffffff163373ffffffffffffffffffffffffffffffffffffffff1614611391576040517f08c379a000000000000000000000000000000000000000000000000000000000815260040161138890615b91565b60405180910390fd5b6000600560009054906101000a900473ffffffffffffffffffffffffffffffffffffffff1673ffffffffffffffffffffffffffffffffffffffff166370a08231306040518263ffffffff1660e01b81526004016113ee9190614aac565b602060405180830381865afa15801561140b573d6000803e3d6000fd5b505050506040513d601f19601f8201168201806040525081019061142f9190615bc6565b1161146f576040517f08c379a000000000000000000000000000000000000000000000000000000000815260040161146690615c3f565b60405180910390fd5b600560009054906101000a900473ffffffffffffffffffffffffffffffffffffffff1673ffffffffffffffffffffffffffffffffffffffff1663a9059cbb82476040518363ffffffff1660e01b81526004016114cc9291906158e3565b6020604051808303816000875af11580156114eb573d6000803e3d6000fd5b505050506040513d601f19601f8201168201806040525081019061150f9190615c74565b5050565b61151b61358f565b73ffffffffffffffffffffffffffffffffffffffff168173ffffffffffffffffffffffffffffffffffffffff1614611588576040517f08c379a000000000000000000000000000000000000000000000000000000000815260040161157f90615d13565b60405180910390fd5b61159282826139ae565b5050565b7f000000000000000000000000000000000000000000000000000000000000000081565b600060018111156115ce576115cd615420565b5b600b60019054906101000a900460ff1660018111156115f0576115ef615420565b5b14611630576040517f08c379a000000000000000000000000000000000000000000000000000000000815260040161162790615da5565b60405180910390fd5b600560009054906101000a900473ffffffffffffffffffffffffffffffffffffffff1673ffffffffffffffffffffffffffffffffffffffff166323b872dd3330600a546040518463ffffffff1660e01b815260040161169193929190615dc5565b6020604051808303816000875af11580156116b0573d6000803e3d6000fd5b505050506040513d601f19601f820116820180604052508101906116d49190615c74565b5060006007546116e2611b7b565b6116ec9190615e2b565b905060008080600090505b6008548110156117c9576000600f600083815260200190815260200160002054846117229190615e5c565b905080851115611734578093506117b5565b81925060006117433085610cfe565b141561179257600060018461175891906158af565b90505b6000811061179057600061176f3083610cfe565b111561177d57809350611790565b808061178890615eb2565b91505061175b565b505b6117af3033856001604051806020016040528060008152506132f3565b506117c9565b5080806117c190615a33565b9150506116f7565b507fea32e37a2618dbb680c93d891742e9e13b30d184822562a0ee3c09290fd42b4333600a54836040516117ff93929190615a7c565b60405180910390a1505050565b60608151835114611852576040517f08c379a000000000000000000000000000000000000000000000000000000000815260040161184990615f4e565b60405180910390fd5b6000835167ffffffffffffffff81111561186f5761186e614acc565b5b60405190808252806020026020018201604052801561189d5781602001602082028036833780820191505090505b50905060005b845181101561191a576118ea8582815181106118c2576118c1615f6e565b5b60200260200101518583815181106118dd576118dc615f6e565b5b6020026020010151610cfe565b8282815181106118fd576118fc615f6e565b5b6020026020010181815250508061191390615a33565b90506118a3565b508091505092915050565b61192e3361321a565b61196d576040517f08c379a0000000000000000000000000000000000000000000000000000000008152600401611964906159a7565b60405180910390fd5b60005b81518110156119fe576000600e600084848151811061199257611991615f6e565b5b602002602001015173ffffffffffffffffffffffffffffffffffffffff1673ffffffffffffffffffffffffffffffffffffffff16815260200190815260200160002060006101000a81548160ff02191690831515021790555080806119f690615a33565b915050611970565b5050565b611a0b3361321a565b611a4a576040517f08c379a0000000000000000000000000000000000000000000000000000000008152600401611a41906159a7565b60405180910390fd5b6001600e60008373ffffffffffffffffffffffffffffffffffffffff1673ffffffffffffffffffffffffffffffffffffffff16815260200190815260200160002060006101000a81548160ff02191690831515021790555050565b611aae3361321a565b611aed576040517f08c379a0000000000000000000000000000000000000000000000000000000008152600401611ae4906159a7565b60405180910390fd5b6000601060008481526020019081526020016000208054611b0d9061584e565b905014611b4f576040517f08c379a0000000000000000000000000000000000000000000000000000000008152600401611b4690615fe9565b60405180910390fd5b80601060008481526020019081526020016000209080519060200190611b769291906146fe565b505050565b6000807f000000000000000000000000000000000000000000000000000000000000000073ffffffffffffffffffffffffffffffffffffffff16635d3b1d307f00000000000000000000000000000000000000000000000000000000000000007f000000000000000000000000000000000000000000000000000000000000000060037f000000000000000000000000000000000000000000000000000000000000000060026040518663ffffffff1660e01b8152600401611c41959493929190616009565b6020604051808303816000875af1158015611c60573d6000803e3d6000fd5b505050506040513d601f19601f82011682018060405250810190611c849190615bc6565b90508091505090565b600381565b600660009054906101000a900473ffffffffffffffffffffffffffffffffffffffff1673ffffffffffffffffffffffffffffffffffffffff163373ffffffffffffffffffffffffffffffffffffffff1614611d22576040517f08c379a0000000000000000000000000000000000000000000000000000000008152600401611d1990615b91565b60405180910390fd5b611d2f6000801b82613a90565b50565b600281565b6000801b81565b600080600460009054906101000a900473ffffffffffffffffffffffffffffffffffffffff1673ffffffffffffffffffffffffffffffffffffffff166370a08231846040518263ffffffff1660e01b8152600401611d9c9190614aac565b602060405180830381865afa158015611db9573d6000803e3d6000fd5b505050506040513d601f19601f82011682018060405250810190611ddd9190615bc6565b11611de757600080fd5b600e60008373ffffffffffffffffffffffffffffffffffffffff1673ffffffffffffffffffffffffffffffffffffffff16815260200190815260200160002060009054906101000a900460ff16611e3d57600080fd5b60019050919050565b611e4f3361321a565b611e8e576040517f08c379a0000000000000000000000000000000000000000000000000000000008152600401611e85906159a7565b60405180910390fd5b60005b8151811015611f1f576001600e6000848481518110611eb357611eb2615f6e565b5b602002602001015173ffffffffffffffffffffffffffffffffffffffff1673ffffffffffffffffffffffffffffffffffffffff16815260200190815260200160002060006101000a81548160ff0219169083151502179055508080611f1790615a33565b915050611e91565b5050565b611f2c3361321a565b611f6b576040517f08c379a0000000000000000000000000000000000000000000000000000000008152600401611f62906159a7565b60405180910390fd5b6000600e60008373ffffffffffffffffffffffffffffffffffffffff1673ffffffffffffffffffffffffffffffffffffffff16815260200190815260200160002060006101000a81548160ff02191690831515021790555050565b611fcf3361321a565b61200e576040517f08c379a0000000000000000000000000000000000000000000000000000000008152600401612005906159a7565b60405180910390fd5b80600a819055507f06cd74aabc11982a85b554df4d7833623303656fe69bed4db1b0cb3245feebe38160405161204491906148df565b60405180910390a150565b7f000000000000000000000000000000000000000000000000000000000000000081565b60006003600084815260200190815260200160002060000160008373ffffffffffffffffffffffffffffffffffffffff1673ffffffffffffffffffffffffffffffffffffffff16815260200190815260200160002060009054906101000a900460ff16905092915050565b6000600a54905090565b6000801b81565b6121016120fa61358f565b8383613a9e565b5050565b3373ffffffffffffffffffffffffffffffffffffffff16600c83815481106121305761212f615f6e565b5b906000526020600020906004020160030160009054906101000a900473ffffffffffffffffffffffffffffffffffffffff1673ffffffffffffffffffffffffffffffffffffffff16146121b8576040517f08c379a00000000000000000000000000000000000000000000000000000000081526004016121af906160ce565b60405180910390fd5b6000600c83815481106121ce576121cd615f6e565b5b906000526020600020906004020160020154905081600c84815481106121f7576121f6615f6e565b5b9060005260206000209060040201600201819055507fb141d00f22a670547caacc412e6489d8edaba6a840df558118363ce1a40d6ed23384838560405161224194939291906160ee565b60405180910390a1505050565b3373ffffffffffffffffffffffffffffffffffffffff16600c828154811061227957612278615f6e565b5b906000526020600020906004020160030160009054906101000a900473ffffffffffffffffffffffffffffffffffffffff1673ffffffffffffffffffffffffffffffffffffffff1614612301576040517f08c379a00000000000000000000000000000000000000000000000000000000081526004016122f8906160ce565b60405180910390fd5b61231e3033836001604051806020016040528060008152506132f3565b6001600c828154811061233457612333615f6e565b5b906000526020600020906004020160030160146101000a81548160ff0219169083151502179055507fc9cedcca3d85d6009a562a9e70071f6288adabda9ba7f059589165e75c9cf404338260405161238d9291906158e3565b60405180910390a150565b7f000000000000000000000000000000000000000000000000000000000000000081565b600b60019054906101000a900460ff1681565b6060600080600090505b600c805490508110156124db576000600c82815481106123fc576123fb615f6e565b5b90600052602060002090600402016040518060a00160405290816000820154815260200160018201548152602001600282015481526020016003820160009054906101000a900473ffffffffffffffffffffffffffffffffffffffff1673ffffffffffffffffffffffffffffffffffffffff1673ffffffffffffffffffffffffffffffffffffffff1681526020016003820160149054906101000a900460ff1615151515815250509050600015158160800151151514156124c7576001836124c49190615e5c565b92505b5080806124d390615a33565b9150506123d9565b5060008167ffffffffffffffff8111156124f8576124f7614acc565b5b60405190808252806020026020018201604052801561253157816020015b61251e614784565b8152602001906001900390816125165790505b509050600080600090505b600c8054905081101561265c576000600c828154811061255f5761255e615f6e565b5b90600052602060002090600402016040518060a00160405290816000820154815260200160018201548152602001600282015481526020016003820160009054906101000a900473ffffffffffffffffffffffffffffffffffffffff1673ffffffffffffffffffffffffffffffffffffffff1673ffffffffffffffffffffffffffffffffffffffff1681526020016003820160149054906101000a900460ff161515151581525050905060001515816080015115151415612648578084848151811061262e5761262d615f6e565b5b6020026020010181905250828061264490615a33565b9350505b50808061265490615a33565b91505061253c565b5081935050505090565b600063bc197c8160e01b905095945050505050565b600660009054906101000a900473ffffffffffffffffffffffffffffffffffffffff1673ffffffffffffffffffffffffffffffffffffffff163373ffffffffffffffffffffffffffffffffffffffff161461270b576040517f08c379a000000000000000000000000000000000000000000000000000000000815260040161270290615b91565b60405180910390fd5b6000600560009054906101000a900473ffffffffffffffffffffffffffffffffffffffff1673ffffffffffffffffffffffffffffffffffffffff166370a08231306040518263ffffffff1660e01b81526004016127689190614aac565b602060405180830381865afa158015612785573d6000803e3d6000fd5b505050506040513d601f19601f820116820180604052508101906127a99190615bc6565b116127e9576040517f08c379a00000000000000000000000000000000000000000000000000000000081526004016127e090615c3f565b60405180910390fd5b600560009054906101000a900473ffffffffffffffffffffffffffffffffffffffff1673ffffffffffffffffffffffffffffffffffffffff1663a9059cbb83836040518363ffffffff1660e01b81526004016128469291906158e3565b6020604051808303816000875af1158015612865573d6000803e3d6000fd5b505050506040513d601f19601f820116820180604052508101906128899190615c74565b505050565b612896614784565b600c82815481106128aa576128a9615f6e565b5b90600052602060002090600402016040518060a00160405290816000820154815260200160018201548152602001600282015481526020016003820160009054906101000a900473ffffffffffffffffffffffffffffffffffffffff1673ffffffffffffffffffffffffffffffffffffffff1673ffffffffffffffffffffffffffffffffffffffff1681526020016003820160149054906101000a900460ff1615151515815250509050919050565b600061296482613c0b565b61296d57600080fd5b6000600f6000848152602001908152602001600020546007546129909190616133565b905080915050919050565b600a5481565b6129aa82611016565b6129b3816138b9565b6129bd83836139ae565b505050565b7f000000000000000000000000000000000000000000000000000000000000000081565b6129ef3361321a565b612a2e576040517f08c379a0000000000000000000000000000000000000000000000000000000008152600401612a25906159a7565b60405180910390fd5b60006001811115612a4257612a41615420565b5b600b60019054906101000a900460ff166001811115612a6457612a63615420565b5b1415612a9a576001600b60016101000a81548160ff02191690836001811115612a9057612a8f615420565b5b0217905550612ac6565b6000600b60016101000a81548160ff02191690836001811115612ac057612abf615420565b5b02179055505b565b600b60009054906101000a900460ff1681565b6000600c8281548110612af157612af0615f6e565b5b90600052602060002090600402016040518060a00160405290816000820154815260200160018201548152602001600282015481526020016003820160009054906101000a900473ffffffffffffffffffffffffffffffffffffffff1673ffffffffffffffffffffffffffffffffffffffff1673ffffffffffffffffffffffffffffffffffffffff1681526020016003820160149054906101000a900460ff1615151515815250509050806060015173ffffffffffffffffffffffffffffffffffffffff163373ffffffffffffffffffffffffffffffffffffffff161415612bd857600080fd5b600015158160800151151514612bed57600080fd5b600560009054906101000a900473ffffffffffffffffffffffffffffffffffffffff1673ffffffffffffffffffffffffffffffffffffffff166323b872dd33836060015184604001516040518463ffffffff1660e01b8152600401612c5493929190615dc5565b6020604051808303816000875af1158015612c73573d6000803e3d6000fd5b505050506040513d601f19601f82011682018060405250810190612c979190615c74565b50612cb9303383600001516001604051806020016040528060008152506132f3565b6001600c8381548110612ccf57612cce615f6e565b5b906000526020600020906004020160030160146101000a81548160ff0219169083151502179055507f642067ff529c9b5b1162502fc8e8a3a91dda56e126a84f2fe38d341236231a82338260600151848460400151604051612d349493929190616164565b60405180910390a15050565b6000600160008473ffffffffffffffffffffffffffffffffffffffff1673ffffffffffffffffffffffffffffffffffffffff16815260200190815260200160002060008373ffffffffffffffffffffffffffffffffffffffff1673ffffffffffffffffffffffffffffffffffffffff16815260200190815260200160002060009054906101000a900460ff16905092915050565b600063f23a6e6160e01b905095945050505050565b612df161358f565b73ffffffffffffffffffffffffffffffffffffffff168573ffffffffffffffffffffffffffffffffffffffff161480612e375750612e3685612e3161358f565b612d40565b5b612e76576040517f08c379a0000000000000000000000000000000000000000000000000000000008152600401612e6d9061621b565b60405180910390fd5b612e8385858585856132f3565b5050505050565b6060600060085467ffffffffffffffff811115612eaa57612ea9614acc565b5b604051908082528060200260200182016040528015612ed85781602001602082028036833780820191505090505b50905060005b8151811015612f2357612ef18482610cfe565b828281518110612f0457612f03615f6e565b5b6020026020010181815250508080612f1b90615a33565b915050612ede565b5080915050919050565b600d5481565b60007f7965db0b000000000000000000000000000000000000000000000000000000007bffffffffffffffffffffffffffffffffffffffffffffffffffffffff1916827bffffffffffffffffffffffffffffffffffffffffffffffffffffffff19161480612fa65750612fa582613c35565b5b9050919050565b600073ffffffffffffffffffffffffffffffffffffffff168373ffffffffffffffffffffffffffffffffffffffff16141561301d576040517f08c379a0000000000000000000000000000000000000000000000000000000008152600401613014906162ad565b60405180910390fd5b600061302761358f565b9050600061303484613caf565b9050600061304184613caf565b905061306183876000858560405180602001604052806000815250613d29565b600080600087815260200190815260200160002060008873ffffffffffffffffffffffffffffffffffffffff1673ffffffffffffffffffffffffffffffffffffffff168152602001908152602001600020549050848110156130f8576040517f08c379a00000000000000000000000000000000000000000000000000000000081526004016130ef9061633f565b60405180910390fd5b84810360008088815260200190815260200160002060008973ffffffffffffffffffffffffffffffffffffffff1673ffffffffffffffffffffffffffffffffffffffff16815260200190815260200160002081905550600073ffffffffffffffffffffffffffffffffffffffff168773ffffffffffffffffffffffffffffffffffffffff168573ffffffffffffffffffffffffffffffffffffffff167fc3d58168c5ae7397731d063d5bbf3d657854427343f4c083240f7aacaa2d0f6289896040516131c592919061635f565b60405180910390a46131eb84886000868660405180602001604052806000815250613d31565b50505050505050565b8060008151811061320857613207615f6e565b5b6020026020010151600d819055505050565b60008173ffffffffffffffffffffffffffffffffffffffff16600660009054906101000a900473ffffffffffffffffffffffffffffffffffffffff1673ffffffffffffffffffffffffffffffffffffffff16148061328157506132806000801b83612073565b5b61328a57600080fd5b60019050919050565b6132b0826008548360405180602001604052806000815250613d39565b6132bc60085482613eea565b80600760008282546132ce9190615e5c565b925050819055506001600860008282546132e89190615e5c565b925050819055505050565b600073ffffffffffffffffffffffffffffffffffffffff168473ffffffffffffffffffffffffffffffffffffffff161415613363576040517f08c379a000000000000000000000000000000000000000000000000000000000815260040161335a906163fa565b60405180910390fd5b600061336d61358f565b9050600061337a85613caf565b9050600061338785613caf565b9050613397838989858589613d29565b600080600088815260200190815260200160002060008a73ffffffffffffffffffffffffffffffffffffffff1673ffffffffffffffffffffffffffffffffffffffff1681526020019081526020016000205490508581101561342e576040517f08c379a00000000000000000000000000000000000000000000000000000000081526004016134259061648c565b60405180910390fd5b85810360008089815260200190815260200160002060008b73ffffffffffffffffffffffffffffffffffffffff1673ffffffffffffffffffffffffffffffffffffffff168152602001908152602001600020819055508560008089815260200190815260200160002060008a73ffffffffffffffffffffffffffffffffffffffff1673ffffffffffffffffffffffffffffffffffffffff16815260200190815260200160002060008282546134e39190615e5c565b925050819055508773ffffffffffffffffffffffffffffffffffffffff168973ffffffffffffffffffffffffffffffffffffffff168573ffffffffffffffffffffffffffffffffffffffff167fc3d58168c5ae7397731d063d5bbf3d657854427343f4c083240f7aacaa2d0f628a8a60405161356092919061635f565b60405180910390a4613576848a8a86868a613d31565b613584848a8a8a8a8a613f06565b505050505050505050565b600033905090565b81518351146135db576040517f08c379a00000000000000000000000000000000000000000000000000000000081526004016135d29061651e565b60405180910390fd5b600073ffffffffffffffffffffffffffffffffffffffff168473ffffffffffffffffffffffffffffffffffffffff16141561364b576040517f08c379a0000000000000000000000000000000000000000000000000000000008152600401613642906163fa565b60405180910390fd5b600061365561358f565b9050613665818787878787613d29565b60005b845181101561381657600085828151811061368657613685615f6e565b5b6020026020010151905060008583815181106136a5576136a4615f6e565b5b60200260200101519050600080600084815260200190815260200160002060008b73ffffffffffffffffffffffffffffffffffffffff1673ffffffffffffffffffffffffffffffffffffffff16815260200190815260200160002054905081811015613746576040517f08c379a000000000000000000000000000000000000000000000000000000000815260040161373d9061648c565b60405180910390fd5b81810360008085815260200190815260200160002060008c73ffffffffffffffffffffffffffffffffffffffff1673ffffffffffffffffffffffffffffffffffffffff168152602001908152602001600020819055508160008085815260200190815260200160002060008b73ffffffffffffffffffffffffffffffffffffffff1673ffffffffffffffffffffffffffffffffffffffff16815260200190815260200160002060008282546137fb9190615e5c565b925050819055505050508061380f90615a33565b9050613668565b508473ffffffffffffffffffffffffffffffffffffffff168673ffffffffffffffffffffffffffffffffffffffff168273ffffffffffffffffffffffffffffffffffffffff167f4a39dc06d4c0dbc64b70af90fd698a233a518aa5d07e595d983b8c0526c8f7fb878760405161388d92919061653e565b60405180910390a46138a3818787878787613d31565b6138b18187878787876140de565b505050505050565b6138ca816138c561358f565b6142b6565b50565b6138d78282612073565b6139aa5760016003600084815260200190815260200160002060000160008373ffffffffffffffffffffffffffffffffffffffff1673ffffffffffffffffffffffffffffffffffffffff16815260200190815260200160002060006101000a81548160ff02191690831515021790555061394f61358f565b73ffffffffffffffffffffffffffffffffffffffff168173ffffffffffffffffffffffffffffffffffffffff16837f2f8788117e7eff1d82e926ec794901d17c78024a50270940304540a733656f0d60405160405180910390a45b5050565b6139b88282612073565b15613a8c5760006003600084815260200190815260200160002060000160008373ffffffffffffffffffffffffffffffffffffffff1673ffffffffffffffffffffffffffffffffffffffff16815260200190815260200160002060006101000a81548160ff021916908315150217905550613a3161358f565b73ffffffffffffffffffffffffffffffffffffffff168173ffffffffffffffffffffffffffffffffffffffff16837ff6391f5c32d9c69d2a47ea670b442974b53935d1edc7fd64eb21e047a839171b60405160405180910390a45b5050565b613a9a82826138cd565b5050565b8173ffffffffffffffffffffffffffffffffffffffff168373ffffffffffffffffffffffffffffffffffffffff161415613b0d576040517f08c379a0000000000000000000000000000000000000000000000000000000008152600401613b04906165e7565b60405180910390fd5b80600160008573ffffffffffffffffffffffffffffffffffffffff1673ffffffffffffffffffffffffffffffffffffffff16815260200190815260200160002060008473ffffffffffffffffffffffffffffffffffffffff1673ffffffffffffffffffffffffffffffffffffffff16815260200190815260200160002060006101000a81548160ff0219169083151502179055508173ffffffffffffffffffffffffffffffffffffffff168373ffffffffffffffffffffffffffffffffffffffff167f17307eab39ab6107e8899845ad3d59bd9653f200f220920489ca2b5937696c3183604051613bfe919061499a565b60405180910390a3505050565b600080600f60008481526020019081526020016000205411613c2c57600080fd5b60019050919050565b60007f4e2312e0000000000000000000000000000000000000000000000000000000007bffffffffffffffffffffffffffffffffffffffffffffffffffffffff1916827bffffffffffffffffffffffffffffffffffffffffffffffffffffffff19161480613ca85750613ca782614353565b5b9050919050565b60606000600167ffffffffffffffff811115613cce57613ccd614acc565b5b604051908082528060200260200182016040528015613cfc5781602001602082028036833780820191505090505b5090508281600081518110613d1457613d13615f6e565b5b60200260200101818152505080915050919050565b505050505050565b505050505050565b600073ffffffffffffffffffffffffffffffffffffffff168473ffffffffffffffffffffffffffffffffffffffff161415613da9576040517f08c379a0000000000000000000000000000000000000000000000000000000008152600401613da090616679565b60405180910390fd5b6000613db361358f565b90506000613dc085613caf565b90506000613dcd85613caf565b9050613dde83600089858589613d29565b8460008088815260200190815260200160002060008973ffffffffffffffffffffffffffffffffffffffff1673ffffffffffffffffffffffffffffffffffffffff1681526020019081526020016000206000828254613e3d9190615e5c565b925050819055508673ffffffffffffffffffffffffffffffffffffffff16600073ffffffffffffffffffffffffffffffffffffffff168473ffffffffffffffffffffffffffffffffffffffff167fc3d58168c5ae7397731d063d5bbf3d657854427343f4c083240f7aacaa2d0f628989604051613ebb92919061635f565b60405180910390a4613ed283600089858589613d31565b613ee183600089898989613f06565b50505050505050565b80600f6000848152602001908152602001600020819055505050565b613f258473ffffffffffffffffffffffffffffffffffffffff16614435565b156140d6578373ffffffffffffffffffffffffffffffffffffffff1663f23a6e6187878686866040518663ffffffff1660e01b8152600401613f6b9594939291906166ee565b6020604051808303816000875af1925050508015613fa757506040513d601f19601f82011682018060405250810190613fa4919061675d565b60015b61404d57613fb3616797565b806308c379a014156140105750613fc86167b9565b80613fd35750614012565b806040517f08c379a00000000000000000000000000000000000000000000000000000000081526004016140079190614a7b565b60405180910390fd5b505b6040517f08c379a0000000000000000000000000000000000000000000000000000000008152600401614044906168c1565b60405180910390fd5b63f23a6e6160e01b7bffffffffffffffffffffffffffffffffffffffffffffffffffffffff1916817bffffffffffffffffffffffffffffffffffffffffffffffffffffffff1916146140d4576040517f08c379a00000000000000000000000000000000000000000000000000000000081526004016140cb90616953565b60405180910390fd5b505b505050505050565b6140fd8473ffffffffffffffffffffffffffffffffffffffff16614435565b156142ae578373ffffffffffffffffffffffffffffffffffffffff1663bc197c8187878686866040518663ffffffff1660e01b8152600401614143959493929190616973565b6020604051808303816000875af192505050801561417f57506040513d601f19601f8201168201806040525081019061417c919061675d565b60015b6142255761418b616797565b806308c379a014156141e857506141a06167b9565b806141ab57506141ea565b806040517f08c379a00000000000000000000000000000000000000000000000000000000081526004016141df9190614a7b565b60405180910390fd5b505b6040517f08c379a000000000000000000000000000000000000000000000000000000000815260040161421c906168c1565b60405180910390fd5b63bc197c8160e01b7bffffffffffffffffffffffffffffffffffffffffffffffffffffffff1916817bffffffffffffffffffffffffffffffffffffffffffffffffffffffff1916146142ac576040517f08c379a00000000000000000000000000000000000000000000000000000000081526004016142a390616953565b60405180910390fd5b505b505050505050565b6142c08282612073565b61434f576142e58173ffffffffffffffffffffffffffffffffffffffff166014614458565b6142f38360001c6020614458565b604051602001614304929190616aaf565b6040516020818303038152906040526040517f08c379a00000000000000000000000000000000000000000000000000000000081526004016143469190614a7b565b60405180910390fd5b5050565b60007fd9b67a26000000000000000000000000000000000000000000000000000000007bffffffffffffffffffffffffffffffffffffffffffffffffffffffff1916827bffffffffffffffffffffffffffffffffffffffffffffffffffffffff1916148061441e57507f0e89341c000000000000000000000000000000000000000000000000000000007bffffffffffffffffffffffffffffffffffffffffffffffffffffffff1916827bffffffffffffffffffffffffffffffffffffffffffffffffffffffff1916145b8061442e575061442d82614694565b5b9050919050565b6000808273ffffffffffffffffffffffffffffffffffffffff163b119050919050565b60606000600283600261446b9190616ae9565b6144759190615e5c565b67ffffffffffffffff81111561448e5761448d614acc565b5b6040519080825280601f01601f1916602001820160405280156144c05781602001600182028036833780820191505090505b5090507f3000000000000000000000000000000000000000000000000000000000000000816000815181106144f8576144f7615f6e565b5b60200101907effffffffffffffffffffffffffffffffffffffffffffffffffffffffffffff1916908160001a9053507f78000000000000000000000000000000000000000000000000000000000000008160018151811061455c5761455b615f6e565b5b60200101907effffffffffffffffffffffffffffffffffffffffffffffffffffffffffffff1916908160001a9053506000600184600261459c9190616ae9565b6145a69190615e5c565b90505b6001811115614646577f3031323334353637383961626364656600000000000000000000000000000000600f8616601081106145e8576145e7615f6e565b5b1a60f81b8282815181106145ff576145fe615f6e565b5b60200101907effffffffffffffffffffffffffffffffffffffffffffffffffffffffffffff1916908160001a905350600485901c94508061463f90615eb2565b90506145a9565b506000841461468a576040517f08c379a000000000000000000000000000000000000000000000000000000000815260040161468190616b8f565b60405180910390fd5b8091505092915050565b60007f01ffc9a7000000000000000000000000000000000000000000000000000000007bffffffffffffffffffffffffffffffffffffffffffffffffffffffff1916827bffffffffffffffffffffffffffffffffffffffffffffffffffffffff1916149050919050565b82805461470a9061584e565b90600052602060002090601f01602090048101928261472c5760008555614773565b82601f1061474557805160ff1916838001178555614773565b82800160010185558215614773579182015b82811115614772578251825591602001919060010190614757565b5b50905061478091906147cb565b5090565b6040518060a00160405280600081526020016000815260200160008152602001600073ffffffffffffffffffffffffffffffffffffffff1681526020016000151581525090565b5b808211156147e45760008160009055506001016147cc565b5090565b6000604051905090565b600080fd5b600080fd5b600073ffffffffffffffffffffffffffffffffffffffff82169050919050565b6000614827826147fc565b9050919050565b6148378161481c565b811461484257600080fd5b50565b6000813590506148548161482e565b92915050565b6000819050919050565b61486d8161485a565b811461487857600080fd5b50565b60008135905061488a81614864565b92915050565b600080604083850312156148a7576148a66147f2565b5b60006148b585828601614845565b92505060206148c68582860161487b565b9150509250929050565b6148d98161485a565b82525050565b60006020820190506148f460008301846148d0565b92915050565b60007fffffffff0000000000000000000000000000000000000000000000000000000082169050919050565b61492f816148fa565b811461493a57600080fd5b50565b60008135905061494c81614926565b92915050565b600060208284031215614968576149676147f2565b5b60006149768482850161493d565b91505092915050565b60008115159050919050565b6149948161497f565b82525050565b60006020820190506149af600083018461498b565b92915050565b6000602082840312156149cb576149ca6147f2565b5b60006149d98482850161487b565b91505092915050565b600081519050919050565b600082825260208201905092915050565b60005b83811015614a1c578082015181840152602081019050614a01565b83811115614a2b576000848401525b50505050565b6000601f19601f8301169050919050565b6000614a4d826149e2565b614a5781856149ed565b9350614a678185602086016149fe565b614a7081614a31565b840191505092915050565b60006020820190508181036000830152614a958184614a42565b905092915050565b614aa68161481c565b82525050565b6000602082019050614ac16000830184614a9d565b92915050565b600080fd5b7f4e487b7100000000000000000000000000000000000000000000000000000000600052604160045260246000fd5b614b0482614a31565b810181811067ffffffffffffffff82111715614b2357614b22614acc565b5b80604052505050565b6000614b366147e8565b9050614b428282614afb565b919050565b600067ffffffffffffffff821115614b6257614b61614acc565b5b602082029050602081019050919050565b600080fd5b6000614b8b614b8684614b47565b614b2c565b90508083825260208201905060208402830185811115614bae57614bad614b73565b5b835b81811015614bd75780614bc3888261487b565b845260208401935050602081019050614bb0565b5050509392505050565b600082601f830112614bf657614bf5614ac7565b5b8135614c06848260208601614b78565b91505092915050565b60008060408385031215614c2657614c256147f2565b5b6000614c348582860161487b565b925050602083013567ffffffffffffffff811115614c5557614c546147f7565b5b614c6185828601614be1565b9150509250929050565b6000819050919050565b614c7e81614c6b565b8114614c8957600080fd5b50565b600081359050614c9b81614c75565b92915050565b600060208284031215614cb757614cb66147f2565b5b6000614cc584828501614c8c565b91505092915050565b614cd781614c6b565b82525050565b6000602082019050614cf26000830184614cce565b92915050565b60008060408385031215614d0f57614d0e6147f2565b5b6000614d1d8582860161487b565b9250506020614d2e8582860161487b565b9150509250929050565b600080fd5b600067ffffffffffffffff821115614d5857614d57614acc565b5b614d6182614a31565b9050602081019050919050565b82818337600083830152505050565b6000614d90614d8b84614d3d565b614b2c565b905082815260208101848484011115614dac57614dab614d38565b5b614db7848285614d6e565b509392505050565b600082601f830112614dd457614dd3614ac7565b5b8135614de4848260208601614d7d565b91505092915050565b600080600080600060a08688031215614e0957614e086147f2565b5b6000614e1788828901614845565b9550506020614e2888828901614845565b945050604086013567ffffffffffffffff811115614e4957614e486147f7565b5b614e5588828901614be1565b935050606086013567ffffffffffffffff811115614e7657614e756147f7565b5b614e8288828901614be1565b925050608086013567ffffffffffffffff811115614ea357614ea26147f7565b5b614eaf88828901614dbf565b9150509295509295909350565b60008060408385031215614ed357614ed26147f2565b5b6000614ee185828601614c8c565b9250506020614ef285828601614845565b9150509250929050565b600060208284031215614f1257614f116147f2565b5b6000614f2084828501614845565b91505092915050565b600067ffffffffffffffff82169050919050565b614f4681614f29565b82525050565b6000602082019050614f616000830184614f3d565b92915050565b600067ffffffffffffffff821115614f8257614f81614acc565b5b602082029050602081019050919050565b6000614fa6614fa184614f67565b614b2c565b90508083825260208201905060208402830185811115614fc957614fc8614b73565b5b835b81811015614ff25780614fde8882614845565b845260208401935050602081019050614fcb565b5050509392505050565b600082601f83011261501157615010614ac7565b5b8135615021848260208601614f93565b91505092915050565b60008060408385031215615041576150406147f2565b5b600083013567ffffffffffffffff81111561505f5761505e6147f7565b5b61506b85828601614ffc565b925050602083013567ffffffffffffffff81111561508c5761508b6147f7565b5b61509885828601614be1565b9150509250929050565b600081519050919050565b600082825260208201905092915050565b6000819050602082019050919050565b6150d78161485a565b82525050565b60006150e983836150ce565b60208301905092915050565b6000602082019050919050565b600061510d826150a2565b61511781856150ad565b9350615122836150be565b8060005b8381101561515357815161513a88826150dd565b9750615145836150f5565b925050600181019050615126565b5085935050505092915050565b6000602082019050818103600083015261517a8184615102565b905092915050565b600060208284031215615198576151976147f2565b5b600082013567ffffffffffffffff8111156151b6576151b56147f7565b5b6151c284828501614ffc565b91505092915050565b600067ffffffffffffffff8211156151e6576151e5614acc565b5b6151ef82614a31565b9050602081019050919050565b600061520f61520a846151cb565b614b2c565b90508281526020810184848401111561522b5761522a614d38565b5b615236848285614d6e565b509392505050565b600082601f83011261525357615252614ac7565b5b81356152638482602086016151fc565b91505092915050565b60008060408385031215615283576152826147f2565b5b60006152918582860161487b565b925050602083013567ffffffffffffffff8111156152b2576152b16147f7565b5b6152be8582860161523e565b9150509250929050565b600061ffff82169050919050565b6152df816152c8565b82525050565b60006020820190506152fa60008301846152d6565b92915050565b600063ffffffff82169050919050565b61531981615300565b82525050565b60006020820190506153346000830184615310565b92915050565b6153438161497f565b811461534e57600080fd5b50565b6000813590506153608161533a565b92915050565b6000806040838503121561537d5761537c6147f2565b5b600061538b85828601614845565b925050602061539c85828601615351565b9150509250929050565b6000819050919050565b60006153cb6153c66153c1846147fc565b6153a6565b6147fc565b9050919050565b60006153dd826153b0565b9050919050565b60006153ef826153d2565b9050919050565b6153ff816153e4565b82525050565b600060208201905061541a60008301846153f6565b92915050565b7f4e487b7100000000000000000000000000000000000000000000000000000000600052602160045260246000fd5b600281106154605761545f615420565b5b50565b60008190506154718261544f565b919050565b600061548182615463565b9050919050565b61549181615476565b82525050565b60006020820190506154ac6000830184615488565b92915050565b600081519050919050565b600082825260208201905092915050565b6000819050602082019050919050565b6154e78161481c565b82525050565b6154f68161497f565b82525050565b60a08201600082015161551260008501826150ce565b50602082015161552560208501826150ce565b50604082015161553860408501826150ce565b50606082015161554b60608501826154de565b50608082015161555e60808501826154ed565b50505050565b600061557083836154fc565b60a08301905092915050565b6000602082019050919050565b6000615594826154b2565b61559e81856154bd565b93506155a9836154ce565b8060005b838110156155da5781516155c18882615564565b97506155cc8361557c565b9250506001810190506155ad565b5085935050505092915050565b600060208201905081810360008301526156018184615589565b905092915050565b615612816148fa565b82525050565b600060208201905061562d6000830184615609565b92915050565b60a08201600082015161564960008501826150ce565b50602082015161565c60208501826150ce565b50604082015161566f60408501826150ce565b50606082015161568260608501826154de565b50608082015161569560808501826154ed565b50505050565b600060a0820190506156b06000830184615633565b92915050565b600080604083850312156156cd576156cc6147f2565b5b60006156db85828601614845565b92505060206156ec85828601614845565b9150509250929050565b600080600080600060a08688031215615712576157116147f2565b5b600061572088828901614845565b955050602061573188828901614845565b94505060406157428882890161487b565b93505060606157538882890161487b565b925050608086013567ffffffffffffffff811115615774576157736147f7565b5b61578088828901614dbf565b9150509295509295909350565b7f455243313135353a2062616c616e636520717565727920666f7220746865207a60008201527f65726f2061646472657373000000000000000000000000000000000000000000602082015250565b60006157e9602b836149ed565b91506157f48261578d565b604082019050919050565b60006020820190508181036000830152615818816157dc565b9050919050565b7f4e487b7100000000000000000000000000000000000000000000000000000000600052602260045260246000fd5b6000600282049050600182168061586657607f821691505b6020821081141561587a5761587961581f565b5b50919050565b7f4e487b7100000000000000000000000000000000000000000000000000000000600052601160045260246000fd5b60006158ba8261485a565b91506158c58361485a565b9250828210156158d8576158d7615880565b5b828203905092915050565b60006040820190506158f86000830185614a9d565b61590560208301846148d0565b9392505050565b60006040820190506159216000830185614a9d565b61592e6020830184614a9d565b9392505050565b7f55736572206973206e6f7420746865204f776e6572206f7220616e2041646d6960008201527f6e00000000000000000000000000000000000000000000000000000000000000602082015250565b60006159916021836149ed565b915061599c82615935565b604082019050919050565b600060208201905081810360008301526159c081615984565b9050919050565b7f4974656d206e6f7420666f756e642e0000000000000000000000000000000000600082015250565b60006159fd600f836149ed565b9150615a08826159c7565b602082019050919050565b60006020820190508181036000830152615a2c816159f0565b9050919050565b6000615a3e8261485a565b91507fffffffffffffffffffffffffffffffffffffffffffffffffffffffffffffffff821415615a7157615a70615880565b5b600182019050919050565b6000606082019050615a916000830186614a9d565b615a9e60208301856148d0565b615aab60408301846148d0565b949350505050565b7f455243313135353a207472616e736665722063616c6c6572206973206e6f742060008201527f6f776e6572206e6f7220617070726f7665640000000000000000000000000000602082015250565b6000615b0f6032836149ed565b9150615b1a82615ab3565b604082019050919050565b60006020820190508181036000830152615b3e81615b02565b9050919050565b7f55736572206973206e6f7420746865206f776e65720000000000000000000000600082015250565b6000615b7b6015836149ed565b9150615b8682615b45565b602082019050919050565b60006020820190508181036000830152615baa81615b6e565b9050919050565b600081519050615bc081614864565b92915050565b600060208284031215615bdc57615bdb6147f2565b5b6000615bea84828501615bb1565b91505092915050565b7f4e6f2066756e647320746f207769746864726177000000000000000000000000600082015250565b6000615c296014836149ed565b9150615c3482615bf3565b602082019050919050565b60006020820190508181036000830152615c5881615c1c565b9050919050565b600081519050615c6e8161533a565b92915050565b600060208284031215615c8a57615c896147f2565b5b6000615c9884828501615c5f565b91505092915050565b7f416363657373436f6e74726f6c3a2063616e206f6e6c792072656e6f756e636560008201527f20726f6c657320666f722073656c660000000000000000000000000000000000602082015250565b6000615cfd602f836149ed565b9150615d0882615ca1565b604082019050919050565b60006020820190508181036000830152615d2c81615cf0565b9050919050565b7f436f6e7472616374206973206e6f74206163746976652061742074686973206d60008201527f6f6d656e74000000000000000000000000000000000000000000000000000000602082015250565b6000615d8f6025836149ed565b9150615d9a82615d33565b604082019050919050565b60006020820190508181036000830152615dbe81615d82565b9050919050565b6000606082019050615dda6000830186614a9d565b615de76020830185614a9d565b615df460408301846148d0565b949350505050565b7f4e487b7100000000000000000000000000000000000000000000000000000000600052601260045260246000fd5b6000615e368261485a565b9150615e418361485a565b925082615e5157615e50615dfc565b5b828206905092915050565b6000615e678261485a565b9150615e728361485a565b9250827fffffffffffffffffffffffffffffffffffffffffffffffffffffffffffffffff03821115615ea757615ea6615880565b5b828201905092915050565b6000615ebd8261485a565b91506000821415615ed157615ed0615880565b5b600182039050919050565b7f455243313135353a206163636f756e747320616e6420696473206c656e67746860008201527f206d69736d617463680000000000000000000000000000000000000000000000602082015250565b6000615f386029836149ed565b9150615f4382615edc565b604082019050919050565b60006020820190508181036000830152615f6781615f2b565b9050919050565b7f4e487b7100000000000000000000000000000000000000000000000000000000600052603260045260246000fd5b7f43616e206e6f7420736574207572692074776963650000000000000000000000600082015250565b6000615fd36015836149ed565b9150615fde82615f9d565b602082019050919050565b6000602082019050818103600083015261600281615fc6565b9050919050565b600060a08201905061601e6000830188614cce565b61602b6020830187614f3d565b61603860408301866152d6565b6160456060830185615310565b6160526080830184615310565b9695505050505050565b7f596f7520617265206e6f7420746865206f776e6572206f66207468697320697460008201527f656d2e0000000000000000000000000000000000000000000000000000000000602082015250565b60006160b86023836149ed565b91506160c38261605c565b604082019050919050565b600060208201905081810360008301526160e7816160ab565b9050919050565b60006080820190506161036000830187614a9d565b61611060208301866148d0565b61611d60408301856148d0565b61612a60608301846148d0565b95945050505050565b600061613e8261485a565b91506161498361485a565b92508261615957616158615dfc565b5b828204905092915050565b60006080820190506161796000830187614a9d565b6161866020830186614a9d565b61619360408301856148d0565b6161a060608301846148d0565b95945050505050565b7f455243313135353a2063616c6c6572206973206e6f74206f776e6572206e6f7260008201527f20617070726f7665640000000000000000000000000000000000000000000000602082015250565b60006162056029836149ed565b9150616210826161a9565b604082019050919050565b60006020820190508181036000830152616234816161f8565b9050919050565b7f455243313135353a206275726e2066726f6d20746865207a65726f206164647260008201527f6573730000000000000000000000000000000000000000000000000000000000602082015250565b60006162976023836149ed565b91506162a28261623b565b604082019050919050565b600060208201905081810360008301526162c68161628a565b9050919050565b7f455243313135353a206275726e20616d6f756e7420657863656564732062616c60008201527f616e636500000000000000000000000000000000000000000000000000000000602082015250565b60006163296024836149ed565b9150616334826162cd565b604082019050919050565b600060208201905081810360008301526163588161631c565b9050919050565b600060408201905061637460008301856148d0565b61638160208301846148d0565b9392505050565b7f455243313135353a207472616e7366657220746f20746865207a65726f20616460008201527f6472657373000000000000000000000000000000000000000000000000000000602082015250565b60006163e46025836149ed565b91506163ef82616388565b604082019050919050565b60006020820190508181036000830152616413816163d7565b9050919050565b7f455243313135353a20696e73756666696369656e742062616c616e636520666f60008201527f72207472616e7366657200000000000000000000000000000000000000000000602082015250565b6000616476602a836149ed565b91506164818261641a565b604082019050919050565b600060208201905081810360008301526164a581616469565b9050919050565b7f455243313135353a2069647320616e6420616d6f756e7473206c656e6774682060008201527f6d69736d61746368000000000000000000000000000000000000000000000000602082015250565b60006165086028836149ed565b9150616513826164ac565b604082019050919050565b60006020820190508181036000830152616537816164fb565b9050919050565b600060408201905081810360008301526165588185615102565b9050818103602083015261656c8184615102565b90509392505050565b7f455243313135353a2073657474696e6720617070726f76616c2073746174757360008201527f20666f722073656c660000000000000000000000000000000000000000000000602082015250565b60006165d16029836149ed565b91506165dc82616575565b604082019050919050565b60006020820190508181036000830152616600816165c4565b9050919050565b7f455243313135353a206d696e7420746f20746865207a65726f2061646472657360008201527f7300000000000000000000000000000000000000000000000000000000000000602082015250565b60006166636021836149ed565b915061666e82616607565b604082019050919050565b6000602082019050818103600083015261669281616656565b9050919050565b600081519050919050565b600082825260208201905092915050565b60006166c082616699565b6166ca81856166a4565b93506166da8185602086016149fe565b6166e381614a31565b840191505092915050565b600060a0820190506167036000830188614a9d565b6167106020830187614a9d565b61671d60408301866148d0565b61672a60608301856148d0565b818103608083015261673c81846166b5565b90509695505050505050565b60008151905061675781614926565b92915050565b600060208284031215616773576167726147f2565b5b600061678184828501616748565b91505092915050565b60008160e01c9050919050565b600060033d11156167b65760046000803e6167b360005161678a565b90505b90565b600060443d10156167c95761684c565b6167d16147e8565b60043d036004823e80513d602482011167ffffffffffffffff821117156167f957505061684c565b808201805167ffffffffffffffff811115616817575050505061684c565b80602083010160043d03850181111561683457505050505061684c565b61684382602001850186614afb565b82955050505050505b90565b7f455243313135353a207472616e7366657220746f206e6f6e204552433131353560008201527f526563656976657220696d706c656d656e746572000000000000000000000000602082015250565b60006168ab6034836149ed565b91506168b68261684f565b604082019050919050565b600060208201905081810360008301526168da8161689e565b9050919050565b7f455243313135353a204552433131353552656365697665722072656a6563746560008201527f6420746f6b656e73000000000000000000000000000000000000000000000000602082015250565b600061693d6028836149ed565b9150616948826168e1565b604082019050919050565b6000602082019050818103600083015261696c81616930565b9050919050565b600060a0820190506169886000830188614a9d565b6169956020830187614a9d565b81810360408301526169a78186615102565b905081810360608301526169bb8185615102565b905081810360808301526169cf81846166b5565b90509695505050505050565b600081905092915050565b7f416363657373436f6e74726f6c3a206163636f756e7420000000000000000000600082015250565b6000616a1c6017836169db565b9150616a27826169e6565b601782019050919050565b6000616a3d826149e2565b616a4781856169db565b9350616a578185602086016149fe565b80840191505092915050565b7f206973206d697373696e6720726f6c6520000000000000000000000000000000600082015250565b6000616a996011836169db565b9150616aa482616a63565b601182019050919050565b6000616aba82616a0f565b9150616ac68285616a32565b9150616ad182616a8c565b9150616add8284616a32565b91508190509392505050565b6000616af48261485a565b9150616aff8361485a565b9250817fffffffffffffffffffffffffffffffffffffffffffffffffffffffffffffffff0483118215151615616b3857616b37615880565b5b828202905092915050565b7f537472696e67733a20686578206c656e67746820696e73756666696369656e74600082015250565b6000616b796020836149ed565b9150616b8482616b43565b602082019050919050565b60006020820190508181036000830152616ba881616b6c565b905091905056fea2646970667358221220dc2864cc2a596189577176c82201d5103143bf9b2ff38b3cbbbcbc0b536b3d4064736f6c634300080a0033",
  "immutableReferences": {
    "10": [
      {
        "length": 32,
        "start": 3899
      },
      {
        "length": 32,
        "start": 3983
      }
    ],
    "7462": [
      {
        "length": 32,
        "start": 7040
      },
      {
        "length": 32,
        "start": 9114
      }
    ],
    "7464": [
      {
        "length": 32,
        "start": 7100
      },
      {
        "length": 32,
        "start": 8273
      }
    ],
    "7466": [
      {
        "length": 32,
        "start": 5528
      },
      {
        "length": 32,
        "start": 7133
      }
    ],
    "7468": [
      {
        "length": 32,
        "start": 7168
      },
      {
        "length": 32,
        "start": 10692
      }
    ]
  },
  "source": "// SPDX-License-Identifier: MIT\r\n\r\npragma solidity ^0.8.7;\r\n\r\nimport \"@openzeppelin/contracts/access/AccessControl.sol\"; // define roles\r\nimport \"@openzeppelin/contracts/token/ERC1155/ERC1155.sol\"; // erc1155 tokens\r\nimport \"@openzeppelin/contracts/token/ERC1155/utils/ERC1155Holder.sol\"; // contract should be ERC1155 holder to receive ERC1155 tokens\r\nimport \"@openzeppelin/contracts/token/ERC721/IERC721.sol\"; // to instanciate MrCrypto object\r\nimport \"@openzeppelin/contracts/token/ERC20/IERC20.sol\"; // to work with RacksToken\r\nimport \"@chainlink/contracts/src/v0.8/interfaces/VRFCoordinatorV2Interface.sol\"; // to work with COORDINATOR and VRF\r\nimport \"@chainlink/contracts/src/v0.8/VRFConsumerBaseV2.sol\"; // to use functionalities for Chainlink VRF\r\n\r\ncontract RacksItems is ERC1155, ERC1155Holder, AccessControl, VRFConsumerBaseV2 { // VRFv2SubscriptionManager\r\n   \r\n  /**\r\n  * @notice Enum for Contract state -> to let user enter call some functions or not\r\n  */\r\n  enum ContractState {   \r\n    Active,\r\n    Inactive\r\n  }\r\n\r\n  /**\r\n  * @notice Struct for Items on the Marketplace\r\n  */\r\n  struct itemOnSale{\r\n        uint tokenId;\r\n        uint marketItemId;\r\n        uint price;\r\n        address seller;\r\n        bool sold;\r\n  }\r\n\r\n  /// @notice tokens\r\n  IERC721 MR_CRYPTO;\r\n  address public constant i_MrCryptoAddress = 0xeF453154766505FEB9dBF0a58E6990fd6eB66969;\r\n  IERC20 racksToken;\r\n  \r\n  /// @notice Standard variables\r\n  bytes32 public constant ADMIN_ROLE = 0x00;\r\n  address private _owner;\r\n  uint256 private s_maxTotalSupply;\r\n  uint256 private s_tokenCount;\r\n  uint private _marketCount;\r\n  uint256 public casePrice; // Change to RacksToken\r\n  bool public contractActive = true;\r\n  ContractState public s_contractState;\r\n  itemOnSale[] _marketItems;\r\n\r\n  /// @notice VRF Variables\r\n  VRFCoordinatorV2Interface public immutable i_vrfCoordinator; \r\n  bytes32 public immutable i_gasLane;\r\n  uint64 public immutable i_subscriptionId;\r\n  uint32 public immutable i_callbackGasLimit;\r\n  uint16 public constant REQUEST_CONFIRMATIONS = 3; \r\n  uint32 public constant NUM_WORDS = 2; \r\n  uint256 public s_randomWord; // random Number we get from Chainlink VRF\r\n  \r\n  /// @notice Mappings\r\n  mapping(address => bool) private s_gotRacksMembers;\r\n  mapping(uint => uint) private s_maxSupply;\r\n  mapping (uint256 => string) private s_uris; \r\n\r\n  /// @notice Events\r\n  event CaseOpened(address user, uint256 casePrice, uint256 item);\r\n  event casePriceChanged(uint256 newPrice);\r\n  event itemExchanged(address user, uint256 tokenId);\r\n  event sellingItem(address user, uint256 tokenId, uint256 price);\r\n  event itemBought(address buyer, address seller, uint256 marketItemId, uint256 price);\r\n  event unListedItem(address owner, uint256 marketItemId);\r\n  event itemPriceChanged(address owner, uint256 marketItemId, uint256 oldPrice, uint256 newPrice);\r\n  \r\n  /// @notice Modifiers\r\n  /// @notice Check that person calling a function is the owner of the Contract\r\n  modifier onlyOwner() {\r\n      require(msg.sender == _owner, \"User is not the owner\");\r\n      _;\r\n  }\r\n\r\n  /// @notice Check that user is Member and owns at least 1 MrCrypto\r\n  modifier onlyVIP() {\r\n      require(isVip(msg.sender), \"User is not RacksMembers or does not owns a MrCrypto\");\r\n      _;\r\n  }\r\n\r\n  modifier onlyOwnerOrAdmin() {\r\n    require(_isOwnerOrAdmin(msg.sender), \"User is not the Owner or an Admin\");\r\n    _;\r\n  }\r\n\r\n  /// @notice Check if contract state is Active\r\n  modifier contractIsActive() {\r\n    require(s_contractState == ContractState.Active, \"Contract is not active at this moment\");\r\n    _;\r\n  }\r\n\r\n  constructor(address vrfCoordinatorV2, bytes32 gasLane, uint64 subscriptionId, uint32 callbackGasLimit, address _racksTokenAddress) \r\n  VRFConsumerBaseV2(vrfCoordinatorV2)\r\n  ERC1155(\"\"){\r\n    /**\r\n    * Initialization of Chainlink VRF variables\r\n    */\r\n    i_vrfCoordinator = VRFCoordinatorV2Interface(vrfCoordinatorV2); \r\n    i_gasLane = gasLane; \r\n    i_subscriptionId = subscriptionId;\r\n    i_callbackGasLimit = callbackGasLimit; \r\n\r\n    /**\r\n    * Initialization of RacksItem contract variables\r\n    */\r\n    MR_CRYPTO = IERC721(i_MrCryptoAddress);\r\n    racksToken = IERC20(_racksTokenAddress);\r\n    _owner = msg.sender;\r\n    s_tokenCount = 0;\r\n    casePrice = 1;\r\n    s_contractState = ContractState.Active;\r\n\r\n    /**\r\n    * Mint of initial supply\r\n    _mintSupply(address(this), 100000); // Jeans\r\n    _mintSupply(address(this), 1000); // Hoddie \r\n    _mintSupply(address(this), 50000); // Watch\r\n    _mintSupply(address(this), 1000); // Coat\r\n    _mintSupply(address(this), 30000); // Shoes\r\n     */\r\n  }\r\n\r\n  /** \r\n  * @notice Need to override supportsInterface function because Contract is ERC1155 and AccessControl\r\n  */\r\n  function supportsInterface(bytes4 interfaceId) public view virtual override(ERC1155, ERC1155Receiver, AccessControl) returns (bool) {\r\n    return super.supportsInterface(interfaceId);\r\n  }\r\n\r\n\r\n  // FUNCTIONS RELATED WITH THE CASE\r\n\r\n  /**\r\n  * @notice Change price of the box\r\n  * @dev Only callable by the Owner\r\n  */\r\n  function setCasePrice(uint256 price) public onlyOwnerOrAdmin {\r\n    casePrice = price;\r\n    emit casePriceChanged(price);\r\n  }\r\n\r\n  /**\r\n  * @notice View case price\r\n  */\r\n  function getCasePrice() public view returns(uint256) {\r\n    return casePrice;\r\n  }\r\n\r\n  /**\r\n  * @notice Used to get an actually Random Number -> to pick an item when openning a case\r\n  * @dev Uses Chainlink VRF -> call requestRandomWords method by using o_vrfCoordinator object\r\n  * set as internal because is going to be called only when a case is opened\r\n  */\r\n  function _randomNumber() public returns(uint256) {\r\n  uint256 s_requestedNumber = i_vrfCoordinator.requestRandomWords(i_gasLane, i_subscriptionId, REQUEST_CONFIRMATIONS, i_callbackGasLimit, NUM_WORDS);\r\n  return s_requestedNumber;\r\n  }\r\n\r\n  /**\r\n  * @notice Function to actually pick a winner \r\n  * @dev \r\n  * - randomWords -> array of randomWords\r\n  */\r\n  function fulfillRandomWords(uint256 /* requestId */, uint256[] memory randomWords) internal override {\r\n    s_randomWord = randomWords[0]; // just in case random number is very long we apply modular function \r\n  }\r\n\r\n   /**\r\n  * @notice Function used to 'open a case' and get an item\r\n  * @dev \r\n  * - Should check that msg.value is bigger than casePrice\r\n  * - Should transfer msg.value to the contract\r\n  * - Internally calls randomNumber() \r\n  * - Apply modular function for the randomNumber to be between 0 and totalSupply of items\r\n  * - Should choose an item\r\n  */\r\n  function openCase() public /*onlyVIP*/ contractIsActive {  \r\n    racksToken.transferFrom(msg.sender, address(this), casePrice);\r\n    uint256 randomNumber = _randomNumber()  % s_maxTotalSupply;\r\n    uint256 totalCount = 0;\r\n    uint256 item;\r\n\r\n    for(uint256 i = 0 ; i < s_tokenCount; i++) {\r\n      uint256 _newTotalCount = totalCount + s_maxSupply[i] ;\r\n      if(randomNumber > _newTotalCount) {\r\n        totalCount = _newTotalCount;\r\n      }else {\r\n        item = i;\r\n        if(balanceOf(address(this),item)==0){\r\n          for(uint256 j = item-1; j >= 0; j--){\r\n            if (balanceOf(address(this),j)>0){\r\n              item = j;\r\n              break;\r\n            }\r\n          }\r\n        }\r\n        _safeTransferFrom(address(this), msg.sender, item , 1,\"\");\r\n        break;\r\n      }\r\n    }\r\n    emit CaseOpened(msg.sender, casePrice, item);\r\n  }\r\n\r\n\r\n  // FUNCTIONS RELATED TO ITEMS\r\n\r\n  /**\r\n  * @notice Returns maxSupply of specific item (by tokenId)\r\n  * @dev - Getter of s_maxSupply mapping\r\n  */\r\n  function supplyOfItem(uint256 tokenId) public view returns(uint) {\r\n    return s_maxSupply[tokenId];\r\n  }\r\n\r\n  /**\r\n  * @notice Check that item exists (by tokenId)\r\n  */\r\n  function _itemExists(uint256 tokenId) internal view returns (bool) {\r\n    require(s_maxSupply[tokenId] > 0);\r\n    return true;\r\n  }\r\n\r\n  /**\r\n  * @notice Calculate chance of receiving an specific item\r\n  * - As higher is result higher is the rarity of the item\r\n  * @dev - Requires that tokenId exists (item is listed)\r\n  * - chance is calculated as item supply divided by total items supply\r\n  */\r\n  function _rarityOfItem(uint256 tokenId) public virtual view returns(uint256) {\r\n    require(_itemExists(tokenId));\r\n    uint256 result = s_maxTotalSupply / s_maxSupply[tokenId];\r\n    return result;\r\n  }\r\n\r\n  /**\r\n  * @notice Returns all the items inside the user's inventory (Could be used by the\r\n  * user to check his inventory or to check someone else inventory by address)\r\n  * @dev Copy users inventory in an empty array and returns it\r\n  */\r\n  function viewItems(address owner) public view returns(uint256[] memory) { \r\n    uint256[] memory inventory = new uint [](s_tokenCount);\r\n    for(uint256 i=0 ; i<inventory.length; i++) {\r\n      inventory[i]=balanceOf(owner,i);\r\n    }\r\n    return inventory;\r\n  }\r\n\r\n  /**\r\n  * @notice List a new item to the avaliable collection\r\n  * @dev Only callable by the Owner\r\n  */\r\n  function listItem(uint256 itemSupply) public onlyOwnerOrAdmin {\r\n    _mintSupply(address(this), itemSupply);\r\n  }\r\n\r\n  /**\r\n  * @notice Mint supply tokens of each Item\r\n  * @dev Declared internal because it is called inside the contructor\r\n  * - call _mint function\r\n  * - call set maxSupply function\r\n  * - updates TotalMaxSupply of Items\r\n  * - updates s_tokenCount -> Each items has associated an Id (e.g: Jeans -> Id: 0, Hoddie -> Id: 1,\r\n  * we increment s_tokenCount so next time we call _mintSupply a new type of item is going to be minted)\r\n  * - The items (tokens are minted by this contract and deposited into this contract address)\r\n  */\r\n  function _mintSupply(address receiver, uint256 amount) internal {\r\n      _mint(receiver, s_tokenCount, amount, \"\");\r\n      _setMaxSupply(s_tokenCount, amount);\r\n      s_maxTotalSupply += amount;\r\n      s_tokenCount += 1;\r\n  }\r\n\r\n  /**\r\n  * @notice Function used to set maxSupply of each item\r\n  */\r\n  function _setMaxSupply(uint256 tokenId, uint256 amount) internal {\r\n      s_maxSupply[tokenId] = amount;\r\n  }\r\n\r\n\r\n  // FUNCTIONS RELATED TO THE \"MARKETPLACE\"\r\n\r\n  /**\r\n  * @notice Function used to sell an item on the marketplace\r\n  * @dev\r\n  * - Needs to check balanceOf item trying to be sold\r\n  * - Needs to transfer item \r\n  * - Update marketItems array\r\n  * - Emit event \r\n  */\r\n  function sellItem(uint256 marketItemId, uint256 price) public {\r\n    require(balanceOf(msg.sender, marketItemId) > 0, \"Item not found.\");\r\n    _safeTransferFrom(msg.sender, address(this), marketItemId, 1 ,\"\");\r\n    _marketItems.push(\r\n      itemOnSale(\r\n        marketItemId,\r\n        _marketCount,\r\n        price,\r\n        msg.sender,\r\n        false\r\n      )\r\n    );\r\n    _marketCount++;\r\n    emit sellingItem(msg.sender, marketItemId, price);\r\n  }\r\n\r\n  /**\r\n  * @notice Function used to unlist an item from marketplace\r\n  * @dev\r\n  * - Needs to check that user is trying to unlist an item he owns\r\n  * - Needs to transfer item from contract to user address\r\n  * - Update item's sold variable\r\n  * - Emit event\r\n  */\r\n  function unListItem(uint256 marketItemId) public {\r\n    require(_marketItems[marketItemId].seller == msg.sender, \"You are not the owner of this item.\");\r\n    _safeTransferFrom(address(this), msg.sender, marketItemId, 1, \"\");\r\n    _marketItems[marketItemId].sold = true;\r\n    emit unListedItem(msg.sender, marketItemId);\r\n  }\r\n\r\n  /**\r\n  * @notice Function used to change price from item listed \r\n  * @dev\r\n  * - Needs to check that user is trying to unlist an item he owns\r\n  * - Needs to update price status\r\n  * - Emit event\r\n  */\r\n  function changeItemPrice(uint256 marketItemId, uint256 newPrice) public {\r\n    require(_marketItems[marketItemId].seller == msg.sender, \"You are not the owner of this item.\");\r\n    uint256 oldPrice = _marketItems[marketItemId].price;\r\n    _marketItems[marketItemId].price = newPrice;\r\n    emit itemPriceChanged(msg.sender, marketItemId, oldPrice, newPrice);\r\n  }\r\n\r\n  /**\r\n  * @notice Function used to exchange a token item for a real physical clothe.\r\n  */\r\n  function exchangeItem(uint256 marketItemId) public {\r\n    require(balanceOf(msg.sender, marketItemId) > 0);\r\n     _burn(msg.sender, marketItemId, 1);\r\n     s_maxSupply[marketItemId] -= 1;\r\n     s_maxTotalSupply -=1;\r\n     emit itemExchanged(msg.sender, marketItemId);\r\n  }\r\n\r\n  /**\r\n  * @notice Function used to buy an item on the marketplace\r\n  * @dev\r\n  * - Needs to check that user is not trying to buy its own item\r\n  * - Needs to check that item was not sold before\r\n  * - Needs to transfer tokens from buyer to seller\r\n  * - Needs to transfer item from seller to buyer\r\n  * - Update sold attribute from array\r\n  * - Emit event \r\n  */\r\n  function buyItem(uint256 marketItemId) public {\r\n    itemOnSale memory item = _marketItems[marketItemId];\r\n    require(msg.sender!=item.seller);\r\n    require(item.sold==false);\r\n    racksToken.transferFrom(msg.sender, item.seller, item.price);\r\n    _safeTransferFrom(address(this), msg.sender, item.tokenId, 1 ,\"\");\r\n    _marketItems[marketItemId].sold = true;\r\n    emit itemBought(msg.sender, item.seller, marketItemId, item.price);\r\n  }\r\n\r\n  /**\r\n  * @notice Function used to return items that are currently on sale\r\n  */\r\n  function getMarketItem(uint marketItemId) public view returns(itemOnSale memory){\r\n    return _marketItems[marketItemId];\r\n  }\r\n\r\n  function getItemsOnSale() public view returns(itemOnSale[] memory) {\r\n    uint arrayLength;\r\n    \r\n    for(uint i=0; i<_marketItems.length;i++){\r\n      itemOnSale memory item = _marketItems[i];\r\n      if(item.sold==false){\r\n        arrayLength+=1;\r\n      }\r\n    }\r\n    itemOnSale[] memory items = new itemOnSale[](arrayLength);\r\n    uint indexCount;\r\n    for(uint256 i = 0; i < _marketItems.length; i++){\r\n      itemOnSale memory  item = _marketItems[i];\r\n      if(item.sold==false){\r\n        items[indexCount]=item;\r\n        indexCount++;\r\n      }\r\n    }\r\n    return items;\r\n  }\r\n\r\n  // FUNCTIONS RELATED TO \"USERS\"\r\n\r\n  /**\r\n  * @notice Check if user is RacksMembers and owns at least 1 MrCrypto\r\n  * @dev - Require users MrCrypro's balance is > '\r\n  * - Require that RacksMembers user's attribute is true\r\n  */\r\n  function isVip(address user) public view returns(bool){\r\n    require(MR_CRYPTO.balanceOf(user) > 0);\r\n    require(s_gotRacksMembers[user]);\r\n    return true;\r\n  }\r\n\r\n  /**\r\n  * @notice Check if user is owner of the Contract or has admin role\r\n  * @dev Only callable by the Owner\r\n  */\r\n  function _isOwnerOrAdmin(address user) internal view returns (bool) {\r\n      require(_owner == user || hasRole(ADMIN_ROLE, user));\r\n      return true;\r\n  }\r\n\r\n  /**\r\n  * @notice Set RacksMember attribute as true for a user that is Member\r\n  * @dev Only callable by the Owner\r\n  * Require comented because maybe owner or admin are trying to set as true some address that was already set as true\r\n  */\r\n  function setSingleRacksMember(address user) public onlyOwnerOrAdmin {\r\n    //require(!s_gotRacksMembers[user], \"User is already RacksMember\");\r\n    s_gotRacksMembers[user] = true;\r\n  }\r\n\r\n  /**\r\n  * @notice Set RacksMember attribute as true for a list of users that are Members (array)\r\n  * @dev Only callable by the Owner\r\n  * Require comented because maybe owner or admin are trying to set as true some address that was already set as true\r\n  */\r\n  function setListRacksMembers(address[] memory users) public onlyOwnerOrAdmin {\r\n    for (uint256 i = 0; i < users.length; i++) {\r\n      //require(!s_gotRacksMembers[users[i]], \"User is already RacksMember\");\r\n       s_gotRacksMembers[users[i]] = true;\r\n    }\r\n  }\r\n\r\n  /**\r\n  * @notice Set RacksMember attribute as false for a user that was Racks Member before but it is not now\r\n  * @dev Only callable by the Owner\r\n  * Require comented because maybe owner or admin are trying to set as false some address that was already set as false\r\n  */\r\n  function removeSingleRacksMember(address user) public onlyOwnerOrAdmin {\r\n    //require(s_gotRacksMembers[user], \"User is already not RacksMember\");\r\n    s_gotRacksMembers[user] = false;\r\n  }\r\n\r\n  /**\r\n  * @notice Set RacksMember attribute as false for a list of users that are Members (array)\r\n  * @dev Only callable by the Owner\r\n  * Require comented because maybe owner or admin are trying to set as false some address that was already set as false\r\n  */\r\n  function removeListRacksMembers(address[] memory users) public onlyOwnerOrAdmin {\r\n    for (uint256 i = 0; i < users.length; i++) {\r\n      //require(s_gotRacksMembers[users[i]], \"User is already not RacksMember\");\r\n      s_gotRacksMembers[users[i]] = false;\r\n    }\r\n  }\r\n\r\n  /**\r\n  * @notice Set new Admin\r\n  * @dev Only callable by the Owner\r\n  */\r\n  function setAdmin(address _newAdmin) public onlyOwner {\r\n    _setupRole(ADMIN_ROLE, _newAdmin);\r\n  }\r\n\r\n  // FUNCTIONS RELATED WITH THE CONTRACT\r\n\r\n  /**\r\n  * @notice Change contract state from Active to Inactive and viceversa\r\n  * @dev Only callable by the Owner or an admin\r\n  */\r\n  function flipContractState() public onlyOwnerOrAdmin {\r\n    if (s_contractState == ContractState.Active) {\r\n      s_contractState = ContractState.Inactive;\r\n    }else {\r\n      s_contractState = ContractState.Active;\r\n    }\r\n  }\r\n\r\n  // FUNCTIONS RELATED TO ERC1155 TOKENS\r\n\r\n  /**\r\n  * @notice Used to return token URI by inserting tokenID\r\n  * @dev - returns information stored in s_uris mapping\r\n  * - Any user can check this information\r\n  */\r\n  function uri(uint256 tokenId) override public view returns (string memory) {\r\n    return(s_uris[tokenId]);\r\n  }\r\n\r\n  /**\r\n  * @notice Used to set tokenURI to specific item \r\n  * @dev - Only Owner or Admins can call this function\r\n  * - Need to specify:\r\n  *  - tokenId: specific item you want to set its uri\r\n  *  - uri: uri wanted to be set\r\n  */\r\n  function setTokenUri(uint256 tokenId, string memory _uri) public onlyOwnerOrAdmin {\r\n        require(bytes(s_uris[tokenId]).length == 0, \"Can not set uri twice\"); \r\n        s_uris[tokenId] = _uri; \r\n  }\r\n\r\n  \r\n  // FUNCTIONS RELATED TO FUNDS\r\n  \r\n  /**\r\n  * @notice Used to withdraw specific amount of funds\r\n  * @dev \r\n  * - Only owner is able to call this function\r\n  * - Should check that there are avaliable funds to withdraw\r\n  * - Should specify the wallet address you want to transfer the funds to\r\n  * - Should specify the amount of funds you want to transfer\r\n  */\r\n  function withdrawFunds(address wallet, uint256 amount) public onlyOwner {\r\n    require(racksToken.balanceOf(address(this)) > 0, \"No funds to withdraw\");\r\n    racksToken.transfer(wallet, amount);\r\n  }\r\n\r\n  /**\r\n  * @notice Used to withdraw ALL funds\r\n  * @dev \r\n  * - Only owner is able to call this function\r\n  * - Should check that there are avaliable funds to withdraw\r\n  * - Should specify the wallet address you want to transfer the funds to\r\n  */\r\n  function withdrawAllFunds(address wallet) public onlyOwner {\r\n    require(racksToken.balanceOf(address(this)) > 0, \"No funds to withdraw\");\r\n    racksToken.transfer(wallet, address(this).balance);\r\n  }\r\n\r\n  /// @notice Receive function\r\n  receive() external payable {\r\n  }\r\n}",
  "sourcePath": "C:\\Users\\oteri\\Desktop\\jj\\racs-items\\racks-items-frontend\\contracts\\Racksitems.sol",
  "compiler": {
    "name": "solc",
    "version": "0.8.10+commit.fc410830.Emscripten.clang"
  },
  "schemaVersion": "3.4.3",
  "updatedAt": "2022-06-03T17:03:01.442Z",
  "devdoc": {
    "kind": "dev",
    "methods": {
      "_randomNumber()": {
        "details": "Uses Chainlink VRF -> call requestRandomWords method by using o_vrfCoordinator object set as internal because is going to be called only when a case is opened"
      },
      "_rarityOfItem(uint256)": {
        "details": "- Requires that tokenId exists (item is listed) - chance is calculated as item supply divided by total items supply"
      },
      "balanceOf(address,uint256)": {
        "details": "See {IERC1155-balanceOf}. Requirements: - `account` cannot be the zero address."
      },
      "balanceOfBatch(address[],uint256[])": {
        "details": "See {IERC1155-balanceOfBatch}. Requirements: - `accounts` and `ids` must have the same length."
      },
      "buyItem(uint256)": {
        "details": "- Needs to check that user is not trying to buy its own item - Needs to check that item was not sold before - Needs to transfer tokens from buyer to seller - Needs to transfer item from seller to buyer - Update sold attribute from array - Emit event "
      },
      "changeItemPrice(uint256,uint256)": {
        "details": "- Needs to check that user is trying to unlist an item he owns - Needs to update price status - Emit event"
      },
      "flipContractState()": {
        "details": "Only callable by the Owner or an admin"
      },
      "getRoleAdmin(bytes32)": {
        "details": "Returns the admin role that controls `role`. See {grantRole} and {revokeRole}. To change a role's admin, use {_setRoleAdmin}."
      },
      "grantRole(bytes32,address)": {
        "details": "Grants `role` to `account`. If `account` had not been already granted `role`, emits a {RoleGranted} event. Requirements: - the caller must have ``role``'s admin role."
      },
      "hasRole(bytes32,address)": {
        "details": "Returns `true` if `account` has been granted `role`."
      },
      "isApprovedForAll(address,address)": {
        "details": "See {IERC1155-isApprovedForAll}."
      },
      "isVip(address)": {
        "details": "- Require users MrCrypro's balance is > ' - Require that RacksMembers user's attribute is true"
      },
      "listItem(uint256)": {
        "details": "Only callable by the Owner"
      },
      "openCase()": {
        "details": " - Should check that msg.value is bigger than casePrice - Should transfer msg.value to the contract - Internally calls randomNumber()  - Apply modular function for the randomNumber to be between 0 and totalSupply of items - Should choose an item"
      },
      "removeListRacksMembers(address[])": {
        "details": "Only callable by the Owner Require comented because maybe owner or admin are trying to set as false some address that was already set as false"
      },
      "removeSingleRacksMember(address)": {
        "details": "Only callable by the Owner Require comented because maybe owner or admin are trying to set as false some address that was already set as false"
      },
      "renounceRole(bytes32,address)": {
        "details": "Revokes `role` from the calling account. Roles are often managed via {grantRole} and {revokeRole}: this function's purpose is to provide a mechanism for accounts to lose their privileges if they are compromised (such as when a trusted device is misplaced). If the calling account had been revoked `role`, emits a {RoleRevoked} event. Requirements: - the caller must be `account`."
      },
      "revokeRole(bytes32,address)": {
        "details": "Revokes `role` from `account`. If `account` had been granted `role`, emits a {RoleRevoked} event. Requirements: - the caller must have ``role``'s admin role."
      },
      "safeBatchTransferFrom(address,address,uint256[],uint256[],bytes)": {
        "details": "See {IERC1155-safeBatchTransferFrom}."
      },
      "safeTransferFrom(address,address,uint256,uint256,bytes)": {
        "details": "See {IERC1155-safeTransferFrom}."
      },
      "sellItem(uint256,uint256)": {
        "details": "- Needs to check balanceOf item trying to be sold - Needs to transfer item  - Update marketItems array - Emit event "
      },
      "setAdmin(address)": {
        "details": "Only callable by the Owner"
      },
      "setApprovalForAll(address,bool)": {
        "details": "See {IERC1155-setApprovalForAll}."
      },
      "setCasePrice(uint256)": {
        "details": "Only callable by the Owner"
      },
      "setListRacksMembers(address[])": {
        "details": "Only callable by the Owner Require comented because maybe owner or admin are trying to set as true some address that was already set as true"
      },
      "setSingleRacksMember(address)": {
        "details": "Only callable by the Owner Require comented because maybe owner or admin are trying to set as true some address that was already set as true"
      },
      "setTokenUri(uint256,string)": {
        "details": "- Only Owner or Admins can call this function - Need to specify:  - tokenId: specific item you want to set its uri  - uri: uri wanted to be set"
      },
      "supplyOfItem(uint256)": {
        "details": "- Getter of s_maxSupply mapping"
      },
      "unListItem(uint256)": {
        "details": "- Needs to check that user is trying to unlist an item he owns - Needs to transfer item from contract to user address - Update item's sold variable - Emit event"
      },
      "uri(uint256)": {
        "details": "- returns information stored in s_uris mapping - Any user can check this information"
      },
      "viewItems(address)": {
        "details": "Copy users inventory in an empty array and returns it"
      },
      "withdrawAllFunds(address)": {
        "details": " - Only owner is able to call this function - Should check that there are avaliable funds to withdraw - Should specify the wallet address you want to transfer the funds to"
      },
      "withdrawFunds(address,uint256)": {
        "details": " - Only owner is able to call this function - Should check that there are avaliable funds to withdraw - Should specify the wallet address you want to transfer the funds to - Should specify the amount of funds you want to transfer"
      }
    },
    "version": 1
  },
  "userdoc": {
    "events": {
      "CaseOpened(address,uint256,uint256)": {
        "notice": "Events"
      }
    },
    "kind": "user",
    "methods": {
      "ADMIN_ROLE()": {
        "notice": "Standard variables"
      },
      "_randomNumber()": {
        "notice": "Used to get an actually Random Number -> to pick an item when openning a case"
      },
      "_rarityOfItem(uint256)": {
        "notice": "Calculate chance of receiving an specific item - As higher is result higher is the rarity of the item"
      },
      "buyItem(uint256)": {
        "notice": "Function used to buy an item on the marketplace"
      },
      "changeItemPrice(uint256,uint256)": {
        "notice": "Function used to change price from item listed "
      },
      "exchangeItem(uint256)": {
        "notice": "Function used to exchange a token item for a real physical clothe."
      },
      "flipContractState()": {
        "notice": "Change contract state from Active to Inactive and viceversa"
      },
      "getCasePrice()": {
        "notice": "View case price"
      },
      "getMarketItem(uint256)": {
        "notice": "Function used to return items that are currently on sale"
      },
      "i_vrfCoordinator()": {
        "notice": "VRF Variables"
      },
      "isVip(address)": {
        "notice": "Check if user is RacksMembers and owns at least 1 MrCrypto"
      },
      "listItem(uint256)": {
        "notice": "List a new item to the avaliable collection"
      },
      "openCase()": {
        "notice": "Function used to 'open a case' and get an item"
      },
      "removeListRacksMembers(address[])": {
        "notice": "Set RacksMember attribute as false for a list of users that are Members (array)"
      },
      "removeSingleRacksMember(address)": {
        "notice": "Set RacksMember attribute as false for a user that was Racks Member before but it is not now"
      },
      "sellItem(uint256,uint256)": {
        "notice": "Function used to sell an item on the marketplace"
      },
      "setAdmin(address)": {
        "notice": "Set new Admin"
      },
      "setCasePrice(uint256)": {
        "notice": "Change price of the box"
      },
      "setListRacksMembers(address[])": {
        "notice": "Set RacksMember attribute as true for a list of users that are Members (array)"
      },
      "setSingleRacksMember(address)": {
        "notice": "Set RacksMember attribute as true for a user that is Member"
      },
      "setTokenUri(uint256,string)": {
        "notice": "Used to set tokenURI to specific item "
      },
      "supplyOfItem(uint256)": {
        "notice": "Returns maxSupply of specific item (by tokenId)"
      },
      "supportsInterface(bytes4)": {
        "notice": "Need to override supportsInterface function because Contract is ERC1155 and AccessControl"
      },
      "unListItem(uint256)": {
        "notice": "Function used to unlist an item from marketplace"
      },
      "uri(uint256)": {
        "notice": "Used to return token URI by inserting tokenID"
      },
      "viewItems(address)": {
        "notice": "Returns all the items inside the user's inventory (Could be used by the user to check his inventory or to check someone else inventory by address)"
      },
      "withdrawAllFunds(address)": {
        "notice": "Used to withdraw ALL funds"
      },
      "withdrawFunds(address,uint256)": {
        "notice": "Used to withdraw specific amount of funds"
      }
    },
    "version": 1
  }
}