{
  "_format": "hh-sol-artifact-1",
  "contractName": "RacksItemsv3",
  "sourceName": "contracts/RacksItems.sol",
  "abi": [
    {
      "inputs": [
        {
          "internalType": "address",
          "name": "_racksTokenAddress",
          "type": "address"
        },
        {
          "internalType": "address",
          "name": "_MockMrCryptoAddress",
          "type": "address"
        }
      ],
      "stateMutability": "nonpayable",
      "type": "constructor"
    },
    {
      "anonymous": false,
      "inputs": [
        {
          "indexed": true,
          "internalType": "address",
          "name": "account",
          "type": "address"
        },
        {
          "indexed": true,
          "internalType": "address",
          "name": "operator",
          "type": "address"
        },
        {
          "indexed": false,
          "internalType": "bool",
          "name": "approved",
          "type": "bool"
        }
      ],
      "name": "ApprovalForAll",
      "type": "event"
    },
    {
      "anonymous": false,
      "inputs": [
        {
          "indexed": false,
          "internalType": "address",
          "name": "user",
          "type": "address"
        },
        {
          "indexed": false,
          "internalType": "uint256",
          "name": "casePrice",
          "type": "uint256"
        },
        {
          "indexed": false,
          "internalType": "uint256",
          "name": "item",
          "type": "uint256"
        }
      ],
      "name": "CaseOpened",
      "type": "event"
    },
    {
      "anonymous": false,
      "inputs": [
        {
          "indexed": true,
          "internalType": "bytes32",
          "name": "role",
          "type": "bytes32"
        },
        {
          "indexed": true,
          "internalType": "bytes32",
          "name": "previousAdminRole",
          "type": "bytes32"
        },
        {
          "indexed": true,
          "internalType": "bytes32",
          "name": "newAdminRole",
          "type": "bytes32"
        }
      ],
      "name": "RoleAdminChanged",
      "type": "event"
    },
    {
      "anonymous": false,
      "inputs": [
        {
          "indexed": true,
          "internalType": "bytes32",
          "name": "role",
          "type": "bytes32"
        },
        {
          "indexed": true,
          "internalType": "address",
          "name": "account",
          "type": "address"
        },
        {
          "indexed": true,
          "internalType": "address",
          "name": "sender",
          "type": "address"
        }
      ],
      "name": "RoleGranted",
      "type": "event"
    },
    {
      "anonymous": false,
      "inputs": [
        {
          "indexed": true,
          "internalType": "bytes32",
          "name": "role",
          "type": "bytes32"
        },
        {
          "indexed": true,
          "internalType": "address",
          "name": "account",
          "type": "address"
        },
        {
          "indexed": true,
          "internalType": "address",
          "name": "sender",
          "type": "address"
        }
      ],
      "name": "RoleRevoked",
      "type": "event"
    },
    {
      "anonymous": false,
      "inputs": [
        {
          "indexed": true,
          "internalType": "address",
          "name": "operator",
          "type": "address"
        },
        {
          "indexed": true,
          "internalType": "address",
          "name": "from",
          "type": "address"
        },
        {
          "indexed": true,
          "internalType": "address",
          "name": "to",
          "type": "address"
        },
        {
          "indexed": false,
          "internalType": "uint256[]",
          "name": "ids",
          "type": "uint256[]"
        },
        {
          "indexed": false,
          "internalType": "uint256[]",
          "name": "values",
          "type": "uint256[]"
        }
      ],
      "name": "TransferBatch",
      "type": "event"
    },
    {
      "anonymous": false,
      "inputs": [
        {
          "indexed": true,
          "internalType": "address",
          "name": "operator",
          "type": "address"
        },
        {
          "indexed": true,
          "internalType": "address",
          "name": "from",
          "type": "address"
        },
        {
          "indexed": true,
          "internalType": "address",
          "name": "to",
          "type": "address"
        },
        {
          "indexed": false,
          "internalType": "uint256",
          "name": "id",
          "type": "uint256"
        },
        {
          "indexed": false,
          "internalType": "uint256",
          "name": "value",
          "type": "uint256"
        }
      ],
      "name": "TransferSingle",
      "type": "event"
    },
    {
      "anonymous": false,
      "inputs": [
        {
          "indexed": false,
          "internalType": "string",
          "name": "value",
          "type": "string"
        },
        {
          "indexed": true,
          "internalType": "uint256",
          "name": "id",
          "type": "uint256"
        }
      ],
      "name": "URI",
      "type": "event"
    },
    {
      "anonymous": false,
      "inputs": [
        {
          "indexed": false,
          "internalType": "uint256",
          "name": "newPrice",
          "type": "uint256"
        }
      ],
      "name": "casePriceChanged",
      "type": "event"
    },
    {
      "anonymous": false,
      "inputs": [
        {
          "indexed": false,
          "internalType": "address",
          "name": "buyer",
          "type": "address"
        },
        {
          "indexed": false,
          "internalType": "address",
          "name": "seller",
          "type": "address"
        },
        {
          "indexed": false,
          "internalType": "uint256",
          "name": "marketItemId",
          "type": "uint256"
        },
        {
          "indexed": false,
          "internalType": "uint256",
          "name": "price",
          "type": "uint256"
        }
      ],
      "name": "itemBought",
      "type": "event"
    },
    {
      "anonymous": false,
      "inputs": [
        {
          "indexed": false,
          "internalType": "address",
          "name": "user",
          "type": "address"
        },
        {
          "indexed": false,
          "internalType": "uint256",
          "name": "tokenId",
          "type": "uint256"
        }
      ],
      "name": "itemExchanged",
      "type": "event"
    },
    {
      "anonymous": false,
      "inputs": [
        {
          "indexed": false,
          "internalType": "address",
          "name": "owner",
          "type": "address"
        },
        {
          "indexed": false,
          "internalType": "uint256",
          "name": "marketItemId",
          "type": "uint256"
        },
        {
          "indexed": false,
          "internalType": "uint256",
          "name": "oldPrice",
          "type": "uint256"
        },
        {
          "indexed": false,
          "internalType": "uint256",
          "name": "newPrice",
          "type": "uint256"
        }
      ],
      "name": "itemPriceChanged",
      "type": "event"
    },
    {
      "anonymous": false,
      "inputs": [
        {
          "indexed": false,
          "internalType": "address",
          "name": "seller",
          "type": "address"
        },
        {
          "indexed": false,
          "internalType": "uint256",
          "name": "numTries",
          "type": "uint256"
        },
        {
          "indexed": false,
          "internalType": "uint256",
          "name": "_hours",
          "type": "uint256"
        },
        {
          "indexed": false,
          "internalType": "uint256",
          "name": "price",
          "type": "uint256"
        }
      ],
      "name": "newTicketOnSale",
      "type": "event"
    },
    {
      "anonymous": false,
      "inputs": [
        {
          "indexed": false,
          "internalType": "address",
          "name": "user",
          "type": "address"
        },
        {
          "indexed": false,
          "internalType": "uint256",
          "name": "tokenId",
          "type": "uint256"
        },
        {
          "indexed": false,
          "internalType": "uint256",
          "name": "price",
          "type": "uint256"
        }
      ],
      "name": "sellingItem",
      "type": "event"
    },
    {
      "anonymous": false,
      "inputs": [
        {
          "indexed": false,
          "internalType": "uint256",
          "name": "ticketId",
          "type": "uint256"
        },
        {
          "indexed": false,
          "internalType": "address",
          "name": "oldOwner",
          "type": "address"
        },
        {
          "indexed": false,
          "internalType": "address",
          "name": "newOwner",
          "type": "address"
        },
        {
          "indexed": false,
          "internalType": "uint256",
          "name": "price",
          "type": "uint256"
        }
      ],
      "name": "ticketBought",
      "type": "event"
    },
    {
      "anonymous": false,
      "inputs": [
        {
          "indexed": false,
          "internalType": "address",
          "name": "realOwner",
          "type": "address"
        }
      ],
      "name": "ticketClaimedBack",
      "type": "event"
    },
    {
      "anonymous": false,
      "inputs": [
        {
          "indexed": false,
          "internalType": "address",
          "name": "owner",
          "type": "address"
        },
        {
          "indexed": false,
          "internalType": "uint256",
          "name": "newTries",
          "type": "uint256"
        },
        {
          "indexed": false,
          "internalType": "uint256",
          "name": "newHours",
          "type": "uint256"
        },
        {
          "indexed": false,
          "internalType": "uint256",
          "name": "newPrice",
          "type": "uint256"
        }
      ],
      "name": "ticketConditionsChanged",
      "type": "event"
    },
    {
      "anonymous": false,
      "inputs": [
        {
          "indexed": false,
          "internalType": "address",
          "name": "owner",
          "type": "address"
        }
      ],
      "name": "unListTicketOnSale",
      "type": "event"
    },
    {
      "anonymous": false,
      "inputs": [
        {
          "indexed": false,
          "internalType": "address",
          "name": "owner",
          "type": "address"
        },
        {
          "indexed": false,
          "internalType": "uint256",
          "name": "marketItemId",
          "type": "uint256"
        }
      ],
      "name": "unListedItem",
      "type": "event"
    },
    {
      "inputs": [],
      "name": "ADMIN_ROLE",
      "outputs": [
        {
          "internalType": "bytes32",
          "name": "",
          "type": "bytes32"
        }
      ],
      "stateMutability": "view",
      "type": "function"
    },
    {
      "inputs": [],
      "name": "DEFAULT_ADMIN_ROLE",
      "outputs": [
        {
          "internalType": "bytes32",
          "name": "",
          "type": "bytes32"
        }
      ],
      "stateMutability": "view",
      "type": "function"
    },
    {
      "inputs": [
        {
          "internalType": "address",
          "name": "spender",
          "type": "address"
        },
        {
          "internalType": "bool",
          "name": "permission",
          "type": "bool"
        }
      ],
      "name": "approveForTickets",
      "outputs": [],
      "stateMutability": "nonpayable",
      "type": "function"
    },
    {
      "inputs": [
        {
          "internalType": "address",
          "name": "account",
          "type": "address"
        },
        {
          "internalType": "uint256",
          "name": "id",
          "type": "uint256"
        }
      ],
      "name": "balanceOf",
      "outputs": [
        {
          "internalType": "uint256",
          "name": "",
          "type": "uint256"
        }
      ],
      "stateMutability": "view",
      "type": "function"
    },
    {
      "inputs": [
        {
          "internalType": "address[]",
          "name": "accounts",
          "type": "address[]"
        },
        {
          "internalType": "uint256[]",
          "name": "ids",
          "type": "uint256[]"
        }
      ],
      "name": "balanceOfBatch",
      "outputs": [
        {
          "internalType": "uint256[]",
          "name": "",
          "type": "uint256[]"
        }
      ],
      "stateMutability": "view",
      "type": "function"
    },
    {
      "inputs": [
        {
          "internalType": "uint256",
          "name": "marketItemId",
          "type": "uint256"
        }
      ],
      "name": "buyItem",
      "outputs": [],
      "stateMutability": "nonpayable",
      "type": "function"
    },
    {
      "inputs": [
        {
          "internalType": "uint256",
          "name": "ticketId",
          "type": "uint256"
        }
      ],
      "name": "buyTicket",
      "outputs": [],
      "stateMutability": "nonpayable",
      "type": "function"
    },
    {
      "inputs": [],
      "name": "caseLiquidity",
      "outputs": [
        {
          "internalType": "uint256[]",
          "name": "",
          "type": "uint256[]"
        }
      ],
      "stateMutability": "view",
      "type": "function"
    },
    {
      "inputs": [
        {
          "internalType": "uint256",
          "name": "marketItemId",
          "type": "uint256"
        },
        {
          "internalType": "uint256",
          "name": "newPrice",
          "type": "uint256"
        }
      ],
      "name": "changeItemPrice",
      "outputs": [],
      "stateMutability": "nonpayable",
      "type": "function"
    },
    {
      "inputs": [
        {
          "internalType": "address",
          "name": "from",
          "type": "address"
        },
        {
          "internalType": "uint256",
          "name": "newTries",
          "type": "uint256"
        },
        {
          "internalType": "uint256",
          "name": "newHours",
          "type": "uint256"
        },
        {
          "internalType": "uint256",
          "name": "newPrice",
          "type": "uint256"
        }
      ],
      "name": "changeTicketConditionsFrom",
      "outputs": [],
      "stateMutability": "nonpayable",
      "type": "function"
    },
    {
      "inputs": [
        {
          "internalType": "address",
          "name": "from",
          "type": "address"
        }
      ],
      "name": "claimTicketBackFrom",
      "outputs": [],
      "stateMutability": "nonpayable",
      "type": "function"
    },
    {
      "inputs": [
        {
          "internalType": "uint256",
          "name": "tokenId",
          "type": "uint256"
        }
      ],
      "name": "exchangeItem",
      "outputs": [],
      "stateMutability": "nonpayable",
      "type": "function"
    },
    {
      "inputs": [],
      "name": "flipContractState",
      "outputs": [],
      "stateMutability": "nonpayable",
      "type": "function"
    },
    {
      "inputs": [
        {
          "internalType": "address",
          "name": "_user",
          "type": "address"
        },
        {
          "internalType": "uint256",
          "name": "_randomNumber",
          "type": "uint256"
        }
      ],
      "name": "fulfillCaseRequest",
      "outputs": [],
      "stateMutability": "nonpayable",
      "type": "function"
    },
    {
      "inputs": [],
      "name": "getCasePrice",
      "outputs": [
        {
          "internalType": "uint256",
          "name": "",
          "type": "uint256"
        }
      ],
      "stateMutability": "view",
      "type": "function"
    },
    {
      "inputs": [],
      "name": "getContractState",
      "outputs": [
        {
          "internalType": "enum RacksItemsv3.ContractState",
          "name": "",
          "type": "uint8"
        }
      ],
      "stateMutability": "view",
      "type": "function"
    },
    {
      "inputs": [],
      "name": "getItemsOnSale",
      "outputs": [
        {
          "components": [
            {
              "internalType": "uint256",
              "name": "tokenId",
              "type": "uint256"
            },
            {
              "internalType": "uint256",
              "name": "marketItemId",
              "type": "uint256"
            },
            {
              "internalType": "uint256",
              "name": "price",
              "type": "uint256"
            },
            {
              "internalType": "address",
              "name": "itemOwner",
              "type": "address"
            },
            {
              "internalType": "bool",
              "name": "isOnSale",
              "type": "bool"
            }
          ],
          "internalType": "struct IRacksItems.itemOnSale[]",
          "name": "",
          "type": "tuple[]"
        }
      ],
      "stateMutability": "view",
      "type": "function"
    },
    {
      "inputs": [
        {
          "internalType": "uint256",
          "name": "ticketId",
          "type": "uint256"
        }
      ],
      "name": "getMarketTicket",
      "outputs": [],
      "stateMutability": "view",
      "type": "function"
    },
    {
      "inputs": [],
      "name": "getMarketcount",
      "outputs": [
        {
          "internalType": "uint256",
          "name": "",
          "type": "uint256"
        }
      ],
      "stateMutability": "view",
      "type": "function"
    },
    {
      "inputs": [],
      "name": "getMaxTotalSupply",
      "outputs": [
        {
          "internalType": "uint256",
          "name": "",
          "type": "uint256"
        }
      ],
      "stateMutability": "view",
      "type": "function"
    },
    {
      "inputs": [],
      "name": "getOwner",
      "outputs": [
        {
          "internalType": "address",
          "name": "",
          "type": "address"
        }
      ],
      "stateMutability": "view",
      "type": "function"
    },
    {
      "inputs": [
        {
          "internalType": "bytes32",
          "name": "role",
          "type": "bytes32"
        }
      ],
      "name": "getRoleAdmin",
      "outputs": [
        {
          "internalType": "bytes32",
          "name": "",
          "type": "bytes32"
        }
      ],
      "stateMutability": "view",
      "type": "function"
    },
    {
      "inputs": [],
      "name": "getTicketsOnSale",
      "outputs": [
        {
          "components": [
            {
              "internalType": "uint256",
              "name": "ticketId",
              "type": "uint256"
            },
            {
              "internalType": "uint256",
              "name": "numTries",
              "type": "uint256"
            },
            {
              "internalType": "uint256",
              "name": "duration",
              "type": "uint256"
            },
            {
              "internalType": "uint256",
              "name": "price",
              "type": "uint256"
            },
            {
              "internalType": "address",
              "name": "owner",
              "type": "address"
            },
            {
              "internalType": "uint256",
              "name": "timeWhenSold",
              "type": "uint256"
            },
            {
              "internalType": "bool",
              "name": "isAvaliable",
              "type": "bool"
            }
          ],
          "internalType": "struct ITickets.caseTicket[]",
          "name": "",
          "type": "tuple[]"
        }
      ],
      "stateMutability": "view",
      "type": "function"
    },
    {
      "inputs": [],
      "name": "getTokenCount",
      "outputs": [
        {
          "internalType": "uint256",
          "name": "",
          "type": "uint256"
        }
      ],
      "stateMutability": "view",
      "type": "function"
    },
    {
      "inputs": [
        {
          "internalType": "address",
          "name": "user",
          "type": "address"
        }
      ],
      "name": "getUserTicket",
      "outputs": [
        {
          "internalType": "uint256",
          "name": "durationLeft",
          "type": "uint256"
        },
        {
          "internalType": "uint256",
          "name": "triesLeft",
          "type": "uint256"
        },
        {
          "internalType": "uint256",
          "name": "ownerOrSpender",
          "type": "uint256"
        },
        {
          "internalType": "uint256",
          "name": "ticketPrice",
          "type": "uint256"
        }
      ],
      "stateMutability": "view",
      "type": "function"
    },
    {
      "inputs": [
        {
          "internalType": "bytes32",
          "name": "role",
          "type": "bytes32"
        },
        {
          "internalType": "address",
          "name": "account",
          "type": "address"
        }
      ],
      "name": "grantRole",
      "outputs": [],
      "stateMutability": "nonpayable",
      "type": "function"
    },
    {
      "inputs": [
        {
          "internalType": "bytes32",
          "name": "role",
          "type": "bytes32"
        },
        {
          "internalType": "address",
          "name": "account",
          "type": "address"
        }
      ],
      "name": "hasRole",
      "outputs": [
        {
          "internalType": "bool",
          "name": "",
          "type": "bool"
        }
      ],
      "stateMutability": "view",
      "type": "function"
    },
    {
      "inputs": [
        {
          "internalType": "address",
          "name": "user",
          "type": "address"
        }
      ],
      "name": "isApproved",
      "outputs": [
        {
          "internalType": "bool",
          "name": "",
          "type": "bool"
        }
      ],
      "stateMutability": "view",
      "type": "function"
    },
    {
      "inputs": [
        {
          "internalType": "address",
          "name": "account",
          "type": "address"
        },
        {
          "internalType": "address",
          "name": "operator",
          "type": "address"
        }
      ],
      "name": "isApprovedForAll",
      "outputs": [
        {
          "internalType": "bool",
          "name": "",
          "type": "bool"
        }
      ],
      "stateMutability": "view",
      "type": "function"
    },
    {
      "inputs": [
        {
          "internalType": "address",
          "name": "user",
          "type": "address"
        }
      ],
      "name": "isVip",
      "outputs": [
        {
          "internalType": "bool",
          "name": "",
          "type": "bool"
        }
      ],
      "stateMutability": "view",
      "type": "function"
    },
    {
      "inputs": [
        {
          "internalType": "uint256",
          "name": "itemSupply",
          "type": "uint256"
        }
      ],
      "name": "listItem",
      "outputs": [],
      "stateMutability": "nonpayable",
      "type": "function"
    },
    {
      "inputs": [
        {
          "internalType": "uint256",
          "name": "marketItemId",
          "type": "uint256"
        },
        {
          "internalType": "uint256",
          "name": "price",
          "type": "uint256"
        }
      ],
      "name": "listItemOnMarket",
      "outputs": [],
      "stateMutability": "nonpayable",
      "type": "function"
    },
    {
      "inputs": [
        {
          "internalType": "address",
          "name": "from",
          "type": "address"
        },
        {
          "internalType": "uint256",
          "name": "numTries",
          "type": "uint256"
        },
        {
          "internalType": "uint256",
          "name": "_hours",
          "type": "uint256"
        },
        {
          "internalType": "uint256",
          "name": "price",
          "type": "uint256"
        }
      ],
      "name": "listTicketFrom",
      "outputs": [],
      "stateMutability": "nonpayable",
      "type": "function"
    },
    {
      "inputs": [
        {
          "internalType": "address",
          "name": "",
          "type": "address"
        },
        {
          "internalType": "address",
          "name": "",
          "type": "address"
        },
        {
          "internalType": "uint256[]",
          "name": "",
          "type": "uint256[]"
        },
        {
          "internalType": "uint256[]",
          "name": "",
          "type": "uint256[]"
        },
        {
          "internalType": "bytes",
          "name": "",
          "type": "bytes"
        }
      ],
      "name": "onERC1155BatchReceived",
      "outputs": [
        {
          "internalType": "bytes4",
          "name": "",
          "type": "bytes4"
        }
      ],
      "stateMutability": "nonpayable",
      "type": "function"
    },
    {
      "inputs": [
        {
          "internalType": "address",
          "name": "",
          "type": "address"
        },
        {
          "internalType": "address",
          "name": "",
          "type": "address"
        },
        {
          "internalType": "uint256",
          "name": "",
          "type": "uint256"
        },
        {
          "internalType": "uint256",
          "name": "",
          "type": "uint256"
        },
        {
          "internalType": "bytes",
          "name": "",
          "type": "bytes"
        }
      ],
      "name": "onERC1155Received",
      "outputs": [
        {
          "internalType": "bytes4",
          "name": "",
          "type": "bytes4"
        }
      ],
      "stateMutability": "nonpayable",
      "type": "function"
    },
    {
      "inputs": [],
      "name": "openCase",
      "outputs": [
        {
          "internalType": "bool",
          "name": "success",
          "type": "bool"
        }
      ],
      "stateMutability": "nonpayable",
      "type": "function"
    },
    {
      "inputs": [
        {
          "internalType": "bytes32",
          "name": "role",
          "type": "bytes32"
        },
        {
          "internalType": "address",
          "name": "account",
          "type": "address"
        }
      ],
      "name": "renounceRole",
      "outputs": [],
      "stateMutability": "nonpayable",
      "type": "function"
    },
    {
      "inputs": [
        {
          "internalType": "bytes32",
          "name": "role",
          "type": "bytes32"
        },
        {
          "internalType": "address",
          "name": "account",
          "type": "address"
        }
      ],
      "name": "revokeRole",
      "outputs": [],
      "stateMutability": "nonpayable",
      "type": "function"
    },
    {
      "inputs": [
        {
          "internalType": "uint256",
          "name": "",
          "type": "uint256"
        }
      ],
      "name": "s_caseResults",
      "outputs": [
        {
          "internalType": "bytes",
          "name": "",
          "type": "bytes"
        }
      ],
      "stateMutability": "view",
      "type": "function"
    },
    {
      "inputs": [
        {
          "internalType": "address",
          "name": "from",
          "type": "address"
        },
        {
          "internalType": "address",
          "name": "to",
          "type": "address"
        },
        {
          "internalType": "uint256[]",
          "name": "ids",
          "type": "uint256[]"
        },
        {
          "internalType": "uint256[]",
          "name": "amounts",
          "type": "uint256[]"
        },
        {
          "internalType": "bytes",
          "name": "data",
          "type": "bytes"
        }
      ],
      "name": "safeBatchTransferFrom",
      "outputs": [],
      "stateMutability": "nonpayable",
      "type": "function"
    },
    {
      "inputs": [
        {
          "internalType": "address",
          "name": "from",
          "type": "address"
        },
        {
          "internalType": "address",
          "name": "to",
          "type": "address"
        },
        {
          "internalType": "uint256",
          "name": "id",
          "type": "uint256"
        },
        {
          "internalType": "uint256",
          "name": "amount",
          "type": "uint256"
        },
        {
          "internalType": "bytes",
          "name": "data",
          "type": "bytes"
        }
      ],
      "name": "safeTransferFrom",
      "outputs": [],
      "stateMutability": "nonpayable",
      "type": "function"
    },
    {
      "inputs": [
        {
          "internalType": "address",
          "name": "_newAdmin",
          "type": "address"
        }
      ],
      "name": "setAdmin",
      "outputs": [],
      "stateMutability": "nonpayable",
      "type": "function"
    },
    {
      "inputs": [
        {
          "internalType": "address",
          "name": "operator",
          "type": "address"
        },
        {
          "internalType": "bool",
          "name": "approved",
          "type": "bool"
        }
      ],
      "name": "setApprovalForAll",
      "outputs": [],
      "stateMutability": "nonpayable",
      "type": "function"
    },
    {
      "inputs": [
        {
          "internalType": "uint256",
          "name": "price",
          "type": "uint256"
        }
      ],
      "name": "setCasePrice",
      "outputs": [],
      "stateMutability": "nonpayable",
      "type": "function"
    },
    {
      "inputs": [
        {
          "internalType": "address",
          "name": "_caseOpenerAddress",
          "type": "address"
        },
        {
          "internalType": "address",
          "name": "_ticketsAddress",
          "type": "address"
        }
      ],
      "name": "setInterfaces",
      "outputs": [],
      "stateMutability": "nonpayable",
      "type": "function"
    },
    {
      "inputs": [
        {
          "internalType": "uint256",
          "name": "tokenId",
          "type": "uint256"
        },
        {
          "internalType": "string",
          "name": "_uri",
          "type": "string"
        }
      ],
      "name": "setTokenUri",
      "outputs": [],
      "stateMutability": "nonpayable",
      "type": "function"
    },
    {
      "inputs": [
        {
          "internalType": "uint256",
          "name": "tokenId",
          "type": "uint256"
        }
      ],
      "name": "supplyOfItem",
      "outputs": [
        {
          "internalType": "uint256",
          "name": "",
          "type": "uint256"
        }
      ],
      "stateMutability": "view",
      "type": "function"
    },
    {
      "inputs": [
        {
          "internalType": "bytes4",
          "name": "interfaceId",
          "type": "bytes4"
        }
      ],
      "name": "supportsInterface",
      "outputs": [
        {
          "internalType": "bool",
          "name": "",
          "type": "bool"
        }
      ],
      "stateMutability": "view",
      "type": "function"
    },
    {
      "inputs": [
        {
          "internalType": "address",
          "name": "owner",
          "type": "address"
        },
        {
          "internalType": "address",
          "name": "spender",
          "type": "address"
        }
      ],
      "name": "ticketAllowance",
      "outputs": [
        {
          "internalType": "bool",
          "name": "",
          "type": "bool"
        }
      ],
      "stateMutability": "view",
      "type": "function"
    },
    {
      "inputs": [
        {
          "internalType": "uint256",
          "name": "marketItemId",
          "type": "uint256"
        }
      ],
      "name": "unListItem",
      "outputs": [],
      "stateMutability": "nonpayable",
      "type": "function"
    },
    {
      "inputs": [
        {
          "internalType": "address",
          "name": "from",
          "type": "address"
        }
      ],
      "name": "unListTicketFrom",
      "outputs": [],
      "stateMutability": "nonpayable",
      "type": "function"
    },
    {
      "inputs": [
        {
          "internalType": "uint256",
          "name": "tokenId",
          "type": "uint256"
        }
      ],
      "name": "uri",
      "outputs": [
        {
          "internalType": "string",
          "name": "",
          "type": "string"
        }
      ],
      "stateMutability": "view",
      "type": "function"
    },
    {
      "inputs": [
        {
          "internalType": "address",
          "name": "owner",
          "type": "address"
        }
      ],
      "name": "viewItems",
      "outputs": [
        {
          "internalType": "uint256[]",
          "name": "",
          "type": "uint256[]"
        }
      ],
      "stateMutability": "view",
      "type": "function"
    },
    {
      "inputs": [
        {
          "internalType": "address",
          "name": "wallet",
          "type": "address"
        }
      ],
      "name": "withdrawAllFunds",
      "outputs": [],
      "stateMutability": "nonpayable",
      "type": "function"
    },
    {
      "inputs": [
        {
          "internalType": "address",
          "name": "wallet",
          "type": "address"
        },
        {
          "internalType": "uint256",
          "name": "amount",
          "type": "uint256"
        }
      ],
      "name": "withdrawFunds",
      "outputs": [],
      "stateMutability": "nonpayable",
      "type": "function"
    }
  ],
  "bytecode": "0x60806040523480156200001157600080fd5b5060405162004f9e38038062004f9e833981016040819052620000349162000180565b6040805160208101909152600081526200004e81620000a4565b50600680546001600160a01b039283166001600160a01b031991821617909155600780549390921692811692909217905560088054909116331790556000600a556064600c55600d805460ff19169055620001f5565b8051620000b9906002906020840190620000bd565b5050565b828054620000cb90620001b8565b90600052602060002090601f016020900481019282620000ef57600085556200013a565b82601f106200010a57805160ff19168380011785556200013a565b828001600101855582156200013a579182015b828111156200013a5782518255916020019190600101906200011d565b50620001489291506200014c565b5090565b5b808211156200014857600081556001016200014d565b80516001600160a01b03811681146200017b57600080fd5b919050565b600080604083850312156200019457600080fd5b6200019f8362000163565b9150620001af6020840162000163565b90509250929050565b600181811c90821680620001cd57607f821691505b60208210811415620001ef57634e487b7160e01b600052602260045260246000fd5b50919050565b614d9980620002056000396000f3fe608060405234801561001057600080fd5b50600436106102ec5760003560e01c80637f4e484911610193578063c1075329116100e4578063de08f65311610092578063de08f653146106cc578063e7fb74c7146106d4578063e985e9c5146106e7578063f23a6e6114610723578063f242432a14610742578063f2edeb0b14610755578063f48c9d341461076857600080fd5b8063c10753291461063b578063c25e2af41461064e578063c4c4273014610681578063c853d92214610689578063d3c115f21461069e578063d547741f146106a6578063dd006d31146106b957600080fd5b8063983ba04411610141578063983ba044146105a2578063a217fddf146104ff578063a22cb465146105b5578063a7b19424146105c8578063a7bc77c6146105db578063bbcbc2e7146105ee578063bc197c811461060357600080fd5b80637f4e48491461052257806384203f4b14610535578063893d20e8146105485780638a9d9693146105615780638dc5f45b1461057457806391d1485414610587578063976298f31461059a57600080fd5b806336568abe1161024d5780635db30bb1116101fb5780635db30bb1146104be578063673448dd146104c657806367dd74ca146104d9578063704b6c02146104ec57806375b238fc146104ff57806378a89567146105075780637a7680171461050f57600080fd5b806336568abe14610437578063401ea50e1461044a57806348f8704c1461045d5780634a226657146104705780634e1273f4146104785780634e592c4b1461049857806357f7789e146104ab57600080fd5b806320ba0814116102aa57806320ba081414610395578063248a9ca3146103b55780632ce38190146103d85780632eb2c2d6146103eb5780632f2ff15d146103fe57806332dee40b1461041157806332f1d0121461042457600080fd5b8062fdd58e146102f157806301ffc9a714610317578063020f19801461033a5780630e89341c1461034f57806310fa69b31461036f5780631cb0b27314610382575b600080fd5b6103046102ff366004614091565b61077b565b6040519081526020015b60405180910390f35b61032a61032536600461432f565b610815565b604051901515815260200161030e565b61034d6103483660046143d2565b610820565b005b61036261035d3660046142f1565b610a45565b60405161030e919061481e565b61034d61037d366004613f15565b610ae7565b61034d6103903660046142f1565b610b3f565b6103046103a33660046142f1565b60009081526010602052604090205490565b6103046103c33660046142f1565b60009081526003602052604090206001015490565b61034d6103e63660046142f1565b610bdc565b61034d6103f9366004613f4e565b610c0e565b61034d61040c36600461430a565b610ca5565b61034d61041f366004613ef8565b610ccf565b61034d6104323660046140bd565b610e94565b61034d61044536600461430a565b610f9c565b61034d610458366004614091565b611016565b61036261046b3660046142f1565b6111db565b61032a611287565b61048b6104863660046140f8565b6115e9565b60405161030e91906147dd565b61034d6104a6366004614063565b611712565b61034d6104b9366004614382565b611848565b600954610304565b61032a6104d4366004613ef8565b6118ec565b61034d6104e73660046142f1565b61196d565b61034d6104fa366004613ef8565b611bc6565b610304600081565b600a54610304565b61034d61051d3660046140bd565b611bfb565b600d5460ff1660405161030e9190614831565b61032a610543366004613ef8565b611cf5565b6008546001600160a01b031660405161030e919061455f565b61034d61056f366004613ef8565b611e16565b61034d6105823660046142f1565b611f04565b61032a61059536600461430a565b611f5e565b600c54610304565b61032a6105b0366004613f15565b611f89565b61034d6105c3366004614063565b612013565b61034d6105d63660046143d2565b61201e565b61034d6105e93660046142f1565b6120fc565b6105f661221f565b60405161030e9190614771565b610622610611366004613f4e565b63bc197c8160e01b95945050505050565b6040516001600160e01b0319909116815260200161030e565b61034d610649366004614091565b612463565b61066161065c366004613ef8565b6125af565b60408051948552602085019390935291830152606082015260800161030e565b600b54610304565b610691612647565b60405161030e91906146e4565b61048b6126d5565b61034d6106b436600461430a565b6127bc565b61034d6106c73660046142f1565b6127e1565b61034d612866565b61034d6106e23660046142f1565b6128c5565b61032a6106f5366004613f15565b6001600160a01b03918216600090815260016020908152604080832093909416825291909152205460ff1690565b610622610731366004613ffb565b63f23a6e6160e01b95945050505050565b61034d610750366004613ffb565b612e59565b61034d610763366004613ef8565b612ee0565b61048b610776366004613ef8565b612f98565b60006001600160a01b0383166107ec5760405162461bcd60e51b815260206004820152602b60248201527f455243313135353a2062616c616e636520717565727920666f7220746865207a60448201526a65726f206164647265737360a81b60648201526084015b60405180910390fd5b506000818152602081815260408083206001600160a01b03861684529091529020545b92915050565b600061080f8261305c565b600061082c338461077b565b1161086b5760405162461bcd60e51b815260206004820152600f60248201526e24ba32b6903737ba103337bab7321760891b60448201526064016107e3565b600081116108bb5760405162461bcd60e51b815260206004820152601c60248201527f5072696365206d7573742062652067726561746572207468616e20300000000060448201526064016107e3565b33600090815260126020908152604080832085845290915281208054600192906108e6908490614ab0565b90915550506040805160a081018252838152600b8054602083019081529282018481523360608401908152600160808501818152600e80549283018155600090815295517fbb7b4a454dc3493923482f07822329ed19e8244eff582cc204f8554c3620c3fd60049093029283015595517fbb7b4a454dc3493923482f07822329ed19e8244eff582cc204f8554c3620c3fe82015591517fbb7b4a454dc3493923482f07822329ed19e8244eff582cc204f8554c3620c3ff830155517fbb7b4a454dc3493923482f07822329ed19e8244eff582cc204f8554c3620c400909101805494516001600160a01b039092166001600160a81b031990951694909417600160a01b911515919091021790925581549190610a0183614bd1565b91905055507f23cba88d6c6f26b62b2cfc32a2cc04fbbde8590188b97cd3590e45af9ac6dd6d338383604051610a399392919061466d565b60405180910390a15050565b6000818152601160205260409020805460609190610a6290614b45565b80601f0160208091040260200160405190810160405280929190818152602001828054610a8e90614b45565b8015610adb5780601f10610ab057610100808354040283529160200191610adb565b820191906000526020600020905b815481529060010190602001808311610abe57829003601f168201915b50505050509050919050565b6008546001600160a01b03163314610b115760405162461bcd60e51b81526004016107e390614a5e565b600480546001600160a01b039384166001600160a01b03199182161790915560058054929093169116179055565b6000610b4b338361077b565b11610b5557600080fd5b610b6133826001613081565b6000818152601060205260408120805460019290610b80908490614ae7565b92505081905550600160096000828254610b9a9190614ae7565b90915550506040517f9e90d55d2f1f115ffe1b87372c45f27f6b3a2b5ba392942167be78456189009490610bd19033908490614654565b60405180910390a150565b610be5336131eb565b610c015760405162461bcd60e51b81526004016107e390614a1d565b610c0b3082613221565b50565b6001600160a01b038516331480610c2a5750610c2a85336106f5565b610c915760405162461bcd60e51b815260206004820152603260248201527f455243313135353a207472616e736665722063616c6c6572206973206e6f74206044820152711bdddb995c881b9bdc88185c1c1c9bdd995960721b60648201526084016107e3565b610c9e858585858561328c565b5050505050565b600082815260036020526040902060010154610cc081613461565b610cca838361346b565b505050565b6008546001600160a01b03163314610cf95760405162461bcd60e51b81526004016107e390614a5e565b6007546040516370a0823160e01b81526000916001600160a01b0316906370a0823190610d2a90309060040161455f565b60206040518083038186803b158015610d4257600080fd5b505afa158015610d56573d6000803e3d6000fd5b505050506040513d601f19601f82011682018060405250810190610d7a9190614369565b11610d975760405162461bcd60e51b81526004016107e3906148a1565b6007546040516370a0823160e01b81526001600160a01b039091169063a9059cbb90839083906370a0823190610dd190309060040161455f565b60206040518083038186803b158015610de957600080fd5b505afa158015610dfd573d6000803e3d6000fd5b505050506040513d601f19601f82011682018060405250810190610e219190614369565b6040518363ffffffff1660e01b8152600401610e3e929190614654565b602060405180830381600087803b158015610e5857600080fd5b505af1158015610e6c573d6000803e3d6000fd5b505050506040513d601f19601f82011682018060405250810190610e9091906142d4565b5050565b610e9d33611cf5565b610eb95760405162461bcd60e51b81526004016107e39061499c565b6000600d5460ff166001811115610ed257610ed2614c24565b14610eef5760405162461bcd60e51b81526004016107e390614912565b6005546040516334ff6ddd60e11b81526001600160a01b03909116906369fedbba90610f2790879087908790879033906004016146b4565b600060405180830381600087803b158015610f4157600080fd5b505af1158015610f55573d6000803e3d6000fd5b505050507f0fcd915268f7fe921a6c99bd903199d2f30c7f65a422416bfd1de6a264b8264d84848484604051610f8e949392919061468e565b60405180910390a150505050565b6001600160a01b038116331461100c5760405162461bcd60e51b815260206004820152602f60248201527f416363657373436f6e74726f6c3a2063616e206f6e6c792072656e6f756e636560448201526e103937b632b9903337b91039b2b63360891b60648201526084016107e3565b610e9082826134f1565b6004546001600160a01b0316331461102d57600080fd5b6000806110386126d5565b905060005b81518110156110935761107582828151811061105b5761105b614c3a565b602002602001015160009081526010602052604090205490565b61107f9084614ab0565b92508061108b81614bd1565b91505061103d565b5060006110a08385614bec565b9050600080805b84518110156111185760006110c786838151811061105b5761105b614c3a565b6110d19085614ab0565b9050808511156110e357809350611105565b8582815181106110f5576110f5614c3a565b6020026020010151925050611118565b508061111081614bd1565b9150506110a7565b506040516bffffffffffffffffffffffff19606089901b16602082015260348101829052600f9060540160408051601f198184030181529190528154600181018355600092835260209283902082516111779491909201920190613d6b565b50611195308883600160405180602001604052806000815250613558565b7fea32e37a2618dbb680c93d891742e9e13b30d184822562a0ee3c09290fd42b4333600c54836040516111ca9392919061466d565b60405180910390a150505050505050565b600f81815481106111eb57600080fd5b90600052602060002001600091509050805461120690614b45565b80601f016020809104026020016040519081016040528092919081815260200182805461123290614b45565b801561127f5780601f106112545761010080835404028352916020019161127f565b820191906000526020600020905b81548152906001019060200180831161126257829003601f168201915b505050505081565b600080600954116112da5760405162461bcd60e51b815260206004820152601c60248201527f546865726520617265206e6f206974656d73206176616c6961626c650000000060448201526064016107e3565b6000600d5460ff1660018111156112f3576112f3614c24565b146113105760405162461bcd60e51b81526004016107e390614912565b6006546040516370a0823160e01b81526001916001600160a01b0316906370a082319061134190339060040161455f565b60206040518083038186803b15801561135957600080fd5b505afa15801561136d573d6000803e3d6000fd5b505050506040513d601f19601f820116820180604052508101906113919190614369565b1015611489576005546040516330978abd60e21b81526000916001600160a01b03169063c25e2af4906113c890339060040161455f565b60806040518083038186803b1580156113e057600080fd5b505afa1580156113f4573d6000803e3d6000fd5b505050506040513d601f19601f820116820180604052508101906114189190614453565b5092505050806002146114875760405162461bcd60e51b815260206004820152603160248201527f5573657220646f6573206e6f74206f776e2061205469636b657420666f72206f6044820152703832b73734b733903a34329031b0b9b29760791b60648201526084016107e3565b505b600754600c546040516323b872dd60e01b81526001600160a01b03909216916323b872dd916114be91339130916004016145eb565b602060405180830381600087803b1580156114d857600080fd5b505af11580156114ec573d6000803e3d6000fd5b505050506040513d601f19601f8201168201806040525081019061151091906142d4565b506004805460405163831cbb6b60e01b81526001600160a01b039091169163831cbb6b916115409133910161455f565b600060405180830381600087803b15801561155a57600080fd5b505af115801561156e573d6000803e3d6000fd5b5050505061157b33611cf5565b6115e257600554604051630c3709d960e21b81526001600160a01b03909116906330dc2764906115af90339060040161455f565b600060405180830381600087803b1580156115c957600080fd5b505af11580156115dd573d6000803e3d6000fd5b505050505b5060015b90565b6060815183511461164e5760405162461bcd60e51b815260206004820152602960248201527f455243313135353a206163636f756e747320616e6420696473206c656e677468604482015268040dad2e6dac2e8c6d60bb1b60648201526084016107e3565b600083516001600160401b0381111561166957611669614c50565b604051908082528060200260200182016040528015611692578160200160208202803683370190505b50905060005b845181101561170a576116dd8582815181106116b6576116b6614c3a565b60200260200101518583815181106116d0576116d0614c3a565b602002602001015161077b565b8282815181106116ef576116ef614c3a565b602090810291909101015261170381614bd1565b9050611698565b509392505050565b6006546040516370a0823160e01b81526000916001600160a01b0316906370a082319061174390339060040161455f565b60206040518083038186803b15801561175b57600080fd5b505afa15801561176f573d6000803e3d6000fd5b505050506040513d601f19601f820116820180604052508101906117939190614369565b116117d75760405162461bcd60e51b81526020600482015260146024820152732cb7ba9030b932903737ba102b24a8103ab9b2b960611b60448201526064016107e3565b60055460405163cc4ac04d60e01b81523360048201526001600160a01b03848116602483015283151560448301529091169063cc4ac04d90606401600060405180830381600087803b15801561182c57600080fd5b505af1158015611840573d6000803e3d6000fd5b505050505050565b611851336131eb565b61186d5760405162461bcd60e51b81526004016107e390614a1d565b6000828152601160205260409020805461188690614b45565b1590506118cd5760405162461bcd60e51b815260206004820152601560248201527443616e206e6f74207365742075726920747769636560581b60448201526064016107e3565b60008281526011602090815260409091208251610cca92840190613d6b565b60055460405163673448dd60e01b81526000916001600160a01b03169063673448dd9061191d90859060040161455f565b60206040518083038186803b15801561193557600080fd5b505afa158015611949573d6000803e3d6000fd5b505050506040513d601f19601f8201168201806040525081019061080f91906142d4565b6000600d5460ff16600181111561198657611986614c24565b146119a35760405162461bcd60e51b81526004016107e390614912565b6119ac33611cf5565b156119f95760405162461bcd60e51b815260206004820152601f60248201527f412056495020757365722063616e206e6f74206275792061207469636b65740060448201526064016107e3565b60055460405163dd006d3160e01b81526004810183905260009182916001600160a01b039091169063dd006d319060240160c06040518083038186803b158015611a4257600080fd5b505afa158015611a56573d6000803e3d6000fd5b505050506040513d601f19601f82011682018060405250810190611a7a91906143f4565b50506007546040516323b872dd60e01b81529296509094506001600160a01b031692506323b872dd9150611ab6903390859087906004016145eb565b602060405180830381600087803b158015611ad057600080fd5b505af1158015611ae4573d6000803e3d6000fd5b505050506040513d601f19601f82011682018060405250810190611b0891906142d4565b506005546040516318aa117b60e21b8152600481018590523360248201526001600160a01b03909116906362a845ec90604401600060405180830381600087803b158015611b5557600080fd5b505af1158015611b69573d6000803e3d6000fd5b5050604080518681526001600160a01b03851660208201523391810191909152606081018590527f060f7dd92424d6f1af65d2fe9acba5b63d299cc26cd8eb26403ca371bc9fbfbb925060800190505b60405180910390a1505050565b6008546001600160a01b03163314611bf05760405162461bcd60e51b81526004016107e390614a5e565b610c0b600082613670565b611c0433611cf5565b611c205760405162461bcd60e51b81526004016107e39061499c565b6000600d5460ff166001811115611c3957611c39614c24565b14611c565760405162461bcd60e51b81526004016107e390614912565b60055460405163187ab7cb60e21b81526001600160a01b03909116906361eadf2c90611c8e90879087908790879033906004016146b4565b600060405180830381600087803b158015611ca857600080fd5b505af1158015611cbc573d6000803e3d6000fd5b505050507f07814713aba2e13eb5f2470225f7395d33fad1452b70f8427dae73e4d3a5934484848484604051610f8e949392919061468e565b6006546040516370a0823160e01b815260009182916001600160a01b03909116906370a0823190611d2a90869060040161455f565b60206040518083038186803b158015611d4257600080fd5b505afa158015611d56573d6000803e3d6000fd5b505050506040513d601f19601f82011682018060405250810190611d7a9190614369565b1180611e01575060055460405163673448dd60e01b81526001600160a01b039091169063673448dd90611db190859060040161455f565b60206040518083038186803b158015611dc957600080fd5b505afa158015611ddd573d6000803e3d6000fd5b505050506040513d601f19601f82011682018060405250810190611e0191906142d4565b15611e0e57506001919050565b506000919050565b611e1f33611cf5565b611e3b5760405162461bcd60e51b81526004016107e39061499c565b6000600d5460ff166001811115611e5457611e54614c24565b14611e715760405162461bcd60e51b81526004016107e390614912565b60055460405163f200e16160e01b81526001600160a01b039091169063f200e16190611ea39084903390600401614573565b600060405180830381600087803b158015611ebd57600080fd5b505af1158015611ed1573d6000803e3d6000fd5b505050507f5dbab6b1e9ddd154d6eb51aa5622fb5278ea62a0b5f81d046a945d899490f63181604051610bd1919061455f565b611f0d336131eb565b611f295760405162461bcd60e51b81526004016107e390614a1d565b600c8190556040518181527f06cd74aabc11982a85b554df4d7833623303656fe69bed4db1b0cb3245feebe390602001610bd1565b60009182526003602090815260408084206001600160a01b0393909316845291905290205460ff1690565b60055460405163260ee81160e21b81526000916001600160a01b03169063983ba04490611fbc9086908690600401614573565b60206040518083038186803b158015611fd457600080fd5b505afa158015611fe8573d6000803e3d6000fd5b505050506040513d601f19601f8201168201806040525081019061200c91906142d4565b9392505050565b610e9033838361367a565b336001600160a01b0316600e838154811061203b5761203b614c3a565b60009182526020909120600360049092020101546001600160a01b0316146120755760405162461bcd60e51b81526004016107e3906148cf565b6000600e838154811061208a5761208a614c3a565b906000526020600020906004020160020154905081600e84815481106120b2576120b2614c3a565b9060005260206000209060040201600201819055507fb141d00f22a670547caacc412e6489d8edaba6a840df558118363ce1a40d6ed233848385604051611bb9949392919061468e565b336001600160a01b0316600e828154811061211957612119614c3a565b60009182526020909120600360049092020101546001600160a01b0316146121535760405162461bcd60e51b81526004016107e3906148cf565b336000908152601260205260408120600e805460019391908590811061217b5761217b614c3a565b906000526020600020906004020160000154815260200190815260200160002060008282546121aa9190614ae7565b925050819055506000600e82815481106121c6576121c6614c3a565b906000526020600020906004020160030160146101000a81548160ff0219169083151502179055507fc9cedcca3d85d6009a562a9e70071f6288adabda9ba7f059589165e75c9cf4043382604051610bd1929190614654565b60606000805b600e548110156122e8576000600e828154811061224457612244614c3a565b60009182526020918290206040805160a08101825260049093029091018054835260018082015494840194909452600281015491830191909152600301546001600160a01b038116606083015260ff600160a01b909104161515608082018190529092501480156122c257506122c28160600151826000015161375b565b156122d5576122d2600184614ab0565b92505b50806122e081614bd1565b915050612225565b506000816001600160401b0381111561230357612303614c50565b60405190808252806020026020018201604052801561237157816020015b61235e6040518060a0016040528060008152602001600081526020016000815260200160006001600160a01b031681526020016000151581525090565b8152602001906001900390816123215790505b5090506000805b600e5481101561245a576000600e828154811061239757612397614c3a565b60009182526020918290206040805160a08101825260049093029091018054835260018082015494840194909452600281015491830191909152600301546001600160a01b038116606083015260ff600160a01b9091041615156080820181905290925014801561241557506124158160600151826000015161375b565b15612447578084848151811061242d5761242d614c3a565b6020026020010181905250828061244390614bd1565b9350505b508061245281614bd1565b915050612378565b50909392505050565b6008546001600160a01b0316331461248d5760405162461bcd60e51b81526004016107e390614a5e565b6007546040516370a0823160e01b81526000916001600160a01b0316906370a08231906124be90309060040161455f565b60206040518083038186803b1580156124d657600080fd5b505afa1580156124ea573d6000803e3d6000fd5b505050506040513d601f19601f8201168201806040525081019061250e9190614369565b1161252b5760405162461bcd60e51b81526004016107e3906148a1565b60075460405163a9059cbb60e01b81526001600160a01b039091169063a9059cbb9061255d9085908590600401614654565b602060405180830381600087803b15801561257757600080fd5b505af115801561258b573d6000803e3d6000fd5b505050506040513d601f19601f82011682018060405250810190610cca91906142d4565b6005546040516330978abd60e21b81526000918291829182916001600160a01b039091169063c25e2af4906125e890889060040161455f565b60806040518083038186803b15801561260057600080fd5b505afa158015612614573d6000803e3d6000fd5b505050506040513d601f19601f820116820180604052508101906126389190614453565b93509350935093509193509193565b60606000600560009054906101000a90046001600160a01b03166001600160a01b031663c853d9226040518163ffffffff1660e01b815260040160006040518083038186803b15801561269957600080fd5b505afa1580156126ad573d6000803e3d6000fd5b505050506040513d6000823e601f3d908101601f1916820160405261080f91908101906141ca565b60606000805b600a548110156127175760006126f1308361077b565b1115612705578161270181614bd1565b9250505b8061270f81614bd1565b9150506126db565b506000816001600160401b0381111561273257612732614c50565b60405190808252806020026020018201604052801561275b578160200160208202803683370190505b5090506000805b600a5481101561245a576000612778308361077b565b11156127aa578083838151811061279157612791614c3a565b6020908102919091010152816127a681614bd1565b9250505b806127b481614bd1565b915050612762565b6000828152600360205260409020600101546127d781613461565b610cca83836134f1565b60055460405163dd006d3160e01b8152600481018390526001600160a01b039091169063dd006d319060240160c06040518083038186803b15801561282557600080fd5b505afa158015612839573d6000803e3d6000fd5b505050506040513d601f19601f8201168201806040525081019061285d91906143f4565b50505050505050565b61286f336131eb565b61288b5760405162461bcd60e51b81526004016107e390614a1d565b6000600d5460ff1660018111156128a4576128a4614c24565b14156128b957600d805460ff19166001179055565b600d805460ff19169055565b6000600e82815481106128da576128da614c3a565b60009182526020918290206040805160a0810182526004909302909101805483526001810154938301939093526002830154908201526003909101546001600160a01b038116606083015260ff600160a01b9091041615156080820152600e8054919250908390811061294f5761294f614c3a565b60009182526020909120600490910201600301546001600160a01b03163314156129c75760405162461bcd60e51b815260206004820152602360248201527f596f752063616e206e6f742062757920616e206974656d20746f20796f75727360448201526232b63360e91b60648201526084016107e3565b600e82815481106129da576129da614c3a565b906000526020600020906004020160030160149054906101000a900460ff1615156001151514612a565760405162461bcd60e51b815260206004820152602160248201527f54686973206974656d206973206e6f74206f6e2073616c6520616e796d6f72656044820152601760f91b60648201526084016107e3565b612a688160600151826000015161375b565b612aab5760405162461bcd60e51b815260206004820152601460248201527324ba32b6903237b2b9903737ba1032bc34b9ba1760611b60448201526064016107e3565b6040808201516007549151636eb1769f60e11b815290916001600160a01b03169063dd62ed3e90612ae29033903090600401614573565b60206040518083038186803b158015612afa57600080fd5b505afa158015612b0e573d6000803e3d6000fd5b505050506040513d601f19601f82011682018060405250810190612b329190614369565b1015612b805760405162461bcd60e51b815260206004820152601c60248201527f496e73756666696369656e7420455243323020616c6c6f77616e63650000000060448201526064016107e3565b600754600e80546001600160a01b03909216916323b872dd91339186908110612bab57612bab614c3a565b906000526020600020906004020160030160009054906101000a90046001600160a01b0316600e8681548110612be357612be3614c3a565b9060005260206000209060040201600201546040518463ffffffff1660e01b8152600401612c13939291906145eb565b602060405180830381600087803b158015612c2d57600080fd5b505af1158015612c41573d6000803e3d6000fd5b505050506040513d601f19601f82011682018060405250810190612c6591906142d4565b50612cde600e8381548110612c7c57612c7c614c3a565b906000526020600020906004020160030160009054906101000a90046001600160a01b031633600e8581548110612cb557612cb5614c3a565b906000526020600020906004020160000154600160405180602001604052806000815250613558565b60608101516001600160a01b03166000908152601260209081526040808320845184529091528120805460019290612d17908490614ae7565b925050819055506000600e8381548110612d3357612d33614c3a565b906000526020600020906004020160030160009054906101000a90046001600160a01b0316905033600e8481548110612d6e57612d6e614c3a565b906000526020600020906004020160030160006101000a8154816001600160a01b0302191690836001600160a01b031602179055506000600e8481548110612db857612db8614c3a565b906000526020600020906004020160030160146101000a81548160ff0219169083151502179055507f642067ff529c9b5b1162502fc8e8a3a91dda56e126a84f2fe38d341236231a82338285600e8781548110612e1757612e17614c3a565b600091825260209182902060026004909202010154604080516001600160a01b0396871681529590941691850191909152918301526060820152608001611bb9565b6001600160a01b038516331480612e755750612e7585336106f5565b612ed35760405162461bcd60e51b815260206004820152602960248201527f455243313135353a2063616c6c6572206973206e6f74206f776e6572206e6f7260448201526808185c1c1c9bdd995960ba1b60648201526084016107e3565b610c9e8585858585613558565b612ee933611cf5565b612f055760405162461bcd60e51b81526004016107e39061499c565b60055460405163846618ab60e01b81526001600160a01b039091169063846618ab90612f379084903390600401614573565b600060405180830381600087803b158015612f5157600080fd5b505af1158015612f65573d6000803e3d6000fd5b505050507f7786f3ed748004d17dc650f21466cb6542269adcfbdd3e88f5c0aa131909b9c381604051610bd1919061455f565b60606000600a546001600160401b03811115612fb657612fb6614c50565b604051908082528060200260200182016040528015612fdf578160200160208202803683370190505b50905060005b8151811015613055576001600160a01b038416600090815260126020908152604080832084845290915290205461301c858361077b565b6130269190614ae7565b82828151811061303857613038614c3a565b60209081029190910101528061304d81614bd1565b915050612fe5565b5092915050565b60006001600160e01b03198216637965db0b60e01b148061080f575061080f8261377e565b6001600160a01b0383166130e35760405162461bcd60e51b815260206004820152602360248201527f455243313135353a206275726e2066726f6d20746865207a65726f206164647260448201526265737360e81b60648201526084016107e3565b3360006130ef846137a3565b905060006130fc846137a3565b60408051602080820183526000918290528882528181528282206001600160a01b038b16835290522054909150848110156131855760405162461bcd60e51b8152602060048201526024808201527f455243313135353a206275726e20616d6f756e7420657863656564732062616c604482015263616e636560e01b60648201526084016107e3565b6000868152602081815260408083206001600160a01b038b81168086529184528285208a8703905582518b81529384018a9052909290881691600080516020614d44833981519152910160405180910390a460408051602081019091526000905261285d565b6008546000906001600160a01b03838116911614806132105750613210600083611f5e565b61321957600080fd5b506001919050565b61323e82600a5483604051806020016040528060008152506137ee565b613257600a548260009182526010602052604090912055565b80600960008282546132699190614ab0565b925050819055506001600a60008282546132839190614ab0565b90915550505050565b81518351146132ee5760405162461bcd60e51b815260206004820152602860248201527f455243313135353a2069647320616e6420616d6f756e7473206c656e677468206044820152670dad2e6dac2e8c6d60c31b60648201526084016107e3565b6001600160a01b0384166133145760405162461bcd60e51b81526004016107e390614957565b3360005b84518110156133fb57600085828151811061333557613335614c3a565b60200260200101519050600085838151811061335357613353614c3a565b602090810291909101810151600084815280835260408082206001600160a01b038e1683529093529190912054909150818110156133a35760405162461bcd60e51b81526004016107e3906149d3565b6000838152602081815260408083206001600160a01b038e8116855292528083208585039055908b168252812080548492906133e0908490614ab0565b92505081905550505050806133f490614bd1565b9050613318565b50846001600160a01b0316866001600160a01b0316826001600160a01b03167f4a39dc06d4c0dbc64b70af90fd698a233a518aa5d07e595d983b8c0526c8f7fb878760405161344b9291906147f0565b60405180910390a46118408187878787876138e7565b610c0b8133613a52565b6134758282611f5e565b610e905760008281526003602090815260408083206001600160a01b03851684529091529020805460ff191660011790556134ad3390565b6001600160a01b0316816001600160a01b0316837f2f8788117e7eff1d82e926ec794901d17c78024a50270940304540a733656f0d60405160405180910390a45050565b6134fb8282611f5e565b15610e905760008281526003602090815260408083206001600160a01b0385168085529252808320805460ff1916905551339285917ff6391f5c32d9c69d2a47ea670b442974b53935d1edc7fd64eb21e047a839171b9190a45050565b6001600160a01b03841661357e5760405162461bcd60e51b81526004016107e390614957565b33600061358a856137a3565b90506000613597856137a3565b90506000868152602081815260408083206001600160a01b038c168452909152902054858110156135da5760405162461bcd60e51b81526004016107e3906149d3565b6000878152602081815260408083206001600160a01b038d8116855292528083208985039055908a16825281208054889290613617908490614ab0565b909155505060408051888152602081018890526001600160a01b03808b16928c82169291881691600080516020614d44833981519152910160405180910390a4613665848a8a8a8a8a613ab6565b505050505050505050565b610e90828261346b565b816001600160a01b0316836001600160a01b031614156136ee5760405162461bcd60e51b815260206004820152602960248201527f455243313135353a2073657474696e6720617070726f76616c20737461747573604482015268103337b91039b2b63360b91b60648201526084016107e3565b6001600160a01b03838116600081815260016020908152604080832094871680845294825291829020805460ff191686151590811790915591519182527f17307eab39ab6107e8899845ad3d59bd9653f200f220920489ca2b5937696c31910160405180910390a3505050565b600080613768848461077b565b11156137765750600161080f565b50600061080f565b60006001600160e01b03198216630271189760e51b148061080f575061080f82613b80565b604080516001808252818301909252606091600091906020808301908036833701905050905082816000815181106137dd576137dd614c3a565b602090810291909101015292915050565b6001600160a01b03841661384e5760405162461bcd60e51b815260206004820152602160248201527f455243313135353a206d696e7420746f20746865207a65726f206164647265736044820152607360f81b60648201526084016107e3565b33600061385a856137a3565b90506000613867856137a3565b90506000868152602081815260408083206001600160a01b038b16845290915281208054879290613899908490614ab0565b909155505060408051878152602081018790526001600160a01b03808a169260009291871691600080516020614d44833981519152910160405180910390a461285d83600089898989613ab6565b6001600160a01b0384163b156118405760405163bc197c8160e01b81526001600160a01b0385169063bc197c819061392b908990899088908890889060040161458d565b602060405180830381600087803b15801561394557600080fd5b505af1925050508015613975575060408051601f3d908101601f191682019092526139729181019061434c565b60015b613a2257613981614c66565b806308c379a014156139bb5750613996614c81565b806139a157506139bd565b8060405162461bcd60e51b81526004016107e3919061481e565b505b60405162461bcd60e51b815260206004820152603460248201527f455243313135353a207472616e7366657220746f206e6f6e20455243313135356044820152732932b1b2b4bb32b91034b6b83632b6b2b73a32b960611b60648201526084016107e3565b6001600160e01b0319811663bc197c8160e01b1461285d5760405162461bcd60e51b81526004016107e390614859565b613a5c8282611f5e565b610e9057613a74816001600160a01b03166014613bd0565b613a7f836020613bd0565b604051602001613a909291906144f0565b60408051601f198184030181529082905262461bcd60e51b82526107e39160040161481e565b6001600160a01b0384163b156118405760405163f23a6e6160e01b81526001600160a01b0385169063f23a6e6190613afa908990899088908890889060040161460f565b602060405180830381600087803b158015613b1457600080fd5b505af1925050508015613b44575060408051601f3d908101601f19168201909252613b419181019061434c565b60015b613b5057613981614c66565b6001600160e01b0319811663f23a6e6160e01b1461285d5760405162461bcd60e51b81526004016107e390614859565b60006001600160e01b03198216636cdb3d1360e11b1480613bb157506001600160e01b031982166303a24d0760e21b145b8061080f57506301ffc9a760e01b6001600160e01b031983161461080f565b60606000613bdf836002614ac8565b613bea906002614ab0565b6001600160401b03811115613c0157613c01614c50565b6040519080825280601f01601f191660200182016040528015613c2b576020820181803683370190505b509050600360fc1b81600081518110613c4657613c46614c3a565b60200101906001600160f81b031916908160001a905350600f60fb1b81600181518110613c7557613c75614c3a565b60200101906001600160f81b031916908160001a9053506000613c99846002614ac8565b613ca4906001614ab0565b90505b6001811115613d1c576f181899199a1a9b1b9c1cb0b131b232b360811b85600f1660108110613cd857613cd8614c3a565b1a60f81b828281518110613cee57613cee614c3a565b60200101906001600160f81b031916908160001a90535060049490941c93613d1581614b2e565b9050613ca7565b50831561200c5760405162461bcd60e51b815260206004820181905260248201527f537472696e67733a20686578206c656e67746820696e73756666696369656e7460448201526064016107e3565b828054613d7790614b45565b90600052602060002090601f016020900481019282613d995760008555613ddf565b82601f10613db257805160ff1916838001178555613ddf565b82800160010185558215613ddf579182015b82811115613ddf578251825591602001919060010190613dc4565b50613deb929150613def565b5090565b5b80821115613deb5760008155600101613df0565b60006001600160401b03831115613e1d57613e1d614c50565b604051613e34601f8501601f191660200182614ba5565b809150838152848484011115613e4957600080fd5b83836020830137600060208583010152509392505050565b600082601f830112613e7257600080fd5b81356020613e7f82614a8d565b604051613e8c8282614ba5565b8381528281019150858301600585901b87018401881015613eac57600080fd5b60005b85811015613ecb57813584529284019290840190600101613eaf565b5090979650505050505050565b600082601f830112613ee957600080fd5b61200c83833560208501613e04565b600060208284031215613f0a57600080fd5b813561200c81614d0a565b60008060408385031215613f2857600080fd5b8235613f3381614d0a565b91506020830135613f4381614d0a565b809150509250929050565b600080600080600060a08688031215613f6657600080fd5b8535613f7181614d0a565b94506020860135613f8181614d0a565b935060408601356001600160401b0380821115613f9d57600080fd5b613fa989838a01613e61565b94506060880135915080821115613fbf57600080fd5b613fcb89838a01613e61565b93506080880135915080821115613fe157600080fd5b50613fee88828901613ed8565b9150509295509295909350565b600080600080600060a0868803121561401357600080fd5b853561401e81614d0a565b9450602086013561402e81614d0a565b9350604086013592506060860135915060808601356001600160401b0381111561405757600080fd5b613fee88828901613ed8565b6000806040838503121561407657600080fd5b823561408181614d0a565b91506020830135613f4381614d1f565b600080604083850312156140a457600080fd5b82356140af81614d0a565b946020939093013593505050565b600080600080608085870312156140d357600080fd5b84356140de81614d0a565b966020860135965060408601359560600135945092505050565b6000806040838503121561410b57600080fd5b82356001600160401b038082111561412257600080fd5b818501915085601f83011261413657600080fd5b8135602061414382614a8d565b6040516141508282614ba5565b8381528281019150858301600585901b870184018b101561417057600080fd5b600096505b8487101561419c57803561418881614d0a565b835260019690960195918301918301614175565b50965050860135925050808211156141b357600080fd5b506141c085828601613e61565b9150509250929050565b600060208083850312156141dd57600080fd5b82516001600160401b038111156141f357600080fd5b8301601f8101851361420457600080fd5b805161420f81614a8d565b6040805161421d8382614ba5565b838152858101925084860160e0808602870188018b101561423d57600080fd5b60009650865b868110156142c45781838d031215614259578788fd5b845161426481614b80565b83518152898401518a82015285840151868201526060808501519082015260808085015161429181614d0a565b9082015260a0848101519082015260c0808501516142ae81614d1f565b9082015286529488019491810191600101614243565b50919a9950505050505050505050565b6000602082840312156142e657600080fd5b815161200c81614d1f565b60006020828403121561430357600080fd5b5035919050565b6000806040838503121561431d57600080fd5b823591506020830135613f4381614d0a565b60006020828403121561434157600080fd5b813561200c81614d2d565b60006020828403121561435e57600080fd5b815161200c81614d2d565b60006020828403121561437b57600080fd5b5051919050565b6000806040838503121561439557600080fd5b8235915060208301356001600160401b038111156143b257600080fd5b8301601f810185136143c357600080fd5b6141c085823560208401613e04565b600080604083850312156143e557600080fd5b50508035926020909101359150565b60008060008060008060c0878903121561440d57600080fd5b865195506020870151945060408701519350606087015161442d81614d0a565b608088015160a0890151919450925061444581614d1f565b809150509295509295509295565b6000806000806080858703121561446957600080fd5b505082516020840151604085015160609095015191969095509092509050565b600081518084526020808501945080840160005b838110156144b95781518752958201959082019060010161449d565b509495945050505050565b600081518084526144dc816020860160208601614afe565b601f01601f19169290920160200192915050565b76020b1b1b2b9b9a1b7b73a3937b61d1030b1b1b7bab73a1604d1b815260008351614522816017850160208801614afe565b7001034b99036b4b9b9b4b733903937b6329607d1b6017918401918201528351614553816028840160208801614afe565b01602801949350505050565b6001600160a01b0391909116815260200190565b6001600160a01b0392831681529116602082015260400190565b6001600160a01b0386811682528516602082015260a0604082018190526000906145b990830186614489565b82810360608401526145cb8186614489565b905082810360808401526145df81856144c4565b98975050505050505050565b6001600160a01b039384168152919092166020820152604081019190915260600190565b6001600160a01b03868116825285166020820152604081018490526060810183905260a060808201819052600090614649908301846144c4565b979650505050505050565b6001600160a01b03929092168252602082015260400190565b6001600160a01b039390931683526020830191909152604082015260600190565b6001600160a01b0394909416845260208401929092526040830152606082015260800190565b6001600160a01b039586168152602081019490945260408401929092526060830152909116608082015260a00190565b602080825282518282018190526000919060409081850190868401855b828110156147645781518051855286810151878601528581015186860152606080820151908601526080808201516001600160a01b03169086015260a0808201519086015260c09081015115159085015260e09093019290850190600101614701565b5091979650505050505050565b602080825282518282018190526000919060409081850190868401855b8281101561476457815180518552868101518786015285810151868601526060808201516001600160a01b03169086015260809081015115159085015260a0909301929085019060010161478e565b60208152600061200c6020830184614489565b6040815260006148036040830185614489565b82810360208401526148158185614489565b95945050505050565b60208152600061200c60208301846144c4565b602081016002831061485357634e487b7160e01b600052602160045260246000fd5b91905290565b60208082526028908201527f455243313135353a204552433131353552656365697665722072656a656374656040820152676420746f6b656e7360c01b606082015260800190565b6020808252601490820152734e6f2066756e647320746f20776974686472617760601b604082015260600190565b60208082526023908201527f596f7520617265206e6f7420746865206f776e6572206f66207468697320697460408201526232b69760e91b606082015260800190565b60208082526025908201527f436f6e7472616374206973206e6f74206163746976652061742074686973206d6040820152641bdb595b9d60da1b606082015260800190565b60208082526025908201527f455243313135353a207472616e7366657220746f20746865207a65726f206164604082015264647265737360d81b606082015260800190565b6020808252601d908201527f5573657220646f6573206e6f74206f776e732061204d7243727970746f000000604082015260600190565b6020808252602a908201527f455243313135353a20696e73756666696369656e742062616c616e636520666f60408201526939103a3930b739b332b960b11b606082015260800190565b60208082526021908201527f55736572206973206e6f7420746865204f776e6572206f7220616e2041646d696040820152603760f91b606082015260800190565b6020808252601590820152742ab9b2b91034b9903737ba103a34329037bbb732b960591b604082015260600190565b60006001600160401b03821115614aa657614aa6614c50565b5060051b60200190565b60008219821115614ac357614ac3614c0e565b500190565b6000816000190483118215151615614ae257614ae2614c0e565b500290565b600082821015614af957614af9614c0e565b500390565b60005b83811015614b19578181015183820152602001614b01565b83811115614b28576000848401525b50505050565b600081614b3d57614b3d614c0e565b506000190190565b600181811c90821680614b5957607f821691505b60208210811415614b7a57634e487b7160e01b600052602260045260246000fd5b50919050565b60e081018181106001600160401b0382111715614b9f57614b9f614c50565b60405250565b601f8201601f191681016001600160401b0381118282101715614bca57614bca614c50565b6040525050565b6000600019821415614be557614be5614c0e565b5060010190565b600082614c0957634e487b7160e01b600052601260045260246000fd5b500690565b634e487b7160e01b600052601160045260246000fd5b634e487b7160e01b600052602160045260246000fd5b634e487b7160e01b600052603260045260246000fd5b634e487b7160e01b600052604160045260246000fd5b600060033d11156115e65760046000803e5060005160e01c90565b600060443d1015614c8f5790565b6040516003193d81016004833e81513d6001600160401b038160248401118184111715614cbe57505050505090565b8285019150815181811115614cd65750505050505090565b843d8701016020828501011115614cf05750505050505090565b614cff60208286010187614ba5565b509095945050505050565b6001600160a01b0381168114610c0b57600080fd5b8015158114610c0b57600080fd5b6001600160e01b031981168114610c0b57600080fdfec3d58168c5ae7397731d063d5bbf3d657854427343f4c083240f7aacaa2d0f62a2646970667358221220e0b2cd337e127e998e0a6fd0e86652b81725ee5923b9c29cea7d25cca4ded08d64736f6c63430008070033",
  "linkReferences": {},
  "deployedLinkReferences": {}
}