{
  "contractName": "Tickets",
  "abi": [
    {
      "inputs": [
        {
          "internalType": "address",
          "name": "_racksItems",
          "type": "address"
        },
        {
          "internalType": "address",
          "name": "_mrCrypto",
          "type": "address"
        }
      ],
      "stateMutability": "nonpayable",
      "type": "constructor"
    },
    {
      "inputs": [
        {
          "internalType": "address",
          "name": "from",
          "type": "address"
        },
        {
          "internalType": "uint256",
          "name": "numTries",
          "type": "uint256"
        },
        {
          "internalType": "uint256",
          "name": "_hours",
          "type": "uint256"
        },
        {
          "internalType": "uint256",
          "name": "price",
          "type": "uint256"
        },
        {
          "internalType": "address",
          "name": "user",
          "type": "address"
        }
      ],
      "name": "_listT",
      "outputs": [],
      "stateMutability": "nonpayable",
      "type": "function"
    },
    {
      "inputs": [
        {
          "internalType": "address",
          "name": "from",
          "type": "address"
        },
        {
          "internalType": "address",
          "name": "user",
          "type": "address"
        }
      ],
      "name": "_unlistT",
      "outputs": [],
      "stateMutability": "nonpayable",
      "type": "function"
    },
    {
      "inputs": [
        {
          "internalType": "address",
          "name": "from",
          "type": "address"
        },
        {
          "internalType": "uint256",
          "name": "newTries",
          "type": "uint256"
        },
        {
          "internalType": "uint256",
          "name": "newHours",
          "type": "uint256"
        },
        {
          "internalType": "uint256",
          "name": "newPrice",
          "type": "uint256"
        },
        {
          "internalType": "address",
          "name": "user",
          "type": "address"
        }
      ],
      "name": "_changeT",
      "outputs": [],
      "stateMutability": "nonpayable",
      "type": "function"
    },
    {
      "inputs": [
        {
          "internalType": "uint256",
          "name": "ticketId",
          "type": "uint256"
        },
        {
          "internalType": "address",
          "name": "user",
          "type": "address"
        }
      ],
      "name": "_buyT",
      "outputs": [],
      "stateMutability": "nonpayable",
      "type": "function"
    },
    {
      "inputs": [
        {
          "internalType": "address",
          "name": "from",
          "type": "address"
        },
        {
          "internalType": "address",
          "name": "user",
          "type": "address"
        }
      ],
      "name": "_claimT",
      "outputs": [],
      "stateMutability": "nonpayable",
      "type": "function"
    },
    {
      "inputs": [
        {
          "internalType": "address",
          "name": "user",
          "type": "address"
        }
      ],
      "name": "_decreaseT",
      "outputs": [],
      "stateMutability": "nonpayable",
      "type": "function"
    },
    {
      "inputs": [
        {
          "internalType": "address",
          "name": "user",
          "type": "address"
        }
      ],
      "name": "getUserTicket",
      "outputs": [
        {
          "internalType": "uint256",
          "name": "durationLeft",
          "type": "uint256"
        },
        {
          "internalType": "uint256",
          "name": "triesLeft",
          "type": "uint256"
        },
        {
          "internalType": "uint256",
          "name": "ownerOrSpender",
          "type": "uint256"
        },
        {
          "internalType": "uint256",
          "name": "ticketPrice",
          "type": "uint256"
        }
      ],
      "stateMutability": "view",
      "type": "function"
    },
    {
      "inputs": [
        {
          "internalType": "uint256",
          "name": "ticketId",
          "type": "uint256"
        }
      ],
      "name": "getMarketTicket",
      "outputs": [
        {
          "internalType": "uint256",
          "name": "numTries",
          "type": "uint256"
        },
        {
          "internalType": "uint256",
          "name": "duration",
          "type": "uint256"
        },
        {
          "internalType": "uint256",
          "name": "price",
          "type": "uint256"
        },
        {
          "internalType": "address",
          "name": "owner",
          "type": "address"
        },
        {
          "internalType": "uint256",
          "name": "timeWhenSold",
          "type": "uint256"
        },
        {
          "internalType": "bool",
          "name": "isAvaliable",
          "type": "bool"
        }
      ],
      "stateMutability": "view",
      "type": "function"
    },
    {
      "inputs": [
        {
          "internalType": "address",
          "name": "owner",
          "type": "address"
        },
        {
          "internalType": "address",
          "name": "spender",
          "type": "address"
        },
        {
          "internalType": "bool",
          "name": "permission",
          "type": "bool"
        }
      ],
      "name": "_approveT",
      "outputs": [],
      "stateMutability": "nonpayable",
      "type": "function"
    },
    {
      "inputs": [
        {
          "internalType": "address",
          "name": "owner",
          "type": "address"
        },
        {
          "internalType": "address",
          "name": "spender",
          "type": "address"
        }
      ],
      "name": "ticketAllowance",
      "outputs": [
        {
          "internalType": "bool",
          "name": "",
          "type": "bool"
        }
      ],
      "stateMutability": "view",
      "type": "function"
    },
    {
      "inputs": [
        {
          "internalType": "address",
          "name": "user",
          "type": "address"
        }
      ],
      "name": "isApproved",
      "outputs": [
        {
          "internalType": "bool",
          "name": "",
          "type": "bool"
        }
      ],
      "stateMutability": "view",
      "type": "function"
    },
    {
      "inputs": [],
      "name": "getTicketsOnSale",
      "outputs": [
        {
          "components": [
            {
              "internalType": "uint256",
              "name": "ticketId",
              "type": "uint256"
            },
            {
              "internalType": "uint256",
              "name": "numTries",
              "type": "uint256"
            },
            {
              "internalType": "uint256",
              "name": "duration",
              "type": "uint256"
            },
            {
              "internalType": "uint256",
              "name": "price",
              "type": "uint256"
            },
            {
              "internalType": "address",
              "name": "owner",
              "type": "address"
            },
            {
              "internalType": "uint256",
              "name": "timeWhenSold",
              "type": "uint256"
            },
            {
              "internalType": "bool",
              "name": "isAvaliable",
              "type": "bool"
            }
          ],
          "internalType": "struct ITickets.caseTicket[]",
          "name": "",
          "type": "tuple[]"
        }
      ],
      "stateMutability": "view",
      "type": "function"
    },
    {
      "inputs": [],
      "name": "getTicketCount",
      "outputs": [
        {
          "internalType": "uint256",
          "name": "",
          "type": "uint256"
        }
      ],
      "stateMutability": "view",
      "type": "function"
    }
  ],
  "bytecode": "0x60806040523480156200001157600080fd5b5060405162003cc638038062003cc683398181016040528101906200003791906200012a565b816000806101000a81548173ffffffffffffffffffffffffffffffffffffffff021916908373ffffffffffffffffffffffffffffffffffffffff16021790555080600160006101000a81548173ffffffffffffffffffffffffffffffffffffffff021916908373ffffffffffffffffffffffffffffffffffffffff160217905550505062000171565b600080fd5b600073ffffffffffffffffffffffffffffffffffffffff82169050919050565b6000620000f282620000c5565b9050919050565b6200010481620000e5565b81146200011057600080fd5b50565b6000815190506200012481620000f9565b92915050565b60008060408385031215620001445762000143620000c0565b5b6000620001548582860162000113565b9250506020620001678582860162000113565b9150509250929050565b613b4580620001816000396000f3fe608060405234801561001057600080fd5b50600436106100cf5760003560e01c8063b28b45fe1161008c578063d9adf06311610066578063d9adf06314610213578063dd006d311461022f578063fbd183d914610264578063fd5afd8014610280576100cf565b8063b28b45fe146101a6578063c25e2af4146101c2578063c853d922146101f5576100cf565b80630f03e924146100d457806321c63a47146100f05780634fca5df91461010e578063673448dd1461012a5780637fa187e71461015a578063983ba04414610176575b600080fd5b6100ee60048036038101906100e99190612dcf565b61029c565b005b6100f861087a565b6040516101059190612e1e565b60405180910390f35b61012860048036038101906101239190612e39565b610884565b005b610144600480360381019061013f9190612e79565b610c64565b6040516101519190612ec1565b60405180910390f35b610174600480360381019061016f9190612f08565b610cba565b005b610190600480360381019061018b9190612e39565b610de1565b60405161019d9190612ec1565b60405180910390f35b6101c060048036038101906101bb9190612e79565b610e75565b005b6101dc60048036038101906101d79190612e79565b61104c565b6040516101ec9493929190612f5b565b60405180910390f35b6101fd61115d565b60405161020a919061310a565b60405180910390f35b61022d60048036038101906102289190612e39565b6114aa565b005b6102496004803603810190610244919061312c565b6117fe565b60405161025b96959493929190613168565b60405180910390f35b61027e600480360381019061027991906131c9565b61190f565b005b61029a600480360381019061029591906131c9565b611e20565b005b60008054906101000a900473ffffffffffffffffffffffffffffffffffffffff1673ffffffffffffffffffffffffffffffffffffffff163373ffffffffffffffffffffffffffffffffffffffff161461032a576040517f08c379a0000000000000000000000000000000000000000000000000000000008152600401610321906132c7565b60405180910390fd5b6000151560008054906101000a900473ffffffffffffffffffffffffffffffffffffffff1673ffffffffffffffffffffffffffffffffffffffff166384203f4b836040518263ffffffff1660e01b815260040161038791906132e7565b602060405180830381865afa1580156103a4573d6000803e3d6000fd5b505050506040513d601f19601f820116820180604052508101906103c89190613317565b15151461040a576040517f08c379a000000000000000000000000000000000000000000000000000000000815260040161040190613390565b60405180910390fd5b8073ffffffffffffffffffffffffffffffffffffffff16600c8381548110610435576104346133b0565b5b906000526020600020906007020160040160009054906101000a900473ffffffffffffffffffffffffffffffffffffffff1673ffffffffffffffffffffffffffffffffffffffff1614156104be576040517f08c379a00000000000000000000000000000000000000000000000000000000081526004016104b590613451565b60405180910390fd5b60011515600c83815481106104d6576104d56133b0565b5b906000526020600020906007020160060160009054906101000a900460ff16151514610537576040517f08c379a000000000000000000000000000000000000000000000000000000000815260040161052e906134e3565b60405180910390fd5b42600c838154811061054c5761054b6133b0565b5b906000526020600020906007020160050181905550600060066000600c858154811061057b5761057a6133b0565b5b906000526020600020906007020160040160009054906101000a900473ffffffffffffffffffffffffffffffffffffffff1673ffffffffffffffffffffffffffffffffffffffff1673ffffffffffffffffffffffffffffffffffffffff16815260200190815260200160002060006101000a81548160ff021916908315150217905550600060056000600c8581548110610618576106176133b0565b5b906000526020600020906007020160040160009054906101000a900473ffffffffffffffffffffffffffffffffffffffff1673ffffffffffffffffffffffffffffffffffffffff1673ffffffffffffffffffffffffffffffffffffffff16815260200190815260200160002060006101000a81548160ff021916908315150217905550600160086000600c85815481106106b5576106b46133b0565b5b906000526020600020906007020160040160009054906101000a900473ffffffffffffffffffffffffffffffffffffffff1673ffffffffffffffffffffffffffffffffffffffff1673ffffffffffffffffffffffffffffffffffffffff16815260200190815260200160002060006101000a81548160ff0219169083151502179055506001600660008373ffffffffffffffffffffffffffffffffffffffff1673ffffffffffffffffffffffffffffffffffffffff16815260200190815260200160002060006101000a81548160ff02191690831515021790555033600c83815481106107a5576107a46133b0565b5b906000526020600020906007020160040160006101000a81548173ffffffffffffffffffffffffffffffffffffffff021916908373ffffffffffffffffffffffffffffffffffffffff1602179055506000600c838154811061080a576108096133b0565b5b906000526020600020906007020160060160006101000a81548160ff02191690831515021790555081600960008373ffffffffffffffffffffffffffffffffffffffff1673ffffffffffffffffffffffffffffffffffffffff168152602001908152602001600020819055505050565b6000600254905090565b60008054906101000a900473ffffffffffffffffffffffffffffffffffffffff1673ffffffffffffffffffffffffffffffffffffffff163373ffffffffffffffffffffffffffffffffffffffff1614610912576040517f08c379a0000000000000000000000000000000000000000000000000000000008152600401610909906132c7565b60405180910390fd5b8073ffffffffffffffffffffffffffffffffffffffff168273ffffffffffffffffffffffffffffffffffffffff16146109595761094f8282610de1565b61095857600080fd5b5b6000600960008473ffffffffffffffffffffffffffffffffffffffff1673ffffffffffffffffffffffffffffffffffffffff168152602001908152602001600020549050600860008473ffffffffffffffffffffffffffffffffffffffff1673ffffffffffffffffffffffffffffffffffffffff16815260200190815260200160002060009054906101000a900460ff16610a29576040517f08c379a0000000000000000000000000000000000000000000000000000000008152600401610a209061354f565b60405180910390fd5b6000600c8281548110610a3f57610a3e6133b0565b5b9060005260206000209060070201600101541480610aca5750603c600c8281548110610a6e57610a6d6133b0565b5b906000526020600020906007020160020154610a8a919061359e565b603c600c8381548110610aa057610a9f6133b0565b5b90600052602060002090600702016005015442610abd91906135f8565b610ac7919061365b565b10155b610b09576040517f08c379a0000000000000000000000000000000000000000000000000000000008152600401610b00906136fe565b60405180910390fd5b600060066000600c8481548110610b2357610b226133b0565b5b906000526020600020906007020160040160009054906101000a900473ffffffffffffffffffffffffffffffffffffffff1673ffffffffffffffffffffffffffffffffffffffff1673ffffffffffffffffffffffffffffffffffffffff16815260200190815260200160002060006101000a81548160ff0219169083151502179055506001600660008573ffffffffffffffffffffffffffffffffffffffff1673ffffffffffffffffffffffffffffffffffffffff16815260200190815260200160002060006101000a81548160ff0219169083151502179055506000600860008573ffffffffffffffffffffffffffffffffffffffff1673ffffffffffffffffffffffffffffffffffffffff16815260200190815260200160002060006101000a81548160ff021916908315150217905550610c5f826120fe565b505050565b6000600460008373ffffffffffffffffffffffffffffffffffffffff1673ffffffffffffffffffffffffffffffffffffffff16815260200190815260200160002060009054906101000a900460ff169050919050565b60008054906101000a900473ffffffffffffffffffffffffffffffffffffffff1673ffffffffffffffffffffffffffffffffffffffff163373ffffffffffffffffffffffffffffffffffffffff1614610d48576040517f08c379a0000000000000000000000000000000000000000000000000000000008152600401610d3f906132c7565b60405180910390fd5b80600360008573ffffffffffffffffffffffffffffffffffffffff1673ffffffffffffffffffffffffffffffffffffffff16815260200190815260200160002060008473ffffffffffffffffffffffffffffffffffffffff1673ffffffffffffffffffffffffffffffffffffffff16815260200190815260200160002060006101000a81548160ff021916908315150217905550505050565b6000600360008473ffffffffffffffffffffffffffffffffffffffff1673ffffffffffffffffffffffffffffffffffffffff16815260200190815260200160002060008373ffffffffffffffffffffffffffffffffffffffff1673ffffffffffffffffffffffffffffffffffffffff16815260200190815260200160002060009054906101000a900460ff16905092915050565b60008054906101000a900473ffffffffffffffffffffffffffffffffffffffff1673ffffffffffffffffffffffffffffffffffffffff163373ffffffffffffffffffffffffffffffffffffffff1614610f03576040517f08c379a0000000000000000000000000000000000000000000000000000000008152600401610efa906132c7565b60405180910390fd5b6000600960008373ffffffffffffffffffffffffffffffffffffffff1673ffffffffffffffffffffffffffffffffffffffff1681526020019081526020016000205490506001600c8281548110610f5d57610f5c6133b0565b5b90600052602060002090600702016001015414610fb457600c8181548110610f8857610f876133b0565b5b90600052602060002090600702016001016000815480929190610faa9061371e565b9190505550611048565b600c8181548110610fc857610fc76133b0565b5b90600052602060002090600702016001016000815480929190610fea9061371e565b91905055506000600660008473ffffffffffffffffffffffffffffffffffffffff1673ffffffffffffffffffffffffffffffffffffffff16815260200190815260200160002060006101000a81548160ff0219169083151502179055505b5050565b600080600080600161105d86612266565b14806110715750600061106f86612266565b145b806110845750600461108286612266565b145b156110a45760008061109587612266565b60009350935093509350611156565b6000600960008773ffffffffffffffffffffffffffffffffffffffff1673ffffffffffffffffffffffffffffffffffffffff16815260200190815260200160002054905060006110f382612903565b905080600c838154811061110a576111096133b0565b5b90600052602060002090600702016001015461112589612266565b600c8581548110611139576111386133b0565b5b906000526020600020906007020160030154955095509550955050505b9193509193565b606060008054906101000a900473ffffffffffffffffffffffffffffffffffffffff1673ffffffffffffffffffffffffffffffffffffffff163373ffffffffffffffffffffffffffffffffffffffff16146111ed576040517f08c379a00000000000000000000000000000000000000000000000000000000081526004016111e4906132c7565b60405180910390fd5b600080600090505b600c8054905081101561130b576000600c8281548110611218576112176133b0565b5b90600052602060002090600702016040518060e0016040529081600082015481526020016001820154815260200160028201548152602001600382015481526020016004820160009054906101000a900473ffffffffffffffffffffffffffffffffffffffff1673ffffffffffffffffffffffffffffffffffffffff1673ffffffffffffffffffffffffffffffffffffffff168152602001600582015481526020016006820160009054906101000a900460ff1615151515815250509050600115158160c00151151514156112f7576001836112f49190613748565b92505b5080806113039061379e565b9150506111f5565b5060008167ffffffffffffffff811115611328576113276137e7565b5b60405190808252806020026020018201604052801561136157816020015b61134e612ce1565b8152602001906001900390816113465790505b509050600080600090505b600c805490508110156114a0576000600c828154811061138f5761138e6133b0565b5b90600052602060002090600702016040518060e0016040529081600082015481526020016001820154815260200160028201548152602001600382015481526020016004820160009054906101000a900473ffffffffffffffffffffffffffffffffffffffff1673ffffffffffffffffffffffffffffffffffffffff1673ffffffffffffffffffffffffffffffffffffffff168152602001600582015481526020016006820160009054906101000a900460ff1615151515815250509050600115158160c001511515141561148c5780848481518110611472576114716133b0565b5b602002602001018190525082806114889061379e565b9350505b5080806114989061379e565b91505061136c565b5081935050505090565b60008054906101000a900473ffffffffffffffffffffffffffffffffffffffff1673ffffffffffffffffffffffffffffffffffffffff163373ffffffffffffffffffffffffffffffffffffffff1614611538576040517f08c379a000000000000000000000000000000000000000000000000000000000815260040161152f906132c7565b60405180910390fd5b8073ffffffffffffffffffffffffffffffffffffffff168273ffffffffffffffffffffffffffffffffffffffff161461157f576115758282610de1565b61157e57600080fd5b5b6000600960008473ffffffffffffffffffffffffffffffffffffffff1673ffffffffffffffffffffffffffffffffffffffff168152602001908152602001600020549050600560008473ffffffffffffffffffffffffffffffffffffffff1673ffffffffffffffffffffffffffffffffffffffff16815260200190815260200160002060009054906101000a900460ff1661164f576040517f08c379a000000000000000000000000000000000000000000000000000000000815260040161164690613888565b60405180910390fd5b8273ffffffffffffffffffffffffffffffffffffffff16600c828154811061167a576116796133b0565b5b906000526020600020906007020160040160009054906101000a900473ffffffffffffffffffffffffffffffffffffffff1673ffffffffffffffffffffffffffffffffffffffff1614611702576040517f08c379a00000000000000000000000000000000000000000000000000000000081526004016116f9906138f4565b60405180910390fd5b6000600c8281548110611718576117176133b0565b5b906000526020600020906007020160060160006101000a81548160ff0219169083151502179055506000600560008573ffffffffffffffffffffffffffffffffffffffff1673ffffffffffffffffffffffffffffffffffffffff16815260200190815260200160002060006101000a81548160ff0219169083151502179055506001600660008573ffffffffffffffffffffffffffffffffffffffff1673ffffffffffffffffffffffffffffffffffffffff16815260200190815260200160002060006101000a81548160ff0219169083151502179055506117f9836120fe565b505050565b6000806000806000806000600c888154811061181d5761181c6133b0565b5b90600052602060002090600702016040518060e0016040529081600082015481526020016001820154815260200160028201548152602001600382015481526020016004820160009054906101000a900473ffffffffffffffffffffffffffffffffffffffff1673ffffffffffffffffffffffffffffffffffffffff1673ffffffffffffffffffffffffffffffffffffffff168152602001600582015481526020016006820160009054906101000a900460ff161515151581525050905080602001518160400151826060015183608001518460a001518560c001519650965096509650965096505091939550919395565b60008054906101000a900473ffffffffffffffffffffffffffffffffffffffff1673ffffffffffffffffffffffffffffffffffffffff163373ffffffffffffffffffffffffffffffffffffffff161461199d576040517f08c379a0000000000000000000000000000000000000000000000000000000008152600401611994906132c7565b60405180910390fd5b8073ffffffffffffffffffffffffffffffffffffffff168573ffffffffffffffffffffffffffffffffffffffff16146119e4576119da8582610de1565b6119e357600080fd5b5b600560008673ffffffffffffffffffffffffffffffffffffffff1673ffffffffffffffffffffffffffffffffffffffff16815260200190815260200160002060009054906101000a900460ff1615611a71576040517f08c379a0000000000000000000000000000000000000000000000000000000008152600401611a6890613986565b60405180910390fd5b600760008673ffffffffffffffffffffffffffffffffffffffff1673ffffffffffffffffffffffffffffffffffffffff16815260200190815260200160002060009054906101000a900460ff1615611b5057600660008673ffffffffffffffffffffffffffffffffffffffff1673ffffffffffffffffffffffffffffffffffffffff16815260200190815260200160002060009054906101000a900460ff16611b4f576040517f08c379a0000000000000000000000000000000000000000000000000000000008152600401611b46906139f2565b60405180910390fd5b5b6000611b5b86612a0c565b905080611b9d576040517f08c379a0000000000000000000000000000000000000000000000000000000008152600401611b9490613a84565b60405180910390fd5b600c6040518060e0016040528060025481526020018781526020018681526020018581526020018873ffffffffffffffffffffffffffffffffffffffff168152602001600081526020016001151581525090806001815401808255809150506001900390600052602060002090600702016000909190919091506000820151816000015560208201518160010155604082015181600201556060820151816003015560808201518160040160006101000a81548173ffffffffffffffffffffffffffffffffffffffff021916908373ffffffffffffffffffffffffffffffffffffffff16021790555060a0820151816005015560c08201518160060160006101000a81548160ff0219169083151502179055505050600254600960008873ffffffffffffffffffffffffffffffffffffffff1673ffffffffffffffffffffffffffffffffffffffff1681526020019081526020016000208190555060026000815480929190611d0b9061379e565b91905055506001600560008873ffffffffffffffffffffffffffffffffffffffff1673ffffffffffffffffffffffffffffffffffffffff16815260200190815260200160002060006101000a81548160ff0219169083151502179055506001600760008873ffffffffffffffffffffffffffffffffffffffff1673ffffffffffffffffffffffffffffffffffffffff16815260200190815260200160002060006101000a81548160ff0219169083151502179055506000600660008873ffffffffffffffffffffffffffffffffffffffff1673ffffffffffffffffffffffffffffffffffffffff16815260200190815260200160002060006101000a81548160ff021916908315150217905550505050505050565b60008054906101000a900473ffffffffffffffffffffffffffffffffffffffff1673ffffffffffffffffffffffffffffffffffffffff163373ffffffffffffffffffffffffffffffffffffffff1614611eae576040517f08c379a0000000000000000000000000000000000000000000000000000000008152600401611ea5906132c7565b60405180910390fd5b8073ffffffffffffffffffffffffffffffffffffffff168573ffffffffffffffffffffffffffffffffffffffff1614611ef557611eeb8582610de1565b611ef457600080fd5b5b6000600960008773ffffffffffffffffffffffffffffffffffffffff1673ffffffffffffffffffffffffffffffffffffffff168152602001908152602001600020549050600560008773ffffffffffffffffffffffffffffffffffffffff1673ffffffffffffffffffffffffffffffffffffffff16815260200190815260200160002060009054906101000a900460ff16611fc5576040517f08c379a0000000000000000000000000000000000000000000000000000000008152600401611fbc90613888565b60405180910390fd5b8173ffffffffffffffffffffffffffffffffffffffff16600c8281548110611ff057611fef6133b0565b5b906000526020600020906007020160040160009054906101000a900473ffffffffffffffffffffffffffffffffffffffff1673ffffffffffffffffffffffffffffffffffffffff1614612078576040517f08c379a000000000000000000000000000000000000000000000000000000000815260040161206f906138f4565b60405180910390fd5b82600c828154811061208d5761208c6133b0565b5b90600052602060002090600702016003018190555083600c82815481106120b7576120b66133b0565b5b90600052602060002090600702016002018190555084600c82815481106120e1576120e06133b0565b5b906000526020600020906007020160010181905550505050505050565b6000600b60008373ffffffffffffffffffffffffffffffffffffffff1673ffffffffffffffffffffffffffffffffffffffff16815260200190815260200160002080548060200260200160405190810160405280929190818152602001828054801561218957602002820191906000526020600020905b815481526020019060010190808311612175575b5050505050905060005b81518110156122615760008282815181106121b1576121b06133b0565b5b60200260200101511461224e57600b60008473ffffffffffffffffffffffffffffffffffffffff1673ffffffffffffffffffffffffffffffffffffffff168152602001908152602001600020818154811061220f5761220e6133b0565b5b90600052602060002001600090556000600a600083815260200190815260200160002060006101000a81548160ff021916908315150217905550612261565b80806122599061379e565b915050612193565b505050565b60008060009054906101000a900473ffffffffffffffffffffffffffffffffffffffff1673ffffffffffffffffffffffffffffffffffffffff163373ffffffffffffffffffffffffffffffffffffffff16146122f7576040517f08c379a00000000000000000000000000000000000000000000000000000000081526004016122ee906132c7565b60405180910390fd5b60008060009054906101000a900473ffffffffffffffffffffffffffffffffffffffff1673ffffffffffffffffffffffffffffffffffffffff166384203f4b846040518263ffffffff1660e01b815260040161235391906132e7565b602060405180830381865afa158015612370573d6000803e3d6000fd5b505050506040513d601f19601f820116820180604052508101906123949190613317565b80156123ea5750600560008473ffffffffffffffffffffffffffffffffffffffff1673ffffffffffffffffffffffffffffffffffffffff16815260200190815260200160002060009054906101000a900460ff16155b80156124405750600860008473ffffffffffffffffffffffffffffffffffffffff1673ffffffffffffffffffffffffffffffffffffffff16815260200190815260200160002060009054906101000a900460ff16155b1561244e57600190506128fa565b60008054906101000a900473ffffffffffffffffffffffffffffffffffffffff1673ffffffffffffffffffffffffffffffffffffffff166384203f4b846040518263ffffffff1660e01b81526004016124a791906132e7565b602060405180830381865afa1580156124c4573d6000803e3d6000fd5b505050506040513d601f19601f820116820180604052508101906124e89190613317565b15801561253e5750600660008473ffffffffffffffffffffffffffffffffffffffff1673ffffffffffffffffffffffffffffffffffffffff16815260200190815260200160002060009054906101000a900460ff165b1561254c57600290506128f9565b60008054906101000a900473ffffffffffffffffffffffffffffffffffffffff1673ffffffffffffffffffffffffffffffffffffffff166384203f4b846040518263ffffffff1660e01b81526004016125a591906132e7565b602060405180830381865afa1580156125c2573d6000803e3d6000fd5b505050506040513d601f19601f820116820180604052508101906125e69190613317565b801561263c5750600560008473ffffffffffffffffffffffffffffffffffffffff1673ffffffffffffffffffffffffffffffffffffffff16815260200190815260200160002060009054906101000a900460ff16155b80156126925750600660008473ffffffffffffffffffffffffffffffffffffffff1673ffffffffffffffffffffffffffffffffffffffff16815260200190815260200160002060009054906101000a900460ff16155b80156126e75750600760008473ffffffffffffffffffffffffffffffffffffffff1673ffffffffffffffffffffffffffffffffffffffff16815260200190815260200160002060009054906101000a900460ff165b801561273c5750600860008473ffffffffffffffffffffffffffffffffffffffff1673ffffffffffffffffffffffffffffffffffffffff16815260200190815260200160002060009054906101000a900460ff165b1561274a57600390506128f8565b60008054906101000a900473ffffffffffffffffffffffffffffffffffffffff1673ffffffffffffffffffffffffffffffffffffffff166384203f4b846040518263ffffffff1660e01b81526004016127a391906132e7565b602060405180830381865afa1580156127c0573d6000803e3d6000fd5b505050506040513d601f19601f820116820180604052508101906127e49190613317565b80156128395750600560008473ffffffffffffffffffffffffffffffffffffffff1673ffffffffffffffffffffffffffffffffffffffff16815260200190815260200160002060009054906101000a900460ff165b801561288f5750600660008473ffffffffffffffffffffffffffffffffffffffff1673ffffffffffffffffffffffffffffffffffffffff16815260200190815260200160002060009054906101000a900460ff16155b80156128e45750600760008473ffffffffffffffffffffffffffffffffffffffff1673ffffffffffffffffffffffffffffffffffffffff16815260200190815260200160002060009054906101000a900460ff165b156128f257600490506128f7565b600090505b5b5b5b80915050919050565b600080603c600c848154811061291c5761291b6133b0565b5b906000526020600020906007020160020154612938919061359e565b603c600c858154811061294e5761294d6133b0565b5b9060005260206000209060070201600501544261296b91906135f8565b612975919061365b565b10612987576000905080915050612a07565b603c600c848154811061299d5761299c6133b0565b5b906000526020600020906007020160050154426129ba91906135f8565b6129c4919061365b565b603c600c85815481106129da576129d96133b0565b5b9060005260206000209060070201600201546129f6919061359e565b612a0091906135f8565b9050809150505b919050565b6000806000612a1a84612b0e565b905060005b8151811015612b0357600a6000838381518110612a3f57612a3e6133b0565b5b6020026020010151815260200190815260200160002060009054906101000a900460ff16612af057600b60008673ffffffffffffffffffffffffffffffffffffffff1673ffffffffffffffffffffffffffffffffffffffff168152602001908152602001600020828281518110612ab957612ab86133b0565b5b6020026020010151908060018154018082558091505060019003906000526020600020016000909190919091505560019250612b03565b8080612afb9061379e565b915050612a1f565b508192505050919050565b60606000600160009054906101000a900473ffffffffffffffffffffffffffffffffffffffff1673ffffffffffffffffffffffffffffffffffffffff166370a08231846040518263ffffffff1660e01b8152600401612b6d91906132e7565b602060405180830381865afa158015612b8a573d6000803e3d6000fd5b505050506040513d601f19601f82011682018060405250810190612bae9190613ab9565b905060008167ffffffffffffffff811115612bcc57612bcb6137e7565b5b604051908082528060200260200182016040528015612bfa5781602001602082028036833780820191505090505b50905060005b82811015612cd657600160009054906101000a900473ffffffffffffffffffffffffffffffffffffffff1673ffffffffffffffffffffffffffffffffffffffff16632f745c5986836040518363ffffffff1660e01b8152600401612c65929190613ae6565b602060405180830381865afa158015612c82573d6000803e3d6000fd5b505050506040513d601f19601f82011682018060405250810190612ca69190613ab9565b828281518110612cb957612cb86133b0565b5b60200260200101818152505080612ccf9061379e565b9050612c00565b508092505050919050565b6040518060e0016040528060008152602001600081526020016000815260200160008152602001600073ffffffffffffffffffffffffffffffffffffffff168152602001600081526020016000151581525090565b600080fd5b6000819050919050565b612d4e81612d3b565b8114612d5957600080fd5b50565b600081359050612d6b81612d45565b92915050565b600073ffffffffffffffffffffffffffffffffffffffff82169050919050565b6000612d9c82612d71565b9050919050565b612dac81612d91565b8114612db757600080fd5b50565b600081359050612dc981612da3565b92915050565b60008060408385031215612de657612de5612d36565b5b6000612df485828601612d5c565b9250506020612e0585828601612dba565b9150509250929050565b612e1881612d3b565b82525050565b6000602082019050612e336000830184612e0f565b92915050565b60008060408385031215612e5057612e4f612d36565b5b6000612e5e85828601612dba565b9250506020612e6f85828601612dba565b9150509250929050565b600060208284031215612e8f57612e8e612d36565b5b6000612e9d84828501612dba565b91505092915050565b60008115159050919050565b612ebb81612ea6565b82525050565b6000602082019050612ed66000830184612eb2565b92915050565b612ee581612ea6565b8114612ef057600080fd5b50565b600081359050612f0281612edc565b92915050565b600080600060608486031215612f2157612f20612d36565b5b6000612f2f86828701612dba565b9350506020612f4086828701612dba565b9250506040612f5186828701612ef3565b9150509250925092565b6000608082019050612f706000830187612e0f565b612f7d6020830186612e0f565b612f8a6040830185612e0f565b612f976060830184612e0f565b95945050505050565b600081519050919050565b600082825260208201905092915050565b6000819050602082019050919050565b612fd581612d3b565b82525050565b612fe481612d91565b82525050565b612ff381612ea6565b82525050565b60e08201600082015161300f6000850182612fcc565b5060208201516130226020850182612fcc565b5060408201516130356040850182612fcc565b5060608201516130486060850182612fcc565b50608082015161305b6080850182612fdb565b5060a082015161306e60a0850182612fcc565b5060c082015161308160c0850182612fea565b50505050565b60006130938383612ff9565b60e08301905092915050565b6000602082019050919050565b60006130b782612fa0565b6130c18185612fab565b93506130cc83612fbc565b8060005b838110156130fd5781516130e48882613087565b97506130ef8361309f565b9250506001810190506130d0565b5085935050505092915050565b6000602082019050818103600083015261312481846130ac565b905092915050565b60006020828403121561314257613141612d36565b5b600061315084828501612d5c565b91505092915050565b61316281612d91565b82525050565b600060c08201905061317d6000830189612e0f565b61318a6020830188612e0f565b6131976040830187612e0f565b6131a46060830186613159565b6131b16080830185612e0f565b6131be60a0830184612eb2565b979650505050505050565b600080600080600060a086880312156131e5576131e4612d36565b5b60006131f388828901612dba565b955050602061320488828901612d5c565b945050604061321588828901612d5c565b935050606061322688828901612d5c565b925050608061323788828901612dba565b9150509295509295909350565b600082825260208201905092915050565b7f546869732066756e6374696f6e206973207370656369616c6c7920726573657260008201527f76656420666f7220746865206d61696e20636f6e74726163742e000000000000602082015250565b60006132b1603a83613244565b91506132bc82613255565b604082019050919050565b600060208201905081810360008301526132e0816132a4565b9050919050565b60006020820190506132fc6000830184613159565b92915050565b60008151905061331181612edc565b92915050565b60006020828403121561332d5761332c612d36565b5b600061333b84828501613302565b91505092915050565b7f412056495020757365722063616e206e6f74206275792061207469636b657400600082015250565b600061337a601f83613244565b915061338582613344565b602082019050919050565b600060208201905081810360008301526133a98161336d565b9050919050565b7f4e487b7100000000000000000000000000000000000000000000000000000000600052603260045260246000fd5b7f596f752063616e206e6f74206275792061207469636b657420746f20796f757260008201527f2073656c66000000000000000000000000000000000000000000000000000000602082015250565b600061343b602583613244565b9150613446826133df565b604082019050919050565b6000602082019050818103600083015261346a8161342e565b9050919050565b7f5469636b6574206973206e6f742063757272656e746c79206176616c6961626c60008201527f6500000000000000000000000000000000000000000000000000000000000000602082015250565b60006134cd602183613244565b91506134d882613471565b604082019050919050565b600060208201905081810360008301526134fc816134c0565b9050919050565b7f5573657220646964206e6f742073656c6c20616e79205469636b657400000000600082015250565b6000613539601c83613244565b915061354482613503565b602082019050919050565b600060208201905081810360008301526135688161352c565b9050919050565b7f4e487b7100000000000000000000000000000000000000000000000000000000600052601160045260246000fd5b60006135a982612d3b565b91506135b483612d3b565b9250817fffffffffffffffffffffffffffffffffffffffffffffffffffffffffffffffff04831182151516156135ed576135ec61356f565b5b828202905092915050565b600061360382612d3b565b915061360e83612d3b565b9250828210156136215761362061356f565b5b828203905092915050565b7f4e487b7100000000000000000000000000000000000000000000000000000000600052601260045260246000fd5b600061366682612d3b565b915061367183612d3b565b9250826136815761368061362c565b5b828204905092915050565b7f4475726174696f6e206f6620746865205469636b6574206f72206e756d54726960008201527f6573206973207374696c6c206176616c6961626c650000000000000000000000602082015250565b60006136e8603583613244565b91506136f38261368c565b604082019050919050565b60006020820190508181036000830152613717816136db565b9050919050565b600061372982612d3b565b9150600082141561373d5761373c61356f565b5b600182039050919050565b600061375382612d3b565b915061375e83612d3b565b9250827fffffffffffffffffffffffffffffffffffffffffffffffffffffffffffffffff038211156137935761379261356f565b5b828201905092915050565b60006137a982612d3b565b91507fffffffffffffffffffffffffffffffffffffffffffffffffffffffffffffffff8214156137dc576137db61356f565b5b600182019050919050565b7f4e487b7100000000000000000000000000000000000000000000000000000000600052604160045260246000fd5b7f55736572206973206e6f742063757272656e746c792073656c6c696e6720612060008201527f5469636b65740000000000000000000000000000000000000000000000000000602082015250565b6000613872602683613244565b915061387d82613816565b604082019050919050565b600060208201905081810360008301526138a181613865565b9050919050565b7f55736572206973206e6f74206f776e6572206f662074686973207469636b6574600082015250565b60006138de602083613244565b91506138e9826138a8565b602082019050919050565b6000602082019050818103600083015261390d816138d1565b9050919050565b7f5573657220697320616c72656164792063757272656e746c792073656c6c696e60008201527f672061205469636b657400000000000000000000000000000000000000000000602082015250565b6000613970602a83613244565b915061397b82613914565b604082019050919050565b6000602082019050818103600083015261399f81613963565b9050919050565b7f5573657220686173206e6f74207469636b6574206176616c6961626c65000000600082015250565b60006139dc601d83613244565b91506139e7826139a6565b602082019050919050565b60006020820190508181036000830152613a0b816139cf565b9050919050565b7f536f7272792c20796f7520616c726561647920686176652061204d722043727960008201527f70746f206f6e207573652e000000000000000000000000000000000000000000602082015250565b6000613a6e602b83613244565b9150613a7982613a12565b604082019050919050565b60006020820190508181036000830152613a9d81613a61565b9050919050565b600081519050613ab381612d45565b92915050565b600060208284031215613acf57613ace612d36565b5b6000613add84828501613aa4565b91505092915050565b6000604082019050613afb6000830185613159565b613b086020830184612e0f565b939250505056fea2646970667358221220f0fdd633e71f347a1a4de7814f6e4ba07c00c6d3ed9a6a96207c60df42f57c1164736f6c634300080a0033",
  "immutableReferences": {},
  "source": "// SPDX-License-Identifier: MIT\r\npragma solidity ^0.8.0;\r\nimport \"./ITickets.sol\";\r\nimport \"./IRacksItems.sol\";\r\nimport \"@openzeppelin/contracts/token/ERC721/extensions/IERC721Enumerable.sol\"; \r\n\r\ncontract Tickets is ITickets{\r\n\r\n    IRacksItems RacksItems;\r\n    IERC721Enumerable MR_CRYPTO;\r\n    uint256 private s_ticketCount;\r\n    mapping(address => mapping(address => bool)) ticketApprovals;\r\n    mapping (address => bool) approved;\r\n    mapping(address => bool) private s_isSellingTicket;\r\n    mapping(address => bool) private s_hasTicket; \r\n    mapping(address => bool) private s_hadTicket;\r\n    mapping(address => bool) private s_ticketIsLended;\r\n    mapping(address => uint256) s_lastTicket;\r\n    mapping(uint => bool) s_isLocked;\r\n    mapping(address => uint256[]) s_locked_mrCrypto;\r\n    caseTicket[] private _tickets;\r\n\r\n    modifier notForUsers(){\r\n       require(msg.sender==address(RacksItems),\"This function is specially reserved for the main contract.\");\r\n       _;\r\n    }\r\n    constructor(address _racksItems, address _mrCrypto){\r\n       RacksItems = IRacksItems(_racksItems);\r\n       MR_CRYPTO = IERC721Enumerable(_mrCrypto);  \r\n    }\r\n\r\n    \r\n    function _listT(address from ,uint256 numTries, uint256 _hours, uint256 price, address user) external notForUsers  override{\r\n        if(from!=user){\r\n            require(ticketAllowance(from, user));\r\n        }\r\n\r\n        require(!s_isSellingTicket[from], \"User is already currently selling a Ticket\");\r\n        if(s_hadTicket[from]) {\r\n            require(s_hasTicket[from] , \"User has not ticket avaliable\");\r\n        }\r\n        bool success = _lockMrCrypto(from);\r\n        require(success,\"Sorry, you already have a Mr Crypto on use.\");\r\n        _tickets.push(\r\n        caseTicket(\r\n        s_ticketCount,\r\n        numTries,\r\n        _hours,\r\n        price,\r\n        from,\r\n        0,\r\n        true\r\n        ));\r\n\r\n        s_lastTicket[from] = s_ticketCount;\r\n        s_ticketCount++;\r\n        s_isSellingTicket[from] = true;\r\n        s_hadTicket[from] = true;\r\n        s_hasTicket[from] = false;\r\n    }\r\n\r\n    function _unlistT(address from, address user) external notForUsers override{\r\n        if(from!=user){\r\n            require(ticketAllowance(from, user));\r\n        }\r\n        \r\n        uint ticketId = s_lastTicket[from];\r\n        require(s_isSellingTicket[from], \"User is not currently selling a Ticket\");\r\n        require(_tickets[ticketId].owner == from, \"User is not owner of this ticket\");\r\n        _tickets[ticketId].isAvaliable = false;\r\n        s_isSellingTicket[from] = false;\r\n        s_hasTicket[from] = true;\r\n        _unlockMrCrypto(from);\r\n     \r\n    }\r\n\r\n    function _changeT(address from , uint256 newTries, uint256 newHours, uint256 newPrice, address user) external notForUsers override{\r\n        if(from!=user){\r\n            require(ticketAllowance(from,user));\r\n        }\r\n        uint ticketId = s_lastTicket[from];\r\n        require(s_isSellingTicket[from], \"User is not currently selling a Ticket\");\r\n        require(_tickets[ticketId].owner == user, \"User is not owner of this ticket\");\r\n        _tickets[ticketId].price = newPrice;\r\n        _tickets[ticketId].duration = newHours;\r\n        _tickets[ticketId].numTries = newTries;\r\n     \r\n    }\r\n\r\n    function _buyT(uint256 ticketId, address user) external notForUsers override{\r\n\r\n        require(RacksItems.isVip(user)==false, \"A VIP user can not buy a ticket\");\r\n        require(_tickets[ticketId].owner != user, \"You can not buy a ticket to your self\");\r\n        require(_tickets[ticketId].isAvaliable == true, \"Ticket is not currently avaliable\");    \r\n        _tickets[ticketId].timeWhenSold = block.timestamp;\r\n        s_hasTicket[_tickets[ticketId].owner] = false;\r\n        s_isSellingTicket[_tickets[ticketId].owner] = false;\r\n        s_ticketIsLended[_tickets[ticketId].owner] = true;\r\n        s_hasTicket[user] = true;\r\n        _tickets[ticketId].owner = msg.sender;\r\n        _tickets[ticketId].isAvaliable = false;\r\n        s_lastTicket[user] = ticketId;\r\n       \r\n    }\r\n\r\n    /** @notice Function used to claim Ticket back when duration is over\r\n    * @dev - Check that claimer is lending a Ticket\r\n    * - Check that duration of the Ticket is over -> block.timestamp is in seconds and duration in hours \r\n    * -> transform duration into seconds \r\n    * - Update mappings\r\n    * - Emit event\r\n    */\r\n\r\n    function _claimT(address from , address user) external notForUsers override{\r\n        if(from!=user){\r\n            require(ticketAllowance(from,user));\r\n        }\r\n        uint ticketId = s_lastTicket[from];\r\n        require(s_ticketIsLended[from], \"User did not sell any Ticket\");\r\n        require((_tickets[ticketId].numTries == 0) || (((block.timestamp - _tickets[ticketId].timeWhenSold)/60) >= (_tickets[ticketId].duration * 60)), \"Duration of the Ticket or numTries is still avaliable\");\r\n        s_hasTicket[_tickets[ticketId].owner] = false;\r\n        s_hasTicket[from] = true;\r\n        s_ticketIsLended[from] = false;\r\n        _unlockMrCrypto(user);\r\n  \r\n    }\r\n\r\n    /** @notice Function used to decrease Ticket tries avaliables\r\n    * @dev - Check if used trie was last one\r\n    *        - If not: just decrease numTries\r\n    *        - If so: decrease numTries, update Avaliability and mappings\r\n    */\r\n\r\n    function _decreaseT(address user) external notForUsers override {\r\n        uint ticketId = s_lastTicket[user];\r\n        if(_tickets[ticketId].numTries != 1) { // Case it was not the last try avaliable\r\n            _tickets[ticketId].numTries--;\r\n        }else { // it was his last try avaliable\r\n            _tickets[ticketId].numTries--;\r\n            s_hasTicket[user] = false;\r\n        }\r\n\r\n     }\r\n     function getUserTicket(address user) public view override returns(uint256 durationLeft, uint256 triesLeft, uint ownerOrSpender, uint256 ticketPrice) {\r\n        if(_ticketOwnership(user)==1 || _ticketOwnership(user)==0 || _ticketOwnership(user)==4){\r\n          return(0,0,_ticketOwnership(user), 0);\r\n        }else{\r\n        uint256 ticketId = s_lastTicket[user];\r\n        uint256 timeLeft = _getTicketDurationLeft(ticketId);\r\n        return (timeLeft, _tickets[ticketId].numTries, _ticketOwnership(user), _tickets[ticketId].price);\r\n        }\r\n    }\r\n\r\n    function getMarketTicket(uint256 ticketId) public override view returns( uint256 numTries, uint256 duration, uint256 price, address owner, uint256 timeWhenSold, bool isAvaliable){\r\n        caseTicket memory ticket = _tickets[ticketId];  \r\n        return(\r\n            ticket.numTries,\r\n            ticket.duration,\r\n            ticket.price,\r\n            ticket.owner,\r\n            ticket.timeWhenSold,\r\n            ticket.isAvaliable\r\n        );\r\n\r\n        \r\n    }\r\n\r\n    //////////////////////\r\n    //  User Functions // \r\n    /////////////////////\r\n\r\n    /**\r\n    *Returns the users` ticket ownership:\r\n        -1 if is VIP and owns a ticket\r\n        -2 if is NOT VIP and owns a ticket\r\n        -3 if is VIP and ticket is lended\r\n        -4 if is VIP and currently selling a ticket\r\n        -0 else\r\n    \r\n    */\r\n\r\n    function _ticketOwnership(address user) internal view returns(uint ownerOrSpender){\r\n      require(msg.sender==address(RacksItems), \"This function is specially reserved for the main contract.\");\r\n      uint ticketOwnership;\r\n      if (RacksItems.isVip(user) && !s_isSellingTicket[user] &&  !s_ticketIsLended[user]){\r\n        ticketOwnership=1;\r\n        } else if(!RacksItems.isVip(user) && s_hasTicket[user] ){\r\n          ticketOwnership=2;\r\n        }else if(RacksItems.isVip(user) && !s_isSellingTicket[user] && !s_hasTicket[user] && s_hadTicket[user] && s_ticketIsLended[user]){\r\n          ticketOwnership=3;\r\n        } else if (RacksItems.isVip(user) && s_isSellingTicket[user] && !s_hasTicket[user] && s_hadTicket[user]){\r\n          ticketOwnership=4;\r\n        }else{\r\n          ticketOwnership=0;\r\n        }\r\n      return ticketOwnership;\r\n    }\r\n\r\n\r\n   \r\n\r\n\r\n    function _approveT(address owner, address spender, bool permission) external notForUsers override {\r\n      ticketApprovals[owner][spender]=permission;\r\n    }\r\n\r\n    function ticketAllowance(address owner, address spender) public override view returns(bool){\r\n      return ticketApprovals[owner][spender];\r\n    }\r\n\r\n    function isApproved(address user) public override view returns(bool){\r\n      return approved[user];\r\n    }\r\n\r\n    \r\n    function getTicketsOnSale() public view override returns(caseTicket[] memory) {\r\n        require(msg.sender==address(RacksItems), \"This function is specially reserved for the main contract.\");\r\n        uint arrayLength;\r\n\r\n        for(uint i=0; i<_tickets.length;i++){\r\n            caseTicket memory ticket = _tickets[i];\r\n            if(ticket.isAvaliable==true){\r\n            arrayLength+=1;\r\n            }\r\n        }\r\n        caseTicket[] memory tickets = new caseTicket[](arrayLength);\r\n        uint indexCount;\r\n        for(uint256 i = 0; i < _tickets.length; i++){\r\n            caseTicket memory ticket = _tickets[i];\r\n            if(ticket.isAvaliable==true){\r\n            tickets[indexCount]=ticket;\r\n            indexCount++;\r\n            }\r\n        }\r\n        return tickets;\r\n    }\r\n\r\n     function _getTicketDurationLeft(uint256 ticketId) internal view  returns (uint256) {\r\n            uint256 timeLeft;\r\n            if((((block.timestamp - _tickets[ticketId].timeWhenSold)/60) >= (_tickets[ticketId].duration * 60))) {\r\n              timeLeft = 0;\r\n              return (timeLeft);\r\n            }else {\r\n              timeLeft = (_tickets[ticketId].duration * 60) - ((block.timestamp - _tickets[ticketId].timeWhenSold)/60);\r\n              return (timeLeft);\r\n            } \r\n            \r\n    }\r\n     //////////////////////////\r\n    //  MR Crypto functions // \r\n    /////////////////////////\r\n\r\n    /**\r\n    *@notice This functions are meant to prevent a security issue.\r\n    *Thank to this functions each Mr Crypto can only have one ticket at every moment, so even if someone sends it to other wallet wont be able to use a ticket till is unlocked\r\n    */\r\n\r\n\r\n    /**\r\n    *@notice Returns the IDs of all the Mr Cryptos owned by a user\r\n    */\r\n    function _mrCryproWallet(address user) internal  view returns (uint256[] memory){\r\n\r\n        uint256 ownerTokenCount = MR_CRYPTO.balanceOf(user);\r\n        uint256[] memory tokenIds = new uint256[](ownerTokenCount);\r\n        for (uint256 i; i < ownerTokenCount; ++i) {\r\n            tokenIds[i] = MR_CRYPTO.tokenOfOwnerByIndex(user, i);\r\n        }\r\n        return tokenIds;\r\n    }\r\n\r\n    /**\r\n    *@dev This functions saves the id of the mr crypto used to sell a ticket in a mapping\r\n    */\r\n    function _lockMrCrypto(address user) internal returns (bool){\r\n        bool success;\r\n        uint [] memory wallet = _mrCryproWallet(user);\r\n        for(uint i=0; i<wallet.length; i++){\r\n            if(!s_isLocked[wallet[i]]){\r\n                s_locked_mrCrypto[user].push(wallet[i]);\r\n                success = true;\r\n                break;\r\n            }\r\n        }\r\n        return success;\r\n        \r\n    }\r\n    /**\r\n    *@dev After a ticket live is over and the owner gets his ticket back his MrCrypto will be able to sell tickets again using the mapping\r\n    */\r\n    function _unlockMrCrypto(address user) internal {\r\n        uint [] memory locked = s_locked_mrCrypto[user];\r\n        for(uint i=0; i<locked.length; i++){\r\n            if(locked[i]!=0){\r\n                delete s_locked_mrCrypto[user][i];\r\n                s_isLocked[i]=false;\r\n                break;\r\n            }\r\n        }\r\n    }\r\n\r\n    //Returns current ticket count.\r\n    function getTicketCount() public override view returns(uint256) {\r\n      return s_ticketCount;\r\n    }\r\n\r\n\r\n\r\n}",
  "sourcePath": "C:\\Users\\oteri\\Desktop\\racs-items\\racks-items-frontend\\contracts\\Tickets.sol",
  "compiler": {
    "name": "solc",
    "version": "0.8.10+commit.fc410830.Emscripten.clang"
  },
  "schemaVersion": "3.4.3",
  "updatedAt": "2022-07-21T21:15:23.727Z",
  "devdoc": {
    "kind": "dev",
    "methods": {
      "_claimT(address,address)": {
        "details": "- Check that claimer is lending a Ticket - Check that duration of the Ticket is over -> block.timestamp is in seconds and duration in hours  -> transform duration into seconds  - Update mappings - Emit event"
      },
      "_decreaseT(address)": {
        "details": "- Check if used trie was last one        - If not: just decrease numTries        - If so: decrease numTries, update Avaliability and mappings"
      }
    },
    "version": 1
  },
  "userdoc": {
    "kind": "user",
    "methods": {
      "_claimT(address,address)": {
        "notice": "Function used to claim Ticket back when duration is over"
      },
      "_decreaseT(address)": {
        "notice": "Function used to decrease Ticket tries avaliables"
      }
    },
    "version": 1
  }
}