{
  "_format": "hh-sol-artifact-1",
  "contractName": "Tickets",
  "sourceName": "contracts/Tickets.sol",
  "abi": [
    {
      "inputs": [
        {
          "internalType": "address",
          "name": "_racksItems",
          "type": "address"
        },
        {
          "internalType": "address",
          "name": "_mrCrypto",
          "type": "address"
        }
      ],
      "stateMutability": "nonpayable",
      "type": "constructor"
    },
    {
      "inputs": [
        {
          "internalType": "address",
          "name": "owner",
          "type": "address"
        },
        {
          "internalType": "address",
          "name": "spender",
          "type": "address"
        },
        {
          "internalType": "bool",
          "name": "permission",
          "type": "bool"
        }
      ],
      "name": "approveTicket",
      "outputs": [],
      "stateMutability": "nonpayable",
      "type": "function"
    },
    {
      "inputs": [
        {
          "internalType": "uint256",
          "name": "ticketId",
          "type": "uint256"
        },
        {
          "internalType": "address",
          "name": "user",
          "type": "address"
        }
      ],
      "name": "buyTicket",
      "outputs": [],
      "stateMutability": "nonpayable",
      "type": "function"
    },
    {
      "inputs": [
        {
          "internalType": "address",
          "name": "from",
          "type": "address"
        },
        {
          "internalType": "uint256",
          "name": "newTries",
          "type": "uint256"
        },
        {
          "internalType": "uint256",
          "name": "newHours",
          "type": "uint256"
        },
        {
          "internalType": "uint256",
          "name": "newPrice",
          "type": "uint256"
        },
        {
          "internalType": "address",
          "name": "user",
          "type": "address"
        }
      ],
      "name": "changeTicketConditions",
      "outputs": [],
      "stateMutability": "nonpayable",
      "type": "function"
    },
    {
      "inputs": [
        {
          "internalType": "address",
          "name": "from",
          "type": "address"
        },
        {
          "internalType": "address",
          "name": "user",
          "type": "address"
        }
      ],
      "name": "claimTicketBack",
      "outputs": [],
      "stateMutability": "nonpayable",
      "type": "function"
    },
    {
      "inputs": [
        {
          "internalType": "address",
          "name": "user",
          "type": "address"
        }
      ],
      "name": "decreaseTicketTries",
      "outputs": [],
      "stateMutability": "nonpayable",
      "type": "function"
    },
    {
      "inputs": [
        {
          "internalType": "uint256",
          "name": "ticketId",
          "type": "uint256"
        }
      ],
      "name": "getMarketTicket",
      "outputs": [
        {
          "internalType": "uint256",
          "name": "numTries",
          "type": "uint256"
        },
        {
          "internalType": "uint256",
          "name": "duration",
          "type": "uint256"
        },
        {
          "internalType": "uint256",
          "name": "price",
          "type": "uint256"
        },
        {
          "internalType": "address",
          "name": "owner",
          "type": "address"
        },
        {
          "internalType": "uint256",
          "name": "timeWhenSold",
          "type": "uint256"
        },
        {
          "internalType": "bool",
          "name": "isAvaliable",
          "type": "bool"
        }
      ],
      "stateMutability": "view",
      "type": "function"
    },
    {
      "inputs": [],
      "name": "getTicketCount",
      "outputs": [
        {
          "internalType": "uint256",
          "name": "",
          "type": "uint256"
        }
      ],
      "stateMutability": "view",
      "type": "function"
    },
    {
      "inputs": [],
      "name": "getTicketsOnSale",
      "outputs": [
        {
          "components": [
            {
              "internalType": "uint256",
              "name": "ticketId",
              "type": "uint256"
            },
            {
              "internalType": "uint256",
              "name": "numTries",
              "type": "uint256"
            },
            {
              "internalType": "uint256",
              "name": "duration",
              "type": "uint256"
            },
            {
              "internalType": "uint256",
              "name": "price",
              "type": "uint256"
            },
            {
              "internalType": "address",
              "name": "owner",
              "type": "address"
            },
            {
              "internalType": "uint256",
              "name": "timeWhenSold",
              "type": "uint256"
            },
            {
              "internalType": "bool",
              "name": "isAvaliable",
              "type": "bool"
            }
          ],
          "internalType": "struct ITickets.caseTicket[]",
          "name": "",
          "type": "tuple[]"
        }
      ],
      "stateMutability": "view",
      "type": "function"
    },
    {
      "inputs": [
        {
          "internalType": "address",
          "name": "user",
          "type": "address"
        }
      ],
      "name": "getUserTicket",
      "outputs": [
        {
          "internalType": "uint256",
          "name": "durationLeft",
          "type": "uint256"
        },
        {
          "internalType": "uint256",
          "name": "triesLeft",
          "type": "uint256"
        },
        {
          "internalType": "uint256",
          "name": "ownerOrSpender",
          "type": "uint256"
        },
        {
          "internalType": "uint256",
          "name": "ticketPrice",
          "type": "uint256"
        }
      ],
      "stateMutability": "view",
      "type": "function"
    },
    {
      "inputs": [
        {
          "internalType": "address",
          "name": "user",
          "type": "address"
        }
      ],
      "name": "isApproved",
      "outputs": [
        {
          "internalType": "bool",
          "name": "",
          "type": "bool"
        }
      ],
      "stateMutability": "view",
      "type": "function"
    },
    {
      "inputs": [
        {
          "internalType": "address",
          "name": "from",
          "type": "address"
        },
        {
          "internalType": "uint256",
          "name": "numTries",
          "type": "uint256"
        },
        {
          "internalType": "uint256",
          "name": "_hours",
          "type": "uint256"
        },
        {
          "internalType": "uint256",
          "name": "price",
          "type": "uint256"
        },
        {
          "internalType": "address",
          "name": "user",
          "type": "address"
        }
      ],
      "name": "listTicket",
      "outputs": [],
      "stateMutability": "nonpayable",
      "type": "function"
    },
    {
      "inputs": [
        {
          "internalType": "address",
          "name": "owner",
          "type": "address"
        },
        {
          "internalType": "address",
          "name": "spender",
          "type": "address"
        }
      ],
      "name": "ticketAllowance",
      "outputs": [
        {
          "internalType": "bool",
          "name": "",
          "type": "bool"
        }
      ],
      "stateMutability": "view",
      "type": "function"
    },
    {
      "inputs": [
        {
          "internalType": "address",
          "name": "from",
          "type": "address"
        },
        {
          "internalType": "address",
          "name": "user",
          "type": "address"
        }
      ],
      "name": "unListTicket",
      "outputs": [],
      "stateMutability": "nonpayable",
      "type": "function"
    }
  ],
  "bytecode": "0x60806040523480156200001157600080fd5b50604051620021b9380380620021b9833981016040819052620000349162000083565b600080546001600160a01b039384166001600160a01b03199182161790915560018054929093169116179055620000bb565b80516001600160a01b03811681146200007e57600080fd5b919050565b600080604083850312156200009757600080fd5b620000a28362000066565b9150620000b26020840162000066565b90509250929050565b6120ee80620000cb6000396000f3fe608060405234801561001057600080fd5b50600436106100bf5760003560e01c8063846618ab1161007c578063846618ab14610164578063983ba04414610177578063c25e2af41461018a578063c853d922146101bd578063cc4ac04d146101d2578063dd006d31146101e5578063f200e1611461023057600080fd5b806321c63a47146100c457806330dc2764146100da57806361eadf2c146100ef57806362a845ec14610102578063673448dd1461011557806369fedbba14610151575b600080fd5b6002546040519081526020015b60405180910390f35b6100ed6100e8366004611cf3565b610243565b005b6100ed6100fd366004611d88565b61034e565b6100ed610110366004611e27565b610712565b610141610123366004611cf3565b6001600160a01b031660009081526005602052604090205460ff1690565b60405190151581526020016100d1565b6100ed61015f366004611d88565b610b08565b6100ed610172366004611d0e565b610c7c565b610141610185366004611d0e565b610ed5565b61019d610198366004611cf3565b610f03565b6040805194855260208501939093529183015260608201526080016100d1565b6101c5610fe4565b6040516100d19190611e5e565b6100ed6101e0366004611d41565b611250565b6101f86101f3366004611df5565b6112b4565b604080519687526020870195909552938501929092526001600160a01b031660608401526080830152151560a082015260c0016100d1565b6100ed61023e366004611d0e565b61135f565b6000546001600160a01b031633146102765760405162461bcd60e51b815260040161026d90611f66565b60405180910390fd5b6001600160a01b0381166000908152600a602052604090205460038054829081106102a3576102a361207b565b9060005260206000209060070201600101546001146102f657600381815481106102cf576102cf61207b565b6000918252602082206001600790920201018054916102ed83612033565b91905055505050565b600381815481106103095761030961207b565b60009182526020822060016007909202010180549161032783612033565b9091555050506001600160a01b03166000908152600760205260409020805460ff19169055565b6000546001600160a01b031633146103785760405162461bcd60e51b815260040161026d90611f66565b806001600160a01b0316856001600160a01b0316146103a45761039b8582610ed5565b6103a457600080fd5b6001600160a01b03811660009081526006602052604090205460ff16156104205760405162461bcd60e51b815260206004820152602a60248201527f5573657220697320616c72656164792063757272656e746c792073656c6c696e60448201526919c81848151a58dad95d60b21b606482015260840161026d565b6001600160a01b03811660009081526008602052604090205460ff16156104a9576001600160a01b03811660009081526007602052604090205460ff166104a95760405162461bcd60e51b815260206004820152601d60248201527f5573657220686173206e6f74207469636b6574206176616c6961626c65000000604482015260640161026d565b60006104b4866114ba565b9050806105175760405162461bcd60e51b815260206004820152602b60248201527f536f7272792c20796f7520616c726561647920686176652061204d722043727960448201526a383a379037b7103ab9b29760a91b606482015260840161026d565b6040805160e0810182526002805482526020808301898152838501898152606085018981526001600160a01b0389811660808801908152600060a08901818152600160c08b0181815260038054928301815584529a517fc2575a0e9e593c00f959f8c92f12db2869c3395a3b0502d05e2516446f71f85b60079092029182015596517fc2575a0e9e593c00f959f8c92f12db2869c3395a3b0502d05e2516446f71f85c88015594517fc2575a0e9e593c00f959f8c92f12db2869c3395a3b0502d05e2516446f71f85d87015592517fc2575a0e9e593c00f959f8c92f12db2869c3395a3b0502d05e2516446f71f85e860155517fc2575a0e9e593c00f959f8c92f12db2869c3395a3b0502d05e2516446f71f85f850180546001600160a01b03191691831691909117905591517fc2575a0e9e593c00f959f8c92f12db2869c3395a3b0502d05e2516446f71f86084015594517fc2575a0e9e593c00f959f8c92f12db2869c3395a3b0502d05e2516446f71f861909201805460ff1916921515929092179091558254908b168452600a909152928220839055906106ba8361204a565b9091555050506001600160a01b039094166000908152600660209081526040808320805460ff199081166001908117909255600884528285208054821690921790915560079092529091208054909116905550505050565b6000546001600160a01b0316331461073c5760405162461bcd60e51b815260040161026d90611f66565b6000546040516384203f4b60e01b81526001600160a01b03909116906384203f4b9061076c908490600401611e4a565b60206040518083038186803b15801561078457600080fd5b505afa158015610798573d6000803e3d6000fd5b505050506040513d601f19601f820116820180604052508101906107bc9190611dd8565b156108095760405162461bcd60e51b815260206004820152601f60248201527f412056495020757365722063616e206e6f74206275792061207469636b657400604482015260640161026d565b806001600160a01b0316600383815481106108265761082661207b565b60009182526020909120600460079092020101546001600160a01b0316141561089f5760405162461bcd60e51b815260206004820152602560248201527f596f752063616e206e6f74206275792061207469636b657420746f20796f75726044820152641039b2b63360d91b606482015260840161026d565b600382815481106108b2576108b261207b565b600091825260209091206006600790920201015460ff1615156001146109245760405162461bcd60e51b815260206004820152602160248201527f5469636b6574206973206e6f742063757272656e746c79206176616c6961626c6044820152606560f81b606482015260840161026d565b42600383815481106109385761093861207b565b906000526020600020906007020160050181905550600060076000600385815481106109665761096661207b565b60009182526020808320600792909202909101600401546001600160a01b031683528201929092526040018120805460ff191692151592909217909155600380546006918391869081106109bc576109bc61207b565b60009182526020808320600792909202909101600401546001600160a01b031683528201929092526040018120805460ff19169215159290921790915560038054600192600992909186908110610a1557610a1561207b565b600091825260208083206004600793840290910101546001600160a01b0390811685528482019590955260409384018320805496151560ff1997881617905593861682529092529020805490911660011790556003805433919084908110610a7f57610a7f61207b565b906000526020600020906007020160040160006101000a8154816001600160a01b0302191690836001600160a01b03160217905550600060038381548110610ac957610ac961207b565b60009182526020808320600792909202909101600601805460ff1916931515939093179092556001600160a01b03929092168252600a90526040902055565b6000546001600160a01b03163314610b325760405162461bcd60e51b815260040161026d90611f66565b806001600160a01b0316856001600160a01b031614610b5e57610b558582610ed5565b610b5e57600080fd5b6001600160a01b0381166000908152600a602090815260408083205460069092529091205460ff16610ba25760405162461bcd60e51b815260040161026d90611f20565b816001600160a01b031660038281548110610bbf57610bbf61207b565b60009182526020909120600460079092020101546001600160a01b031614610bf95760405162461bcd60e51b815260040161026d90611eeb565b8260038281548110610c0d57610c0d61207b565b9060005260206000209060070201600301819055508360038281548110610c3657610c3661207b565b9060005260206000209060070201600201819055508460038281548110610c5f57610c5f61207b565b906000526020600020906007020160010181905550505050505050565b6000546001600160a01b03163314610ca65760405162461bcd60e51b815260040161026d90611f66565b806001600160a01b0316826001600160a01b031614610cd257610cc98282610ed5565b610cd257600080fd5b6001600160a01b0381166000908152600a602090815260408083205460099092529091205460ff16610d465760405162461bcd60e51b815260206004820152601c60248201527f5573657220646964206e6f742073656c6c20616e79205469636b657400000000604482015260640161026d565b60038181548110610d5957610d5961207b565b90600052602060002090600702016001015460001480610de4575060038181548110610d8757610d8761207b565b906000526020600020906007020160020154603c610da59190611ffd565b603c60038381548110610dba57610dba61207b565b90600052602060002090600702016005015442610dd7919061201c565b610de19190611fdb565b10155b610e4e5760405162461bcd60e51b815260206004820152603560248201527f4475726174696f6e206f6620746865205469636b6574206f72206e756d5472696044820152746573206973207374696c6c206176616c6961626c6560581b606482015260840161026d565b60006007600060038481548110610e6757610e6761207b565b600091825260208083206004600793840290910101546001600160a01b0390811685528482019590955260409384018320805496151560ff19978816179055938716825283528181208054851660011790556009909252902080549091169055610ed083611578565b505050565b6001600160a01b03918216600090815260046020908152604080832093909416825291909152205460ff1690565b600080600080610f1285611670565b60011480610f265750610f2485611670565b155b80610f395750610f3585611670565b6004145b15610f5957600080610f4a87611670565b60009350935093509350610fdd565b6001600160a01b0385166000908152600a602052604081205490610f7c82611a48565b90508060038381548110610f9257610f9261207b565b906000526020600020906007020160010154610fad89611670565b60038581548110610fc057610fc061207b565b906000526020600020906007020160030154955095509550955050505b9193509193565b6000546060906001600160a01b031633146110115760405162461bcd60e51b815260040161026d90611f66565b6000805b6003548110156110cf576000600382815481106110345761103461207b565b60009182526020918290206040805160e081018252600790930290910180548352600180820154948401949094526002810154918301919091526003810154606083015260048101546001600160a01b03166080830152600581015460a08301526006015460ff16151560c0820181905290925014156110bc576110b9600184611fc3565b92505b50806110c78161204a565b915050611015565b5060008167ffffffffffffffff8111156110eb576110eb612091565b60405190808252806020026020018201604052801561116757816020015b6111546040518060e001604052806000815260200160008152602001600081526020016000815260200160006001600160a01b03168152602001600081526020016000151581525090565b8152602001906001900390816111095790505b5090506000805b6003548110156112475760006003828154811061118d5761118d61207b565b60009182526020918290206040805160e081018252600790930290910180548352600180820154948401949094526002810154918301919091526003810154606083015260048101546001600160a01b03166080830152600581015460a08301526006015460ff16151560c082018190529092501415611234578084848151811061121a5761121a61207b565b602002602001018190525082806112309061204a565b9350505b508061123f8161204a565b91505061116e565b50909392505050565b6000546001600160a01b0316331461127a5760405162461bcd60e51b815260040161026d90611f66565b6001600160a01b03928316600090815260046020908152604080832094909516825292909252919020805460ff1916911515919091179055565b6000806000806000806000600388815481106112d2576112d261207b565b60009182526020918290206040805160e081018252600793909302909101805483526001810154938301849052600281015491830182905260038101546060840181905260048201546001600160a01b031660808501819052600583015460a0860181905260069093015460ff16151560c0909501859052949d929c509a50929850919650945092505050565b6000546001600160a01b031633146113895760405162461bcd60e51b815260040161026d90611f66565b806001600160a01b0316826001600160a01b0316146113b5576113ac8282610ed5565b6113b557600080fd5b6001600160a01b0381166000908152600a602090815260408083205460069092529091205460ff166113f95760405162461bcd60e51b815260040161026d90611f20565b816001600160a01b0316600382815481106114165761141661207b565b60009182526020909120600460079092020101546001600160a01b0316146114505760405162461bcd60e51b815260040161026d90611eeb565b6000600382815481106114655761146561207b565b60009182526020808320600660079384029091018101805495151560ff199687161790556001600160a01b038716845281526040808420805486169055919052902080549091166001179055610ed083611578565b60008060006114c884611b44565b905060005b815181101561124757600b60008383815181106114ec576114ec61207b565b60209081029190910181015182528101919091526040016000205460ff16611566576001600160a01b0385166000908152600c60205260409020825183908390811061153a5761153a61207b565b602090810291909101810151825460018181018555600094855292909320909201919091559250611247565b806115708161204a565b9150506114cd565b6001600160a01b0381166000908152600c60209081526040808320805482518185028101850190935280835291929091908301828280156115d857602002820191906000526020600020905b8154815260200190600101908083116115c4575b5050505050905060005b8151811015610ed0578181815181106115fd576115fd61207b565b602002602001015160001461165e576001600160a01b0383166000908152600c602052604090208054829081106116365761163661207b565b60009182526020808320909101829055828252600b905260409020805460ff19169055505050565b806116688161204a565b9150506115e2565b600080546001600160a01b0316331461169b5760405162461bcd60e51b815260040161026d90611f66565b600080546040516384203f4b60e01b81526001600160a01b03909116906384203f4b906116cc908690600401611e4a565b60206040518083038186803b1580156116e457600080fd5b505afa1580156116f8573d6000803e3d6000fd5b505050506040513d601f19601f8201168201806040525081019061171c9190611dd8565b801561174157506001600160a01b03831660009081526006602052604090205460ff16155b801561176657506001600160a01b03831660009081526009602052604090205460ff16155b1561177357506001611a42565b6000546040516384203f4b60e01b81526001600160a01b03909116906384203f4b906117a3908690600401611e4a565b60206040518083038186803b1580156117bb57600080fd5b505afa1580156117cf573d6000803e3d6000fd5b505050506040513d601f19601f820116820180604052508101906117f39190611dd8565b15801561181857506001600160a01b03831660009081526007602052604090205460ff165b1561182557506002611a42565b6000546040516384203f4b60e01b81526001600160a01b03909116906384203f4b90611855908690600401611e4a565b60206040518083038186803b15801561186d57600080fd5b505afa158015611881573d6000803e3d6000fd5b505050506040513d601f19601f820116820180604052508101906118a59190611dd8565b80156118ca57506001600160a01b03831660009081526006602052604090205460ff16155b80156118ef57506001600160a01b03831660009081526007602052604090205460ff16155b801561191357506001600160a01b03831660009081526008602052604090205460ff165b801561193757506001600160a01b03831660009081526009602052604090205460ff165b1561194457506003611a42565b6000546040516384203f4b60e01b81526001600160a01b03909116906384203f4b90611974908690600401611e4a565b60206040518083038186803b15801561198c57600080fd5b505afa1580156119a0573d6000803e3d6000fd5b505050506040513d601f19601f820116820180604052508101906119c49190611dd8565b80156119e857506001600160a01b03831660009081526006602052604090205460ff165b8015611a0d57506001600160a01b03831660009081526007602052604090205460ff16155b8015611a3157506001600160a01b03831660009081526008602052604090205460ff165b15611a3e57506004611a42565b5060005b92915050565b60008060038381548110611a5e57611a5e61207b565b906000526020600020906007020160020154603c611a7c9190611ffd565b603c60038581548110611a9157611a9161207b565b90600052602060002090600702016005015442611aae919061201c565b611ab89190611fdb565b10611ac65750600092915050565b603c60038481548110611adb57611adb61207b565b90600052602060002090600702016005015442611af8919061201c565b611b029190611fdb565b60038481548110611b1557611b1561207b565b906000526020600020906007020160020154603c611b339190611ffd565b611b3d919061201c565b9392505050565b6001546040516370a0823160e01b81526060916000916001600160a01b03909116906370a0823190611b7a908690600401611e4a565b60206040518083038186803b158015611b9257600080fd5b505afa158015611ba6573d6000803e3d6000fd5b505050506040513d601f19601f82011682018060405250810190611bca9190611e0e565b905060008167ffffffffffffffff811115611be757611be7612091565b604051908082528060200260200182016040528015611c10578160200160208202803683370190505b50905060005b82811015611ccf57600154604051632f745c5960e01b81526001600160a01b0387811660048301526024820184905290911690632f745c599060440160206040518083038186803b158015611c6a57600080fd5b505afa158015611c7e573d6000803e3d6000fd5b505050506040513d601f19601f82011682018060405250810190611ca29190611e0e565b828281518110611cb457611cb461207b565b6020908102919091010152611cc88161204a565b9050611c16565b509392505050565b80356001600160a01b0381168114611cee57600080fd5b919050565b600060208284031215611d0557600080fd5b611b3d82611cd7565b60008060408385031215611d2157600080fd5b611d2a83611cd7565b9150611d3860208401611cd7565b90509250929050565b600080600060608486031215611d5657600080fd5b611d5f84611cd7565b9250611d6d60208501611cd7565b91506040840135611d7d816120a7565b809150509250925092565b600080600080600060a08688031215611da057600080fd5b611da986611cd7565b9450602086013593506040860135925060608601359150611dcc60808701611cd7565b90509295509295909350565b600060208284031215611dea57600080fd5b8151611b3d816120a7565b600060208284031215611e0757600080fd5b5035919050565b600060208284031215611e2057600080fd5b5051919050565b60008060408385031215611e3a57600080fd5b82359150611d3860208401611cd7565b6001600160a01b0391909116815260200190565b602080825282518282018190526000919060409081850190868401855b82811015611ede5781518051855286810151878601528581015186860152606080820151908601526080808201516001600160a01b03169086015260a0808201519086015260c09081015115159085015260e09093019290850190600101611e7b565b5091979650505050505050565b6020808252818101527f55736572206973206e6f74206f776e6572206f662074686973207469636b6574604082015260600190565b60208082526026908201527f55736572206973206e6f742063757272656e746c792073656c6c696e67206120604082015265151a58dad95d60d21b606082015260800190565b6020808252603a908201527f546869732066756e6374696f6e206973207370656369616c6c7920726573657260408201527f76656420666f7220746865206d61696e20636f6e74726163742e000000000000606082015260800190565b60008219821115611fd657611fd6612065565b500190565b600082611ff857634e487b7160e01b600052601260045260246000fd5b500490565b600081600019048311821515161561201757612017612065565b500290565b60008282101561202e5761202e612065565b500390565b60008161204257612042612065565b506000190190565b600060001982141561205e5761205e612065565b5060010190565b634e487b7160e01b600052601160045260246000fd5b634e487b7160e01b600052603260045260246000fd5b634e487b7160e01b600052604160045260246000fd5b80151581146120b557600080fd5b5056fea264697066735822122017626e7b85cffc645165fd1705e83ba72d25626173ede08fc50490e325a5b59364736f6c63430008070033",
  "linkReferences": {},
  "deployedLinkReferences": {}
}