{
  "contractName": "Tickets",
  "abi": [
    {
      "inputs": [
        {
          "internalType": "address",
          "name": "_racksItems",
          "type": "address"
        },
        {
          "internalType": "address",
          "name": "_mrCrypto",
          "type": "address"
        }
      ],
      "stateMutability": "nonpayable",
      "type": "constructor"
    },
    {
      "inputs": [
        {
          "internalType": "address",
          "name": "from",
          "type": "address"
        },
        {
          "internalType": "uint256",
          "name": "numTries",
          "type": "uint256"
        },
        {
          "internalType": "uint256",
          "name": "_hours",
          "type": "uint256"
        },
        {
          "internalType": "uint256",
          "name": "price",
          "type": "uint256"
        },
        {
          "internalType": "address",
          "name": "user",
          "type": "address"
        }
      ],
      "name": "listTicket",
      "outputs": [],
      "stateMutability": "nonpayable",
      "type": "function"
    },
    {
      "inputs": [
        {
          "internalType": "address",
          "name": "from",
          "type": "address"
        },
        {
          "internalType": "address",
          "name": "user",
          "type": "address"
        }
      ],
      "name": "unListTicket",
      "outputs": [],
      "stateMutability": "nonpayable",
      "type": "function"
    },
    {
      "inputs": [
        {
          "internalType": "address",
          "name": "from",
          "type": "address"
        },
        {
          "internalType": "uint256",
          "name": "newTries",
          "type": "uint256"
        },
        {
          "internalType": "uint256",
          "name": "newHours",
          "type": "uint256"
        },
        {
          "internalType": "uint256",
          "name": "newPrice",
          "type": "uint256"
        },
        {
          "internalType": "address",
          "name": "user",
          "type": "address"
        }
      ],
      "name": "changeTicketConditions",
      "outputs": [],
      "stateMutability": "nonpayable",
      "type": "function"
    },
    {
      "inputs": [
        {
          "internalType": "uint256",
          "name": "ticketId",
          "type": "uint256"
        },
        {
          "internalType": "address",
          "name": "user",
          "type": "address"
        }
      ],
      "name": "buyTicket",
      "outputs": [],
      "stateMutability": "nonpayable",
      "type": "function"
    },
    {
      "inputs": [
        {
          "internalType": "address",
          "name": "from",
          "type": "address"
        },
        {
          "internalType": "address",
          "name": "user",
          "type": "address"
        }
      ],
      "name": "claimTicketBack",
      "outputs": [],
      "stateMutability": "nonpayable",
      "type": "function"
    },
    {
      "inputs": [
        {
          "internalType": "address",
          "name": "user",
          "type": "address"
        }
      ],
      "name": "decreaseTicketTries",
      "outputs": [],
      "stateMutability": "nonpayable",
      "type": "function"
    },
    {
      "inputs": [
        {
          "internalType": "address",
          "name": "user",
          "type": "address"
        }
      ],
      "name": "getUserTicket",
      "outputs": [
        {
          "internalType": "uint256",
          "name": "durationLeft",
          "type": "uint256"
        },
        {
          "internalType": "uint256",
          "name": "triesLeft",
          "type": "uint256"
        },
        {
          "internalType": "uint256",
          "name": "ownerOrSpender",
          "type": "uint256"
        },
        {
          "internalType": "uint256",
          "name": "ticketPrice",
          "type": "uint256"
        }
      ],
      "stateMutability": "view",
      "type": "function"
    },
    {
      "inputs": [
        {
          "internalType": "uint256",
          "name": "ticketId",
          "type": "uint256"
        }
      ],
      "name": "getMarketTicket",
      "outputs": [
        {
          "internalType": "uint256",
          "name": "numTries",
          "type": "uint256"
        },
        {
          "internalType": "uint256",
          "name": "duration",
          "type": "uint256"
        },
        {
          "internalType": "uint256",
          "name": "price",
          "type": "uint256"
        },
        {
          "internalType": "address",
          "name": "owner",
          "type": "address"
        },
        {
          "internalType": "uint256",
          "name": "timeWhenSold",
          "type": "uint256"
        },
        {
          "internalType": "bool",
          "name": "isAvaliable",
          "type": "bool"
        }
      ],
      "stateMutability": "view",
      "type": "function"
    },
    {
      "inputs": [
        {
          "internalType": "address",
          "name": "owner",
          "type": "address"
        },
        {
          "internalType": "address",
          "name": "spender",
          "type": "address"
        },
        {
          "internalType": "bool",
          "name": "permission",
          "type": "bool"
        }
      ],
      "name": "approveTicket",
      "outputs": [],
      "stateMutability": "nonpayable",
      "type": "function"
    },
    {
      "inputs": [
        {
          "internalType": "address",
          "name": "owner",
          "type": "address"
        },
        {
          "internalType": "address",
          "name": "spender",
          "type": "address"
        }
      ],
      "name": "ticketAllowance",
      "outputs": [
        {
          "internalType": "bool",
          "name": "",
          "type": "bool"
        }
      ],
      "stateMutability": "view",
      "type": "function"
    },
    {
      "inputs": [
        {
          "internalType": "address",
          "name": "user",
          "type": "address"
        }
      ],
      "name": "isApproved",
      "outputs": [
        {
          "internalType": "bool",
          "name": "",
          "type": "bool"
        }
      ],
      "stateMutability": "view",
      "type": "function"
    },
    {
      "inputs": [],
      "name": "getTicketsOnSale",
      "outputs": [
        {
          "components": [
            {
              "internalType": "uint256",
              "name": "ticketId",
              "type": "uint256"
            },
            {
              "internalType": "uint256",
              "name": "numTries",
              "type": "uint256"
            },
            {
              "internalType": "uint256",
              "name": "duration",
              "type": "uint256"
            },
            {
              "internalType": "uint256",
              "name": "price",
              "type": "uint256"
            },
            {
              "internalType": "address",
              "name": "owner",
              "type": "address"
            },
            {
              "internalType": "uint256",
              "name": "timeWhenSold",
              "type": "uint256"
            },
            {
              "internalType": "bool",
              "name": "isAvaliable",
              "type": "bool"
            }
          ],
          "internalType": "struct ITickets.caseTicket[]",
          "name": "",
          "type": "tuple[]"
        }
      ],
      "stateMutability": "view",
      "type": "function"
    },
    {
      "inputs": [],
      "name": "getTicketCount",
      "outputs": [
        {
          "internalType": "uint256",
          "name": "",
          "type": "uint256"
        }
      ],
      "stateMutability": "view",
      "type": "function"
    }
  ],
  "bytecode": "0x60806040523480156200001157600080fd5b5060405162003cc638038062003cc683398181016040528101906200003791906200012a565b816000806101000a81548173ffffffffffffffffffffffffffffffffffffffff021916908373ffffffffffffffffffffffffffffffffffffffff16021790555080600160006101000a81548173ffffffffffffffffffffffffffffffffffffffff021916908373ffffffffffffffffffffffffffffffffffffffff160217905550505062000171565b600080fd5b600073ffffffffffffffffffffffffffffffffffffffff82169050919050565b6000620000f282620000c5565b9050919050565b6200010481620000e5565b81146200011057600080fd5b50565b6000815190506200012481620000f9565b92915050565b60008060408385031215620001445762000143620000c0565b5b6000620001548582860162000113565b9250506020620001678582860162000113565b9150509250929050565b613b4580620001816000396000f3fe608060405234801561001057600080fd5b50600436106100cf5760003560e01c8063846618ab1161008c578063c853d92211610066578063c853d92214610211578063cc4ac04d1461022f578063dd006d311461024b578063f200e16114610280576100cf565b8063846618ab14610192578063983ba044146101ae578063c25e2af4146101de576100cf565b806321c63a47146100d457806330dc2764146100f257806361eadf2c1461010e57806362a845ec1461012a578063673448dd1461014657806369fedbba14610176575b600080fd5b6100dc61029c565b6040516100e99190612d4f565b60405180910390f35b61010c60048036038101906101079190612dcd565b6102a6565b005b61012860048036038101906101239190612e26565b61047d565b005b610144600480360381019061013f9190612ea1565b61098e565b005b610160600480360381019061015b9190612dcd565b610f6c565b60405161016d9190612efc565b60405180910390f35b610190600480360381019061018b9190612e26565b610fc2565b005b6101ac60048036038101906101a79190612f17565b6112a0565b005b6101c860048036038101906101c39190612f17565b611680565b6040516101d59190612efc565b60405180910390f35b6101f860048036038101906101f39190612dcd565b611714565b6040516102089493929190612f57565b60405180910390f35b610219611825565b6040516102269190613106565b60405180910390f35b61024960048036038101906102449190613154565b611b72565b005b610265600480360381019061026091906131a7565b611c99565b604051610277969594939291906131e3565b60405180910390f35b61029a60048036038101906102959190612f17565b611daa565b005b6000600254905090565b60008054906101000a900473ffffffffffffffffffffffffffffffffffffffff1673ffffffffffffffffffffffffffffffffffffffff163373ffffffffffffffffffffffffffffffffffffffff1614610334576040517f08c379a000000000000000000000000000000000000000000000000000000000815260040161032b906132c7565b60405180910390fd5b6000600a60008373ffffffffffffffffffffffffffffffffffffffff1673ffffffffffffffffffffffffffffffffffffffff16815260200190815260200160002054905060016003828154811061038e5761038d6132e7565b5b906000526020600020906007020160010154146103e557600381815481106103b9576103b86132e7565b5b906000526020600020906007020160010160008154809291906103db90613345565b9190505550610479565b600381815481106103f9576103f86132e7565b5b9060005260206000209060070201600101600081548092919061041b90613345565b91905055506000600760008473ffffffffffffffffffffffffffffffffffffffff1673ffffffffffffffffffffffffffffffffffffffff16815260200190815260200160002060006101000a81548160ff0219169083151502179055505b5050565b60008054906101000a900473ffffffffffffffffffffffffffffffffffffffff1673ffffffffffffffffffffffffffffffffffffffff163373ffffffffffffffffffffffffffffffffffffffff161461050b576040517f08c379a0000000000000000000000000000000000000000000000000000000008152600401610502906132c7565b60405180910390fd5b8073ffffffffffffffffffffffffffffffffffffffff168573ffffffffffffffffffffffffffffffffffffffff1614610552576105488582611680565b61055157600080fd5b5b600660008273ffffffffffffffffffffffffffffffffffffffff1673ffffffffffffffffffffffffffffffffffffffff16815260200190815260200160002060009054906101000a900460ff16156105df576040517f08c379a00000000000000000000000000000000000000000000000000000000081526004016105d6906133e1565b60405180910390fd5b600860008273ffffffffffffffffffffffffffffffffffffffff1673ffffffffffffffffffffffffffffffffffffffff16815260200190815260200160002060009054906101000a900460ff16156106be57600760008273ffffffffffffffffffffffffffffffffffffffff1673ffffffffffffffffffffffffffffffffffffffff16815260200190815260200160002060009054906101000a900460ff166106bd576040517f08c379a00000000000000000000000000000000000000000000000000000000081526004016106b49061344d565b60405180910390fd5b5b60006106c9866120fe565b90508061070b576040517f08c379a0000000000000000000000000000000000000000000000000000000008152600401610702906134df565b60405180910390fd5b60036040518060e0016040528060025481526020018781526020018681526020018581526020018473ffffffffffffffffffffffffffffffffffffffff168152602001600081526020016001151581525090806001815401808255809150506001900390600052602060002090600702016000909190919091506000820151816000015560208201518160010155604082015181600201556060820151816003015560808201518160040160006101000a81548173ffffffffffffffffffffffffffffffffffffffff021916908373ffffffffffffffffffffffffffffffffffffffff16021790555060a0820151816005015560c08201518160060160006101000a81548160ff0219169083151502179055505050600254600a60008873ffffffffffffffffffffffffffffffffffffffff1673ffffffffffffffffffffffffffffffffffffffff1681526020019081526020016000208190555060026000815480929190610879906134ff565b91905055506001600660008873ffffffffffffffffffffffffffffffffffffffff1673ffffffffffffffffffffffffffffffffffffffff16815260200190815260200160002060006101000a81548160ff0219169083151502179055506001600860008873ffffffffffffffffffffffffffffffffffffffff1673ffffffffffffffffffffffffffffffffffffffff16815260200190815260200160002060006101000a81548160ff0219169083151502179055506000600760008873ffffffffffffffffffffffffffffffffffffffff1673ffffffffffffffffffffffffffffffffffffffff16815260200190815260200160002060006101000a81548160ff021916908315150217905550505050505050565b60008054906101000a900473ffffffffffffffffffffffffffffffffffffffff1673ffffffffffffffffffffffffffffffffffffffff163373ffffffffffffffffffffffffffffffffffffffff1614610a1c576040517f08c379a0000000000000000000000000000000000000000000000000000000008152600401610a13906132c7565b60405180910390fd5b6000151560008054906101000a900473ffffffffffffffffffffffffffffffffffffffff1673ffffffffffffffffffffffffffffffffffffffff166384203f4b836040518263ffffffff1660e01b8152600401610a799190613548565b602060405180830381865afa158015610a96573d6000803e3d6000fd5b505050506040513d601f19601f82011682018060405250810190610aba9190613578565b151514610afc576040517f08c379a0000000000000000000000000000000000000000000000000000000008152600401610af3906135f1565b60405180910390fd5b8073ffffffffffffffffffffffffffffffffffffffff1660038381548110610b2757610b266132e7565b5b906000526020600020906007020160040160009054906101000a900473ffffffffffffffffffffffffffffffffffffffff1673ffffffffffffffffffffffffffffffffffffffff161415610bb0576040517f08c379a0000000000000000000000000000000000000000000000000000000008152600401610ba790613683565b60405180910390fd5b6001151560038381548110610bc857610bc76132e7565b5b906000526020600020906007020160060160009054906101000a900460ff16151514610c29576040517f08c379a0000000000000000000000000000000000000000000000000000000008152600401610c2090613715565b60405180910390fd5b4260038381548110610c3e57610c3d6132e7565b5b90600052602060002090600702016005018190555060006007600060038581548110610c6d57610c6c6132e7565b5b906000526020600020906007020160040160009054906101000a900473ffffffffffffffffffffffffffffffffffffffff1673ffffffffffffffffffffffffffffffffffffffff1673ffffffffffffffffffffffffffffffffffffffff16815260200190815260200160002060006101000a81548160ff02191690831515021790555060006006600060038581548110610d0a57610d096132e7565b5b906000526020600020906007020160040160009054906101000a900473ffffffffffffffffffffffffffffffffffffffff1673ffffffffffffffffffffffffffffffffffffffff1673ffffffffffffffffffffffffffffffffffffffff16815260200190815260200160002060006101000a81548160ff02191690831515021790555060016009600060038581548110610da757610da66132e7565b5b906000526020600020906007020160040160009054906101000a900473ffffffffffffffffffffffffffffffffffffffff1673ffffffffffffffffffffffffffffffffffffffff1673ffffffffffffffffffffffffffffffffffffffff16815260200190815260200160002060006101000a81548160ff0219169083151502179055506001600760008373ffffffffffffffffffffffffffffffffffffffff1673ffffffffffffffffffffffffffffffffffffffff16815260200190815260200160002060006101000a81548160ff0219169083151502179055503360038381548110610e9757610e966132e7565b5b906000526020600020906007020160040160006101000a81548173ffffffffffffffffffffffffffffffffffffffff021916908373ffffffffffffffffffffffffffffffffffffffff160217905550600060038381548110610efc57610efb6132e7565b5b906000526020600020906007020160060160006101000a81548160ff02191690831515021790555081600a60008373ffffffffffffffffffffffffffffffffffffffff1673ffffffffffffffffffffffffffffffffffffffff168152602001908152602001600020819055505050565b6000600560008373ffffffffffffffffffffffffffffffffffffffff1673ffffffffffffffffffffffffffffffffffffffff16815260200190815260200160002060009054906101000a900460ff169050919050565b60008054906101000a900473ffffffffffffffffffffffffffffffffffffffff1673ffffffffffffffffffffffffffffffffffffffff163373ffffffffffffffffffffffffffffffffffffffff1614611050576040517f08c379a0000000000000000000000000000000000000000000000000000000008152600401611047906132c7565b60405180910390fd5b8073ffffffffffffffffffffffffffffffffffffffff168573ffffffffffffffffffffffffffffffffffffffff16146110975761108d8582611680565b61109657600080fd5b5b6000600a60008373ffffffffffffffffffffffffffffffffffffffff1673ffffffffffffffffffffffffffffffffffffffff168152602001908152602001600020549050600660008373ffffffffffffffffffffffffffffffffffffffff1673ffffffffffffffffffffffffffffffffffffffff16815260200190815260200160002060009054906101000a900460ff16611167576040517f08c379a000000000000000000000000000000000000000000000000000000000815260040161115e906137a7565b60405180910390fd5b8173ffffffffffffffffffffffffffffffffffffffff1660038281548110611192576111916132e7565b5b906000526020600020906007020160040160009054906101000a900473ffffffffffffffffffffffffffffffffffffffff1673ffffffffffffffffffffffffffffffffffffffff161461121a576040517f08c379a000000000000000000000000000000000000000000000000000000000815260040161121190613813565b60405180910390fd5b826003828154811061122f5761122e6132e7565b5b9060005260206000209060070201600301819055508360038281548110611259576112586132e7565b5b9060005260206000209060070201600201819055508460038281548110611283576112826132e7565b5b906000526020600020906007020160010181905550505050505050565b60008054906101000a900473ffffffffffffffffffffffffffffffffffffffff1673ffffffffffffffffffffffffffffffffffffffff163373ffffffffffffffffffffffffffffffffffffffff161461132e576040517f08c379a0000000000000000000000000000000000000000000000000000000008152600401611325906132c7565b60405180910390fd5b8073ffffffffffffffffffffffffffffffffffffffff168273ffffffffffffffffffffffffffffffffffffffff16146113755761136b8282611680565b61137457600080fd5b5b6000600a60008373ffffffffffffffffffffffffffffffffffffffff1673ffffffffffffffffffffffffffffffffffffffff168152602001908152602001600020549050600960008373ffffffffffffffffffffffffffffffffffffffff1673ffffffffffffffffffffffffffffffffffffffff16815260200190815260200160002060009054906101000a900460ff16611445576040517f08c379a000000000000000000000000000000000000000000000000000000000815260040161143c9061387f565b60405180910390fd5b60006003828154811061145b5761145a6132e7565b5b90600052602060002090600702016001015414806114e65750603c6003828154811061148a576114896132e7565b5b9060005260206000209060070201600201546114a6919061389f565b603c600383815481106114bc576114bb6132e7565b5b906000526020600020906007020160050154426114d991906138f9565b6114e3919061395c565b10155b611525576040517f08c379a000000000000000000000000000000000000000000000000000000000815260040161151c906139ff565b60405180910390fd5b6000600760006003848154811061153f5761153e6132e7565b5b906000526020600020906007020160040160009054906101000a900473ffffffffffffffffffffffffffffffffffffffff1673ffffffffffffffffffffffffffffffffffffffff1673ffffffffffffffffffffffffffffffffffffffff16815260200190815260200160002060006101000a81548160ff0219169083151502179055506001600760008473ffffffffffffffffffffffffffffffffffffffff1673ffffffffffffffffffffffffffffffffffffffff16815260200190815260200160002060006101000a81548160ff0219169083151502179055506000600960008473ffffffffffffffffffffffffffffffffffffffff1673ffffffffffffffffffffffffffffffffffffffff16815260200190815260200160002060006101000a81548160ff02191690831515021790555061167b83612200565b505050565b6000600460008473ffffffffffffffffffffffffffffffffffffffff1673ffffffffffffffffffffffffffffffffffffffff16815260200190815260200160002060008373ffffffffffffffffffffffffffffffffffffffff1673ffffffffffffffffffffffffffffffffffffffff16815260200190815260200160002060009054906101000a900460ff16905092915050565b600080600080600161172586612368565b14806117395750600061173786612368565b145b8061174c5750600461174a86612368565b145b1561176c5760008061175d87612368565b6000935093509350935061181e565b6000600a60008773ffffffffffffffffffffffffffffffffffffffff1673ffffffffffffffffffffffffffffffffffffffff16815260200190815260200160002054905060006117bb82612a05565b905080600383815481106117d2576117d16132e7565b5b9060005260206000209060070201600101546117ed89612368565b60038581548110611801576118006132e7565b5b906000526020600020906007020160030154955095509550955050505b9193509193565b606060008054906101000a900473ffffffffffffffffffffffffffffffffffffffff1673ffffffffffffffffffffffffffffffffffffffff163373ffffffffffffffffffffffffffffffffffffffff16146118b5576040517f08c379a00000000000000000000000000000000000000000000000000000000081526004016118ac906132c7565b60405180910390fd5b600080600090505b6003805490508110156119d3576000600382815481106118e0576118df6132e7565b5b90600052602060002090600702016040518060e0016040529081600082015481526020016001820154815260200160028201548152602001600382015481526020016004820160009054906101000a900473ffffffffffffffffffffffffffffffffffffffff1673ffffffffffffffffffffffffffffffffffffffff1673ffffffffffffffffffffffffffffffffffffffff168152602001600582015481526020016006820160009054906101000a900460ff1615151515815250509050600115158160c00151151514156119bf576001836119bc9190613a1f565b92505b5080806119cb906134ff565b9150506118bd565b5060008167ffffffffffffffff8111156119f0576119ef613a75565b5b604051908082528060200260200182016040528015611a2957816020015b611a16612ce1565b815260200190600190039081611a0e5790505b509050600080600090505b600380549050811015611b6857600060038281548110611a5757611a566132e7565b5b90600052602060002090600702016040518060e0016040529081600082015481526020016001820154815260200160028201548152602001600382015481526020016004820160009054906101000a900473ffffffffffffffffffffffffffffffffffffffff1673ffffffffffffffffffffffffffffffffffffffff1673ffffffffffffffffffffffffffffffffffffffff168152602001600582015481526020016006820160009054906101000a900460ff1615151515815250509050600115158160c0015115151415611b545780848481518110611b3a57611b396132e7565b5b60200260200101819052508280611b50906134ff565b9350505b508080611b60906134ff565b915050611a34565b5081935050505090565b60008054906101000a900473ffffffffffffffffffffffffffffffffffffffff1673ffffffffffffffffffffffffffffffffffffffff163373ffffffffffffffffffffffffffffffffffffffff1614611c00576040517f08c379a0000000000000000000000000000000000000000000000000000000008152600401611bf7906132c7565b60405180910390fd5b80600460008573ffffffffffffffffffffffffffffffffffffffff1673ffffffffffffffffffffffffffffffffffffffff16815260200190815260200160002060008473ffffffffffffffffffffffffffffffffffffffff1673ffffffffffffffffffffffffffffffffffffffff16815260200190815260200160002060006101000a81548160ff021916908315150217905550505050565b600080600080600080600060038881548110611cb857611cb76132e7565b5b90600052602060002090600702016040518060e0016040529081600082015481526020016001820154815260200160028201548152602001600382015481526020016004820160009054906101000a900473ffffffffffffffffffffffffffffffffffffffff1673ffffffffffffffffffffffffffffffffffffffff1673ffffffffffffffffffffffffffffffffffffffff168152602001600582015481526020016006820160009054906101000a900460ff161515151581525050905080602001518160400151826060015183608001518460a001518560c001519650965096509650965096505091939550919395565b60008054906101000a900473ffffffffffffffffffffffffffffffffffffffff1673ffffffffffffffffffffffffffffffffffffffff163373ffffffffffffffffffffffffffffffffffffffff1614611e38576040517f08c379a0000000000000000000000000000000000000000000000000000000008152600401611e2f906132c7565b60405180910390fd5b8073ffffffffffffffffffffffffffffffffffffffff168273ffffffffffffffffffffffffffffffffffffffff1614611e7f57611e758282611680565b611e7e57600080fd5b5b6000600a60008373ffffffffffffffffffffffffffffffffffffffff1673ffffffffffffffffffffffffffffffffffffffff168152602001908152602001600020549050600660008373ffffffffffffffffffffffffffffffffffffffff1673ffffffffffffffffffffffffffffffffffffffff16815260200190815260200160002060009054906101000a900460ff16611f4f576040517f08c379a0000000000000000000000000000000000000000000000000000000008152600401611f46906137a7565b60405180910390fd5b8173ffffffffffffffffffffffffffffffffffffffff1660038281548110611f7a57611f796132e7565b5b906000526020600020906007020160040160009054906101000a900473ffffffffffffffffffffffffffffffffffffffff1673ffffffffffffffffffffffffffffffffffffffff1614612002576040517f08c379a0000000000000000000000000000000000000000000000000000000008152600401611ff990613813565b60405180910390fd5b600060038281548110612018576120176132e7565b5b906000526020600020906007020160060160006101000a81548160ff0219169083151502179055506000600660008473ffffffffffffffffffffffffffffffffffffffff1673ffffffffffffffffffffffffffffffffffffffff16815260200190815260200160002060006101000a81548160ff0219169083151502179055506001600760008473ffffffffffffffffffffffffffffffffffffffff1673ffffffffffffffffffffffffffffffffffffffff16815260200190815260200160002060006101000a81548160ff0219169083151502179055506120f983612200565b505050565b600080600061210c84612b0e565b905060005b81518110156121f557600b6000838381518110612131576121306132e7565b5b6020026020010151815260200190815260200160002060009054906101000a900460ff166121e257600c60008673ffffffffffffffffffffffffffffffffffffffff1673ffffffffffffffffffffffffffffffffffffffff1681526020019081526020016000208282815181106121ab576121aa6132e7565b5b60200260200101519080600181540180825580915050600190039060005260206000200160009091909190915055600192506121f5565b80806121ed906134ff565b915050612111565b508192505050919050565b6000600c60008373ffffffffffffffffffffffffffffffffffffffff1673ffffffffffffffffffffffffffffffffffffffff16815260200190815260200160002080548060200260200160405190810160405280929190818152602001828054801561228b57602002820191906000526020600020905b815481526020019060010190808311612277575b5050505050905060005b81518110156123635760008282815181106122b3576122b26132e7565b5b60200260200101511461235057600c60008473ffffffffffffffffffffffffffffffffffffffff1673ffffffffffffffffffffffffffffffffffffffff1681526020019081526020016000208181548110612311576123106132e7565b5b90600052602060002001600090556000600b600083815260200190815260200160002060006101000a81548160ff021916908315150217905550612363565b808061235b906134ff565b915050612295565b505050565b60008060009054906101000a900473ffffffffffffffffffffffffffffffffffffffff1673ffffffffffffffffffffffffffffffffffffffff163373ffffffffffffffffffffffffffffffffffffffff16146123f9576040517f08c379a00000000000000000000000000000000000000000000000000000000081526004016123f0906132c7565b60405180910390fd5b60008060009054906101000a900473ffffffffffffffffffffffffffffffffffffffff1673ffffffffffffffffffffffffffffffffffffffff166384203f4b846040518263ffffffff1660e01b81526004016124559190613548565b602060405180830381865afa158015612472573d6000803e3d6000fd5b505050506040513d601f19601f820116820180604052508101906124969190613578565b80156124ec5750600660008473ffffffffffffffffffffffffffffffffffffffff1673ffffffffffffffffffffffffffffffffffffffff16815260200190815260200160002060009054906101000a900460ff16155b80156125425750600960008473ffffffffffffffffffffffffffffffffffffffff1673ffffffffffffffffffffffffffffffffffffffff16815260200190815260200160002060009054906101000a900460ff16155b1561255057600190506129fc565b60008054906101000a900473ffffffffffffffffffffffffffffffffffffffff1673ffffffffffffffffffffffffffffffffffffffff166384203f4b846040518263ffffffff1660e01b81526004016125a99190613548565b602060405180830381865afa1580156125c6573d6000803e3d6000fd5b505050506040513d601f19601f820116820180604052508101906125ea9190613578565b1580156126405750600760008473ffffffffffffffffffffffffffffffffffffffff1673ffffffffffffffffffffffffffffffffffffffff16815260200190815260200160002060009054906101000a900460ff165b1561264e57600290506129fb565b60008054906101000a900473ffffffffffffffffffffffffffffffffffffffff1673ffffffffffffffffffffffffffffffffffffffff166384203f4b846040518263ffffffff1660e01b81526004016126a79190613548565b602060405180830381865afa1580156126c4573d6000803e3d6000fd5b505050506040513d601f19601f820116820180604052508101906126e89190613578565b801561273e5750600660008473ffffffffffffffffffffffffffffffffffffffff1673ffffffffffffffffffffffffffffffffffffffff16815260200190815260200160002060009054906101000a900460ff16155b80156127945750600760008473ffffffffffffffffffffffffffffffffffffffff1673ffffffffffffffffffffffffffffffffffffffff16815260200190815260200160002060009054906101000a900460ff16155b80156127e95750600860008473ffffffffffffffffffffffffffffffffffffffff1673ffffffffffffffffffffffffffffffffffffffff16815260200190815260200160002060009054906101000a900460ff165b801561283e5750600960008473ffffffffffffffffffffffffffffffffffffffff1673ffffffffffffffffffffffffffffffffffffffff16815260200190815260200160002060009054906101000a900460ff165b1561284c57600390506129fa565b60008054906101000a900473ffffffffffffffffffffffffffffffffffffffff1673ffffffffffffffffffffffffffffffffffffffff166384203f4b846040518263ffffffff1660e01b81526004016128a59190613548565b602060405180830381865afa1580156128c2573d6000803e3d6000fd5b505050506040513d601f19601f820116820180604052508101906128e69190613578565b801561293b5750600660008473ffffffffffffffffffffffffffffffffffffffff1673ffffffffffffffffffffffffffffffffffffffff16815260200190815260200160002060009054906101000a900460ff165b80156129915750600760008473ffffffffffffffffffffffffffffffffffffffff1673ffffffffffffffffffffffffffffffffffffffff16815260200190815260200160002060009054906101000a900460ff16155b80156129e65750600860008473ffffffffffffffffffffffffffffffffffffffff1673ffffffffffffffffffffffffffffffffffffffff16815260200190815260200160002060009054906101000a900460ff165b156129f457600490506129f9565b600090505b5b5b5b80915050919050565b600080603c60038481548110612a1e57612a1d6132e7565b5b906000526020600020906007020160020154612a3a919061389f565b603c60038581548110612a5057612a4f6132e7565b5b90600052602060002090600702016005015442612a6d91906138f9565b612a77919061395c565b10612a89576000905080915050612b09565b603c60038481548110612a9f57612a9e6132e7565b5b90600052602060002090600702016005015442612abc91906138f9565b612ac6919061395c565b603c60038581548110612adc57612adb6132e7565b5b906000526020600020906007020160020154612af8919061389f565b612b0291906138f9565b9050809150505b919050565b60606000600160009054906101000a900473ffffffffffffffffffffffffffffffffffffffff1673ffffffffffffffffffffffffffffffffffffffff166370a08231846040518263ffffffff1660e01b8152600401612b6d9190613548565b602060405180830381865afa158015612b8a573d6000803e3d6000fd5b505050506040513d601f19601f82011682018060405250810190612bae9190613ab9565b905060008167ffffffffffffffff811115612bcc57612bcb613a75565b5b604051908082528060200260200182016040528015612bfa5781602001602082028036833780820191505090505b50905060005b82811015612cd657600160009054906101000a900473ffffffffffffffffffffffffffffffffffffffff1673ffffffffffffffffffffffffffffffffffffffff16632f745c5986836040518363ffffffff1660e01b8152600401612c65929190613ae6565b602060405180830381865afa158015612c82573d6000803e3d6000fd5b505050506040513d601f19601f82011682018060405250810190612ca69190613ab9565b828281518110612cb957612cb86132e7565b5b60200260200101818152505080612ccf906134ff565b9050612c00565b508092505050919050565b6040518060e0016040528060008152602001600081526020016000815260200160008152602001600073ffffffffffffffffffffffffffffffffffffffff168152602001600081526020016000151581525090565b6000819050919050565b612d4981612d36565b82525050565b6000602082019050612d646000830184612d40565b92915050565b600080fd5b600073ffffffffffffffffffffffffffffffffffffffff82169050919050565b6000612d9a82612d6f565b9050919050565b612daa81612d8f565b8114612db557600080fd5b50565b600081359050612dc781612da1565b92915050565b600060208284031215612de357612de2612d6a565b5b6000612df184828501612db8565b91505092915050565b612e0381612d36565b8114612e0e57600080fd5b50565b600081359050612e2081612dfa565b92915050565b600080600080600060a08688031215612e4257612e41612d6a565b5b6000612e5088828901612db8565b9550506020612e6188828901612e11565b9450506040612e7288828901612e11565b9350506060612e8388828901612e11565b9250506080612e9488828901612db8565b9150509295509295909350565b60008060408385031215612eb857612eb7612d6a565b5b6000612ec685828601612e11565b9250506020612ed785828601612db8565b9150509250929050565b60008115159050919050565b612ef681612ee1565b82525050565b6000602082019050612f116000830184612eed565b92915050565b60008060408385031215612f2e57612f2d612d6a565b5b6000612f3c85828601612db8565b9250506020612f4d85828601612db8565b9150509250929050565b6000608082019050612f6c6000830187612d40565b612f796020830186612d40565b612f866040830185612d40565b612f936060830184612d40565b95945050505050565b600081519050919050565b600082825260208201905092915050565b6000819050602082019050919050565b612fd181612d36565b82525050565b612fe081612d8f565b82525050565b612fef81612ee1565b82525050565b60e08201600082015161300b6000850182612fc8565b50602082015161301e6020850182612fc8565b5060408201516130316040850182612fc8565b5060608201516130446060850182612fc8565b5060808201516130576080850182612fd7565b5060a082015161306a60a0850182612fc8565b5060c082015161307d60c0850182612fe6565b50505050565b600061308f8383612ff5565b60e08301905092915050565b6000602082019050919050565b60006130b382612f9c565b6130bd8185612fa7565b93506130c883612fb8565b8060005b838110156130f95781516130e08882613083565b97506130eb8361309b565b9250506001810190506130cc565b5085935050505092915050565b6000602082019050818103600083015261312081846130a8565b905092915050565b61313181612ee1565b811461313c57600080fd5b50565b60008135905061314e81613128565b92915050565b60008060006060848603121561316d5761316c612d6a565b5b600061317b86828701612db8565b935050602061318c86828701612db8565b925050604061319d8682870161313f565b9150509250925092565b6000602082840312156131bd576131bc612d6a565b5b60006131cb84828501612e11565b91505092915050565b6131dd81612d8f565b82525050565b600060c0820190506131f86000830189612d40565b6132056020830188612d40565b6132126040830187612d40565b61321f60608301866131d4565b61322c6080830185612d40565b61323960a0830184612eed565b979650505050505050565b600082825260208201905092915050565b7f546869732066756e6374696f6e206973207370656369616c6c7920726573657260008201527f76656420666f7220746865206d61696e20636f6e74726163742e000000000000602082015250565b60006132b1603a83613244565b91506132bc82613255565b604082019050919050565b600060208201905081810360008301526132e0816132a4565b9050919050565b7f4e487b7100000000000000000000000000000000000000000000000000000000600052603260045260246000fd5b7f4e487b7100000000000000000000000000000000000000000000000000000000600052601160045260246000fd5b600061335082612d36565b9150600082141561336457613363613316565b5b600182039050919050565b7f5573657220697320616c72656164792063757272656e746c792073656c6c696e60008201527f672061205469636b657400000000000000000000000000000000000000000000602082015250565b60006133cb602a83613244565b91506133d68261336f565b604082019050919050565b600060208201905081810360008301526133fa816133be565b9050919050565b7f5573657220686173206e6f74207469636b6574206176616c6961626c65000000600082015250565b6000613437601d83613244565b915061344282613401565b602082019050919050565b600060208201905081810360008301526134668161342a565b9050919050565b7f536f7272792c20796f7520616c726561647920686176652061204d722043727960008201527f70746f206f6e207573652e000000000000000000000000000000000000000000602082015250565b60006134c9602b83613244565b91506134d48261346d565b604082019050919050565b600060208201905081810360008301526134f8816134bc565b9050919050565b600061350a82612d36565b91507fffffffffffffffffffffffffffffffffffffffffffffffffffffffffffffffff82141561353d5761353c613316565b5b600182019050919050565b600060208201905061355d60008301846131d4565b92915050565b60008151905061357281613128565b92915050565b60006020828403121561358e5761358d612d6a565b5b600061359c84828501613563565b91505092915050565b7f412056495020757365722063616e206e6f74206275792061207469636b657400600082015250565b60006135db601f83613244565b91506135e6826135a5565b602082019050919050565b6000602082019050818103600083015261360a816135ce565b9050919050565b7f596f752063616e206e6f74206275792061207469636b657420746f20796f757260008201527f2073656c66000000000000000000000000000000000000000000000000000000602082015250565b600061366d602583613244565b915061367882613611565b604082019050919050565b6000602082019050818103600083015261369c81613660565b9050919050565b7f5469636b6574206973206e6f742063757272656e746c79206176616c6961626c60008201527f6500000000000000000000000000000000000000000000000000000000000000602082015250565b60006136ff602183613244565b915061370a826136a3565b604082019050919050565b6000602082019050818103600083015261372e816136f2565b9050919050565b7f55736572206973206e6f742063757272656e746c792073656c6c696e6720612060008201527f5469636b65740000000000000000000000000000000000000000000000000000602082015250565b6000613791602683613244565b915061379c82613735565b604082019050919050565b600060208201905081810360008301526137c081613784565b9050919050565b7f55736572206973206e6f74206f776e6572206f662074686973207469636b6574600082015250565b60006137fd602083613244565b9150613808826137c7565b602082019050919050565b6000602082019050818103600083015261382c816137f0565b9050919050565b7f5573657220646964206e6f742073656c6c20616e79205469636b657400000000600082015250565b6000613869601c83613244565b915061387482613833565b602082019050919050565b600060208201905081810360008301526138988161385c565b9050919050565b60006138aa82612d36565b91506138b583612d36565b9250817fffffffffffffffffffffffffffffffffffffffffffffffffffffffffffffffff04831182151516156138ee576138ed613316565b5b828202905092915050565b600061390482612d36565b915061390f83612d36565b92508282101561392257613921613316565b5b828203905092915050565b7f4e487b7100000000000000000000000000000000000000000000000000000000600052601260045260246000fd5b600061396782612d36565b915061397283612d36565b9250826139825761398161392d565b5b828204905092915050565b7f4475726174696f6e206f6620746865205469636b6574206f72206e756d54726960008201527f6573206973207374696c6c206176616c6961626c650000000000000000000000602082015250565b60006139e9603583613244565b91506139f48261398d565b604082019050919050565b60006020820190508181036000830152613a18816139dc565b9050919050565b6000613a2a82612d36565b9150613a3583612d36565b9250827fffffffffffffffffffffffffffffffffffffffffffffffffffffffffffffffff03821115613a6a57613a69613316565b5b828201905092915050565b7f4e487b7100000000000000000000000000000000000000000000000000000000600052604160045260246000fd5b600081519050613ab381612dfa565b92915050565b600060208284031215613acf57613ace612d6a565b5b6000613add84828501613aa4565b91505092915050565b6000604082019050613afb60008301856131d4565b613b086020830184612d40565b939250505056fea2646970667358221220115e88adb6575897182fd689eddd8ddc4511b7160f3c0a926c7d79af94a9773264736f6c634300080a0033",
  "immutableReferences": {},
  "source": "// SPDX-License-Identifier: MIT\r\n\r\npragma solidity ^0.8.0;\r\n\r\nimport \"./ITickets.sol\";\r\nimport \"./IRacksItems.sol\";\r\nimport \"@openzeppelin/contracts/token/ERC721/extensions/IERC721Enumerable.sol\"; \r\n\r\ncontract Tickets is ITickets{\r\n\r\n  ///@notice Tokens\r\n  IRacksItems RacksItems;\r\n  IERC721Enumerable MR_CRYPTO;\r\n\r\n  ///@notice Standard variables\r\n  uint256 private s_ticketCount;\r\n  caseTicket[] private _tickets;\r\n\r\n  ///@notice Mappings\r\n  mapping(address => mapping(address => bool)) ticketApprovals;\r\n  mapping (address => bool) approved;\r\n  mapping(address => bool) private s_isSellingTicket;\r\n  mapping(address => bool) private s_hasTicket; \r\n  mapping(address => bool) private s_hadTicket;\r\n  mapping(address => bool) private s_ticketIsLended;\r\n  mapping(address => uint256) s_lastTicket;\r\n  mapping(uint => bool) s_isLocked;\r\n  mapping(address => uint256[]) s_locked_mrCrypto;\r\n  \r\n\r\n  modifier notForUsers(){\r\n    require(msg.sender==address(RacksItems),\"This function is specially reserved for the main contract.\");\r\n    _;\r\n  }\r\n  constructor(address _racksItems, address _mrCrypto){\r\n    RacksItems = IRacksItems(_racksItems);\r\n    MR_CRYPTO = IERC721Enumerable(_mrCrypto);  \r\n  }\r\n\r\n  function listTicket(address from ,uint256 numTries, uint256 _hours, uint256 price, address user) external notForUsers  override{\r\n    if(from!=user){\r\n        require(ticketAllowance(from, user));\r\n    }\r\n\r\n    require(!s_isSellingTicket[user], \"User is already currently selling a Ticket\");\r\n    if(s_hadTicket[user]) {\r\n        require(s_hasTicket[user] , \"User has not ticket avaliable\");\r\n    }\r\n    bool success = _lockMrCrypto(from);\r\n    require(success,\"Sorry, you already have a Mr Crypto on use.\");\r\n    _tickets.push(\r\n    caseTicket(\r\n    s_ticketCount,\r\n    numTries,\r\n    _hours,\r\n    price,\r\n    user,\r\n    0,\r\n    true\r\n    ));\r\n\r\n    s_lastTicket[from] = s_ticketCount;\r\n    s_ticketCount++;\r\n    s_isSellingTicket[from] = true;\r\n    s_hadTicket[from] = true;\r\n    s_hasTicket[from] = false;\r\n  }\r\n\r\n  function unListTicket(address from, address user) external notForUsers override{\r\n      if(from!=user){\r\n          require(ticketAllowance(from, user));\r\n      }\r\n      \r\n    uint ticketId = s_lastTicket[user];\r\n    require(s_isSellingTicket[user], \"User is not currently selling a Ticket\");\r\n    require(_tickets[ticketId].owner == user, \"User is not owner of this ticket\");\r\n    _tickets[ticketId].isAvaliable = false;\r\n    s_isSellingTicket[user] = false;\r\n    s_hasTicket[user] = true;\r\n    _unlockMrCrypto(from);\r\n  }\r\n\r\n  function changeTicketConditions(address from , uint256 newTries, uint256 newHours, uint256 newPrice, address user) external notForUsers override{\r\n    if(from!=user){\r\n        require(ticketAllowance(from,user));\r\n    }\r\n    uint ticketId = s_lastTicket[user];\r\n    require(s_isSellingTicket[user], \"User is not currently selling a Ticket\");\r\n    require(_tickets[ticketId].owner == user, \"User is not owner of this ticket\");\r\n    _tickets[ticketId].price = newPrice;\r\n    _tickets[ticketId].duration = newHours;\r\n    _tickets[ticketId].numTries = newTries;\r\n  }\r\n\r\n  function buyTicket(uint256 ticketId, address user) external notForUsers override{\r\n    require(RacksItems.isVip(user)==false, \"A VIP user can not buy a ticket\");\r\n    require(_tickets[ticketId].owner != user, \"You can not buy a ticket to your self\");\r\n    require(_tickets[ticketId].isAvaliable == true, \"Ticket is not currently avaliable\");    \r\n    _tickets[ticketId].timeWhenSold = block.timestamp;\r\n    s_hasTicket[_tickets[ticketId].owner] = false;\r\n    s_isSellingTicket[_tickets[ticketId].owner] = false;\r\n    s_ticketIsLended[_tickets[ticketId].owner] = true;\r\n    s_hasTicket[user] = true;\r\n    _tickets[ticketId].owner = msg.sender;\r\n    _tickets[ticketId].isAvaliable = false;\r\n    s_lastTicket[user] = ticketId;\r\n  }\r\n\r\n  /** @notice Function used to claim Ticket back when duration is over\r\n  * @dev - Check that claimer is lending a Ticket\r\n  * - Check that duration of the Ticket is over -> block.timestamp is in seconds and duration in hours \r\n  * -> transform duration into seconds \r\n  * - Update mappings\r\n  * - Emit event\r\n  */\r\n\r\n  function claimTicketBack(address from , address user) external notForUsers override{\r\n    if(from!=user){\r\n      require(ticketAllowance(from,user));\r\n    }\r\n    uint ticketId = s_lastTicket[user];\r\n    require(s_ticketIsLended[user], \"User did not sell any Ticket\");\r\n    require((_tickets[ticketId].numTries == 0) || (((block.timestamp - _tickets[ticketId].timeWhenSold)/60) >= (_tickets[ticketId].duration * 60)), \"Duration of the Ticket or numTries is still avaliable\");\r\n    s_hasTicket[_tickets[ticketId].owner] = false;\r\n    s_hasTicket[user] = true;\r\n    s_ticketIsLended[user] = false;\r\n    _unlockMrCrypto(from);\r\n  }\r\n\r\n  /** @notice Function used to decrease Ticket tries avaliables\r\n  * @dev - Check if used trie was last one\r\n  *        - If not: just decrease numTries\r\n  *        - If so: decrease numTries, update Avaliability and mappings\r\n  */\r\n\r\n  function decreaseTicketTries(address user) external notForUsers override {\r\n      uint ticketId = s_lastTicket[user];\r\n      if(_tickets[ticketId].numTries != 1) { // Case it was not the last try avaliable\r\n        _tickets[ticketId].numTries--;\r\n      }else { // it was his last try avaliable\r\n        _tickets[ticketId].numTries--;\r\n        s_hasTicket[user] = false;\r\n      }\r\n    }\r\n\r\n    function getUserTicket(address user) public view override returns(uint256 durationLeft, uint256 triesLeft, uint ownerOrSpender, uint256 ticketPrice) {\r\n      if(_ticketOwnership(user)==1 || _ticketOwnership(user)==0 || _ticketOwnership(user)==4){\r\n        return(0,0,_ticketOwnership(user), 0);\r\n      }else{\r\n        uint256 ticketId = s_lastTicket[user];\r\n        uint256 timeLeft = _getTicketDurationLeft(ticketId);\r\n        return (timeLeft, _tickets[ticketId].numTries, _ticketOwnership(user), _tickets[ticketId].price);\r\n      }\r\n  }\r\n\r\n  function getMarketTicket(uint256 ticketId) public override view returns( uint256 numTries, uint256 duration, uint256 price, address owner, uint256 timeWhenSold, bool isAvaliable){\r\n    caseTicket memory ticket = _tickets[ticketId];  \r\n    return(\r\n      ticket.numTries,\r\n      ticket.duration,\r\n      ticket.price,\r\n      ticket.owner,\r\n      ticket.timeWhenSold,\r\n      ticket.isAvaliable\r\n    );\r\n  }\r\n\r\n  //////////////////////\r\n  //  User Functions // \r\n  /////////////////////\r\n\r\n  /**\r\n  *Returns the users` ticket ownership:\r\n      -1 if is VIP and owns a ticket\r\n      -2 if is NOT VIP and owns a ticket\r\n      -3 if is VIP and ticket is lended\r\n      -4 if is VIP and currently selling a ticket\r\n      -0 else\r\n  \r\n  */\r\n\r\n  function _ticketOwnership(address user) internal view returns(uint ownerOrSpender){\r\n    require(msg.sender==address(RacksItems), \"This function is specially reserved for the main contract.\");\r\n    uint ticketOwnership;\r\n    if (RacksItems.isVip(user) && !s_isSellingTicket[user] &&  !s_ticketIsLended[user]){\r\n      ticketOwnership=1;\r\n    } else if(!RacksItems.isVip(user) && s_hasTicket[user] ){\r\n      ticketOwnership=2;\r\n    }else if(RacksItems.isVip(user) && !s_isSellingTicket[user] && !s_hasTicket[user] && s_hadTicket[user] && s_ticketIsLended[user]){\r\n      ticketOwnership=3;\r\n    } else if (RacksItems.isVip(user) && s_isSellingTicket[user] && !s_hasTicket[user] && s_hadTicket[user]){\r\n      ticketOwnership=4;\r\n    }else{\r\n      ticketOwnership=0;\r\n    }\r\n    return ticketOwnership;\r\n  }\r\n\r\n  function approveTicket(address owner, address spender, bool permission) external notForUsers override {\r\n    ticketApprovals[owner][spender]=permission;\r\n  }\r\n\r\n  function ticketAllowance(address owner, address spender) public override view returns(bool){\r\n    return ticketApprovals[owner][spender];\r\n  }\r\n\r\n  function isApproved(address user) public override view returns(bool){\r\n    return approved[user];\r\n  }\r\n\r\n  \r\n  function getTicketsOnSale() public view override returns(caseTicket[] memory) {\r\n    require(msg.sender==address(RacksItems), \"This function is specially reserved for the main contract.\");\r\n    uint arrayLength;\r\n\r\n    for(uint i=0; i<_tickets.length;i++){\r\n      caseTicket memory ticket = _tickets[i];\r\n      if(ticket.isAvaliable==true){\r\n      arrayLength+=1;\r\n      }\r\n    }\r\n    caseTicket[] memory tickets = new caseTicket[](arrayLength);\r\n    uint indexCount;\r\n    for(uint256 i = 0; i < _tickets.length; i++){\r\n      caseTicket memory ticket = _tickets[i];\r\n      if(ticket.isAvaliable==true){\r\n      tickets[indexCount]=ticket;\r\n      indexCount++;\r\n      }\r\n    }\r\n    return tickets;\r\n  }\r\n\r\n  function _getTicketDurationLeft(uint256 ticketId) internal view  returns (uint256) {\r\n    uint256 timeLeft;\r\n    if((((block.timestamp - _tickets[ticketId].timeWhenSold)/60) >= (_tickets[ticketId].duration * 60))) {\r\n      timeLeft = 0;\r\n      return (timeLeft);\r\n    }else {\r\n      timeLeft = (_tickets[ticketId].duration * 60) - ((block.timestamp - _tickets[ticketId].timeWhenSold)/60);\r\n      return (timeLeft);\r\n    }    \r\n  }\r\n    //////////////////////////\r\n  //  MR Crypto functions // \r\n  /////////////////////////\r\n\r\n  /**\r\n  *@notice This functions are meant to prevent a security issue.\r\n  *Thank to this functions each Mr Crypto can only have one ticket at every moment, so even if someone sends it to other wallet wont be able to use a ticket till is unlocked\r\n  */\r\n\r\n\r\n  /**\r\n  *@notice Returns the IDs of all the Mr Cryptos owned by a user\r\n  */\r\n  function _mrCryproWallet(address user) internal  view returns (uint256[] memory){\r\n    uint256 ownerTokenCount = MR_CRYPTO.balanceOf(user);\r\n    uint256[] memory tokenIds = new uint256[](ownerTokenCount);\r\n    for (uint256 i; i < ownerTokenCount; ++i) {\r\n      tokenIds[i] = MR_CRYPTO.tokenOfOwnerByIndex(user, i);\r\n    }\r\n    return tokenIds;\r\n  }\r\n\r\n  /**\r\n  *@dev This functions saves the id of the mr crypto used to sell a ticket in a mapping\r\n  */\r\n  function _lockMrCrypto(address user) internal returns (bool){\r\n    bool success;\r\n    uint [] memory wallet = _mrCryproWallet(user);\r\n    for(uint i=0; i<wallet.length; i++){\r\n      if(!s_isLocked[wallet[i]]){\r\n        s_locked_mrCrypto[user].push(wallet[i]);\r\n        success = true;\r\n        break;\r\n      }\r\n    }\r\n    return success;\r\n  }\r\n\r\n  /**\r\n  *@dev After a ticket live is over and the owner gets his ticket back his MrCrypto will be able to sell tickets again using the mapping\r\n  */\r\n  function _unlockMrCrypto(address user) internal {\r\n    uint [] memory locked = s_locked_mrCrypto[user];\r\n    for(uint i=0; i<locked.length; i++){\r\n      if(locked[i]!=0){\r\n        delete s_locked_mrCrypto[user][i];\r\n        s_isLocked[i]=false;\r\n        break;\r\n    }\r\n    }\r\n  }\r\n\r\n    \r\n  function getTicketCount() public override view returns(uint256) {\r\n    return s_ticketCount;\r\n  }\r\n}",
  "sourcePath": "C:\\Users\\oteri\\Desktop\\racs-items\\racks-items-frontend\\contracts\\Tickets.sol",
  "compiler": {
    "name": "solc",
    "version": "0.8.10+commit.fc410830.Emscripten.clang"
  },
  "schemaVersion": "3.4.3",
  "updatedAt": "2022-07-22T15:17:06.380Z",
  "devdoc": {
    "kind": "dev",
    "methods": {
      "claimTicketBack(address,address)": {
        "details": "- Check that claimer is lending a Ticket - Check that duration of the Ticket is over -> block.timestamp is in seconds and duration in hours  -> transform duration into seconds  - Update mappings - Emit event"
      },
      "decreaseTicketTries(address)": {
        "details": "- Check if used trie was last one        - If not: just decrease numTries        - If so: decrease numTries, update Avaliability and mappings"
      }
    },
    "version": 1
  },
  "userdoc": {
    "kind": "user",
    "methods": {
      "claimTicketBack(address,address)": {
        "notice": "Function used to claim Ticket back when duration is over"
      },
      "decreaseTicketTries(address)": {
        "notice": "Function used to decrease Ticket tries avaliables"
      }
    },
    "version": 1
  }
}