{
  "contractName": "Tickets",
  "abi": [
    {
      "inputs": [
        {
          "internalType": "address",
          "name": "_racksItems",
          "type": "address"
        },
        {
          "internalType": "address",
          "name": "_mrCrypto",
          "type": "address"
        }
      ],
      "stateMutability": "nonpayable",
      "type": "constructor"
    },
    {
      "inputs": [
        {
          "internalType": "uint256",
          "name": "numTries",
          "type": "uint256"
        },
        {
          "internalType": "uint256",
          "name": "_hours",
          "type": "uint256"
        },
        {
          "internalType": "uint256",
          "name": "price",
          "type": "uint256"
        },
        {
          "internalType": "address",
          "name": "user",
          "type": "address"
        }
      ],
      "name": "listTicket",
      "outputs": [],
      "stateMutability": "nonpayable",
      "type": "function"
    },
    {
      "inputs": [
        {
          "internalType": "address",
          "name": "user",
          "type": "address"
        }
      ],
      "name": "unListTicket",
      "outputs": [],
      "stateMutability": "nonpayable",
      "type": "function"
    },
    {
      "inputs": [
        {
          "internalType": "uint256",
          "name": "newTries",
          "type": "uint256"
        },
        {
          "internalType": "uint256",
          "name": "newHours",
          "type": "uint256"
        },
        {
          "internalType": "uint256",
          "name": "newPrice",
          "type": "uint256"
        },
        {
          "internalType": "address",
          "name": "user",
          "type": "address"
        }
      ],
      "name": "changeTicketConditions",
      "outputs": [],
      "stateMutability": "nonpayable",
      "type": "function"
    },
    {
      "inputs": [
        {
          "internalType": "uint256",
          "name": "ticketId",
          "type": "uint256"
        },
        {
          "internalType": "address",
          "name": "user",
          "type": "address"
        }
      ],
      "name": "buyTicket",
      "outputs": [],
      "stateMutability": "nonpayable",
      "type": "function"
    },
    {
      "inputs": [
        {
          "internalType": "address",
          "name": "user",
          "type": "address"
        }
      ],
      "name": "claimTicketBack",
      "outputs": [],
      "stateMutability": "nonpayable",
      "type": "function"
    },
    {
      "inputs": [
        {
          "internalType": "address",
          "name": "user",
          "type": "address"
        }
      ],
      "name": "getUserTicket",
      "outputs": [
        {
          "internalType": "uint256",
          "name": "durationLeft",
          "type": "uint256"
        },
        {
          "internalType": "uint256",
          "name": "triesLeft",
          "type": "uint256"
        },
        {
          "internalType": "uint256",
          "name": "ownerOrSpender",
          "type": "uint256"
        },
        {
          "internalType": "uint256",
          "name": "ticketPrice",
          "type": "uint256"
        }
      ],
      "stateMutability": "view",
      "type": "function"
    },
    {
      "inputs": [
        {
          "internalType": "uint256",
          "name": "ticketId",
          "type": "uint256"
        }
      ],
      "name": "getMarketTicket",
      "outputs": [
        {
          "internalType": "uint256",
          "name": "numTries",
          "type": "uint256"
        },
        {
          "internalType": "uint256",
          "name": "duration",
          "type": "uint256"
        },
        {
          "internalType": "uint256",
          "name": "price",
          "type": "uint256"
        },
        {
          "internalType": "address",
          "name": "owner",
          "type": "address"
        },
        {
          "internalType": "uint256",
          "name": "timeWhenSold",
          "type": "uint256"
        },
        {
          "internalType": "bool",
          "name": "isAvaliable",
          "type": "bool"
        }
      ],
      "stateMutability": "view",
      "type": "function"
    },
    {
      "inputs": [
        {
          "internalType": "address",
          "name": "user",
          "type": "address"
        }
      ],
      "name": "decreaseTicketTries",
      "outputs": [],
      "stateMutability": "nonpayable",
      "type": "function"
    },
    {
      "inputs": [],
      "name": "getTicketsOnSale",
      "outputs": [
        {
          "components": [
            {
              "internalType": "uint256",
              "name": "ticketId",
              "type": "uint256"
            },
            {
              "internalType": "uint256",
              "name": "numTries",
              "type": "uint256"
            },
            {
              "internalType": "uint256",
              "name": "duration",
              "type": "uint256"
            },
            {
              "internalType": "uint256",
              "name": "price",
              "type": "uint256"
            },
            {
              "internalType": "address",
              "name": "owner",
              "type": "address"
            },
            {
              "internalType": "uint256",
              "name": "timeWhenSold",
              "type": "uint256"
            },
            {
              "internalType": "bool",
              "name": "isAvaliable",
              "type": "bool"
            }
          ],
          "internalType": "struct ITickets.caseTicket[]",
          "name": "",
          "type": "tuple[]"
        }
      ],
      "stateMutability": "view",
      "type": "function"
    },
    {
      "inputs": [
        {
          "internalType": "uint256",
          "name": "ticketId",
          "type": "uint256"
        }
      ],
      "name": "getTicketDurationLeft",
      "outputs": [
        {
          "internalType": "address",
          "name": "",
          "type": "address"
        },
        {
          "internalType": "uint256",
          "name": "",
          "type": "uint256"
        },
        {
          "internalType": "bool",
          "name": "",
          "type": "bool"
        }
      ],
      "stateMutability": "view",
      "type": "function"
    },
    {
      "inputs": [],
      "name": "getTicketCount",
      "outputs": [
        {
          "internalType": "uint256",
          "name": "",
          "type": "uint256"
        }
      ],
      "stateMutability": "view",
      "type": "function"
    }
  ],
  "bytecode": "0x60806040523480156200001157600080fd5b5060405162003a5038038062003a5083398181016040528101906200003791906200012a565b816000806101000a81548173ffffffffffffffffffffffffffffffffffffffff021916908373ffffffffffffffffffffffffffffffffffffffff16021790555080600160006101000a81548173ffffffffffffffffffffffffffffffffffffffff021916908373ffffffffffffffffffffffffffffffffffffffff160217905550505062000171565b600080fd5b600073ffffffffffffffffffffffffffffffffffffffff82169050919050565b6000620000f282620000c5565b9050919050565b6200010481620000e5565b81146200011057600080fd5b50565b6000815190506200012481620000f9565b92915050565b60008060408385031215620001445762000143620000c0565b5b6000620001548582860162000113565b9250506020620001678582860162000113565b9150509250929050565b6138cf80620001816000396000f3fe608060405234801561001057600080fd5b50600436106100a95760003560e01c8063c25e2af411610071578063c25e2af414610152578063c80ec7bb14610185578063c853d922146101a1578063d066b704146101bf578063dd006d31146101db578063e835cb3714610210576100a9565b806315e2d694146100ae57806319c08575146100ca57806321c63a47146100fc57806330dc27641461011a57806362a845ec14610136575b600080fd5b6100c860048036038101906100c39190612be9565b61022c565b005b6100e460048036038101906100df9190612c4c565b610700565b6040516100f393929190612cb2565b60405180910390f35b610104610985565b6040516101119190612ce9565b60405180910390f35b610134600480360381019061012f9190612be9565b61098f565b005b610150600480360381019061014b9190612d04565b610c02565b005b61016c60048036038101906101679190612be9565b6111f5565b60405161017c9493929190612d44565b60405180910390f35b61019f600480360381019061019a9190612d89565b61134d565b005b6101a96117e0565b6040516101b69190612f5a565b60405180910390f35b6101d960048036038101906101d49190612be9565b611af7565b005b6101f560048036038101906101f09190612c4c565b611dcd565b60405161020796959493929190612f7c565b60405180910390f35b61022a60048036038101906102259190612d89565b611ede565b005b60008054906101000a900473ffffffffffffffffffffffffffffffffffffffff1673ffffffffffffffffffffffffffffffffffffffff163373ffffffffffffffffffffffffffffffffffffffff161461028457600080fd5b6000600760008373ffffffffffffffffffffffffffffffffffffffff1673ffffffffffffffffffffffffffffffffffffffff168152602001908152602001600020549050600660008373ffffffffffffffffffffffffffffffffffffffff1673ffffffffffffffffffffffffffffffffffffffff16815260200190815260200160002060009054906101000a900460ff16610354576040517f08c379a000000000000000000000000000000000000000000000000000000000815260040161034b9061303a565b60405180910390fd5b6000600a828154811061036a5761036961305a565b5b90600052602060002090600702016001015414806103dd5750600a81815481106103975761039661305a565b5b906000526020600020906007020160020154600a82815481106103bd576103bc61305a565b5b906000526020600020906007020160050154426103da91906130b8565b10155b61041c576040517f08c379a00000000000000000000000000000000000000000000000000000000081526004016104139061315e565b60405180910390fd5b6000600a82815481106104325761043161305a565b5b906000526020600020906007020160040160009054906101000a900473ffffffffffffffffffffffffffffffffffffffff169050600060046000600a85815481106104805761047f61305a565b5b906000526020600020906007020160040160009054906101000a900473ffffffffffffffffffffffffffffffffffffffff1673ffffffffffffffffffffffffffffffffffffffff1673ffffffffffffffffffffffffffffffffffffffff16815260200190815260200160002060006101000a81548160ff0219169083151502179055506001600460008573ffffffffffffffffffffffffffffffffffffffff1673ffffffffffffffffffffffffffffffffffffffff16815260200190815260200160002060006101000a81548160ff0219169083151502179055506000600660008573ffffffffffffffffffffffffffffffffffffffff1673ffffffffffffffffffffffffffffffffffffffff16815260200190815260200160002060006101000a81548160ff02191690831515021790555082600a83815481106105c8576105c761305a565b5b906000526020600020906007020160040160006101000a81548173ffffffffffffffffffffffffffffffffffffffff021916908373ffffffffffffffffffffffffffffffffffffffff1602179055506001600a838154811061062d5761062c61305a565b5b906000526020600020906007020160060160006101000a81548160ff021916908315150217905550600160046000600a858154811061066f5761066e61305a565b5b906000526020600020906007020160040160009054906101000a900473ffffffffffffffffffffffffffffffffffffffff1673ffffffffffffffffffffffffffffffffffffffff1673ffffffffffffffffffffffffffffffffffffffff16815260200190815260200160002060006101000a81548160ff0219169083151502179055506106fb8361213e565b505050565b600080600080600a858154811061071a5761071961305a565b5b9060005260206000209060070201600501541161076c576040517f08c379a0000000000000000000000000000000000000000000000000000000008152600401610763906131ca565b60405180910390fd5b600080600a86815481106107835761078261305a565b5b90600052602060002090600702016001015414156107f057600a85815481106107af576107ae61305a565b5b906000526020600020906007020160040160009054906101000a900473ffffffffffffffffffffffffffffffffffffffff168160009350935093505061097e565b600a85815481106108045761080361305a565b5b906000526020600020906007020160020154600a868154811061082a5761082961305a565b5b9060005260206000209060070201600501544261084791906130b8565b106108a55760009050600a85815481106108645761086361305a565b5b906000526020600020906007020160040160009054906101000a900473ffffffffffffffffffffffffffffffffffffffff168160019350935093505061097e565b6000610e109050600a86815481106108c0576108bf61305a565b5b906000526020600020906007020160050154426108dd91906130b8565b600a87815481106108f1576108f061305a565b5b90600052602060002090600702016002015461090d91906130b8565b915060008160648461091f91906131ea565b6109299190613273565b9050600a878154811061093f5761093e61305a565b5b906000526020600020906007020160040160009054906101000a900473ffffffffffffffffffffffffffffffffffffffff168160019550955095505050505b9193909250565b6000600254905090565b60008054906101000a900473ffffffffffffffffffffffffffffffffffffffff1673ffffffffffffffffffffffffffffffffffffffff163373ffffffffffffffffffffffffffffffffffffffff16146109e757600080fd5b60005b600a80549050811015610bfe578173ffffffffffffffffffffffffffffffffffffffff16600a8281548110610a2257610a2161305a565b5b906000526020600020906007020160040160009054906101000a900473ffffffffffffffffffffffffffffffffffffffff1673ffffffffffffffffffffffffffffffffffffffff16148015610aa65750600a8181548110610a8657610a8561305a565b5b906000526020600020906007020160060160009054906101000a900460ff165b15610beb576001600a8281548110610ac157610ac061305a565b5b90600052602060002090600702016001015414610b1857600a8181548110610aec57610aeb61305a565b5b90600052602060002090600702016001016000815480929190610b0e906132a4565b9190505550610bea565b600a8181548110610b2c57610b2b61305a565b5b90600052602060002090600702016001016000815480929190610b4e906132a4565b91905055506000600a8281548110610b6957610b6861305a565b5b906000526020600020906007020160060160006101000a81548160ff0219169083151502179055506000600460008473ffffffffffffffffffffffffffffffffffffffff1673ffffffffffffffffffffffffffffffffffffffff16815260200190815260200160002060006101000a81548160ff0219169083151502179055505b5b8080610bf6906132ce565b9150506109ea565b5050565b60008054906101000a900473ffffffffffffffffffffffffffffffffffffffff1673ffffffffffffffffffffffffffffffffffffffff163373ffffffffffffffffffffffffffffffffffffffff1614610c5a57600080fd5b6000151560008054906101000a900473ffffffffffffffffffffffffffffffffffffffff1673ffffffffffffffffffffffffffffffffffffffff166384203f4b836040518263ffffffff1660e01b8152600401610cb79190613317565b602060405180830381865afa158015610cd4573d6000803e3d6000fd5b505050506040513d601f19601f82011682018060405250810190610cf8919061335e565b151514610d3a576040517f08c379a0000000000000000000000000000000000000000000000000000000008152600401610d31906133d7565b60405180910390fd5b8073ffffffffffffffffffffffffffffffffffffffff16600a8381548110610d6557610d6461305a565b5b906000526020600020906007020160040160009054906101000a900473ffffffffffffffffffffffffffffffffffffffff1673ffffffffffffffffffffffffffffffffffffffff161415610dee576040517f08c379a0000000000000000000000000000000000000000000000000000000008152600401610de590613469565b60405180910390fd5b60011515600a8381548110610e0657610e0561305a565b5b906000526020600020906007020160060160009054906101000a900460ff16151514610e67576040517f08c379a0000000000000000000000000000000000000000000000000000000008152600401610e5e906134fb565b60405180910390fd5b6000600a8381548110610e7d57610e7c61305a565b5b906000526020600020906007020160040160009054906101000a900473ffffffffffffffffffffffffffffffffffffffff16905042600a8481548110610ec657610ec561305a565b5b906000526020600020906007020160050181905550600060046000600a8681548110610ef557610ef461305a565b5b906000526020600020906007020160040160009054906101000a900473ffffffffffffffffffffffffffffffffffffffff1673ffffffffffffffffffffffffffffffffffffffff1673ffffffffffffffffffffffffffffffffffffffff16815260200190815260200160002060006101000a81548160ff021916908315150217905550600060036000600a8681548110610f9257610f9161305a565b5b906000526020600020906007020160040160009054906101000a900473ffffffffffffffffffffffffffffffffffffffff1673ffffffffffffffffffffffffffffffffffffffff1673ffffffffffffffffffffffffffffffffffffffff16815260200190815260200160002060006101000a81548160ff021916908315150217905550600160066000600a868154811061102f5761102e61305a565b5b906000526020600020906007020160040160009054906101000a900473ffffffffffffffffffffffffffffffffffffffff1673ffffffffffffffffffffffffffffffffffffffff1673ffffffffffffffffffffffffffffffffffffffff16815260200190815260200160002060006101000a81548160ff0219169083151502179055506001600460008473ffffffffffffffffffffffffffffffffffffffff1673ffffffffffffffffffffffffffffffffffffffff16815260200190815260200160002060006101000a81548160ff02191690831515021790555081600a848154811061111f5761111e61305a565b5b906000526020600020906007020160040160006101000a81548173ffffffffffffffffffffffffffffffffffffffff021916908373ffffffffffffffffffffffffffffffffffffffff1602179055506000600a84815481106111845761118361305a565b5b906000526020600020906007020160060160006101000a81548160ff02191690831515021790555082600760008473ffffffffffffffffffffffffffffffffffffffff1673ffffffffffffffffffffffffffffffffffffffff16815260200190815260200160002081905550505050565b60008060008060008054906101000a900473ffffffffffffffffffffffffffffffffffffffff1673ffffffffffffffffffffffffffffffffffffffff163373ffffffffffffffffffffffffffffffffffffffff161461125357600080fd5b600161125e866122a6565b148061127257506000611270866122a6565b145b1561129257600080611283876122a6565b60009350935093509350611346565b6000600760008773ffffffffffffffffffffffffffffffffffffffff1673ffffffffffffffffffffffffffffffffffffffff16815260200190815260200160002054905060006112e182610700565b5091505080600a83815481106112fa576112f961305a565b5b906000526020600020906007020160010154611315896122a6565b600a85815481106113295761132861305a565b5b906000526020600020906007020160030154955095509550955050505b9193509193565b60008054906101000a900473ffffffffffffffffffffffffffffffffffffffff1673ffffffffffffffffffffffffffffffffffffffff163373ffffffffffffffffffffffffffffffffffffffff16146113a557600080fd5b600360008273ffffffffffffffffffffffffffffffffffffffff1673ffffffffffffffffffffffffffffffffffffffff16815260200190815260200160002060009054906101000a900460ff1615611432576040517f08c379a00000000000000000000000000000000000000000000000000000000081526004016114299061358d565b60405180910390fd5b600560008273ffffffffffffffffffffffffffffffffffffffff1673ffffffffffffffffffffffffffffffffffffffff16815260200190815260200160002060009054906101000a900460ff161561151157600460008273ffffffffffffffffffffffffffffffffffffffff1673ffffffffffffffffffffffffffffffffffffffff16815260200190815260200160002060009054906101000a900460ff16611510576040517f08c379a0000000000000000000000000000000000000000000000000000000008152600401611507906135f9565b60405180910390fd5b5b600061151c8261285c565b90508061155e576040517f08c379a00000000000000000000000000000000000000000000000000000000081526004016115559061368b565b60405180910390fd5b600a6040518060e0016040528060025481526020018781526020018681526020018581526020018473ffffffffffffffffffffffffffffffffffffffff168152602001600081526020016001151581525090806001815401808255809150506001900390600052602060002090600702016000909190919091506000820151816000015560208201518160010155604082015181600201556060820151816003015560808201518160040160006101000a81548173ffffffffffffffffffffffffffffffffffffffff021916908373ffffffffffffffffffffffffffffffffffffffff16021790555060a0820151816005015560c08201518160060160006101000a81548160ff0219169083151502179055505050600254600760008473ffffffffffffffffffffffffffffffffffffffff1673ffffffffffffffffffffffffffffffffffffffff16815260200190815260200160002081905550600260008154809291906116cc906132ce565b91905055506001600360008473ffffffffffffffffffffffffffffffffffffffff1673ffffffffffffffffffffffffffffffffffffffff16815260200190815260200160002060006101000a81548160ff0219169083151502179055506001600560008473ffffffffffffffffffffffffffffffffffffffff1673ffffffffffffffffffffffffffffffffffffffff16815260200190815260200160002060006101000a81548160ff0219169083151502179055506000600460008473ffffffffffffffffffffffffffffffffffffffff1673ffffffffffffffffffffffffffffffffffffffff16815260200190815260200160002060006101000a81548160ff0219169083151502179055505050505050565b606060008054906101000a900473ffffffffffffffffffffffffffffffffffffffff1673ffffffffffffffffffffffffffffffffffffffff163373ffffffffffffffffffffffffffffffffffffffff161461183a57600080fd5b600080600090505b600a80549050811015611958576000600a82815481106118655761186461305a565b5b90600052602060002090600702016040518060e0016040529081600082015481526020016001820154815260200160028201548152602001600382015481526020016004820160009054906101000a900473ffffffffffffffffffffffffffffffffffffffff1673ffffffffffffffffffffffffffffffffffffffff1673ffffffffffffffffffffffffffffffffffffffff168152602001600582015481526020016006820160009054906101000a900460ff1615151515815250509050600115158160c00151151514156119445760018361194191906136ab565b92505b508080611950906132ce565b915050611842565b5060008167ffffffffffffffff81111561197557611974613701565b5b6040519080825280602002602001820160405280156119ae57816020015b61199b612b31565b8152602001906001900390816119935790505b509050600080600090505b600a80549050811015611aed576000600a82815481106119dc576119db61305a565b5b90600052602060002090600702016040518060e0016040529081600082015481526020016001820154815260200160028201548152602001600382015481526020016004820160009054906101000a900473ffffffffffffffffffffffffffffffffffffffff1673ffffffffffffffffffffffffffffffffffffffff1673ffffffffffffffffffffffffffffffffffffffff168152602001600582015481526020016006820160009054906101000a900460ff1615151515815250509050600115158160c0015115151415611ad95780848481518110611abf57611abe61305a565b5b60200260200101819052508280611ad5906132ce565b9350505b508080611ae5906132ce565b9150506119b9565b5081935050505090565b60008054906101000a900473ffffffffffffffffffffffffffffffffffffffff1673ffffffffffffffffffffffffffffffffffffffff163373ffffffffffffffffffffffffffffffffffffffff1614611b4f57600080fd5b6000600760008373ffffffffffffffffffffffffffffffffffffffff1673ffffffffffffffffffffffffffffffffffffffff168152602001908152602001600020549050600360008373ffffffffffffffffffffffffffffffffffffffff1673ffffffffffffffffffffffffffffffffffffffff16815260200190815260200160002060009054906101000a900460ff16611c1f576040517f08c379a0000000000000000000000000000000000000000000000000000000008152600401611c16906137a2565b60405180910390fd5b8173ffffffffffffffffffffffffffffffffffffffff16600a8281548110611c4a57611c4961305a565b5b906000526020600020906007020160040160009054906101000a900473ffffffffffffffffffffffffffffffffffffffff1673ffffffffffffffffffffffffffffffffffffffff1614611cd2576040517f08c379a0000000000000000000000000000000000000000000000000000000008152600401611cc99061380e565b60405180910390fd5b6000600a8281548110611ce857611ce761305a565b5b906000526020600020906007020160060160006101000a81548160ff0219169083151502179055506000600360008473ffffffffffffffffffffffffffffffffffffffff1673ffffffffffffffffffffffffffffffffffffffff16815260200190815260200160002060006101000a81548160ff0219169083151502179055506001600460008473ffffffffffffffffffffffffffffffffffffffff1673ffffffffffffffffffffffffffffffffffffffff16815260200190815260200160002060006101000a81548160ff021916908315150217905550611dc98261213e565b5050565b6000806000806000806000600a8881548110611dec57611deb61305a565b5b90600052602060002090600702016040518060e0016040529081600082015481526020016001820154815260200160028201548152602001600382015481526020016004820160009054906101000a900473ffffffffffffffffffffffffffffffffffffffff1673ffffffffffffffffffffffffffffffffffffffff1673ffffffffffffffffffffffffffffffffffffffff168152602001600582015481526020016006820160009054906101000a900460ff161515151581525050905080602001518160400151826060015183608001518460a001518560c001519650965096509650965096505091939550919395565b60008054906101000a900473ffffffffffffffffffffffffffffffffffffffff1673ffffffffffffffffffffffffffffffffffffffff163373ffffffffffffffffffffffffffffffffffffffff1614611f3657600080fd5b6000600760008373ffffffffffffffffffffffffffffffffffffffff1673ffffffffffffffffffffffffffffffffffffffff168152602001908152602001600020549050600360008373ffffffffffffffffffffffffffffffffffffffff1673ffffffffffffffffffffffffffffffffffffffff16815260200190815260200160002060009054906101000a900460ff16612006576040517f08c379a0000000000000000000000000000000000000000000000000000000008152600401611ffd906137a2565b60405180910390fd5b8173ffffffffffffffffffffffffffffffffffffffff16600a82815481106120315761203061305a565b5b906000526020600020906007020160040160009054906101000a900473ffffffffffffffffffffffffffffffffffffffff1673ffffffffffffffffffffffffffffffffffffffff16146120b9576040517f08c379a00000000000000000000000000000000000000000000000000000000081526004016120b09061380e565b60405180910390fd5b82600a82815481106120ce576120cd61305a565b5b90600052602060002090600702016003018190555083600a82815481106120f8576120f761305a565b5b90600052602060002090600702016002018190555084600a82815481106121225761212161305a565b5b9060005260206000209060070201600101819055505050505050565b6000600960008373ffffffffffffffffffffffffffffffffffffffff1673ffffffffffffffffffffffffffffffffffffffff1681526020019081526020016000208054806020026020016040519081016040528092919081815260200182805480156121c957602002820191906000526020600020905b8154815260200190600101908083116121b5575b5050505050905060005b81518110156122a15760008282815181106121f1576121f061305a565b5b60200260200101511461228e57600960008473ffffffffffffffffffffffffffffffffffffffff1673ffffffffffffffffffffffffffffffffffffffff168152602001908152602001600020818154811061224f5761224e61305a565b5b906000526020600020016000905560006008600083815260200190815260200160002060006101000a81548160ff0219169083151502179055506122a1565b8080612299906132ce565b9150506121d3565b505050565b60008060008054906101000a900473ffffffffffffffffffffffffffffffffffffffff1673ffffffffffffffffffffffffffffffffffffffff166384203f4b846040518263ffffffff1660e01b81526004016123029190613317565b602060405180830381865afa15801561231f573d6000803e3d6000fd5b505050506040513d601f19601f82011682018060405250810190612343919061335e565b80156123995750600560008473ffffffffffffffffffffffffffffffffffffffff1673ffffffffffffffffffffffffffffffffffffffff16815260200190815260200160002060009054906101000a900460ff16155b156123a75760019050612853565b60008054906101000a900473ffffffffffffffffffffffffffffffffffffffff1673ffffffffffffffffffffffffffffffffffffffff166384203f4b846040518263ffffffff1660e01b81526004016124009190613317565b602060405180830381865afa15801561241d573d6000803e3d6000fd5b505050506040513d601f19601f82011682018060405250810190612441919061335e565b1580156124975750600460008473ffffffffffffffffffffffffffffffffffffffff1673ffffffffffffffffffffffffffffffffffffffff16815260200190815260200160002060009054906101000a900460ff165b156124a55760029050612852565b60008054906101000a900473ffffffffffffffffffffffffffffffffffffffff1673ffffffffffffffffffffffffffffffffffffffff166384203f4b846040518263ffffffff1660e01b81526004016124fe9190613317565b602060405180830381865afa15801561251b573d6000803e3d6000fd5b505050506040513d601f19601f8201168201806040525081019061253f919061335e565b80156125955750600360008473ffffffffffffffffffffffffffffffffffffffff1673ffffffffffffffffffffffffffffffffffffffff16815260200190815260200160002060009054906101000a900460ff16155b80156125eb5750600460008473ffffffffffffffffffffffffffffffffffffffff1673ffffffffffffffffffffffffffffffffffffffff16815260200190815260200160002060009054906101000a900460ff16155b80156126405750600560008473ffffffffffffffffffffffffffffffffffffffff1673ffffffffffffffffffffffffffffffffffffffff16815260200190815260200160002060009054906101000a900460ff165b80156126955750600660008473ffffffffffffffffffffffffffffffffffffffff1673ffffffffffffffffffffffffffffffffffffffff16815260200190815260200160002060009054906101000a900460ff165b156126a35760039050612851565b60008054906101000a900473ffffffffffffffffffffffffffffffffffffffff1673ffffffffffffffffffffffffffffffffffffffff166384203f4b846040518263ffffffff1660e01b81526004016126fc9190613317565b602060405180830381865afa158015612719573d6000803e3d6000fd5b505050506040513d601f19601f8201168201806040525081019061273d919061335e565b80156127925750600360008473ffffffffffffffffffffffffffffffffffffffff1673ffffffffffffffffffffffffffffffffffffffff16815260200190815260200160002060009054906101000a900460ff165b80156127e85750600460008473ffffffffffffffffffffffffffffffffffffffff1673ffffffffffffffffffffffffffffffffffffffff16815260200190815260200160002060009054906101000a900460ff16155b801561283d5750600560008473ffffffffffffffffffffffffffffffffffffffff1673ffffffffffffffffffffffffffffffffffffffff16815260200190815260200160002060009054906101000a900460ff165b1561284b5760049050612850565b600090505b5b5b5b80915050919050565b600080600061286a8461295e565b905060005b8151811015612953576008600083838151811061288f5761288e61305a565b5b6020026020010151815260200190815260200160002060009054906101000a900460ff1661294057600960008673ffffffffffffffffffffffffffffffffffffffff1673ffffffffffffffffffffffffffffffffffffffff1681526020019081526020016000208282815181106129095761290861305a565b5b6020026020010151908060018154018082558091505060019003906000526020600020016000909190919091505560019250612953565b808061294b906132ce565b91505061286f565b508192505050919050565b60606000600160009054906101000a900473ffffffffffffffffffffffffffffffffffffffff1673ffffffffffffffffffffffffffffffffffffffff166370a08231846040518263ffffffff1660e01b81526004016129bd9190613317565b602060405180830381865afa1580156129da573d6000803e3d6000fd5b505050506040513d601f19601f820116820180604052508101906129fe9190613843565b905060008167ffffffffffffffff811115612a1c57612a1b613701565b5b604051908082528060200260200182016040528015612a4a5781602001602082028036833780820191505090505b50905060005b82811015612b2657600160009054906101000a900473ffffffffffffffffffffffffffffffffffffffff1673ffffffffffffffffffffffffffffffffffffffff16632f745c5986836040518363ffffffff1660e01b8152600401612ab5929190613870565b602060405180830381865afa158015612ad2573d6000803e3d6000fd5b505050506040513d601f19601f82011682018060405250810190612af69190613843565b828281518110612b0957612b0861305a565b5b60200260200101818152505080612b1f906132ce565b9050612a50565b508092505050919050565b6040518060e0016040528060008152602001600081526020016000815260200160008152602001600073ffffffffffffffffffffffffffffffffffffffff168152602001600081526020016000151581525090565b600080fd5b600073ffffffffffffffffffffffffffffffffffffffff82169050919050565b6000612bb682612b8b565b9050919050565b612bc681612bab565b8114612bd157600080fd5b50565b600081359050612be381612bbd565b92915050565b600060208284031215612bff57612bfe612b86565b5b6000612c0d84828501612bd4565b91505092915050565b6000819050919050565b612c2981612c16565b8114612c3457600080fd5b50565b600081359050612c4681612c20565b92915050565b600060208284031215612c6257612c61612b86565b5b6000612c7084828501612c37565b91505092915050565b612c8281612bab565b82525050565b612c9181612c16565b82525050565b60008115159050919050565b612cac81612c97565b82525050565b6000606082019050612cc76000830186612c79565b612cd46020830185612c88565b612ce16040830184612ca3565b949350505050565b6000602082019050612cfe6000830184612c88565b92915050565b60008060408385031215612d1b57612d1a612b86565b5b6000612d2985828601612c37565b9250506020612d3a85828601612bd4565b9150509250929050565b6000608082019050612d596000830187612c88565b612d666020830186612c88565b612d736040830185612c88565b612d806060830184612c88565b95945050505050565b60008060008060808587031215612da357612da2612b86565b5b6000612db187828801612c37565b9450506020612dc287828801612c37565b9350506040612dd387828801612c37565b9250506060612de487828801612bd4565b91505092959194509250565b600081519050919050565b600082825260208201905092915050565b6000819050602082019050919050565b612e2581612c16565b82525050565b612e3481612bab565b82525050565b612e4381612c97565b82525050565b60e082016000820151612e5f6000850182612e1c565b506020820151612e726020850182612e1c565b506040820151612e856040850182612e1c565b506060820151612e986060850182612e1c565b506080820151612eab6080850182612e2b565b5060a0820151612ebe60a0850182612e1c565b5060c0820151612ed160c0850182612e3a565b50505050565b6000612ee38383612e49565b60e08301905092915050565b6000602082019050919050565b6000612f0782612df0565b612f118185612dfb565b9350612f1c83612e0c565b8060005b83811015612f4d578151612f348882612ed7565b9750612f3f83612eef565b925050600181019050612f20565b5085935050505092915050565b60006020820190508181036000830152612f748184612efc565b905092915050565b600060c082019050612f916000830189612c88565b612f9e6020830188612c88565b612fab6040830187612c88565b612fb86060830186612c79565b612fc56080830185612c88565b612fd260a0830184612ca3565b979650505050505050565b600082825260208201905092915050565b7f5573657220646964206e6f742073656c6c20616e79205469636b657400000000600082015250565b6000613024601c83612fdd565b915061302f82612fee565b602082019050919050565b6000602082019050818103600083015261305381613017565b9050919050565b7f4e487b7100000000000000000000000000000000000000000000000000000000600052603260045260246000fd5b7f4e487b7100000000000000000000000000000000000000000000000000000000600052601160045260246000fd5b60006130c382612c16565b91506130ce83612c16565b9250828210156130e1576130e0613089565b5b828203905092915050565b7f4475726174696f6e206f6620746865205469636b6574206f72206e756d54726960008201527f6573206973207374696c6c206176616c6961626c650000000000000000000000602082015250565b6000613148603583612fdd565b9150613153826130ec565b604082019050919050565b600060208201905081810360008301526131778161313b565b9050919050565b7f5469636b6574206973206e6f7420736f6c64207965742e000000000000000000600082015250565b60006131b4601783612fdd565b91506131bf8261317e565b602082019050919050565b600060208201905081810360008301526131e3816131a7565b9050919050565b60006131f582612c16565b915061320083612c16565b9250817fffffffffffffffffffffffffffffffffffffffffffffffffffffffffffffffff048311821515161561323957613238613089565b5b828202905092915050565b7f4e487b7100000000000000000000000000000000000000000000000000000000600052601260045260246000fd5b600061327e82612c16565b915061328983612c16565b92508261329957613298613244565b5b828204905092915050565b60006132af82612c16565b915060008214156132c3576132c2613089565b5b600182039050919050565b60006132d982612c16565b91507fffffffffffffffffffffffffffffffffffffffffffffffffffffffffffffffff82141561330c5761330b613089565b5b600182019050919050565b600060208201905061332c6000830184612c79565b92915050565b61333b81612c97565b811461334657600080fd5b50565b60008151905061335881613332565b92915050565b60006020828403121561337457613373612b86565b5b600061338284828501613349565b91505092915050565b7f412056495020757365722063616e206e6f74206275792061207469636b657400600082015250565b60006133c1601f83612fdd565b91506133cc8261338b565b602082019050919050565b600060208201905081810360008301526133f0816133b4565b9050919050565b7f596f752063616e206e6f74206275792061207469636b657420746f20796f757260008201527f2073656c66000000000000000000000000000000000000000000000000000000602082015250565b6000613453602583612fdd565b915061345e826133f7565b604082019050919050565b6000602082019050818103600083015261348281613446565b9050919050565b7f5469636b6574206973206e6f742063757272656e746c79206176616c6961626c60008201527f6500000000000000000000000000000000000000000000000000000000000000602082015250565b60006134e5602183612fdd565b91506134f082613489565b604082019050919050565b60006020820190508181036000830152613514816134d8565b9050919050565b7f5573657220697320616c72656164792063757272656e746c792073656c6c696e60008201527f672061205469636b657400000000000000000000000000000000000000000000602082015250565b6000613577602a83612fdd565b91506135828261351b565b604082019050919050565b600060208201905081810360008301526135a68161356a565b9050919050565b7f5573657220686173206e6f74207469636b6574206176616c6961626c65000000600082015250565b60006135e3601d83612fdd565b91506135ee826135ad565b602082019050919050565b60006020820190508181036000830152613612816135d6565b9050919050565b7f536f7272792c20796f7520616c726561647920686176652061204d722043727960008201527f70746f206f6e207573652e000000000000000000000000000000000000000000602082015250565b6000613675602b83612fdd565b915061368082613619565b604082019050919050565b600060208201905081810360008301526136a481613668565b9050919050565b60006136b682612c16565b91506136c183612c16565b9250827fffffffffffffffffffffffffffffffffffffffffffffffffffffffffffffffff038211156136f6576136f5613089565b5b828201905092915050565b7f4e487b7100000000000000000000000000000000000000000000000000000000600052604160045260246000fd5b7f55736572206973206e6f742063757272656e746c792073656c6c696e6720612060008201527f5469636b65740000000000000000000000000000000000000000000000000000602082015250565b600061378c602683612fdd565b915061379782613730565b604082019050919050565b600060208201905081810360008301526137bb8161377f565b9050919050565b7f55736572206973206e6f74206f776e6572206f662074686973207469636b6574600082015250565b60006137f8602083612fdd565b9150613803826137c2565b602082019050919050565b60006020820190508181036000830152613827816137eb565b9050919050565b60008151905061383d81612c20565b92915050565b60006020828403121561385957613858612b86565b5b60006138678482850161382e565b91505092915050565b60006040820190506138856000830185612c79565b6138926020830184612c88565b939250505056fea2646970667358221220e4a6e34aafedcda635e4c43a8483a22cb675f70df00044553059076f2757467564736f6c634300080a0033",
  "immutableReferences": {},
  "source": "pragma solidity ^0.8.0;\r\nimport \"./ITickets.sol\";\r\nimport \"./IRacksItems.sol\";\r\nimport \"@openzeppelin/contracts/token/ERC721/extensions/IERC721Enumerable.sol\"; \r\n\r\n    contract Tickets is ITickets{\r\n        IRacksItems RacksItems;\r\n        IERC721Enumerable MR_CRYPTO;\r\n        uint256 private s_ticketCount;\r\n        mapping(address => bool) private s_isSellingTicket;\r\n        mapping(address => bool) private s_hasTicket; \r\n        mapping(address => bool) private s_hadTicket;\r\n        mapping(address => bool) private s_ticketIsLended;\r\n        mapping(address => uint256) s_lastTicket;\r\n        mapping(uint => bool) s_isLocked;\r\n        mapping(address => uint256[]) s_locked_mrCrypto;\r\n        caseTicket[] private _tickets;\r\n\r\n        constructor(address _racksItems, address _mrCrypto){\r\n           RacksItems = IRacksItems(_racksItems);\r\n           MR_CRYPTO = IERC721Enumerable(_mrCrypto);\r\n\r\n        }\r\n     /**\r\n    * @notice This function is used for a VIP user to list 'Case Tickets' on the MarketPlace\r\n    * @dev - Should check that user is Vip (Modifier)\r\n    * - Check is user has had a ticket before\r\n    *     - If so: check that is has ticket now\r\n    *     - if not: create ticket (first ticket in live for this user)\r\n    * - Should check that user is NOT currently selling another ticket -> Users can only sell 1 ticket at the same time\r\n    * - Include ticket on array\r\n    * - Increase s_ticketCount\r\n    * - Set mapping to true\r\n    * - Emit event\r\n    *\r\n    */\r\n    function listTicket(uint256 numTries, uint256 _hours, uint256 price, address user) external  override{\r\n        require(msg.sender==address(RacksItems));\r\n        require(!s_isSellingTicket[user], \"User is already currently selling a Ticket\");\r\n        if(s_hadTicket[user]) {\r\n            require(s_hasTicket[user], \"User has not ticket avaliable\");\r\n        }\r\n        bool success = _lockMrCrypto(user);\r\n        require(success,\"Sorry, you already have a Mr Crypto on use.\");\r\n        _tickets.push(\r\n        caseTicket(\r\n        s_ticketCount,\r\n        numTries,\r\n        _hours,\r\n        price,\r\n        user,\r\n        0,\r\n        true\r\n        ));\r\n\r\n        s_lastTicket[user] = s_ticketCount;\r\n        s_ticketCount++;\r\n        s_isSellingTicket[user] = true;\r\n        s_hadTicket[user] = true;\r\n        s_hasTicket[user] = false;\r\n    }\r\n\r\n     /**\r\n    * @notice This function is used for a VIP user to unlist 'Case Tickets' on the MarketPlace\r\n    * @dev - Should check that user is Vip (Modifier)\r\n    * - Should check that user has a listed ticket\r\n    * - Emit event\r\n    */\r\n    function unListTicket(address user) external override{\r\n        require(msg.sender==address(RacksItems));\r\n        uint ticketId = s_lastTicket[user];\r\n        require(s_isSellingTicket[user], \"User is not currently selling a Ticket\");\r\n        require(_tickets[ticketId].owner == user, \"User is not owner of this ticket\");\r\n        _tickets[ticketId].isAvaliable = false;\r\n        s_isSellingTicket[user] = false;\r\n        s_hasTicket[user] = true;\r\n        _unlockMrCrypto(user);\r\n     \r\n    }\r\n\r\n    /**\r\n    * @notice This function is used for a VIP user to change 'Case Tickets' price and tries on the MarketPlace\r\n    * @dev - Should check that user is Vip (Modifier)\r\n    * - Should check that user has a listed ticket\r\n    * - Emit event\r\n    */\r\n    function changeTicketConditions(uint256 newTries, uint256 newHours, uint256 newPrice, address user) external override{\r\n        require(msg.sender==address(RacksItems));\r\n        uint ticketId = s_lastTicket[user];\r\n        require(s_isSellingTicket[user], \"User is not currently selling a Ticket\");\r\n        require(_tickets[ticketId].owner == user, \"User is not owner of this ticket\");\r\n        _tickets[ticketId].price = newPrice;\r\n        _tickets[ticketId].duration = newHours;\r\n        _tickets[ticketId].numTries = newTries;\r\n     \r\n    }\r\n\r\n    /**\r\n    * @notice This function is used to buy a caseTicket\r\n    * @dev - Should check that user is NOT Vip -> does make sense that a VIP user buys a ticket\r\n    * - Should check that user has a listed ticket\r\n    * - Transfer RacksToken from buyer to seller\r\n    * - Update mappings variables\r\n    * - Emit event\r\n    */\r\n    function buyTicket(uint256 ticketId, address user) external override{\r\n        require(msg.sender==address(RacksItems));\r\n        require(RacksItems.isVip(user)==false, \"A VIP user can not buy a ticket\");\r\n        require(_tickets[ticketId].owner != user, \"You can not buy a ticket to your self\");\r\n        require(_tickets[ticketId].isAvaliable == true, \"Ticket is not currently avaliable\");\r\n        address oldOwner = _tickets[ticketId].owner;\r\n        _tickets[ticketId].timeWhenSold = block.timestamp;\r\n        s_hasTicket[_tickets[ticketId].owner] = false;\r\n        s_isSellingTicket[_tickets[ticketId].owner] = false;\r\n        s_ticketIsLended[_tickets[ticketId].owner] = true;\r\n        s_hasTicket[user] = true;\r\n        _tickets[ticketId].owner = user;\r\n        _tickets[ticketId].isAvaliable = false;\r\n        s_lastTicket[user] = ticketId;\r\n       \r\n    }\r\n\r\n    /** @notice Function used to claim Ticket back when duration is over\r\n    * @dev - Check that claimer is lending a Ticket\r\n    * - Check that duration of the Ticket is over -> block.timestamp is in seconds and duration in hours \r\n    * -> transform duration into seconds \r\n    * - Update mappings\r\n    * - Emit event\r\n    */\r\n    function claimTicketBack(address user) external override{\r\n        require(msg.sender==address(RacksItems));\r\n        uint ticketId = s_lastTicket[user];\r\n        require(s_ticketIsLended[user], \"User did not sell any Ticket\");\r\n        require((_tickets[ticketId].numTries == 0) || (block.timestamp - _tickets[ticketId].timeWhenSold) >= _tickets[ticketId].duration , \"Duration of the Ticket or numTries is still avaliable\");\r\n        address oldOwner = _tickets[ticketId].owner;\r\n        s_hasTicket[_tickets[ticketId].owner] = false;\r\n        s_hasTicket[user] = true;\r\n        s_ticketIsLended[user] = false;\r\n        _tickets[ticketId].owner = user;\r\n        _tickets[ticketId].isAvaliable = true;\r\n        s_hasTicket[_tickets[ticketId].owner] = true;\r\n        _unlockMrCrypto(user);\r\n  \r\n    }\r\n     function getUserTicket(address user) external view override returns(uint256 durationLeft, uint256 triesLeft, uint ownerOrSpender, uint256 ticketPrice) {\r\n        require(msg.sender==address(RacksItems));\r\n        if(_ticketOwnership(user)==1 || _ticketOwnership(user)==0){\r\n          return(0,0,_ticketOwnership(user), 0);\r\n        }else{\r\n        uint256 ticketId = s_lastTicket[user];\r\n        (,uint256 timeLeft,) = getTicketDurationLeft(ticketId);\r\n        return (timeLeft, _tickets[ticketId].numTries, _ticketOwnership(user), _tickets[ticketId].price);\r\n        }\r\n    }\r\n\r\n    function getMarketTicket(uint256 ticketId) external override view returns( uint256 numTries, uint256 duration, uint256 price, address owner, uint256 timeWhenSold, bool isAvaliable){\r\n        caseTicket memory ticket = _tickets[ticketId];  \r\n        return(\r\n            ticket.numTries,\r\n            ticket.duration,\r\n            ticket.price,\r\n            ticket.owner,\r\n            ticket.timeWhenSold,\r\n            ticket.isAvaliable\r\n        );\r\n\r\n        \r\n    }\r\n\r\n    //////////////////////\r\n    //  User Functions // \r\n    /////////////////////\r\n    function _ticketOwnership(address user) internal view returns(uint ownerOrSpender){\r\n      uint ticketOwnership;\r\n      if (RacksItems.isVip(user) && !s_hadTicket[user]){\r\n        ticketOwnership=1;\r\n        } else if(!RacksItems.isVip(user)&& s_hasTicket[user] ){\r\n          ticketOwnership=2;\r\n        }else if(RacksItems.isVip(user) && !s_isSellingTicket[user] && !s_hasTicket[user] && s_hadTicket[user] && s_ticketIsLended[user]){\r\n          ticketOwnership=3;\r\n        } else if (RacksItems.isVip(user) && s_isSellingTicket[user] && !s_hasTicket[user] && s_hadTicket[user]){\r\n          ticketOwnership=4;\r\n        }else{\r\n          ticketOwnership=0;\r\n        }\r\n      return ticketOwnership;\r\n    }\r\n\r\n    /** @notice Function used to decrease Ticket tries avaliables\r\n    * @dev - Check if used trie was last one\r\n    *        - If not: just decrease numTries\r\n    *        - If so: decrease numTries, update Avaliability and mappings\r\n    */\r\n    function decreaseTicketTries(address user) external override {\r\n    require(msg.sender == address(RacksItems));\r\n    for (uint256 i = 0; i < _tickets.length; i++) {\r\n        if (_tickets[i].owner == user && _tickets[i].isAvaliable ) {\r\n            if(_tickets[i].numTries != 1) { // Case it was not the last trie avaliable\r\n                _tickets[i].numTries--;\r\n            }else { // it was his last trie avaliable\r\n                _tickets[i].numTries--;\r\n                _tickets[i].isAvaliable = false;\r\n                s_hasTicket[user] = false;\r\n            }\r\n        }       \r\n    } \r\n    }\r\n\r\n \r\n\r\n    /**\r\n    * @notice Function used to return every ticket that are currently on sale\r\n    */\r\n    function getTicketsOnSale() public view override returns(caseTicket[] memory) {\r\n        require(msg.sender==address(RacksItems));\r\n        uint arrayLength;\r\n\r\n        for(uint i=0; i<_tickets.length;i++){\r\n            caseTicket memory ticket = _tickets[i];\r\n            if(ticket.isAvaliable==true){\r\n            arrayLength+=1;\r\n            }\r\n        }\r\n        caseTicket[] memory tickets = new caseTicket[](arrayLength);\r\n        uint indexCount;\r\n        for(uint256 i = 0; i < _tickets.length; i++){\r\n            caseTicket memory ticket = _tickets[i];\r\n            if(ticket.isAvaliable==true){\r\n            tickets[indexCount]=ticket;\r\n            indexCount++;\r\n            }\r\n        }\r\n        return tickets;\r\n    }\r\n\r\n     function getTicketDurationLeft(uint256 ticketId) public view override returns (address, uint256, bool) {\r\n        require(_tickets[ticketId].timeWhenSold > 0, \"Ticket is not sold yet.\");\r\n        uint256 timeLeft;\r\n        if ((_tickets[ticketId].numTries == 0)) { \r\n            return (_tickets[ticketId].owner, timeLeft, false);\r\n        } else {\r\n            if((block.timestamp - _tickets[ticketId].timeWhenSold) >= _tickets[ticketId].duration ) {\r\n            timeLeft = 0;\r\n            return (_tickets[ticketId].owner, timeLeft, true);\r\n            }else {\r\n            uint hour = 1 hours;\r\n            timeLeft = _tickets[ticketId].duration  - (block.timestamp - _tickets[ticketId].timeWhenSold);\r\n            uint hoursLeft = timeLeft * 100/ hour;\r\n            return (_tickets[ticketId].owner, hoursLeft, true);\r\n            } \r\n        }\r\n    }\r\n\r\n     function _mrCryproWallet(address user) internal  view returns (uint256[] memory){\r\n\r\n        uint256 ownerTokenCount = MR_CRYPTO.balanceOf(user);\r\n        uint256[] memory tokenIds = new uint256[](ownerTokenCount);\r\n        for (uint256 i; i < ownerTokenCount; ++i) {\r\n            tokenIds[i] = MR_CRYPTO.tokenOfOwnerByIndex(user, i);\r\n        }\r\n        return tokenIds;\r\n    }\r\n\r\n    function _lockMrCrypto(address user) internal returns (bool){\r\n        bool success;\r\n        uint [] memory wallet = _mrCryproWallet(user);\r\n        for(uint i=0; i<wallet.length; i++){\r\n            if(!s_isLocked[wallet[i]]){\r\n                s_locked_mrCrypto[user].push(wallet[i]);\r\n                success = true;\r\n                break;\r\n            }\r\n        }\r\n        return success;\r\n        \r\n    }\r\n\r\n    function _unlockMrCrypto(address user) internal {\r\n        uint [] memory locked = s_locked_mrCrypto[user];\r\n        for(uint i=0; i<locked.length; i++){\r\n            if(locked[i]!=0){\r\n                delete s_locked_mrCrypto[user][i];\r\n                s_isLocked[i]=false;\r\n                break;\r\n            }\r\n        }\r\n    }\r\n\r\n    function getTicketCount() public view returns(uint256) {\r\n        return s_ticketCount;\r\n    }\r\n\r\n\r\n\r\n    }",
  "sourcePath": "C:\\Users\\oteri\\Desktop\\racs-items\\racks-items-frontend\\contracts\\Tickets.sol",
  "compiler": {
    "name": "solc",
    "version": "0.8.10+commit.fc410830.Emscripten.clang"
  },
  "schemaVersion": "3.4.3",
  "updatedAt": "2022-07-06T13:42:24.475Z",
  "devdoc": {
    "kind": "dev",
    "methods": {
      "buyTicket(uint256,address)": {
        "details": "- Should check that user is NOT Vip -> does make sense that a VIP user buys a ticket - Should check that user has a listed ticket - Transfer RacksToken from buyer to seller - Update mappings variables - Emit event"
      },
      "changeTicketConditions(uint256,uint256,uint256,address)": {
        "details": "- Should check that user is Vip (Modifier) - Should check that user has a listed ticket - Emit event"
      },
      "claimTicketBack(address)": {
        "details": "- Check that claimer is lending a Ticket - Check that duration of the Ticket is over -> block.timestamp is in seconds and duration in hours  -> transform duration into seconds  - Update mappings - Emit event"
      },
      "decreaseTicketTries(address)": {
        "details": "- Check if used trie was last one        - If not: just decrease numTries        - If so: decrease numTries, update Avaliability and mappings"
      },
      "listTicket(uint256,uint256,uint256,address)": {
        "details": "- Should check that user is Vip (Modifier) - Check is user has had a ticket before     - If so: check that is has ticket now     - if not: create ticket (first ticket in live for this user) - Should check that user is NOT currently selling another ticket -> Users can only sell 1 ticket at the same time - Include ticket on array - Increase s_ticketCount - Set mapping to true - Emit event"
      },
      "unListTicket(address)": {
        "details": "- Should check that user is Vip (Modifier) - Should check that user has a listed ticket - Emit event"
      }
    },
    "version": 1
  },
  "userdoc": {
    "kind": "user",
    "methods": {
      "buyTicket(uint256,address)": {
        "notice": "This function is used to buy a caseTicket"
      },
      "changeTicketConditions(uint256,uint256,uint256,address)": {
        "notice": "This function is used for a VIP user to change 'Case Tickets' price and tries on the MarketPlace"
      },
      "claimTicketBack(address)": {
        "notice": "Function used to claim Ticket back when duration is over"
      },
      "decreaseTicketTries(address)": {
        "notice": "Function used to decrease Ticket tries avaliables"
      },
      "getTicketsOnSale()": {
        "notice": "Function used to return every ticket that are currently on sale"
      },
      "listTicket(uint256,uint256,uint256,address)": {
        "notice": "This function is used for a VIP user to list 'Case Tickets' on the MarketPlace"
      },
      "unListTicket(address)": {
        "notice": "This function is used for a VIP user to unlist 'Case Tickets' on the MarketPlace"
      }
    },
    "version": 1
  }
}