{
  "contractName": "TokenizedCommerce",
  "abi": [
    {
      "inputs": [],
      "stateMutability": "nonpayable",
      "type": "constructor"
    },
    {
      "anonymous": false,
      "inputs": [
        {
          "indexed": true,
          "internalType": "address",
          "name": "account",
          "type": "address"
        },
        {
          "indexed": true,
          "internalType": "address",
          "name": "operator",
          "type": "address"
        },
        {
          "indexed": false,
          "internalType": "bool",
          "name": "approved",
          "type": "bool"
        }
      ],
      "name": "ApprovalForAll",
      "type": "event"
    },
    {
      "anonymous": false,
      "inputs": [
        {
          "indexed": false,
          "internalType": "address",
          "name": "user",
          "type": "address"
        },
        {
          "indexed": false,
          "internalType": "uint256",
          "name": "casePrice",
          "type": "uint256"
        },
        {
          "indexed": false,
          "internalType": "uint256",
          "name": "item",
          "type": "uint256"
        }
      ],
      "name": "CaseOpened",
      "type": "event"
    },
    {
      "anonymous": false,
      "inputs": [
        {
          "indexed": true,
          "internalType": "address",
          "name": "operator",
          "type": "address"
        },
        {
          "indexed": true,
          "internalType": "address",
          "name": "from",
          "type": "address"
        },
        {
          "indexed": true,
          "internalType": "address",
          "name": "to",
          "type": "address"
        },
        {
          "indexed": false,
          "internalType": "uint256[]",
          "name": "ids",
          "type": "uint256[]"
        },
        {
          "indexed": false,
          "internalType": "uint256[]",
          "name": "values",
          "type": "uint256[]"
        }
      ],
      "name": "TransferBatch",
      "type": "event"
    },
    {
      "anonymous": false,
      "inputs": [
        {
          "indexed": true,
          "internalType": "address",
          "name": "operator",
          "type": "address"
        },
        {
          "indexed": true,
          "internalType": "address",
          "name": "from",
          "type": "address"
        },
        {
          "indexed": true,
          "internalType": "address",
          "name": "to",
          "type": "address"
        },
        {
          "indexed": false,
          "internalType": "uint256",
          "name": "id",
          "type": "uint256"
        },
        {
          "indexed": false,
          "internalType": "uint256",
          "name": "value",
          "type": "uint256"
        }
      ],
      "name": "TransferSingle",
      "type": "event"
    },
    {
      "anonymous": false,
      "inputs": [
        {
          "indexed": false,
          "internalType": "string",
          "name": "value",
          "type": "string"
        },
        {
          "indexed": true,
          "internalType": "uint256",
          "name": "id",
          "type": "uint256"
        }
      ],
      "name": "URI",
      "type": "event"
    },
    {
      "anonymous": false,
      "inputs": [
        {
          "indexed": false,
          "internalType": "uint256",
          "name": "newPrice",
          "type": "uint256"
        }
      ],
      "name": "casePriceChanged",
      "type": "event"
    },
    {
      "anonymous": false,
      "inputs": [
        {
          "indexed": false,
          "internalType": "address",
          "name": "buyer",
          "type": "address"
        },
        {
          "indexed": false,
          "internalType": "address",
          "name": "seller",
          "type": "address"
        },
        {
          "indexed": false,
          "internalType": "uint256",
          "name": "marketItemId",
          "type": "uint256"
        },
        {
          "indexed": false,
          "internalType": "uint256",
          "name": "price",
          "type": "uint256"
        }
      ],
      "name": "itemBought",
      "type": "event"
    },
    {
      "anonymous": false,
      "inputs": [
        {
          "indexed": false,
          "internalType": "address",
          "name": "user",
          "type": "address"
        },
        {
          "indexed": false,
          "internalType": "uint256",
          "name": "tokenId",
          "type": "uint256"
        }
      ],
      "name": "itemExchanged",
      "type": "event"
    },
    {
      "anonymous": false,
      "inputs": [
        {
          "indexed": false,
          "internalType": "address",
          "name": "user",
          "type": "address"
        },
        {
          "indexed": false,
          "internalType": "uint256",
          "name": "tokenId",
          "type": "uint256"
        },
        {
          "indexed": false,
          "internalType": "uint256",
          "name": "price",
          "type": "uint256"
        }
      ],
      "name": "sellingItem",
      "type": "event"
    },
    {
      "inputs": [
        {
          "internalType": "address",
          "name": "account",
          "type": "address"
        },
        {
          "internalType": "uint256",
          "name": "id",
          "type": "uint256"
        }
      ],
      "name": "balanceOf",
      "outputs": [
        {
          "internalType": "uint256",
          "name": "",
          "type": "uint256"
        }
      ],
      "stateMutability": "view",
      "type": "function",
      "constant": true
    },
    {
      "inputs": [
        {
          "internalType": "address[]",
          "name": "accounts",
          "type": "address[]"
        },
        {
          "internalType": "uint256[]",
          "name": "ids",
          "type": "uint256[]"
        }
      ],
      "name": "balanceOfBatch",
      "outputs": [
        {
          "internalType": "uint256[]",
          "name": "",
          "type": "uint256[]"
        }
      ],
      "stateMutability": "view",
      "type": "function",
      "constant": true
    },
    {
      "inputs": [],
      "name": "casePrice",
      "outputs": [
        {
          "internalType": "uint256",
          "name": "",
          "type": "uint256"
        }
      ],
      "stateMutability": "view",
      "type": "function",
      "constant": true
    },
    {
      "inputs": [],
      "name": "contractActive",
      "outputs": [
        {
          "internalType": "bool",
          "name": "",
          "type": "bool"
        }
      ],
      "stateMutability": "view",
      "type": "function",
      "constant": true
    },
    {
      "inputs": [
        {
          "internalType": "address",
          "name": "account",
          "type": "address"
        },
        {
          "internalType": "address",
          "name": "operator",
          "type": "address"
        }
      ],
      "name": "isApprovedForAll",
      "outputs": [
        {
          "internalType": "bool",
          "name": "",
          "type": "bool"
        }
      ],
      "stateMutability": "view",
      "type": "function",
      "constant": true
    },
    {
      "inputs": [
        {
          "internalType": "address",
          "name": "",
          "type": "address"
        },
        {
          "internalType": "address",
          "name": "",
          "type": "address"
        },
        {
          "internalType": "uint256[]",
          "name": "",
          "type": "uint256[]"
        },
        {
          "internalType": "uint256[]",
          "name": "",
          "type": "uint256[]"
        },
        {
          "internalType": "bytes",
          "name": "",
          "type": "bytes"
        }
      ],
      "name": "onERC1155BatchReceived",
      "outputs": [
        {
          "internalType": "bytes4",
          "name": "",
          "type": "bytes4"
        }
      ],
      "stateMutability": "nonpayable",
      "type": "function"
    },
    {
      "inputs": [
        {
          "internalType": "address",
          "name": "",
          "type": "address"
        },
        {
          "internalType": "address",
          "name": "",
          "type": "address"
        },
        {
          "internalType": "uint256",
          "name": "",
          "type": "uint256"
        },
        {
          "internalType": "uint256",
          "name": "",
          "type": "uint256"
        },
        {
          "internalType": "bytes",
          "name": "",
          "type": "bytes"
        }
      ],
      "name": "onERC1155Received",
      "outputs": [
        {
          "internalType": "bytes4",
          "name": "",
          "type": "bytes4"
        }
      ],
      "stateMutability": "nonpayable",
      "type": "function"
    },
    {
      "inputs": [],
      "name": "s_contractState",
      "outputs": [
        {
          "internalType": "enum TokenizedCommerce.ContractState",
          "name": "",
          "type": "uint8"
        }
      ],
      "stateMutability": "view",
      "type": "function",
      "constant": true
    },
    {
      "inputs": [
        {
          "internalType": "address",
          "name": "from",
          "type": "address"
        },
        {
          "internalType": "address",
          "name": "to",
          "type": "address"
        },
        {
          "internalType": "uint256[]",
          "name": "ids",
          "type": "uint256[]"
        },
        {
          "internalType": "uint256[]",
          "name": "amounts",
          "type": "uint256[]"
        },
        {
          "internalType": "bytes",
          "name": "data",
          "type": "bytes"
        }
      ],
      "name": "safeBatchTransferFrom",
      "outputs": [],
      "stateMutability": "nonpayable",
      "type": "function"
    },
    {
      "inputs": [
        {
          "internalType": "address",
          "name": "from",
          "type": "address"
        },
        {
          "internalType": "address",
          "name": "to",
          "type": "address"
        },
        {
          "internalType": "uint256",
          "name": "id",
          "type": "uint256"
        },
        {
          "internalType": "uint256",
          "name": "amount",
          "type": "uint256"
        },
        {
          "internalType": "bytes",
          "name": "data",
          "type": "bytes"
        }
      ],
      "name": "safeTransferFrom",
      "outputs": [],
      "stateMutability": "nonpayable",
      "type": "function"
    },
    {
      "inputs": [
        {
          "internalType": "address",
          "name": "operator",
          "type": "address"
        },
        {
          "internalType": "bool",
          "name": "approved",
          "type": "bool"
        }
      ],
      "name": "setApprovalForAll",
      "outputs": [],
      "stateMutability": "nonpayable",
      "type": "function"
    },
    {
      "inputs": [
        {
          "internalType": "uint256",
          "name": "",
          "type": "uint256"
        }
      ],
      "name": "uri",
      "outputs": [
        {
          "internalType": "string",
          "name": "",
          "type": "string"
        }
      ],
      "stateMutability": "view",
      "type": "function",
      "constant": true
    },
    {
      "inputs": [
        {
          "internalType": "bytes4",
          "name": "interfaceId",
          "type": "bytes4"
        }
      ],
      "name": "supportsInterface",
      "outputs": [
        {
          "internalType": "bool",
          "name": "",
          "type": "bool"
        }
      ],
      "stateMutability": "view",
      "type": "function",
      "constant": true
    },
    {
      "inputs": [],
      "name": "getCasePrice",
      "outputs": [
        {
          "internalType": "uint256",
          "name": "",
          "type": "uint256"
        }
      ],
      "stateMutability": "view",
      "type": "function",
      "constant": true
    },
    {
      "inputs": [],
      "name": "openCase",
      "outputs": [],
      "stateMutability": "payable",
      "type": "function",
      "payable": true
    },
    {
      "inputs": [
        {
          "internalType": "uint256",
          "name": "tokenId",
          "type": "uint256"
        }
      ],
      "name": "supplyOfItem",
      "outputs": [
        {
          "internalType": "uint256",
          "name": "",
          "type": "uint256"
        }
      ],
      "stateMutability": "view",
      "type": "function",
      "constant": true
    },
    {
      "inputs": [
        {
          "internalType": "uint256",
          "name": "tokenId",
          "type": "uint256"
        }
      ],
      "name": "_chanceOfItem",
      "outputs": [
        {
          "internalType": "uint256",
          "name": "",
          "type": "uint256"
        }
      ],
      "stateMutability": "view",
      "type": "function",
      "constant": true
    },
    {
      "inputs": [
        {
          "internalType": "address",
          "name": "owner",
          "type": "address"
        }
      ],
      "name": "viewItems",
      "outputs": [
        {
          "internalType": "uint256[]",
          "name": "",
          "type": "uint256[]"
        }
      ],
      "stateMutability": "view",
      "type": "function",
      "constant": true
    },
    {
      "inputs": [
        {
          "internalType": "uint256",
          "name": "tokenId",
          "type": "uint256"
        },
        {
          "internalType": "uint256",
          "name": "price",
          "type": "uint256"
        }
      ],
      "name": "sellItem",
      "outputs": [],
      "stateMutability": "nonpayable",
      "type": "function"
    },
    {
      "inputs": [
        {
          "internalType": "uint256",
          "name": "tokenId",
          "type": "uint256"
        }
      ],
      "name": "exchangeItem",
      "outputs": [],
      "stateMutability": "nonpayable",
      "type": "function"
    },
    {
      "inputs": [
        {
          "internalType": "uint256",
          "name": "marketItemId",
          "type": "uint256"
        }
      ],
      "name": "buyItem",
      "outputs": [],
      "stateMutability": "payable",
      "type": "function",
      "payable": true
    },
    {
      "inputs": [
        {
          "internalType": "uint256",
          "name": "marketItemId",
          "type": "uint256"
        }
      ],
      "name": "getMarketItem",
      "outputs": [
        {
          "components": [
            {
              "internalType": "uint256",
              "name": "tokenId",
              "type": "uint256"
            },
            {
              "internalType": "uint256",
              "name": "marketItemId",
              "type": "uint256"
            },
            {
              "internalType": "uint256",
              "name": "price",
              "type": "uint256"
            },
            {
              "internalType": "address payable",
              "name": "seller",
              "type": "address"
            },
            {
              "internalType": "bool",
              "name": "sold",
              "type": "bool"
            }
          ],
          "internalType": "struct TokenizedCommerce.itemOnSale",
          "name": "",
          "type": "tuple"
        }
      ],
      "stateMutability": "nonpayable",
      "type": "function"
    },
    {
      "inputs": [],
      "name": "getItemsOnSale",
      "outputs": [
        {
          "components": [
            {
              "internalType": "uint256",
              "name": "tokenId",
              "type": "uint256"
            },
            {
              "internalType": "uint256",
              "name": "marketItemId",
              "type": "uint256"
            },
            {
              "internalType": "uint256",
              "name": "price",
              "type": "uint256"
            },
            {
              "internalType": "address payable",
              "name": "seller",
              "type": "address"
            },
            {
              "internalType": "bool",
              "name": "sold",
              "type": "bool"
            }
          ],
          "internalType": "struct TokenizedCommerce.itemOnSale[]",
          "name": "",
          "type": "tuple[]"
        }
      ],
      "stateMutability": "view",
      "type": "function",
      "constant": true
    }
  ],
  "bytecode": "0x60806040526001600860006101000a81548160ff0219169083151502179055503480156200002c57600080fd5b50604051806020016040528060008152506200004e816200014e60201b60201c565b5033600460006101000a81548173ffffffffffffffffffffffffffffffffffffffff021916908373ffffffffffffffffffffffffffffffffffffffff160217905550600060068190555060006007819055506000600860016101000a81548160ff02191690836001811115620000c957620000c862000748565b5b0217905550620000e330620186a06200016a60201b60201c565b620000f830620138806200016a60201b60201c565b6200010c3061c3506200016a60201b60201c565b62000120306175306200016a60201b60201c565b62000134306127106200016a60201b60201c565b62000148306103e86200016a60201b60201c565b62000e4c565b80600290805190602001906200016692919062000698565b5050565b6200018f826006548360405180602001604052806000815250620001de60201b60201c565b620001a360065482620003c660201b60201c565b8060056000828254620001b79190620007b0565b92505081905550600160066000828254620001d39190620007b0565b925050819055505050565b600073ffffffffffffffffffffffffffffffffffffffff168473ffffffffffffffffffffffffffffffffffffffff16141562000251576040517f08c379a0000000000000000000000000000000000000000000000000000000008152600401620002489062000894565b60405180910390fd5b600062000263620003e260201b60201c565b905060006200027885620003ea60201b60201c565b905060006200028d85620003ea60201b60201c565b9050620002a6836000898585896200046b60201b60201c565b8460008088815260200190815260200160002060008973ffffffffffffffffffffffffffffffffffffffff1673ffffffffffffffffffffffffffffffffffffffff1681526020019081526020016000206000828254620003079190620007b0565b925050819055508673ffffffffffffffffffffffffffffffffffffffff16600073ffffffffffffffffffffffffffffffffffffffff168473ffffffffffffffffffffffffffffffffffffffff167fc3d58168c5ae7397731d063d5bbf3d657854427343f4c083240f7aacaa2d0f62898960405162000387929190620008c7565b60405180910390a4620003a6836000898585896200047360201b60201c565b620003bd836000898989896200047b60201b60201c565b50505050505050565b80600a6000848152602001908152602001600020819055505050565b600033905090565b60606000600167ffffffffffffffff8111156200040c576200040b620008f4565b5b6040519080825280602002602001820160405280156200043b5781602001602082028036833780820191505090505b509050828160008151811062000456576200045562000923565b5b60200260200101818152505080915050919050565b505050505050565b505050505050565b620004a78473ffffffffffffffffffffffffffffffffffffffff166200067560201b620014261760201c565b156200066d578373ffffffffffffffffffffffffffffffffffffffff1663f23a6e6187878686866040518663ffffffff1660e01b8152600401620004f095949392919062000a3b565b6020604051808303816000875af19250505080156200052f57506040513d601f19601f820116820180604052508101906200052c919062000b0b565b60015b620005e1576200053e62000b4a565b806308c379a01415620005a257506200055662000ba5565b80620005635750620005a4565b806040517f08c379a000000000000000000000000000000000000000000000000000000000815260040162000599919062000c93565b60405180910390fd5b505b6040517f08c379a0000000000000000000000000000000000000000000000000000000008152600401620005d89062000d2d565b60405180910390fd5b63f23a6e6160e01b7bffffffffffffffffffffffffffffffffffffffffffffffffffffffff1916817bffffffffffffffffffffffffffffffffffffffffffffffffffffffff1916146200066b576040517f08c379a0000000000000000000000000000000000000000000000000000000008152600401620006629062000dc5565b60405180910390fd5b505b505050505050565b6000808273ffffffffffffffffffffffffffffffffffffffff163b119050919050565b828054620006a69062000e16565b90600052602060002090601f016020900481019282620006ca576000855562000716565b82601f10620006e557805160ff191683800117855562000716565b8280016001018555821562000716579182015b8281111562000715578251825591602001919060010190620006f8565b5b50905062000725919062000729565b5090565b5b80821115620007445760008160009055506001016200072a565b5090565b7f4e487b7100000000000000000000000000000000000000000000000000000000600052602160045260246000fd5b6000819050919050565b7f4e487b7100000000000000000000000000000000000000000000000000000000600052601160045260246000fd5b6000620007bd8262000777565b9150620007ca8362000777565b9250827fffffffffffffffffffffffffffffffffffffffffffffffffffffffffffffffff0382111562000802576200080162000781565b5b828201905092915050565b600082825260208201905092915050565b7f455243313135353a206d696e7420746f20746865207a65726f2061646472657360008201527f7300000000000000000000000000000000000000000000000000000000000000602082015250565b60006200087c6021836200080d565b915062000889826200081e565b604082019050919050565b60006020820190508181036000830152620008af816200086d565b9050919050565b620008c18162000777565b82525050565b6000604082019050620008de6000830185620008b6565b620008ed6020830184620008b6565b9392505050565b7f4e487b7100000000000000000000000000000000000000000000000000000000600052604160045260246000fd5b7f4e487b7100000000000000000000000000000000000000000000000000000000600052603260045260246000fd5b600073ffffffffffffffffffffffffffffffffffffffff82169050919050565b60006200097f8262000952565b9050919050565b620009918162000972565b82525050565b600081519050919050565b600082825260208201905092915050565b60005b83811015620009d3578082015181840152602081019050620009b6565b83811115620009e3576000848401525b50505050565b6000601f19601f8301169050919050565b600062000a078262000997565b62000a138185620009a2565b935062000a25818560208601620009b3565b62000a3081620009e9565b840191505092915050565b600060a08201905062000a52600083018862000986565b62000a61602083018762000986565b62000a706040830186620008b6565b62000a7f6060830185620008b6565b818103608083015262000a938184620009fa565b90509695505050505050565b6000604051905090565b600080fd5b60007fffffffff0000000000000000000000000000000000000000000000000000000082169050919050565b62000ae58162000aae565b811462000af157600080fd5b50565b60008151905062000b058162000ada565b92915050565b60006020828403121562000b245762000b2362000aa9565b5b600062000b348482850162000af4565b91505092915050565b60008160e01c9050919050565b600060033d111562000b6c5760046000803e62000b6960005162000b3d565b90505b90565b62000b7a82620009e9565b810181811067ffffffffffffffff8211171562000b9c5762000b9b620008f4565b5b80604052505050565b600060443d101562000bb75762000c44565b62000bc162000a9f565b60043d036004823e80513d602482011167ffffffffffffffff8211171562000beb57505062000c44565b808201805167ffffffffffffffff81111562000c0b575050505062000c44565b80602083010160043d03850181111562000c2a57505050505062000c44565b62000c3b8260200185018662000b6f565b82955050505050505b90565b600081519050919050565b600062000c5f8262000c47565b62000c6b81856200080d565b935062000c7d818560208601620009b3565b62000c8881620009e9565b840191505092915050565b6000602082019050818103600083015262000caf818462000c52565b905092915050565b7f455243313135353a207472616e7366657220746f206e6f6e204552433131353560008201527f526563656976657220696d706c656d656e746572000000000000000000000000602082015250565b600062000d156034836200080d565b915062000d228262000cb7565b604082019050919050565b6000602082019050818103600083015262000d488162000d06565b9050919050565b7f455243313135353a204552433131353552656365697665722072656a6563746560008201527f6420746f6b656e73000000000000000000000000000000000000000000000000602082015250565b600062000dad6028836200080d565b915062000dba8262000d4f565b604082019050919050565b6000602082019050818103600083015262000de08162000d9e565b9050919050565b7f4e487b7100000000000000000000000000000000000000000000000000000000600052602260045260246000fd5b6000600282049050600182168062000e2f57607f821691505b6020821081141562000e465762000e4562000de7565b5b50919050565b613d588062000e5c6000396000f3fe60806040526004361061013f5760003560e01c8063a22cb465116100b6578063e289fcb61161006f578063e289fcb614610486578063e7fb74c7146104b1578063e985e9c5146104cd578063f23a6e611461050a578063f242432a14610547578063f48c9d34146105705761013f565b8063a22cb46514610362578063b63b86121461038b578063bbcbc2e7146103b6578063bc197c81146103e1578063c7be7a491461041e578063ca90958f1461045b5761013f565b80632d923561116101085780632d923561146102615780632eb2c2d61461028a5780634a226657146102b35780634e1273f4146102bd57806367be820a146102fa578063976298f3146103375761013f565b8062fdd58e1461014457806301ffc9a7146101815780630e89341c146101be5780631cb0b273146101fb57806320ba081414610224575b600080fd5b34801561015057600080fd5b5061016b600480360381019061016691906124e5565b6105ad565b6040516101789190612534565b60405180910390f35b34801561018d57600080fd5b506101a860048036038101906101a391906125a7565b610676565b6040516101b591906125ef565b60405180910390f35b3480156101ca57600080fd5b506101e560048036038101906101e0919061260a565b610688565b6040516101f291906126d0565b60405180910390f35b34801561020757600080fd5b50610222600480360381019061021d919061260a565b61071c565b005b34801561023057600080fd5b5061024b6004803603810190610246919061260a565b6107bf565b6040516102589190612534565b60405180910390f35b34801561026d57600080fd5b50610288600480360381019061028391906126f2565b6107dc565b005b34801561029657600080fd5b506102b160048036038101906102ac919061292f565b610990565b005b6102bb610a31565b005b3480156102c957600080fd5b506102e460048036038101906102df9190612ac1565b610b75565b6040516102f19190612bf7565b60405180910390f35b34801561030657600080fd5b50610321600480360381019061031c919061260a565b610c8e565b60405161032e9190612534565b60405180910390f35b34801561034357600080fd5b5061034c610cd0565b6040516103599190612534565b60405180910390f35b34801561036e57600080fd5b5061038960048036038101906103849190612c45565b610cda565b005b34801561039757600080fd5b506103a0610cf0565b6040516103ad9190612cfc565b60405180910390f35b3480156103c257600080fd5b506103cb610d03565b6040516103d89190612e5e565b60405180910390f35b3480156103ed57600080fd5b506104086004803603810190610403919061292f565b610f9a565b6040516104159190612e8f565b60405180910390f35b34801561042a57600080fd5b506104456004803603810190610440919061260a565b610faf565b6040516104529190612f12565b60405180910390f35b34801561046757600080fd5b5061047061107a565b60405161047d9190612534565b60405180910390f35b34801561049257600080fd5b5061049b611080565b6040516104a891906125ef565b60405180910390f35b6104cb60048036038101906104c6919061260a565b611093565b005b3480156104d957600080fd5b506104f460048036038101906104ef9190612f2d565b61122d565b60405161050191906125ef565b60405180910390f35b34801561051657600080fd5b50610531600480360381019061052c9190612f6d565b6112c1565b60405161053e9190612e8f565b60405180910390f35b34801561055357600080fd5b5061056e60048036038101906105699190612f6d565b6112d6565b005b34801561057c57600080fd5b5061059760048036038101906105929190613004565b611377565b6040516105a49190612bf7565b60405180910390f35b60008073ffffffffffffffffffffffffffffffffffffffff168373ffffffffffffffffffffffffffffffffffffffff16141561061e576040517f08c379a0000000000000000000000000000000000000000000000000000000008152600401610615906130a3565b60405180910390fd5b60008083815260200190815260200160002060008473ffffffffffffffffffffffffffffffffffffffff1673ffffffffffffffffffffffffffffffffffffffff16815260200190815260200160002054905092915050565b600061068182611449565b9050919050565b606060028054610697906130f2565b80601f01602080910402602001604051908101604052809291908181526020018280546106c3906130f2565b80156107105780601f106106e557610100808354040283529160200191610710565b820191906000526020600020905b8154815290600101906020018083116106f357829003601f168201915b50505050509050919050565b600061072833836105ad565b1161073257600080fd5b61073e338260016114c3565b6001600a600083815260200190815260200160002060008282546107629190613153565b9250508190555060016005600082825461077c9190613153565b925050819055507f9e90d55d2f1f115ffe1b87372c45f27f6b3a2b5ba392942167be78456189009433826040516107b4929190613196565b60405180910390a150565b6000600a6000838152602001908152602001600020549050919050565b60006107e833846105ad565b11610828576040517f08c379a000000000000000000000000000000000000000000000000000000000815260040161081f9061320b565b60405180910390fd5b61084533308460016040518060200160405280600081525061170a565b60096040518060a0016040528084815260200160035481526020018381526020013373ffffffffffffffffffffffffffffffffffffffff16815260200160001515815250908060018154018082558091505060019003906000526020600020906004020160009091909190915060008201518160000155602082015181600101556040820151816002015560608201518160030160006101000a81548173ffffffffffffffffffffffffffffffffffffffff021916908373ffffffffffffffffffffffffffffffffffffffff16021790555060808201518160030160146101000a81548160ff02191690831515021790555050506003600081548092919061094c9061322b565b91905055507f23cba88d6c6f26b62b2cfc32a2cc04fbbde8590188b97cd3590e45af9ac6dd6d33838360405161098493929190613274565b60405180910390a15050565b6109986119a6565b73ffffffffffffffffffffffffffffffffffffffff168573ffffffffffffffffffffffffffffffffffffffff1614806109de57506109dd856109d86119a6565b61122d565b5b610a1d576040517f08c379a0000000000000000000000000000000000000000000000000000000008152600401610a149061331d565b60405180910390fd5b610a2a85858585856119ae565b5050505050565b6007543414610a3f57600080fd5b6000610a49611cd0565b905060008080600090505b600654811015610b32576000600a60008381526020019081526020016000205484610a7f919061333d565b905083851115610a9157809350610b1e565b600182610a9e9190613153565b92506000610aac30856105ad565b1415610afb576000600283610ac19190613153565b90505b60008110610af9576000610ad830836105ad565b1115610ae657809350610af9565b8080610af190613393565b915050610ac4565b505b610b1830338560016040518060200160405280600081525061170a565b50610b32565b508080610b2a9061322b565b915050610a54565b507fea32e37a2618dbb680c93d891742e9e13b30d184822562a0ee3c09290fd42b433360075483604051610b6893929190613274565b60405180910390a1505050565b60608151835114610bbb576040517f08c379a0000000000000000000000000000000000000000000000000000000008152600401610bb29061342f565b60405180910390fd5b6000835167ffffffffffffffff811115610bd857610bd7612737565b5b604051908082528060200260200182016040528015610c065781602001602082028036833780820191505090505b50905060005b8451811015610c8357610c53858281518110610c2b57610c2a61344f565b5b6020026020010151858381518110610c4657610c4561344f565b5b60200260200101516105ad565b828281518110610c6657610c6561344f565b5b60200260200101818152505080610c7c9061322b565b9050610c0c565b508091505092915050565b6000610c9982611cd9565b610ca257600080fd5b6000600554600a600085815260200190815260200160002054610cc591906134ad565b905080915050919050565b6000600754905090565b610cec610ce56119a6565b8383611d03565b5050565b600860019054906101000a900460ff1681565b6060600080600090505b600980549050811015610e0f57600060098281548110610d3057610d2f61344f565b5b90600052602060002090600402016040518060a00160405290816000820154815260200160018201548152602001600282015481526020016003820160009054906101000a900473ffffffffffffffffffffffffffffffffffffffff1673ffffffffffffffffffffffffffffffffffffffff1673ffffffffffffffffffffffffffffffffffffffff1681526020016003820160149054906101000a900460ff161515151581525050905060001515816080015115151415610dfb57600183610df8919061333d565b92505b508080610e079061322b565b915050610d0d565b5060008167ffffffffffffffff811115610e2c57610e2b612737565b5b604051908082528060200260200182016040528015610e6557816020015b610e526123f6565b815260200190600190039081610e4a5790505b509050600080600090505b600980549050811015610f9057600060098281548110610e9357610e9261344f565b5b90600052602060002090600402016040518060a00160405290816000820154815260200160018201548152602001600282015481526020016003820160009054906101000a900473ffffffffffffffffffffffffffffffffffffffff1673ffffffffffffffffffffffffffffffffffffffff1673ffffffffffffffffffffffffffffffffffffffff1681526020016003820160149054906101000a900460ff161515151581525050905060001515816080015115151415610f7c5780848481518110610f6257610f6161344f565b5b60200260200101819052508280610f789061322b565b9350505b508080610f889061322b565b915050610e70565b5081935050505090565b600063bc197c8160e01b905095945050505050565b610fb76123f6565b60098281548110610fcb57610fca61344f565b5b90600052602060002090600402016040518060a00160405290816000820154815260200160018201548152602001600282015481526020016003820160009054906101000a900473ffffffffffffffffffffffffffffffffffffffff1673ffffffffffffffffffffffffffffffffffffffff1673ffffffffffffffffffffffffffffffffffffffff1681526020016003820160149054906101000a900460ff1615151515815250509050919050565b60075481565b600860009054906101000a900460ff1681565b6000600982815481106110a9576110a861344f565b5b90600052602060002090600402016040518060a00160405290816000820154815260200160018201548152602001600282015481526020016003820160009054906101000a900473ffffffffffffffffffffffffffffffffffffffff1673ffffffffffffffffffffffffffffffffffffffff1673ffffffffffffffffffffffffffffffffffffffff1681526020016003820160149054906101000a900460ff16151515158152505090508060400151341461116357600080fd5b806060015173ffffffffffffffffffffffffffffffffffffffff166108fc82604001519081150290604051600060405180830381858888f193505050501580156111b1573d6000803e3d6000fd5b506111d33033836000015160016040518060200160405280600081525061170a565b60018160800190151590811515815250507f642067ff529c9b5b1162502fc8e8a3a91dda56e126a84f2fe38d341236231a82338260600151848460400151604051611221949392919061353d565b60405180910390a15050565b6000600160008473ffffffffffffffffffffffffffffffffffffffff1673ffffffffffffffffffffffffffffffffffffffff16815260200190815260200160002060008373ffffffffffffffffffffffffffffffffffffffff1673ffffffffffffffffffffffffffffffffffffffff16815260200190815260200160002060009054906101000a900460ff16905092915050565b600063f23a6e6160e01b905095945050505050565b6112de6119a6565b73ffffffffffffffffffffffffffffffffffffffff168573ffffffffffffffffffffffffffffffffffffffff16148061132457506113238561131e6119a6565b61122d565b5b611363576040517f08c379a000000000000000000000000000000000000000000000000000000000815260040161135a906135f4565b60405180910390fd5b611370858585858561170a565b5050505050565b60606000600160065461138a919061333d565b67ffffffffffffffff8111156113a3576113a2612737565b5b6040519080825280602002602001820160405280156113d15781602001602082028036833780820191505090505b50905060005b815181101561141c576113ea84826105ad565b8282815181106113fd576113fc61344f565b5b60200260200101818152505080806114149061322b565b9150506113d7565b5080915050919050565b6000808273ffffffffffffffffffffffffffffffffffffffff163b119050919050565b60007f4e2312e0000000000000000000000000000000000000000000000000000000007bffffffffffffffffffffffffffffffffffffffffffffffffffffffff1916827bffffffffffffffffffffffffffffffffffffffffffffffffffffffff191614806114bc57506114bb82611e70565b5b9050919050565b600073ffffffffffffffffffffffffffffffffffffffff168373ffffffffffffffffffffffffffffffffffffffff161415611533576040517f08c379a000000000000000000000000000000000000000000000000000000000815260040161152a90613686565b60405180910390fd5b600061153d6119a6565b9050600061154a84611f52565b9050600061155784611f52565b905061157783876000858560405180602001604052806000815250611fcc565b600080600087815260200190815260200160002060008873ffffffffffffffffffffffffffffffffffffffff1673ffffffffffffffffffffffffffffffffffffffff1681526020019081526020016000205490508481101561160e576040517f08c379a000000000000000000000000000000000000000000000000000000000815260040161160590613718565b60405180910390fd5b84810360008088815260200190815260200160002060008973ffffffffffffffffffffffffffffffffffffffff1673ffffffffffffffffffffffffffffffffffffffff16815260200190815260200160002081905550600073ffffffffffffffffffffffffffffffffffffffff168773ffffffffffffffffffffffffffffffffffffffff168573ffffffffffffffffffffffffffffffffffffffff167fc3d58168c5ae7397731d063d5bbf3d657854427343f4c083240f7aacaa2d0f6289896040516116db929190613738565b60405180910390a461170184886000868660405180602001604052806000815250611fd4565b50505050505050565b600073ffffffffffffffffffffffffffffffffffffffff168473ffffffffffffffffffffffffffffffffffffffff16141561177a576040517f08c379a0000000000000000000000000000000000000000000000000000000008152600401611771906137d3565b60405180910390fd5b60006117846119a6565b9050600061179185611f52565b9050600061179e85611f52565b90506117ae838989858589611fcc565b600080600088815260200190815260200160002060008a73ffffffffffffffffffffffffffffffffffffffff1673ffffffffffffffffffffffffffffffffffffffff16815260200190815260200160002054905085811015611845576040517f08c379a000000000000000000000000000000000000000000000000000000000815260040161183c90613865565b60405180910390fd5b85810360008089815260200190815260200160002060008b73ffffffffffffffffffffffffffffffffffffffff1673ffffffffffffffffffffffffffffffffffffffff168152602001908152602001600020819055508560008089815260200190815260200160002060008a73ffffffffffffffffffffffffffffffffffffffff1673ffffffffffffffffffffffffffffffffffffffff16815260200190815260200160002060008282546118fa919061333d565b925050819055508773ffffffffffffffffffffffffffffffffffffffff168973ffffffffffffffffffffffffffffffffffffffff168573ffffffffffffffffffffffffffffffffffffffff167fc3d58168c5ae7397731d063d5bbf3d657854427343f4c083240f7aacaa2d0f628a8a604051611977929190613738565b60405180910390a461198d848a8a86868a611fd4565b61199b848a8a8a8a8a611fdc565b505050505050505050565b600033905090565b81518351146119f2576040517f08c379a00000000000000000000000000000000000000000000000000000000081526004016119e9906138f7565b60405180910390fd5b600073ffffffffffffffffffffffffffffffffffffffff168473ffffffffffffffffffffffffffffffffffffffff161415611a62576040517f08c379a0000000000000000000000000000000000000000000000000000000008152600401611a59906137d3565b60405180910390fd5b6000611a6c6119a6565b9050611a7c818787878787611fcc565b60005b8451811015611c2d576000858281518110611a9d57611a9c61344f565b5b602002602001015190506000858381518110611abc57611abb61344f565b5b60200260200101519050600080600084815260200190815260200160002060008b73ffffffffffffffffffffffffffffffffffffffff1673ffffffffffffffffffffffffffffffffffffffff16815260200190815260200160002054905081811015611b5d576040517f08c379a0000000000000000000000000000000000000000000000000000000008152600401611b5490613865565b60405180910390fd5b81810360008085815260200190815260200160002060008c73ffffffffffffffffffffffffffffffffffffffff1673ffffffffffffffffffffffffffffffffffffffff168152602001908152602001600020819055508160008085815260200190815260200160002060008b73ffffffffffffffffffffffffffffffffffffffff1673ffffffffffffffffffffffffffffffffffffffff1681526020019081526020016000206000828254611c12919061333d565b9250508190555050505080611c269061322b565b9050611a7f565b508473ffffffffffffffffffffffffffffffffffffffff168673ffffffffffffffffffffffffffffffffffffffff168273ffffffffffffffffffffffffffffffffffffffff167f4a39dc06d4c0dbc64b70af90fd698a233a518aa5d07e595d983b8c0526c8f7fb8787604051611ca4929190613917565b60405180910390a4611cba818787878787611fd4565b611cc88187878787876121b4565b505050505050565b60006002905090565b600080600a60008481526020019081526020016000205411611cfa57600080fd5b60019050919050565b8173ffffffffffffffffffffffffffffffffffffffff168373ffffffffffffffffffffffffffffffffffffffff161415611d72576040517f08c379a0000000000000000000000000000000000000000000000000000000008152600401611d69906139c0565b60405180910390fd5b80600160008573ffffffffffffffffffffffffffffffffffffffff1673ffffffffffffffffffffffffffffffffffffffff16815260200190815260200160002060008473ffffffffffffffffffffffffffffffffffffffff1673ffffffffffffffffffffffffffffffffffffffff16815260200190815260200160002060006101000a81548160ff0219169083151502179055508173ffffffffffffffffffffffffffffffffffffffff168373ffffffffffffffffffffffffffffffffffffffff167f17307eab39ab6107e8899845ad3d59bd9653f200f220920489ca2b5937696c3183604051611e6391906125ef565b60405180910390a3505050565b60007fd9b67a26000000000000000000000000000000000000000000000000000000007bffffffffffffffffffffffffffffffffffffffffffffffffffffffff1916827bffffffffffffffffffffffffffffffffffffffffffffffffffffffff19161480611f3b57507f0e89341c000000000000000000000000000000000000000000000000000000007bffffffffffffffffffffffffffffffffffffffffffffffffffffffff1916827bffffffffffffffffffffffffffffffffffffffffffffffffffffffff1916145b80611f4b5750611f4a8261238c565b5b9050919050565b60606000600167ffffffffffffffff811115611f7157611f70612737565b5b604051908082528060200260200182016040528015611f9f5781602001602082028036833780820191505090505b5090508281600081518110611fb757611fb661344f565b5b60200260200101818152505080915050919050565b505050505050565b505050505050565b611ffb8473ffffffffffffffffffffffffffffffffffffffff16611426565b156121ac578373ffffffffffffffffffffffffffffffffffffffff1663f23a6e6187878686866040518663ffffffff1660e01b8152600401612041959493929190613a35565b6020604051808303816000875af192505050801561207d57506040513d601f19601f8201168201806040525081019061207a9190613aa4565b60015b61212357612089613ade565b806308c379a014156120e6575061209e613b00565b806120a957506120e8565b806040517f08c379a00000000000000000000000000000000000000000000000000000000081526004016120dd91906126d0565b60405180910390fd5b505b6040517f08c379a000000000000000000000000000000000000000000000000000000000815260040161211a90613c08565b60405180910390fd5b63f23a6e6160e01b7bffffffffffffffffffffffffffffffffffffffffffffffffffffffff1916817bffffffffffffffffffffffffffffffffffffffffffffffffffffffff1916146121aa576040517f08c379a00000000000000000000000000000000000000000000000000000000081526004016121a190613c9a565b60405180910390fd5b505b505050505050565b6121d38473ffffffffffffffffffffffffffffffffffffffff16611426565b15612384578373ffffffffffffffffffffffffffffffffffffffff1663bc197c8187878686866040518663ffffffff1660e01b8152600401612219959493929190613cba565b6020604051808303816000875af192505050801561225557506040513d601f19601f820116820180604052508101906122529190613aa4565b60015b6122fb57612261613ade565b806308c379a014156122be5750612276613b00565b8061228157506122c0565b806040517f08c379a00000000000000000000000000000000000000000000000000000000081526004016122b591906126d0565b60405180910390fd5b505b6040517f08c379a00000000000000000000000000000000000000000000000000000000081526004016122f290613c08565b60405180910390fd5b63bc197c8160e01b7bffffffffffffffffffffffffffffffffffffffffffffffffffffffff1916817bffffffffffffffffffffffffffffffffffffffffffffffffffffffff191614612382576040517f08c379a000000000000000000000000000000000000000000000000000000000815260040161237990613c9a565b60405180910390fd5b505b505050505050565b60007f01ffc9a7000000000000000000000000000000000000000000000000000000007bffffffffffffffffffffffffffffffffffffffffffffffffffffffff1916827bffffffffffffffffffffffffffffffffffffffffffffffffffffffff1916149050919050565b6040518060a00160405280600081526020016000815260200160008152602001600073ffffffffffffffffffffffffffffffffffffffff1681526020016000151581525090565b6000604051905090565b600080fd5b600080fd5b600073ffffffffffffffffffffffffffffffffffffffff82169050919050565b600061247c82612451565b9050919050565b61248c81612471565b811461249757600080fd5b50565b6000813590506124a981612483565b92915050565b6000819050919050565b6124c2816124af565b81146124cd57600080fd5b50565b6000813590506124df816124b9565b92915050565b600080604083850312156124fc576124fb612447565b5b600061250a8582860161249a565b925050602061251b858286016124d0565b9150509250929050565b61252e816124af565b82525050565b60006020820190506125496000830184612525565b92915050565b60007fffffffff0000000000000000000000000000000000000000000000000000000082169050919050565b6125848161254f565b811461258f57600080fd5b50565b6000813590506125a18161257b565b92915050565b6000602082840312156125bd576125bc612447565b5b60006125cb84828501612592565b91505092915050565b60008115159050919050565b6125e9816125d4565b82525050565b600060208201905061260460008301846125e0565b92915050565b6000602082840312156126205761261f612447565b5b600061262e848285016124d0565b91505092915050565b600081519050919050565b600082825260208201905092915050565b60005b83811015612671578082015181840152602081019050612656565b83811115612680576000848401525b50505050565b6000601f19601f8301169050919050565b60006126a282612637565b6126ac8185612642565b93506126bc818560208601612653565b6126c581612686565b840191505092915050565b600060208201905081810360008301526126ea8184612697565b905092915050565b6000806040838503121561270957612708612447565b5b6000612717858286016124d0565b9250506020612728858286016124d0565b9150509250929050565b600080fd5b7f4e487b7100000000000000000000000000000000000000000000000000000000600052604160045260246000fd5b61276f82612686565b810181811067ffffffffffffffff8211171561278e5761278d612737565b5b80604052505050565b60006127a161243d565b90506127ad8282612766565b919050565b600067ffffffffffffffff8211156127cd576127cc612737565b5b602082029050602081019050919050565b600080fd5b60006127f66127f1846127b2565b612797565b90508083825260208201905060208402830185811115612819576128186127de565b5b835b81811015612842578061282e88826124d0565b84526020840193505060208101905061281b565b5050509392505050565b600082601f83011261286157612860612732565b5b81356128718482602086016127e3565b91505092915050565b600080fd5b600067ffffffffffffffff82111561289a57612899612737565b5b6128a382612686565b9050602081019050919050565b82818337600083830152505050565b60006128d26128cd8461287f565b612797565b9050828152602081018484840111156128ee576128ed61287a565b5b6128f98482856128b0565b509392505050565b600082601f83011261291657612915612732565b5b81356129268482602086016128bf565b91505092915050565b600080600080600060a0868803121561294b5761294a612447565b5b60006129598882890161249a565b955050602061296a8882890161249a565b945050604086013567ffffffffffffffff81111561298b5761298a61244c565b5b6129978882890161284c565b935050606086013567ffffffffffffffff8111156129b8576129b761244c565b5b6129c48882890161284c565b925050608086013567ffffffffffffffff8111156129e5576129e461244c565b5b6129f188828901612901565b9150509295509295909350565b600067ffffffffffffffff821115612a1957612a18612737565b5b602082029050602081019050919050565b6000612a3d612a38846129fe565b612797565b90508083825260208201905060208402830185811115612a6057612a5f6127de565b5b835b81811015612a895780612a75888261249a565b845260208401935050602081019050612a62565b5050509392505050565b600082601f830112612aa857612aa7612732565b5b8135612ab8848260208601612a2a565b91505092915050565b60008060408385031215612ad857612ad7612447565b5b600083013567ffffffffffffffff811115612af657612af561244c565b5b612b0285828601612a93565b925050602083013567ffffffffffffffff811115612b2357612b2261244c565b5b612b2f8582860161284c565b9150509250929050565b600081519050919050565b600082825260208201905092915050565b6000819050602082019050919050565b612b6e816124af565b82525050565b6000612b808383612b65565b60208301905092915050565b6000602082019050919050565b6000612ba482612b39565b612bae8185612b44565b9350612bb983612b55565b8060005b83811015612bea578151612bd18882612b74565b9750612bdc83612b8c565b925050600181019050612bbd565b5085935050505092915050565b60006020820190508181036000830152612c118184612b99565b905092915050565b612c22816125d4565b8114612c2d57600080fd5b50565b600081359050612c3f81612c19565b92915050565b60008060408385031215612c5c57612c5b612447565b5b6000612c6a8582860161249a565b9250506020612c7b85828601612c30565b9150509250929050565b7f4e487b7100000000000000000000000000000000000000000000000000000000600052602160045260246000fd5b60028110612cc557612cc4612c85565b5b50565b6000819050612cd682612cb4565b919050565b6000612ce682612cc8565b9050919050565b612cf681612cdb565b82525050565b6000602082019050612d116000830184612ced565b92915050565b600081519050919050565b600082825260208201905092915050565b6000819050602082019050919050565b6000612d4e82612451565b9050919050565b612d5e81612d43565b82525050565b612d6d816125d4565b82525050565b60a082016000820151612d896000850182612b65565b506020820151612d9c6020850182612b65565b506040820151612daf6040850182612b65565b506060820151612dc26060850182612d55565b506080820151612dd56080850182612d64565b50505050565b6000612de78383612d73565b60a08301905092915050565b6000602082019050919050565b6000612e0b82612d17565b612e158185612d22565b9350612e2083612d33565b8060005b83811015612e51578151612e388882612ddb565b9750612e4383612df3565b925050600181019050612e24565b5085935050505092915050565b60006020820190508181036000830152612e788184612e00565b905092915050565b612e898161254f565b82525050565b6000602082019050612ea46000830184612e80565b92915050565b60a082016000820151612ec06000850182612b65565b506020820151612ed36020850182612b65565b506040820151612ee66040850182612b65565b506060820151612ef96060850182612d55565b506080820151612f0c6080850182612d64565b50505050565b600060a082019050612f276000830184612eaa565b92915050565b60008060408385031215612f4457612f43612447565b5b6000612f528582860161249a565b9250506020612f638582860161249a565b9150509250929050565b600080600080600060a08688031215612f8957612f88612447565b5b6000612f978882890161249a565b9550506020612fa88882890161249a565b9450506040612fb9888289016124d0565b9350506060612fca888289016124d0565b925050608086013567ffffffffffffffff811115612feb57612fea61244c565b5b612ff788828901612901565b9150509295509295909350565b60006020828403121561301a57613019612447565b5b60006130288482850161249a565b91505092915050565b7f455243313135353a2062616c616e636520717565727920666f7220746865207a60008201527f65726f2061646472657373000000000000000000000000000000000000000000602082015250565b600061308d602b83612642565b915061309882613031565b604082019050919050565b600060208201905081810360008301526130bc81613080565b9050919050565b7f4e487b7100000000000000000000000000000000000000000000000000000000600052602260045260246000fd5b6000600282049050600182168061310a57607f821691505b6020821081141561311e5761311d6130c3565b5b50919050565b7f4e487b7100000000000000000000000000000000000000000000000000000000600052601160045260246000fd5b600061315e826124af565b9150613169836124af565b92508282101561317c5761317b613124565b5b828203905092915050565b61319081612471565b82525050565b60006040820190506131ab6000830185613187565b6131b86020830184612525565b9392505050565b7f4974656d206e6f7420666f756e642e0000000000000000000000000000000000600082015250565b60006131f5600f83612642565b9150613200826131bf565b602082019050919050565b60006020820190508181036000830152613224816131e8565b9050919050565b6000613236826124af565b91507fffffffffffffffffffffffffffffffffffffffffffffffffffffffffffffffff82141561326957613268613124565b5b600182019050919050565b60006060820190506132896000830186613187565b6132966020830185612525565b6132a36040830184612525565b949350505050565b7f455243313135353a207472616e736665722063616c6c6572206973206e6f742060008201527f6f776e6572206e6f7220617070726f7665640000000000000000000000000000602082015250565b6000613307603283612642565b9150613312826132ab565b604082019050919050565b60006020820190508181036000830152613336816132fa565b9050919050565b6000613348826124af565b9150613353836124af565b9250827fffffffffffffffffffffffffffffffffffffffffffffffffffffffffffffffff0382111561338857613387613124565b5b828201905092915050565b600061339e826124af565b915060008214156133b2576133b1613124565b5b600182039050919050565b7f455243313135353a206163636f756e747320616e6420696473206c656e67746860008201527f206d69736d617463680000000000000000000000000000000000000000000000602082015250565b6000613419602983612642565b9150613424826133bd565b604082019050919050565b600060208201905081810360008301526134488161340c565b9050919050565b7f4e487b7100000000000000000000000000000000000000000000000000000000600052603260045260246000fd5b7f4e487b7100000000000000000000000000000000000000000000000000000000600052601260045260246000fd5b60006134b8826124af565b91506134c3836124af565b9250826134d3576134d261347e565b5b828204905092915050565b6000819050919050565b60006135036134fe6134f984612451565b6134de565b612451565b9050919050565b6000613515826134e8565b9050919050565b60006135278261350a565b9050919050565b6135378161351c565b82525050565b60006080820190506135526000830187613187565b61355f602083018661352e565b61356c6040830185612525565b6135796060830184612525565b95945050505050565b7f455243313135353a2063616c6c6572206973206e6f74206f776e6572206e6f7260008201527f20617070726f7665640000000000000000000000000000000000000000000000602082015250565b60006135de602983612642565b91506135e982613582565b604082019050919050565b6000602082019050818103600083015261360d816135d1565b9050919050565b7f455243313135353a206275726e2066726f6d20746865207a65726f206164647260008201527f6573730000000000000000000000000000000000000000000000000000000000602082015250565b6000613670602383612642565b915061367b82613614565b604082019050919050565b6000602082019050818103600083015261369f81613663565b9050919050565b7f455243313135353a206275726e20616d6f756e7420657863656564732062616c60008201527f616e636500000000000000000000000000000000000000000000000000000000602082015250565b6000613702602483612642565b915061370d826136a6565b604082019050919050565b60006020820190508181036000830152613731816136f5565b9050919050565b600060408201905061374d6000830185612525565b61375a6020830184612525565b9392505050565b7f455243313135353a207472616e7366657220746f20746865207a65726f20616460008201527f6472657373000000000000000000000000000000000000000000000000000000602082015250565b60006137bd602583612642565b91506137c882613761565b604082019050919050565b600060208201905081810360008301526137ec816137b0565b9050919050565b7f455243313135353a20696e73756666696369656e742062616c616e636520666f60008201527f72207472616e7366657200000000000000000000000000000000000000000000602082015250565b600061384f602a83612642565b915061385a826137f3565b604082019050919050565b6000602082019050818103600083015261387e81613842565b9050919050565b7f455243313135353a2069647320616e6420616d6f756e7473206c656e6774682060008201527f6d69736d61746368000000000000000000000000000000000000000000000000602082015250565b60006138e1602883612642565b91506138ec82613885565b604082019050919050565b60006020820190508181036000830152613910816138d4565b9050919050565b600060408201905081810360008301526139318185612b99565b905081810360208301526139458184612b99565b90509392505050565b7f455243313135353a2073657474696e6720617070726f76616c2073746174757360008201527f20666f722073656c660000000000000000000000000000000000000000000000602082015250565b60006139aa602983612642565b91506139b58261394e565b604082019050919050565b600060208201905081810360008301526139d98161399d565b9050919050565b600081519050919050565b600082825260208201905092915050565b6000613a07826139e0565b613a1181856139eb565b9350613a21818560208601612653565b613a2a81612686565b840191505092915050565b600060a082019050613a4a6000830188613187565b613a576020830187613187565b613a646040830186612525565b613a716060830185612525565b8181036080830152613a8381846139fc565b90509695505050505050565b600081519050613a9e8161257b565b92915050565b600060208284031215613aba57613ab9612447565b5b6000613ac884828501613a8f565b91505092915050565b60008160e01c9050919050565b600060033d1115613afd5760046000803e613afa600051613ad1565b90505b90565b600060443d1015613b1057613b93565b613b1861243d565b60043d036004823e80513d602482011167ffffffffffffffff82111715613b40575050613b93565b808201805167ffffffffffffffff811115613b5e5750505050613b93565b80602083010160043d038501811115613b7b575050505050613b93565b613b8a82602001850186612766565b82955050505050505b90565b7f455243313135353a207472616e7366657220746f206e6f6e204552433131353560008201527f526563656976657220696d706c656d656e746572000000000000000000000000602082015250565b6000613bf2603483612642565b9150613bfd82613b96565b604082019050919050565b60006020820190508181036000830152613c2181613be5565b9050919050565b7f455243313135353a204552433131353552656365697665722072656a6563746560008201527f6420746f6b656e73000000000000000000000000000000000000000000000000602082015250565b6000613c84602883612642565b9150613c8f82613c28565b604082019050919050565b60006020820190508181036000830152613cb381613c77565b9050919050565b600060a082019050613ccf6000830188613187565b613cdc6020830187613187565b8181036040830152613cee8186612b99565b90508181036060830152613d028185612b99565b90508181036080830152613d1681846139fc565b9050969550505050505056fea2646970667358221220c84cee0dc484ea147f9bc82afedb86050375ee842980a2a296a3cedd817889b764736f6c634300080a0033",
  "immutableReferences": {},
  "source": "// SPDX-License-Identifier: MIT\r\n\r\npragma solidity ^0.8.7;\r\n\r\n// import \"../node_modules/@openzeppelin/contracts/access/AccessControl.sol\";\r\nimport \"../node_modules/@openzeppelin/contracts/token/ERC1155/ERC1155.sol\";\r\n// import \"../node_modules/@openzeppelin/contracts/token/ERC721/IERC721.sol\";\r\n// import \"../node_modules/@chainlink/contracts/src/v0.8/interfaces/VRFCoordinatorV2Interface.sol\"; // to work with COORDINATOR and VRF\r\n// import \"../node_modules/@chainlink/contracts/src/v0.8/VRFConsumerBaseV2.sol\"; // to use functionalities for Chainlink VRF\r\nimport \"../node_modules/@openzeppelin/contracts/token/ERC1155/utils/ERC1155Holder.sol\";\r\n\r\n\r\ncontract TokenizedCommerce is ERC1155, /*AccessControl,VRFConsumerBaseV2 ,*/  ERC1155Holder{ // VRFv2SubscriptionManager\r\n   \r\n  /**\r\n  * @notice Enum for Contract state -> to let user enter call some functions or not\r\n  */\r\n  enum ContractState {   \r\n    Active,\r\n    Inactive\r\n  }\r\n\r\n  /**\r\n  * @notice Struct for Items on the Marketplace\r\n  */\r\n  uint private _marketCount;\r\n  struct itemOnSale{\r\n        uint tokenId;\r\n        uint marketItemId;\r\n        uint price;\r\n        address payable seller;\r\n        bool sold;\r\n  }\r\n\r\n  /// @notice tokens\r\n  // IERC721 COMMERCE_NFT;\r\n  // address public constant i_NFTAddress = the address of the NFT contract;\r\n  \r\n  \r\n  /// @notice Standard variables\r\n  // bytes32 public constant ADMIN_ROLE = 0x00;\r\n  address private _owner;\r\n  uint256 private s_maxTotalSupply;\r\n  uint256 private s_tokenCount;\r\n  uint256 public casePrice; \r\n  bool public contractActive = true;\r\n  ContractState public s_contractState;\r\n  itemOnSale[] _marketItems;\r\n\r\n  /// @notice VRF Variables\r\n  // VRFCoordinatorV2Interface public immutable i_vrfCoordinator; \r\n  // bytes32 public immutable i_gasLane;\r\n  // uint64 public immutable i_subscriptionId;\r\n  // uint32 public immutable i_callbackGasLimit;\r\n  // uint16 public constant REQUEST_CONFIRMATIONS = 1; \r\n  // uint32 public constant NUM_WORDS = 1; \r\n  // uint256 public s_randomWord; // random Number we get from Chainlink VRF\r\n  \r\n  /// @notice Mappings\r\n\r\n  mapping(uint => uint) private s_maxSupply;\r\n  mapping (uint256 => string) private s_uris; \r\n\r\n  /// @notice Events\r\n  event CaseOpened(address user, uint256 casePrice, uint256 item);\r\n  event casePriceChanged(uint256 newPrice);\r\n  event itemExchanged(address user, uint256 tokenId);\r\n  event sellingItem(address user, uint256 tokenId, uint256 price);\r\n  event itemBought(address buyer, address seller, uint256 marketItemId, uint256 price);\r\n  \r\n  /// @notice Modifiers\r\n  /// @notice Check that person calling a function is the owner of the Contract\r\n  modifier onlyOwner() {\r\n      require(msg.sender == _owner, \"User is not the owner\");\r\n      _;\r\n  }\r\n\r\n  /// @notice Check that user is Member \r\n  // modifier onlyVIP() {\r\n  //     require(isVip(msg.sender), \"User is not golden member\");\r\n  //     _;\r\n  // }\r\n\r\n  // modifier onlyOwnerOrAdmin() {\r\n  //   require(_isOwnerOrAdmin(msg.sender), \"User is not the Owner or an Admin\");\r\n  //   _;\r\n  // }\r\n\r\n  /// @notice Check if contract state is Active\r\n  modifier contractIsActive() {\r\n    require(s_contractState == ContractState.Active, \"Contract is not active at this moment\");\r\n    _;\r\n  }\r\n\r\n  constructor(/*address vrfCoordinatorV2, bytes32 gasLane, uint64 subscriptionId, uint32 callbackGasLimit*, commerceNFTAddress  */) \r\n  // VRFConsumerBaseV2(vrfCoordinatorV2)\r\n  ERC1155(\"\"){\r\n    /**\r\n    * Initialization of Chainlink VRF variables\r\n    // */\r\n    // i_vrfCoordinator = VRFCoordinatorV2Interface(vrfCoordinatorV2); \r\n    // i_gasLane = gasLane; \r\n    // i_subscriptionId = subscriptionId;\r\n    // i_callbackGasLimit = callbackGasLimit; \r\n\r\n    /**\r\n    * Initialization of  contract variables\r\n    */\r\n    // COMMERCE_NFT = IERC721(commerceNFTAddress);\r\n\r\n    _owner = msg.sender;\r\n    s_tokenCount = 0;\r\n    casePrice = 0;\r\n    s_contractState = ContractState.Active;\r\n\r\n\r\n\r\n    _mintSupply(address(this), 100000);   \r\n    _mintSupply(address(this), 80000); \r\n    _mintSupply(address(this), 50000); \r\n    _mintSupply(address(this), 30000); \r\n    _mintSupply(address(this), 10000); \r\n    _mintSupply(address(this), 1000); \r\n\r\n  \r\n  }\r\n\r\n  /** \r\n  * @notice Need to override supportsInterface function because Contract is ERC1155 and AccessControl\r\n  */\r\n  function supportsInterface(bytes4 interfaceId) public view virtual override(ERC1155, ERC1155Receiver/*, AccessControl*/) returns (bool) {\r\n    return super.supportsInterface(interfaceId);\r\n  }\r\n\r\n\r\n  // FUNCTIONS RELATED WITH THE CASE\r\n\r\n  /**\r\n  * @notice Change price of the box\r\n  * @dev Only callable by the Owner\r\n  */\r\n  // function setCasePrice(uint256 price) public onlyOwnerOrAdmin {\r\n  //   casePrice = price;\r\n  //   emit casePriceChanged(price);\r\n  // }\r\n\r\n  /**\r\n  * @notice View case price\r\n  */\r\n  function getCasePrice() public view returns(uint256) {\r\n    return casePrice;\r\n  }\r\n\r\n  /**\r\n  * @notice Used to get an actually Random Number -> to pick an item when openning a case\r\n  * @dev Uses Chainlink VRF -> call requestRandomWords method by using o_vrfCoordinator object\r\n  * set as internal because is going to be called only when a case is opened\r\n  */\r\n  function _randomNumber() internal returns(uint256) {\r\n    // uint256 s_requestedNumber = i_vrfCoordinator.requestRandomWords(i_gasLane, i_subscriptionId, REQUEST_CONFIRMATIONS, i_callbackGasLimit, NUM_WORDS);\r\n    // return s_requestedNumber;\r\n    return 2;\r\n  }\r\n\r\n  /**\r\n  * @notice Function to actually pick a winner \r\n  * @dev \r\n  * - randomWords -> array of randomWords\r\n  */\r\n  // function fulfillRandomWords(uint256 /* requestId */, uint256[] memory randomWords) internal override {\r\n  //   s_randomWord = randomWords[0]; // just in case random number is very long we apply modular function \r\n  // }\r\n\r\n   /**\r\n  * @notice Function used to 'open a case' and get an item\r\n  * @dev \r\n  * - Should check that msg.value is bigger than casePrice\r\n  * - Should transfer msg.value to the contract\r\n  * - Internally calls randomNumber() \r\n  * - Apply modular function for the randomNumber to be between 0 and totalSupply of items\r\n  * - Should choose an item\r\n  */\r\n  function openCase() public  payable {  /*onlyVIP contractIsActive*/\r\n    require(msg.value==casePrice);\r\n    uint256 randomNumber = _randomNumber();  //% s_maxTotalSupply; Get Random Number between 0 and totalSupply\r\n    uint256 totalCount = 0;\r\n    uint256 item;\r\n\r\n    for(uint256 i = 0 ; i < s_tokenCount; i++) {\r\n      uint256 _newTotalCount = totalCount + s_maxSupply[i] ;\r\n      if(randomNumber > totalCount) {\r\n        totalCount = _newTotalCount;\r\n      }else {\r\n        item = i-1;\r\n        if(balanceOf(address(this),item)==0){\r\n          for(uint256 j = i-2; j >= 0; j--){\r\n            if (balanceOf(address(this),j)>0){\r\n              item = j;\r\n              break;\r\n            }\r\n          }\r\n        }\r\n        _safeTransferFrom(address(this), msg.sender, item , 1,\"\");\r\n        break;\r\n      }\r\n    }\r\n    emit CaseOpened(msg.sender, casePrice, item);\r\n  }\r\n\r\n\r\n  // FUNCTIONS RELATED TO ITEMS\r\n\r\n  /**\r\n  * @notice Returns maxSupply of specific item (by tokenId)\r\n  * @dev - Getter of s_maxSupply mapping\r\n  */\r\n  function supplyOfItem(uint256 tokenId) public view returns(uint) {\r\n    return s_maxSupply[tokenId];\r\n  }\r\n\r\n  /**\r\n  * @notice Check that item exists (by tokenId)\r\n  */\r\n  function _itemExists(uint256 tokenId) internal view returns (bool) {\r\n    require(s_maxSupply[tokenId] > 0);\r\n    return true;\r\n  }\r\n\r\n  /**\r\n  * @notice Calculate chance of receiving an specific item\r\n  * @dev - Requires that tokenId exists (item is listed)\r\n  * - chance is calculated as item supply divided by total items supply\r\n  */\r\n  function _chanceOfItem(uint256 tokenId) public virtual view returns(uint256) {\r\n    require(_itemExists(tokenId));\r\n    uint256 result = s_maxSupply[tokenId] / s_maxTotalSupply;\r\n    return result;\r\n  }\r\n\r\n  /**\r\n  * @notice Returns all the items inside the user's inventory (Could be used by the\r\n  * user to check his inventory or to check someone else inventory by address)\r\n  * @dev Copy users inventory in an empty array and returns it\r\n  */\r\n  function viewItems(address owner) public view returns(uint256[] memory) { \r\n    uint256[] memory inventory = new uint [](s_tokenCount + 1);\r\n    for(uint256 i=0 ; i<inventory.length; i++) {\r\n      inventory[i]=balanceOf(owner,i);\r\n    }\r\n    return inventory;\r\n  }\r\n\r\n  /**\r\n  * @notice List a new item to the avaliable collection\r\n  * @dev Only callable by the Owner\r\n  */\r\n  // function listItem(uint256 itemSupply) public onlyOwnerOrAdmin {\r\n  //   _mintSupply(address(this), itemSupply);\r\n  // }\r\n\r\n  /**\r\n  * @notice Mint supply tokens of each Item\r\n  * @dev Declared internal because it is called inside the contructor\r\n  * - call _mint function\r\n  * - call set maxSupply function\r\n  * - updates TotalMaxSupply of Items\r\n  * - updates s_tokenCount -> Each items has associated an Id (e.g: Jeans -> Id: 0, Hoddie -> Id: 1,\r\n  * we increment s_tokenCount so next time we call _mintSupply a new type of item is going to be minted)\r\n  * - The items (tokens are minted by this contract and deposited into this contract address)\r\n  */\r\n  function _mintSupply(address receiver, uint256 amount) internal {\r\n      _mint(receiver, s_tokenCount, amount, \"\");\r\n      _setMaxSupply(s_tokenCount, amount);\r\n      s_maxTotalSupply += amount;\r\n      s_tokenCount += 1;\r\n  }\r\n\r\n  /**\r\n  * @notice Function used to set maxSupply of each item\r\n  */\r\n  function _setMaxSupply(uint256 tokenId, uint256 amount) internal {\r\n      s_maxSupply[tokenId] = amount;\r\n  }\r\n\r\n\r\n  // FUNCTIONS RELATED TO THE \"MARKETPLACE\"\r\n\r\n  /**\r\n  * @notice Function used to sell an item on the marketplace\r\n  * @dev\r\n  * - Needs to check balanceOf item trying to be sold\r\n  * - Needs to transfer item \r\n  * - Update marketItems array\r\n  * - Emit event \r\n  */\r\n  function sellItem(uint256 tokenId, uint256 price) public {\r\n    require(balanceOf(msg.sender, tokenId) > 0, \"Item not found.\");\r\n    _safeTransferFrom(msg.sender, address(this), tokenId, 1 ,\"\");\r\n    _marketItems.push(\r\n      itemOnSale(\r\n        tokenId,\r\n        _marketCount,\r\n        price,\r\n        payable(msg.sender),\r\n        false\r\n      )\r\n    );\r\n    _marketCount++;\r\n    emit sellingItem(msg.sender, tokenId, price);\r\n  }\r\n\r\n  /**\r\n  * @notice Function used to exchange a token item for a real physical clothe.\r\n  */\r\n  function exchangeItem(uint256 tokenId) public {\r\n    require(balanceOf(msg.sender, tokenId) > 0);\r\n     _burn(msg.sender, tokenId, 1);\r\n     s_maxSupply[tokenId] -= 1;\r\n     s_maxTotalSupply -=1;\r\n     emit itemExchanged(msg.sender, tokenId);\r\n  }\r\n\r\n  /**\r\n  * @notice Function used to buy an item on the marketplace\r\n  * @dev\r\n  * - Needs to transfer tokens from buyer to seller\r\n  * - Needs to transfer item from seller to buyer\r\n  * - Update sold attribute from array\r\n  * - Emit event \r\n  */\r\n  function buyItem(uint256 marketItemId) public payable {\r\n    \r\n    itemOnSale memory item = _marketItems[marketItemId];\r\n    require(msg.value==item.price);\r\n    payable(item.seller).transfer(item.price);\r\n    _safeTransferFrom(address(this), msg.sender, item.tokenId, 1 ,\"\");\r\n    item.sold = true;\r\n    emit itemBought(msg.sender, item.seller, marketItemId, item.price);\r\n  }\r\n\r\n  /**\r\n  * @notice Functions used to return items that are currently on sale\r\n  */\r\n  function getMarketItem(uint marketItemId) public returns(itemOnSale memory){\r\n    return _marketItems[marketItemId];\r\n  }\r\n\r\n  function getItemsOnSale() public view returns(itemOnSale[] memory) {\r\n    uint arrayLength;\r\n    for(uint i=0; i<_marketItems.length;i++){\r\n      itemOnSale memory  item = _marketItems[i];\r\n      if(item.sold==false){\r\n        arrayLength+=1;\r\n      }\r\n    }\r\n    itemOnSale[] memory items = new itemOnSale[](arrayLength);\r\n    uint indexCount;\r\n    for(uint256 i = 0; i < _marketItems.length; i++){\r\n      itemOnSale memory  item = _marketItems[i];\r\n      if(item.sold==false){\r\n        items[indexCount]=item;\r\n        indexCount++;\r\n\r\n      }\r\n    }\r\n    return items;\r\n  }\r\n\r\n  // FUNCTIONS RELATED TO \"USERS\"\r\n\r\n  /**\r\n  *Requires that user owns an NFT of the company\r\n  */\r\n  // function isVip(address user) public view returns(bool){\r\n  //   require(COMMERCE_NFT.balanceOf(user) > 0);\r\n  //   return true;\r\n  // }\r\n\r\n  /**\r\n  * @notice Check if user is owner of the Contract or has admin role\r\n  * @dev Only callable by the Owner\r\n  */\r\n  // function _isOwnerOrAdmin(address user) internal view returns (bool) {\r\n  //     require(_owner == user || hasRole(ADMIN_ROLE, user));\r\n  //     return true;\r\n  // }\r\n\r\n \r\n\r\n  /**\r\n  * @notice Set new Admin\r\n  * @dev Only callable by the Owner\r\n  */\r\n  // function setAdmin(address _newAdmin) public onlyOwner {\r\n  //   _setupRole(ADMIN_ROLE, _newAdmin);\r\n  // }\r\n\r\n  // FUNCTIONS RELATED WITH THE CONTRACT\r\n\r\n  /**\r\n  * @notice Change contract state from Active to Inactive and viceversa\r\n  * @dev Only callable by the Owner or an admin\r\n  */\r\n  // function flipContractState() public onlyOwnerOrAdmin {\r\n  //   if (s_contractState == ContractState.Active) {\r\n  //     s_contractState = ContractState.Inactive;\r\n  //   }else {\r\n  //     s_contractState = ContractState.Active;\r\n  //   }\r\n  // }\r\n\r\n  // FUNCTIONS RELATED TO ERC1155 TOKENS\r\n\r\n  /**\r\n  * @notice Used to return token URI by inserting tokenID\r\n  * @dev - returns information stored in s_uris mapping\r\n  * - Any user can check this information\r\n  */\r\n  // function uri(uint256 tokenId) override public view returns (string memory) {\r\n  //   return(s_uris[tokenId]);\r\n  // }\r\n\r\n  // /**\r\n  // * @notice Used to set tokenURI to specific item \r\n  // * @dev - Only Owner or Admins can call this function\r\n  // * - Need to specify:\r\n  // *  - tokenId: specific item you want to set its uri\r\n  // *  - uri: uri wanted to be set\r\n  // */\r\n  // function setTokenUri(uint256 tokenId, string memory _uri) public onlyOwnerOrAdmin {\r\n  //       require(bytes(s_uris[tokenId]).length == 0, \"Can not set uri twice\"); \r\n  //       s_uris[tokenId] = _uri; \r\n  // }\r\n\r\n  \r\n  // FUNCTIONS RELATED TO FUNDS\r\n  \r\n  /**\r\n  * @notice Used to withdraw specific amount of funds\r\n  * @dev \r\n  * - Only owner is able to call this function\r\n  * - Should check that there are avaliable funds to withdraw\r\n  * - Should specify the wallet address you want to transfer the funds to\r\n  * - Should specify the amount of funds you want to transfer\r\n  // */\r\n  // function withdrawFunds(address wallet, uint256 amount) public onlyOwner {\r\n  //   require(address(this).balance >=amount , \"Not enough funds to withdraw\");\r\n  //   payable(wallet).transfer(amount);\r\n  // }\r\n\r\n  // /**\r\n  // * @notice Used to withdraw ALL funds\r\n  // * @dev \r\n  // * - Only owner is able to call this function\r\n  // * - Should check that there are avaliable funds to withdraw\r\n  // * - Should specify the wallet address you want to transfer the funds to\r\n  // */\r\n  // function withdrawAllFunds(address wallet) public onlyOwner {\r\n  //   require(address(this).balance > 0, \"No funds to withdraw\");\r\n  //   payable(wallet).transfer(address(this).balance);\r\n  // }\r\n\r\n  // /// @notice Receive function\r\n  // receive() external payable {\r\n  // }\r\n}",
  "sourcePath": "C:\\Users\\oteri\\Desktop\\jj\\racs-items\\racks-items-frontend\\contracts\\TokenizedCommerce.sol",
  "compiler": {
    "name": "solc",
    "version": "0.8.10+commit.fc410830.Emscripten.clang"
  },
  "schemaVersion": "3.4.3",
  "updatedAt": "2022-05-22T12:33:41.017Z",
  "networkType": "ethereum",
  "devdoc": {
    "kind": "dev",
    "methods": {
      "_chanceOfItem(uint256)": {
        "details": "- Requires that tokenId exists (item is listed) - chance is calculated as item supply divided by total items supply"
      },
      "balanceOf(address,uint256)": {
        "details": "See {IERC1155-balanceOf}. Requirements: - `account` cannot be the zero address."
      },
      "balanceOfBatch(address[],uint256[])": {
        "details": "See {IERC1155-balanceOfBatch}. Requirements: - `accounts` and `ids` must have the same length."
      },
      "buyItem(uint256)": {
        "details": "- Needs to transfer tokens from buyer to seller - Needs to transfer item from seller to buyer - Update sold attribute from array - Emit event "
      },
      "isApprovedForAll(address,address)": {
        "details": "See {IERC1155-isApprovedForAll}."
      },
      "openCase()": {
        "details": " - Should check that msg.value is bigger than casePrice - Should transfer msg.value to the contract - Internally calls randomNumber()  - Apply modular function for the randomNumber to be between 0 and totalSupply of items - Should choose an item"
      },
      "safeBatchTransferFrom(address,address,uint256[],uint256[],bytes)": {
        "details": "See {IERC1155-safeBatchTransferFrom}."
      },
      "safeTransferFrom(address,address,uint256,uint256,bytes)": {
        "details": "See {IERC1155-safeTransferFrom}."
      },
      "sellItem(uint256,uint256)": {
        "details": "- Needs to check balanceOf item trying to be sold - Needs to transfer item  - Update marketItems array - Emit event "
      },
      "setApprovalForAll(address,bool)": {
        "details": "See {IERC1155-setApprovalForAll}."
      },
      "supplyOfItem(uint256)": {
        "details": "- Getter of s_maxSupply mapping"
      },
      "uri(uint256)": {
        "details": "See {IERC1155MetadataURI-uri}. This implementation returns the same URI for *all* token types. It relies on the token type ID substitution mechanism https://eips.ethereum.org/EIPS/eip-1155#metadata[defined in the EIP]. Clients calling this function must replace the `\\{id\\}` substring with the actual token type ID."
      },
      "viewItems(address)": {
        "details": "Copy users inventory in an empty array and returns it"
      }
    },
    "version": 1
  },
  "userdoc": {
    "events": {
      "CaseOpened(address,uint256,uint256)": {
        "notice": "Events"
      }
    },
    "kind": "user",
    "methods": {
      "_chanceOfItem(uint256)": {
        "notice": "Calculate chance of receiving an specific item"
      },
      "buyItem(uint256)": {
        "notice": "Function used to buy an item on the marketplace"
      },
      "exchangeItem(uint256)": {
        "notice": "Function used to exchange a token item for a real physical clothe."
      },
      "getCasePrice()": {
        "notice": "View case price"
      },
      "getMarketItem(uint256)": {
        "notice": "Functions used to return items that are currently on sale"
      },
      "openCase()": {
        "notice": "Function used to 'open a case' and get an item"
      },
      "sellItem(uint256,uint256)": {
        "notice": "Function used to sell an item on the marketplace"
      },
      "supplyOfItem(uint256)": {
        "notice": "Returns maxSupply of specific item (by tokenId)"
      },
      "supportsInterface(bytes4)": {
        "notice": "Need to override supportsInterface function because Contract is ERC1155 and AccessControl"
      },
      "viewItems(address)": {
        "notice": "Returns all the items inside the user's inventory (Could be used by the user to check his inventory or to check someone else inventory by address)"
      }
    },
    "version": 1
  }
}